{
  "_format": "hh-sol-artifact-1",
  "contractName": "ManifestDispatcher",
  "sourceName": "contracts/dispacher/ManifestDispacher.sol",
  "abi": [
    {
      "inputs": [
        {
          "internalType": "address",
          "name": "admin",
          "type": "address"
        },
        {
          "internalType": "uint64",
          "name": "activationDelaySeconds",
          "type": "uint64"
        }
      ],
      "stateMutability": "nonpayable",
      "type": "constructor"
    },
    {
      "inputs": [],
      "name": "AccessControlBadConfirmation",
      "type": "error"
    },
    {
      "inputs": [
        {
          "internalType": "address",
          "name": "account",
          "type": "address"
        },
        {
          "internalType": "bytes32",
          "name": "neededRole",
          "type": "bytes32"
        }
      ],
      "name": "AccessControlUnauthorizedAccount",
      "type": "error"
    },
    {
      "inputs": [
        {
          "internalType": "uint64",
          "name": "newDelay",
          "type": "uint64"
        }
      ],
      "name": "ActivationDelayOutOfRange",
      "type": "error"
    },
    {
      "inputs": [
        {
          "internalType": "uint64",
          "name": "earliest",
          "type": "uint64"
        },
        {
          "internalType": "uint64",
          "name": "nowTs",
          "type": "uint64"
        }
      ],
      "name": "ActivationNotReady",
      "type": "error"
    },
    {
      "inputs": [],
      "name": "BadEpoch",
      "type": "error"
    },
    {
      "inputs": [
        {
          "internalType": "uint256",
          "name": "n",
          "type": "uint256"
        }
      ],
      "name": "BatchTooLarge",
      "type": "error"
    },
    {
      "inputs": [
        {
          "internalType": "address",
          "name": "facet",
          "type": "address"
        },
        {
          "internalType": "uint256",
          "name": "size",
          "type": "uint256"
        }
      ],
      "name": "CodeSizeExceeded",
      "type": "error"
    },
    {
      "inputs": [],
      "name": "CodehashMismatch",
      "type": "error"
    },
    {
      "inputs": [
        {
          "internalType": "bytes4",
          "name": "selector",
          "type": "bytes4"
        }
      ],
      "name": "DuplicateSelector",
      "type": "error"
    },
    {
      "inputs": [],
      "name": "EnforcedPause",
      "type": "error"
    },
    {
      "inputs": [],
      "name": "ExpectedPause",
      "type": "error"
    },
    {
      "inputs": [
        {
          "internalType": "address",
          "name": "facet",
          "type": "address"
        },
        {
          "internalType": "bytes32",
          "name": "expected",
          "type": "bytes32"
        },
        {
          "internalType": "bytes32",
          "name": "actual",
          "type": "bytes32"
        }
      ],
      "name": "FacetCodeMismatch",
      "type": "error"
    },
    {
      "inputs": [],
      "name": "FacetIsSelf",
      "type": "error"
    },
    {
      "inputs": [
        {
          "internalType": "address",
          "name": "facet",
          "type": "address"
        }
      ],
      "name": "FacetUnknown",
      "type": "error"
    },
    {
      "inputs": [],
      "name": "FrozenContract",
      "type": "error"
    },
    {
      "inputs": [],
      "name": "InvalidProof",
      "type": "error"
    },
    {
      "inputs": [
        {
          "internalType": "uint8",
          "name": "level",
          "type": "uint8"
        }
      ],
      "name": "InvalidSecurityLevel",
      "type": "error"
    },
    {
      "inputs": [],
      "name": "LenMismatch",
      "type": "error"
    },
    {
      "inputs": [],
      "name": "NoPendingRoot",
      "type": "error"
    },
    {
      "inputs": [],
      "name": "NoRoute",
      "type": "error"
    },
    {
      "inputs": [
        {
          "internalType": "uint256",
          "name": "proofLength",
          "type": "uint256"
        },
        {
          "internalType": "uint256",
          "name": "positionLength",
          "type": "uint256"
        }
      ],
      "name": "ProofLengthMismatch",
      "type": "error"
    },
    {
      "inputs": [
        {
          "internalType": "uint256",
          "name": "length",
          "type": "uint256"
        },
        {
          "internalType": "uint256",
          "name": "maxLength",
          "type": "uint256"
        }
      ],
      "name": "ProofTooLong",
      "type": "error"
    },
    {
      "inputs": [],
      "name": "ReentrancyGuardReentrantCall",
      "type": "error"
    },
    {
      "inputs": [
        {
          "internalType": "string",
          "name": "reason",
          "type": "string"
        }
      ],
      "name": "RefactorSafetyFailed",
      "type": "error"
    },
    {
      "inputs": [],
      "name": "RootZero",
      "type": "error"
    },
    {
      "inputs": [
        {
          "internalType": "bytes4",
          "name": "expected",
          "type": "bytes4"
        },
        {
          "internalType": "bytes4",
          "name": "actual",
          "type": "bytes4"
        }
      ],
      "name": "SelectorMismatch",
      "type": "error"
    },
    {
      "inputs": [],
      "name": "ZeroAddress",
      "type": "error"
    },
    {
      "inputs": [
        {
          "internalType": "address",
          "name": "facet",
          "type": "address"
        }
      ],
      "name": "ZeroCodeFacet",
      "type": "error"
    },
    {
      "anonymous": false,
      "inputs": [
        {
          "indexed": false,
          "internalType": "uint64",
          "name": "oldDelay",
          "type": "uint64"
        },
        {
          "indexed": false,
          "internalType": "uint64",
          "name": "newDelay",
          "type": "uint64"
        }
      ],
      "name": "ActivationDelaySet",
      "type": "event"
    },
    {
      "anonymous": false,
      "inputs": [
        {
          "indexed": true,
          "internalType": "address",
          "name": "facet",
          "type": "address"
        },
        {
          "indexed": false,
          "internalType": "uint8",
          "name": "level",
          "type": "uint8"
        }
      ],
      "name": "FacetSecurityLevelSet",
      "type": "event"
    },
    {
      "anonymous": false,
      "inputs": [
        {
          "indexed": true,
          "internalType": "address",
          "name": "facet",
          "type": "address"
        },
        {
          "indexed": false,
          "internalType": "bytes32",
          "name": "versionTag",
          "type": "bytes32"
        }
      ],
      "name": "FacetVersionTagSet",
      "type": "event"
    },
    {
      "anonymous": false,
      "inputs": [],
      "name": "Frozen",
      "type": "event"
    },
    {
      "anonymous": false,
      "inputs": [
        {
          "indexed": true,
          "internalType": "uint64",
          "name": "oldVersion",
          "type": "uint64"
        },
        {
          "indexed": true,
          "internalType": "uint64",
          "name": "newVersion",
          "type": "uint64"
        }
      ],
      "name": "ManifestVersionUpdated",
      "type": "event"
    },
    {
      "anonymous": false,
      "inputs": [
        {
          "indexed": false,
          "internalType": "address",
          "name": "account",
          "type": "address"
        }
      ],
      "name": "Paused",
      "type": "event"
    },
    {
      "anonymous": false,
      "inputs": [
        {
          "indexed": true,
          "internalType": "bytes32",
          "name": "role",
          "type": "bytes32"
        },
        {
          "indexed": true,
          "internalType": "bytes32",
          "name": "previousAdminRole",
          "type": "bytes32"
        },
        {
          "indexed": true,
          "internalType": "bytes32",
          "name": "newAdminRole",
          "type": "bytes32"
        }
      ],
      "name": "RoleAdminChanged",
      "type": "event"
    },
    {
      "anonymous": false,
      "inputs": [
        {
          "indexed": true,
          "internalType": "bytes32",
          "name": "role",
          "type": "bytes32"
        },
        {
          "indexed": true,
          "internalType": "address",
          "name": "account",
          "type": "address"
        },
        {
          "indexed": true,
          "internalType": "address",
          "name": "sender",
          "type": "address"
        }
      ],
      "name": "RoleGranted",
      "type": "event"
    },
    {
      "anonymous": false,
      "inputs": [
        {
          "indexed": true,
          "internalType": "bytes32",
          "name": "role",
          "type": "bytes32"
        },
        {
          "indexed": true,
          "internalType": "address",
          "name": "account",
          "type": "address"
        },
        {
          "indexed": true,
          "internalType": "address",
          "name": "sender",
          "type": "address"
        }
      ],
      "name": "RoleRevoked",
      "type": "event"
    },
    {
      "anonymous": false,
      "inputs": [
        {
          "indexed": true,
          "internalType": "bytes32",
          "name": "root",
          "type": "bytes32"
        },
        {
          "indexed": true,
          "internalType": "uint64",
          "name": "epoch",
          "type": "uint64"
        }
      ],
      "name": "RootActivated",
      "type": "event"
    },
    {
      "anonymous": false,
      "inputs": [
        {
          "indexed": true,
          "internalType": "bytes32",
          "name": "root",
          "type": "bytes32"
        },
        {
          "indexed": true,
          "internalType": "uint64",
          "name": "epoch",
          "type": "uint64"
        }
      ],
      "name": "RootCommitted",
      "type": "event"
    },
    {
      "anonymous": false,
      "inputs": [
        {
          "indexed": true,
          "internalType": "bytes4",
          "name": "selector",
          "type": "bytes4"
        },
        {
          "indexed": true,
          "internalType": "address",
          "name": "facet",
          "type": "address"
        },
        {
          "indexed": false,
          "internalType": "bytes32",
          "name": "codehash",
          "type": "bytes32"
        }
      ],
      "name": "RouteAdded",
      "type": "event"
    },
    {
      "anonymous": false,
      "inputs": [
        {
          "indexed": true,
          "internalType": "bytes4",
          "name": "selector",
          "type": "bytes4"
        }
      ],
      "name": "RouteRemoved",
      "type": "event"
    },
    {
      "anonymous": false,
      "inputs": [
        {
          "indexed": true,
          "internalType": "bytes4",
          "name": "selector",
          "type": "bytes4"
        },
        {
          "indexed": true,
          "internalType": "address",
          "name": "oldFacet",
          "type": "address"
        },
        {
          "indexed": true,
          "internalType": "address",
          "name": "newFacet",
          "type": "address"
        }
      ],
      "name": "RouteUpdated",
      "type": "event"
    },
    {
      "anonymous": false,
      "inputs": [
        {
          "indexed": false,
          "internalType": "bytes4[]",
          "name": "selectors",
          "type": "bytes4[]"
        }
      ],
      "name": "RoutesRemoved",
      "type": "event"
    },
    {
      "anonymous": false,
      "inputs": [
        {
          "indexed": true,
          "internalType": "bytes4",
          "name": "selector",
          "type": "bytes4"
        },
        {
          "indexed": true,
          "internalType": "address",
          "name": "existingFacet",
          "type": "address"
        },
        {
          "indexed": true,
          "internalType": "address",
          "name": "newFacet",
          "type": "address"
        }
      ],
      "name": "SelectorConflict",
      "type": "event"
    },
    {
      "anonymous": false,
      "inputs": [
        {
          "indexed": false,
          "internalType": "address",
          "name": "account",
          "type": "address"
        }
      ],
      "name": "Unpaused",
      "type": "event"
    },
    {
      "stateMutability": "payable",
      "type": "fallback"
    },
    {
      "inputs": [],
      "name": "APPLY_ROLE",
      "outputs": [
        {
          "internalType": "bytes32",
          "name": "",
          "type": "bytes32"
        }
      ],
      "stateMutability": "view",
      "type": "function"
    },
    {
      "inputs": [],
      "name": "COMMIT_ROLE",
      "outputs": [
        {
          "internalType": "bytes32",
          "name": "",
          "type": "bytes32"
        }
      ],
      "stateMutability": "view",
      "type": "function"
    },
    {
      "inputs": [],
      "name": "DEFAULT_ADMIN_ROLE",
      "outputs": [
        {
          "internalType": "bytes32",
          "name": "",
          "type": "bytes32"
        }
      ],
      "stateMutability": "view",
      "type": "function"
    },
    {
      "inputs": [],
      "name": "EMERGENCY_ROLE",
      "outputs": [
        {
          "internalType": "bytes32",
          "name": "",
          "type": "bytes32"
        }
      ],
      "stateMutability": "view",
      "type": "function"
    },
    {
      "inputs": [],
      "name": "activateCommittedRoot",
      "outputs": [],
      "stateMutability": "nonpayable",
      "type": "function"
    },
    {
      "inputs": [],
      "name": "activationDelay",
      "outputs": [
        {
          "internalType": "uint64",
          "name": "",
          "type": "uint64"
        }
      ],
      "stateMutability": "view",
      "type": "function"
    },
    {
      "inputs": [],
      "name": "activeEpoch",
      "outputs": [
        {
          "internalType": "uint64",
          "name": "",
          "type": "uint64"
        }
      ],
      "stateMutability": "view",
      "type": "function"
    },
    {
      "inputs": [],
      "name": "activeRoot",
      "outputs": [
        {
          "internalType": "bytes32",
          "name": "",
          "type": "bytes32"
        }
      ],
      "stateMutability": "view",
      "type": "function"
    },
    {
      "inputs": [
        {
          "internalType": "address[]",
          "name": "facets_",
          "type": "address[]"
        },
        {
          "internalType": "bytes4[][]",
          "name": "selectors_",
          "type": "bytes4[][]"
        }
      ],
      "name": "adminRegisterUnsafe",
      "outputs": [],
      "stateMutability": "nonpayable",
      "type": "function"
    },
    {
      "inputs": [
        {
          "internalType": "bytes4",
          "name": "selector",
          "type": "bytes4"
        },
        {
          "internalType": "address",
          "name": "facetAddr",
          "type": "address"
        },
        {
          "internalType": "bytes32",
          "name": "codehash",
          "type": "bytes32"
        },
        {
          "internalType": "bytes32[]",
          "name": "proof",
          "type": "bytes32[]"
        },
        {
          "internalType": "bool[]",
          "name": "isRight_",
          "type": "bool[]"
        }
      ],
      "name": "applyRouteOne",
      "outputs": [],
      "stateMutability": "nonpayable",
      "type": "function"
    },
    {
      "inputs": [
        {
          "internalType": "bytes4[]",
          "name": "selectors",
          "type": "bytes4[]"
        },
        {
          "internalType": "address[]",
          "name": "facetAddrs",
          "type": "address[]"
        },
        {
          "internalType": "bytes32[]",
          "name": "codehashes",
          "type": "bytes32[]"
        },
        {
          "internalType": "bytes32[][]",
          "name": "proofs",
          "type": "bytes32[][]"
        },
        {
          "internalType": "bool[][]",
          "name": "isRight",
          "type": "bool[][]"
        }
      ],
      "name": "applyRoutes",
      "outputs": [],
      "stateMutability": "nonpayable",
      "type": "function"
    },
    {
      "inputs": [
        {
          "internalType": "address",
          "name": "",
          "type": "address"
        }
      ],
      "name": "checkStorageConflicts",
      "outputs": [
        {
          "internalType": "bytes32[]",
          "name": "conflicts_",
          "type": "bytes32[]"
        }
      ],
      "stateMutability": "view",
      "type": "function"
    },
    {
      "inputs": [
        {
          "internalType": "bytes32",
          "name": "newRoot",
          "type": "bytes32"
        },
        {
          "internalType": "uint64",
          "name": "newEpoch",
          "type": "uint64"
        }
      ],
      "name": "commitRoot",
      "outputs": [],
      "stateMutability": "nonpayable",
      "type": "function"
    },
    {
      "inputs": [
        {
          "internalType": "bytes4",
          "name": "selector",
          "type": "bytes4"
        }
      ],
      "name": "facetAddress",
      "outputs": [
        {
          "internalType": "address",
          "name": "",
          "type": "address"
        }
      ],
      "stateMutability": "view",
      "type": "function"
    },
    {
      "inputs": [
        {
          "internalType": "bytes4",
          "name": "functionSelector",
          "type": "bytes4"
        },
        {
          "internalType": "bytes32",
          "name": "requiredVersion",
          "type": "bytes32"
        }
      ],
      "name": "facetAddressEx",
      "outputs": [
        {
          "internalType": "address",
          "name": "facetAddress_",
          "type": "address"
        }
      ],
      "stateMutability": "view",
      "type": "function"
    },
    {
      "inputs": [],
      "name": "facetAddresses",
      "outputs": [
        {
          "internalType": "address[]",
          "name": "",
          "type": "address[]"
        }
      ],
      "stateMutability": "view",
      "type": "function"
    },
    {
      "inputs": [
        {
          "internalType": "bytes4[]",
          "name": "functionSelectors",
          "type": "bytes4[]"
        }
      ],
      "name": "facetAddressesBatchEx",
      "outputs": [
        {
          "internalType": "address[]",
          "name": "facetAddresses_",
          "type": "address[]"
        }
      ],
      "stateMutability": "view",
      "type": "function"
    },
    {
      "inputs": [
        {
          "internalType": "bool",
          "name": "includeUnsafe",
          "type": "bool"
        }
      ],
      "name": "facetAddressesEx",
      "outputs": [
        {
          "internalType": "address[]",
          "name": "facetAddresses_",
          "type": "address[]"
        }
      ],
      "stateMutability": "view",
      "type": "function"
    },
    {
      "inputs": [
        {
          "internalType": "address",
          "name": "facet",
          "type": "address"
        }
      ],
      "name": "facetFunctionSelectors",
      "outputs": [
        {
          "internalType": "bytes4[]",
          "name": "",
          "type": "bytes4[]"
        }
      ],
      "stateMutability": "view",
      "type": "function"
    },
    {
      "inputs": [
        {
          "internalType": "address",
          "name": "facet",
          "type": "address"
        },
        {
          "internalType": "uint8",
          "name": "minSecurityLevel",
          "type": "uint8"
        }
      ],
      "name": "facetFunctionSelectorsEx",
      "outputs": [
        {
          "internalType": "bytes4[]",
          "name": "selectors_",
          "type": "bytes4[]"
        }
      ],
      "stateMutability": "view",
      "type": "function"
    },
    {
      "inputs": [
        {
          "internalType": "address",
          "name": "facet",
          "type": "address"
        }
      ],
      "name": "facetHash",
      "outputs": [
        {
          "internalType": "bytes32",
          "name": "",
          "type": "bytes32"
        }
      ],
      "stateMutability": "view",
      "type": "function"
    },
    {
      "inputs": [
        {
          "internalType": "address",
          "name": "",
          "type": "address"
        }
      ],
      "name": "facetImplementation",
      "outputs": [
        {
          "internalType": "address",
          "name": "implementation_",
          "type": "address"
        }
      ],
      "stateMutability": "view",
      "type": "function"
    },
    {
      "inputs": [
        {
          "internalType": "address",
          "name": "",
          "type": "address"
        }
      ],
      "name": "facetMetadata",
      "outputs": [
        {
          "components": [
            {
              "internalType": "string",
              "name": "name",
              "type": "string"
            },
            {
              "internalType": "string",
              "name": "category",
              "type": "string"
            },
            {
              "internalType": "string[]",
              "name": "dependencies",
              "type": "string[]"
            },
            {
              "internalType": "bool",
              "name": "isUpgradeable",
              "type": "bool"
            }
          ],
          "internalType": "struct IDiamondLoupeEx.FacetMetadata",
          "name": "metadata_",
          "type": "tuple"
        }
      ],
      "stateMutability": "view",
      "type": "function"
    },
    {
      "inputs": [
        {
          "internalType": "address",
          "name": "facet",
          "type": "address"
        }
      ],
      "name": "facetProvenance",
      "outputs": [
        {
          "internalType": "address",
          "name": "deployer",
          "type": "address"
        },
        {
          "internalType": "uint256",
          "name": "deployTimestamp",
          "type": "uint256"
        }
      ],
      "stateMutability": "view",
      "type": "function"
    },
    {
      "inputs": [
        {
          "internalType": "address",
          "name": "facet",
          "type": "address"
        }
      ],
      "name": "facetSecurityLevel",
      "outputs": [
        {
          "internalType": "uint8",
          "name": "",
          "type": "uint8"
        }
      ],
      "stateMutability": "view",
      "type": "function"
    },
    {
      "inputs": [
        {
          "internalType": "address",
          "name": "",
          "type": "address"
        },
        {
          "internalType": "uint256",
          "name": "",
          "type": "uint256"
        }
      ],
      "name": "facetSelectors",
      "outputs": [
        {
          "internalType": "bytes4",
          "name": "",
          "type": "bytes4"
        }
      ],
      "stateMutability": "view",
      "type": "function"
    },
    {
      "inputs": [
        {
          "internalType": "address",
          "name": "facet",
          "type": "address"
        }
      ],
      "name": "facetVersionTag",
      "outputs": [
        {
          "internalType": "bytes32",
          "name": "",
          "type": "bytes32"
        }
      ],
      "stateMutability": "view",
      "type": "function"
    },
    {
      "inputs": [],
      "name": "facets",
      "outputs": [
        {
          "components": [
            {
              "internalType": "address",
              "name": "facetAddress",
              "type": "address"
            },
            {
              "internalType": "bytes4[]",
              "name": "functionSelectors",
              "type": "bytes4[]"
            }
          ],
          "internalType": "struct IDiamondLoupe.Facet[]",
          "name": "out",
          "type": "tuple[]"
        }
      ],
      "stateMutability": "view",
      "type": "function"
    },
    {
      "inputs": [
        {
          "internalType": "bool",
          "name": "",
          "type": "bool"
        }
      ],
      "name": "facetsEx",
      "outputs": [
        {
          "components": [
            {
              "internalType": "address",
              "name": "facetAddress",
              "type": "address"
            },
            {
              "internalType": "bytes4[]",
              "name": "functionSelectors",
              "type": "bytes4[]"
            },
            {
              "internalType": "bytes32",
              "name": "versionTag",
              "type": "bytes32"
            },
            {
              "internalType": "uint8",
              "name": "securityLevel",
              "type": "uint8"
            }
          ],
          "internalType": "struct IDiamondLoupeEx.FacetEx[]",
          "name": "facets_",
          "type": "tuple[]"
        }
      ],
      "stateMutability": "view",
      "type": "function"
    },
    {
      "inputs": [],
      "name": "freeze",
      "outputs": [],
      "stateMutability": "nonpayable",
      "type": "function"
    },
    {
      "inputs": [],
      "name": "frozen",
      "outputs": [
        {
          "internalType": "bool",
          "name": "",
          "type": "bool"
        }
      ],
      "stateMutability": "view",
      "type": "function"
    },
    {
      "inputs": [],
      "name": "getLimits",
      "outputs": [
        {
          "internalType": "uint256",
          "name": "maxBatch",
          "type": "uint256"
        },
        {
          "internalType": "uint256",
          "name": "maxFacetCode",
          "type": "uint256"
        },
        {
          "internalType": "uint64",
          "name": "maxActivationDelay",
          "type": "uint64"
        }
      ],
      "stateMutability": "pure",
      "type": "function"
    },
    {
      "inputs": [],
      "name": "getManifestInfo",
      "outputs": [
        {
          "components": [
            {
              "internalType": "bytes32",
              "name": "hash",
              "type": "bytes32"
            },
            {
              "internalType": "uint256",
              "name": "version",
              "type": "uint256"
            },
            {
              "internalType": "uint256",
              "name": "timestamp",
              "type": "uint256"
            },
            {
              "internalType": "uint256",
              "name": "selectorCount",
              "type": "uint256"
            }
          ],
          "internalType": "struct IManifestDispatcher.ManifestInfo",
          "name": "info",
          "type": "tuple"
        }
      ],
      "stateMutability": "view",
      "type": "function"
    },
    {
      "inputs": [],
      "name": "getManifestVersion",
      "outputs": [
        {
          "internalType": "uint64",
          "name": "",
          "type": "uint64"
        }
      ],
      "stateMutability": "view",
      "type": "function"
    },
    {
      "inputs": [
        {
          "internalType": "bytes32",
          "name": "role",
          "type": "bytes32"
        }
      ],
      "name": "getRoleAdmin",
      "outputs": [
        {
          "internalType": "bytes32",
          "name": "",
          "type": "bytes32"
        }
      ],
      "stateMutability": "view",
      "type": "function"
    },
    {
      "inputs": [
        {
          "internalType": "bytes4",
          "name": "selector",
          "type": "bytes4"
        }
      ],
      "name": "getRoute",
      "outputs": [
        {
          "internalType": "address",
          "name": "",
          "type": "address"
        }
      ],
      "stateMutability": "view",
      "type": "function"
    },
    {
      "inputs": [],
      "name": "getRouteCount",
      "outputs": [
        {
          "internalType": "uint256",
          "name": "",
          "type": "uint256"
        }
      ],
      "stateMutability": "view",
      "type": "function"
    },
    {
      "inputs": [
        {
          "internalType": "bytes32",
          "name": "role",
          "type": "bytes32"
        },
        {
          "internalType": "address",
          "name": "account",
          "type": "address"
        }
      ],
      "name": "grantRole",
      "outputs": [],
      "stateMutability": "nonpayable",
      "type": "function"
    },
    {
      "inputs": [
        {
          "internalType": "bytes32",
          "name": "role",
          "type": "bytes32"
        },
        {
          "internalType": "address",
          "name": "account",
          "type": "address"
        }
      ],
      "name": "hasRole",
      "outputs": [
        {
          "internalType": "bool",
          "name": "",
          "type": "bool"
        }
      ],
      "stateMutability": "view",
      "type": "function"
    },
    {
      "inputs": [],
      "name": "manifest",
      "outputs": [
        {
          "internalType": "bytes32",
          "name": "activeRoot",
          "type": "bytes32"
        },
        {
          "internalType": "bytes32",
          "name": "pendingRoot",
          "type": "bytes32"
        },
        {
          "internalType": "uint64",
          "name": "activeEpoch",
          "type": "uint64"
        },
        {
          "internalType": "uint64",
          "name": "committedAt",
          "type": "uint64"
        },
        {
          "internalType": "uint64",
          "name": "activationDelay",
          "type": "uint64"
        },
        {
          "internalType": "uint64",
          "name": "manifestVersion",
          "type": "uint64"
        },
        {
          "internalType": "bool",
          "name": "frozen",
          "type": "bool"
        }
      ],
      "stateMutability": "view",
      "type": "function"
    },
    {
      "inputs": [],
      "name": "pause",
      "outputs": [],
      "stateMutability": "nonpayable",
      "type": "function"
    },
    {
      "inputs": [],
      "name": "paused",
      "outputs": [
        {
          "internalType": "bool",
          "name": "",
          "type": "bool"
        }
      ],
      "stateMutability": "view",
      "type": "function"
    },
    {
      "inputs": [],
      "name": "pendingEpoch",
      "outputs": [
        {
          "internalType": "uint64",
          "name": "",
          "type": "uint64"
        }
      ],
      "stateMutability": "view",
      "type": "function"
    },
    {
      "inputs": [],
      "name": "pendingRoot",
      "outputs": [
        {
          "internalType": "bytes32",
          "name": "",
          "type": "bytes32"
        }
      ],
      "stateMutability": "view",
      "type": "function"
    },
    {
      "inputs": [],
      "name": "pendingSince",
      "outputs": [
        {
          "internalType": "uint64",
          "name": "",
          "type": "uint64"
        }
      ],
      "stateMutability": "view",
      "type": "function"
    },
    {
      "inputs": [
        {
          "internalType": "address",
          "name": "facet",
          "type": "address"
        },
        {
          "internalType": "bytes32",
          "name": "expectedCodeHash",
          "type": "bytes32"
        },
        {
          "internalType": "bytes4[]",
          "name": "claimedSelectors",
          "type": "bytes4[]"
        },
        {
          "internalType": "bool",
          "name": "allowAdditions",
          "type": "bool"
        }
      ],
      "name": "preflightCheckFacet",
      "outputs": [
        {
          "internalType": "bool",
          "name": "ok",
          "type": "bool"
        },
        {
          "internalType": "bytes32",
          "name": "selectorHashEx",
          "type": "bytes32"
        }
      ],
      "stateMutability": "view",
      "type": "function"
    },
    {
      "inputs": [
        {
          "internalType": "bytes4",
          "name": "",
          "type": "bytes4"
        }
      ],
      "name": "registeredSelectors",
      "outputs": [
        {
          "internalType": "bool",
          "name": "",
          "type": "bool"
        }
      ],
      "stateMutability": "view",
      "type": "function"
    },
    {
      "inputs": [
        {
          "internalType": "bytes4[]",
          "name": "selectors",
          "type": "bytes4[]"
        }
      ],
      "name": "removeRoutes",
      "outputs": [],
      "stateMutability": "nonpayable",
      "type": "function"
    },
    {
      "inputs": [
        {
          "internalType": "bytes32",
          "name": "role",
          "type": "bytes32"
        },
        {
          "internalType": "address",
          "name": "callerConfirmation",
          "type": "address"
        }
      ],
      "name": "renounceRole",
      "outputs": [],
      "stateMutability": "nonpayable",
      "type": "function"
    },
    {
      "inputs": [
        {
          "internalType": "bytes32",
          "name": "role",
          "type": "bytes32"
        },
        {
          "internalType": "address",
          "name": "account",
          "type": "address"
        }
      ],
      "name": "revokeRole",
      "outputs": [],
      "stateMutability": "nonpayable",
      "type": "function"
    },
    {
      "inputs": [],
      "name": "routeCount",
      "outputs": [
        {
          "internalType": "uint256",
          "name": "",
          "type": "uint256"
        }
      ],
      "stateMutability": "view",
      "type": "function"
    },
    {
      "inputs": [
        {
          "internalType": "bytes4",
          "name": "selector",
          "type": "bytes4"
        }
      ],
      "name": "routes",
      "outputs": [
        {
          "internalType": "address",
          "name": "facet",
          "type": "address"
        },
        {
          "internalType": "bytes32",
          "name": "codehash",
          "type": "bytes32"
        }
      ],
      "stateMutability": "view",
      "type": "function"
    },
    {
      "inputs": [
        {
          "internalType": "address",
          "name": "facet",
          "type": "address"
        }
      ],
      "name": "selectorHash",
      "outputs": [
        {
          "internalType": "bytes32",
          "name": "",
          "type": "bytes32"
        }
      ],
      "stateMutability": "view",
      "type": "function"
    },
    {
      "inputs": [
        {
          "internalType": "uint64",
          "name": "newDelay",
          "type": "uint64"
        }
      ],
      "name": "setActivationDelay",
      "outputs": [],
      "stateMutability": "nonpayable",
      "type": "function"
    },
    {
      "inputs": [
        {
          "internalType": "address",
          "name": "facet",
          "type": "address"
        },
        {
          "internalType": "uint8",
          "name": "level",
          "type": "uint8"
        }
      ],
      "name": "setFacetSecurityLevel",
      "outputs": [],
      "stateMutability": "nonpayable",
      "type": "function"
    },
    {
      "inputs": [
        {
          "internalType": "address",
          "name": "facet",
          "type": "address"
        },
        {
          "internalType": "bytes32",
          "name": "tag",
          "type": "bytes32"
        }
      ],
      "name": "setFacetVersionTag",
      "outputs": [],
      "stateMutability": "nonpayable",
      "type": "function"
    },
    {
      "inputs": [
        {
          "internalType": "bytes4",
          "name": "interfaceId",
          "type": "bytes4"
        }
      ],
      "name": "supportsInterface",
      "outputs": [
        {
          "internalType": "bool",
          "name": "",
          "type": "bool"
        }
      ],
      "stateMutability": "view",
      "type": "function"
    },
    {
      "inputs": [],
      "name": "unpause",
      "outputs": [],
      "stateMutability": "nonpayable",
      "type": "function"
    },
    {
      "inputs": [
        {
          "internalType": "bytes32",
          "name": "manifestHash",
          "type": "bytes32"
        }
      ],
      "name": "verifyManifest",
      "outputs": [
        {
          "internalType": "bool",
          "name": "ok",
          "type": "bool"
        },
        {
          "internalType": "bytes32",
          "name": "current",
          "type": "bytes32"
        }
      ],
      "stateMutability": "view",
      "type": "function"
    },
    {
      "stateMutability": "payable",
      "type": "receive"
    }
  ],
  "bytecode": "0x60803461010157601f613dcb38819003918201601f19168301916001600160401b038311848410176101055780849260409485528339810103126101015780516001600160a01b038116918282036101015760200151916001600160401b03831690818403610101576001600255156100f2576301e1338081116100e057508061008b6100a592610119565b506100958161018f565b5061009f81610222565b506102b5565b50600580546001600160801b031660809290921b600160801b600160c01b031691909117600160c01b1790556040516139e290816103498239f35b6303b2a11d60e61b5f5260045260245ffd5b63d92e233d60e01b5f5260045ffd5b5f80fd5b634e487b7160e01b5f52604160045260245ffd5b6001600160a01b0381165f9081525f516020613dab5f395f51905f52602052604090205460ff1661018a576001600160a01b03165f8181525f516020613dab5f395f51905f5260205260408120805460ff191660011790553391905f516020613d2b5f395f51905f528180a4600190565b505f90565b6001600160a01b0381165f9081525f516020613d6b5f395f51905f52602052604090205460ff1661018a576001600160a01b03165f8181525f516020613d6b5f395f51905f5260205260408120805460ff191660011790553391907fa7cca97e47194b7e39f5c716bb579f82fd22f5387703122260b316b1079e8ad1905f516020613d2b5f395f51905f529080a4600190565b6001600160a01b0381165f9081525f516020613d4b5f395f51905f52602052604090205460ff1661018a576001600160a01b03165f8181525f516020613d4b5f395f51905f5260205260408120805460ff191660011790553391907f151f387c3ce2424b7e46cbb7332b70a561e2f859e3a3c7816c8ccc16ea054639905f516020613d2b5f395f51905f529080a4600190565b6001600160a01b0381165f9081525f516020613d8b5f395f51905f52602052604090205460ff1661018a576001600160a01b03165f8181525f516020613d8b5f395f51905f5260205260408120805460ff191660011790553391907fbf233dd2aafeb4d50879c4aa5c81e96d92f6e6945c906a58f9f2d1c1631b4b26905f516020613d2b5f395f51905f529080a460019056fe60806040526004361015610015575b36612d2957005b5f3560e01c8062ebb5f0146103b957806301ffc9a7146103b457806302128389146103af57806302c675ea146103aa578063054f7d9c146103a5578063062576b2146103a057806308e599201461039b5780630c5fe45014610396578063102986bb14610391578063129fe8c11461038c57806316496ad0146103875780631a6e649e146102b55780631aca7810146103825780631e580ed11461037d57806320df435914610378578063248a9ca3146103735780632590f8321461036e5780632a085b14146103695780632f2ff15d1461036457806332252057146102bf57806336568abe1461035f578063391772031461035a5780633a8c0786146103555780633f4ba83a14610350578063441e7d581461034b57806344615bd51461034657806345be02b5146103415780634c5568511461033c5780634d57f6071461033757806351c7094f1461033257806352ef6b2c1461032d57806353d5aa8114610328578063575d7487146103235780635c975abb1461031e57806362a5af3b146103195780636f89e40914610314578063750588cf1461030f5780637a0ed6271461030a5780637d979a4f1461030557806381007e90146103005780638456cb59146102fb578063889c9376146102f657806391d14854146102f157806396b896eb146102ec578063991c8165146102e75780639f6b4a3b146102e2578063a217fddf146102dd578063abb2efdf146102d8578063adc6c3b2146102d3578063adfca15e146102ce578063b74a7d3d146102c9578063b782ba50146102c4578063bf539cb4146102bf578063c6ea173b146102ba578063cdffacc6146102b5578063cf25dff3146102b0578063d547741f146102ab578063f552501a146102a65763f5baf0d70361000e57612109565b6120d2565b612092565b611f4d565b610a99565b611de3565b610d87565b611c19565b611bf1565b611bb6565b6119f6565b6119d9565b6119bf565b611999565b61196f565b6118b0565b61185f565b611804565b6117ac565b6116ca565b6116a1565b6115bc565b611528565b6114fb565b6114a8565b611486565b6113c5565b6113a5565b61131c565b6112c4565b611201565b611184565b610fc0565b610ef3565b610eb9565b610e53565b610e2a565b610dec565b610da4565b610d42565b610d01565b610cc6565b610c9c565b610c62565b610c3c565b610bb1565b610a2c565b6109f1565b61086a565b6107b0565b610748565b610645565b610623565b6105e9565b6105b0565b6104fe565b6103ee565b602435906001600160401b03821682036103d457565b5f80fd5b600435906001600160401b03821682036103d457565b346103d45760403660031901126103d45760043561040a6103be565b90610413612da8565b61041b612f7c565b60ff600654166104dd5780156104ce576001600160401b0361045c61045061044b6005546001600160401b031690565b61218e565b6001600160401b031690565b92169182036104bf5761046e81600455565b600580546fffffffffffffffff000000000000000019164260401b67ffffffffffffffff60401b161790557f6965b9c8509097ad68ba0eb17fcb9436f4a72a057fe5ac556737580bce80d8405f80a3005b630aa733db60e01b5f5260045ffd5b636fe692dd60e11b5f5260045ffd5b63a530d8bb60e01b5f5260045ffd5b6001600160e01b03198116036103d457565b346103d45760203660031901126103d45760043561051b816104ec565b63ffffffff60e01b166348e2b09360e01b811490811561058e575b811561057d575b8115610552575b506040519015158152602090f35b637965db0b60e01b81149150811561056c575b505f610544565b6301ffc9a760e01b1490505f610565565b63a3ca00bf60e01b8114915061053d565b63050c1c2160e51b81149150610536565b6001600160a01b038116036103d457565b346103d45760203660031901126103d45760206105d76004356105d28161059f565b612fe2565b604051908152f35b5f9103126103d457565b346103d4575f3660031901126103d45760206040517f151f387c3ce2424b7e46cbb7332b70a561e2f859e3a3c7816c8ccc16ea0546398152f35b346103d4575f3660031901126103d457602060ff600654166040519015158152f35b346103d4575f3660031901126103d4575f6060604051610664816121e5565b82815282602082015282604082015201526106de60035460055460c01c600b549060405192610692846121e5565b835260208301526001600160401b034216604083015260608201526040519182918291909160608060808301948051845260208101516020850152604081015160408501520151910152565b0390f35b60409060031901126103d4576004356106fa8161059f565b9060243560ff811681036103d45790565b90602080835192838152019201905f5b8181106107285750505090565b82516001600160e01b03191684526020938401939092019160010161071b565b346103d4576106de61076261075c366106e2565b90612509565b60405191829160208352602083019061070b565b634e487b7160e01b5f52603260045260245ffd5b91909180548310156107ab575f52601c60205f208360031c019260021b1690565b610776565b346103d45760403660031901126103d4576004356107cd8161059f565b6001600160a01b03165f9081526009602052604090208054602435908110156103d4576107f99161078a565b90549060031b1c60e01b6040518091602082019063ffffffff60e01b1682520390f35b9181601f840112156103d4578235916001600160401b0383116103d4576020808501948460051b0101116103d457565b6064359081151582036103d457565b6004359081151582036103d457565b346103d45760803660031901126103d4576004356108878161059f565b602435906044356001600160401b0381116103d4576108aa90369060040161081c565b6108b261084c565b9184159485156109b3575b506108e760346040516bffffffffffffffffffffffff198760601b16602082015260148152612220565b6001600160a01b0384165f90815260096020526040902090815461090a816122b5565b925f5b82811061098d57505050610920836122b5565b925f5b81811061095457876109408861093a8989896130d4565b50612fe2565b604080519215158352602083019190915290f35b8061098761096d610968600194868861256b565b61257b565b6109778389612557565b6001600160e01b03199091169052565b01610923565b806109ad61096d6109a06001948661078a565b90549060031b1c60e01b90565b0161090d565b843f1494505f6108bd565b90602080835192838152019201905f5b8181106109db5750505090565b82518452602093840193909201916001016109ce565b346103d45760203660031901126103d457610a0d60043561059f565b6106de610a18612278565b6040519182916020835260208301906109be565b346103d45760403660031901126103d4576004356001600160401b0381116103d457610a5c90369060040161081c565b602435916001600160401b0383116103d457610a7f610a9793369060040161081c565b929091610a8a612e17565b610a92612f7c565b6125d3565b005b346103d45760203660031901126103d457600435610ab6816104ec565b63ffffffff60e01b165f526007602052602060018060a01b0360405f205416604051908152f35b805180835260209291819084018484015e5f828201840152601f01601f1916010190565b60208152610b34610b1e83516080602085015260a0840190610add565b6020840151838203601f19016040850152610add565b91604081015192601f19838203016060840152835180825260208201916020808360051b8301019601925f915b838310610b845750505050509060806060610b8193015191019015159052565b90565b9091929396602080610ba2600193601f198682030187528b51610add565b99019301930191939290610b61565b346103d45760203660031901126103d457610bcd60043561059f565b6106de604051610bdc816121e5565b6060815260016020820160608152604083016060815260608401915f8352610c02612748565b8552610c0c612748565b905260405190610c1d602083612220565b5f808352610c2e906020840161275c565b525260405191829182610b01565b346103d45760203660031901126103d457610c5860043561059f565b60206040515f8152f35b346103d4575f3660031901126103d45760206040517fbf233dd2aafeb4d50879c4aa5c81e96d92f6e6945c906a58f9f2d1c1631b4b268152f35b346103d45760203660031901126103d45760206105d76004355f525f602052600160405f20015490565b346103d45760203660031901126103d457600435610ce38161059f565b60018060a01b03165f52600d602052602060405f2054604051908152f35b346103d45760203660031901126103d457600435610d1e816104ec565b63ffffffff60e01b165f526008602052602060ff60405f2054166040519015158152f35b346103d45760403660031901126103d457610a97602435600435610d658261059f565b610d82610d7d825f525f602052600160405f20015490565b612f44565b61347d565b346103d4575f3660031901126103d4576020600b54604051908152f35b346103d45760403660031901126103d457600435602435610dc48161059f565b336001600160a01b03821603610ddd57610a9791613503565b63334bd91960e11b5f5260045ffd5b346103d45760203660031901126103d457600435610e098161059f565b60018060a01b03165f52600c602052602060ff60405f205416604051908152f35b346103d4575f3660031901126103d45760206001600160401b0360055460801c16604051908152f35b346103d4575f3660031901126103d457610e6b612e86565b60015460ff811615610eaa5760ff19166001557f5db9ee0a495bf2e6ff9c91a7834c1ba4fdd244a5e8aa4e537bd38aeae4b073aa6020604051338152a1005b638dfc202b60e01b5f5260045ffd5b346103d4575f3660031901126103d45760206040517fa7cca97e47194b7e39f5c716bb579f82fd22f5387703122260b316b1079e8ad18152f35b346103d45760403660031901126103d4576020610f1e600435610f15816104ec565b60243590612778565b6040516001600160a01b039091168152f35b602081016020825282518091526040820191602060408360051b8301019401925f915b838310610f6257505050505090565b9091929394602080600192603f19858203018652885190848060a01b038251168152606060ff81610fa086860151608088870152608086019061070b565b946040810151604086015201511691015297019301930191939290610f53565b346103d45760203660031901126103d457610fd961085b565b50600a54610fe681612261565b90610ff46040519283612220565b808252601f1961100382612261565b015f5b8181106110d95750505f5b81811061102657604051806106de8582610f30565b8061104a6110356001936127d0565b905460039190911b1c6001600160a01b031690565b6001600160a01b0381165f908152600960209081526040808320600d835281842054600c90935292206110bd9291906110a990611089905b5460ff1690565b926110a4611095612241565b6001600160a01b039097168752565b6122e7565b6020850152604084015260ff166060830152565b6110c78286612557565b526110d28185612557565b5001611011565b6020906040516110e8816121e5565b5f81526060838201525f60408201525f606082015282828701015201611006565b60206003198201126103d457600435906001600160401b0382116103d4576111339160040161081c565b9091565b90602080835192838152019201905f5b8181106111545750505090565b82516001600160a01b0316845260209384019390920191600101611147565b906020610b81928181520190611137565b346103d45761119236611109565b9061119c826122b5565b915f5b8181106111bc57604051602080825281906106de90820187611137565b806111ca600192848661256b565b356111d4816104ec565b63ffffffff60e01b165f526007602052818060a01b0360405f2054166111fa8287612557565b520161119f565b346103d45760403660031901126103d45760043561121e8161059f565b602435611229612ef5565b60ff600654166104dd576001600160a01b038281165f818152600e602052604090205490939116156112a9576001600160a01b03165f908152600d602052604090207fe5dec4085392fa03d552cb2893a23c346d5196597aaabac78417a46351eec53a916112a4918190556040519081529081906020820190565b0390a2005b62e3422b60e21b5f526001600160a01b031660045260245b5ffd5b346103d45760203660031901126103d4576004356112e1816104ec565b6001600160e01b0319165f90815260076020908152604091829020805460019091015483516001600160a01b03909216825291810191909152f35b346103d4575f3660031901126103d457604051806020600a54918281520190600a5f527fc65a7bb8d6351c1cf70c95a316cc6a92839c986682d98bc35f958f4883f9d2a8905f5b818110611386576106de8561137a81870382612220565b60405191829182611173565b82546001600160a01b0316845260209093019260019283019201611363565b346103d4575f3660031901126103d457602060055460c01c604051908152f35b346103d45760a03660031901126103d4576004356001600160401b0381116103d4576113f590369060040161081c565b6024356001600160401b0381116103d45761141490369060040161081c565b6044939193356001600160401b0381116103d45761143690369060040161081c565b6064929192356001600160401b0381116103d45761145890369060040161081c565b939092608435976001600160401b0389116103d45761147e610a9799369060040161081c565b9890976127e8565b346103d4575f3660031901126103d457602060ff600154166040519015158152f35b346103d4575f3660031901126103d4576114c0612ef5565b60065460ff81166104dd5760ff19166001176006557fa8cab3d1893ed53071b052fafa843143492f25d1d6b0170d460789f7ab1954be5f80a1005b346103d4575f3660031901126103d45760606040516064815261600060208201526301e133806040820152f35b346103d4575f3660031901126103d4576020600454604051908152f35b602081016020825282518091526040820191602060408360051b8301019401925f915b83831061157757505050505090565b90919293946020806115ad600193603f198682030187526040838b51878060a01b0381511684520151918185820152019061070b565b97019301930191939290611568565b346103d4575f3660031901126103d457600a546115d881612261565b906115e66040519283612220565b808252601f196115f582612261565b015f5b81811061167d5750505f5b81811061161857604051806106de8582611545565b806116276110356001936127d0565b6001600160a01b0381165f90815260096020526040902061165c906110a461164d612252565b6001600160a01b039094168452565b602082015261166b8286612557565b526116768185612557565b5001611603565b60209060405161168c81612205565b5f8152606083820152828287010152016115f8565b346103d4575f3660031901126103d45760206001600160401b0360055460401c16604051908152f35b346103d4576116d8366106e2565b906116e1612ef5565b60065460ff166104dd576001600160a01b038181165f908152600e60205260409020611715905b546001600160a01b031690565b16156112a957600360ff831611611796576112a481611778846117697f56b27b66dccd51815ce1719ea3ef55e9984da573e0a468fef43e575c47a753219560018060a01b03165f52600c60205260405f2090565b9060ff1660ff19825416179055565b60405160ff90941684526001600160a01b0316929081906020820190565b6325aa519960e11b5f5260ff821660045260245ffd5b346103d4575f3660031901126103d4576117c4612e86565b6117cc612f7c565b600160ff19815416176001557f62e78cea01bee320cd4e420270b5ea74000d11b0c9f74754ebdbfc544b05a2586020604051338152a1005b346103d45760203660031901126103d4576004356118218161059f565b6001600160a01b039081165f908152600e6020908152604080832054600f8352928190205481519390941683526001600160401b0390931690820152f35b346103d45760403660031901126103d457602060ff6118a46024356004356118868261059f565b5f525f845260405f209060018060a01b03165f5260205260405f2090565b54166040519015158152f35b346103d45760203660031901126103d4576118c96103d8565b6118d1612ef5565b60ff600654166104dd576001600160401b0381166301e13380811161195d576005805467ffffffffffffffff60801b608085811b9190911667ffffffffffffffff60801b19831617909255604080516001600160401b039290931c8216835290841660208301527f29fabdd5e710c2b0282fcc042164a54b68bd783f561a1f82033b1270e5541dbb91a1005b6303b2a11d60e61b5f5260045260245ffd5b346103d45760203660031901126103d4576003546040805160043583148152602081019290925290f35b346103d4575f3660031901126103d45760206001600160401b0360055416604051908152f35b346103d4575f3660031901126103d45760206040515f8152f35b346103d4575f3660031901126103d4576020600354604051908152f35b346103d4575f3660031901126103d457611a0e612e17565b611a16612f7c565b60065460ff166104dd576004548015611ba757611a5c600554611a56611a46826001600160401b039060401c1690565b9160801c6001600160401b031690565b906121b1565b6001600160401b034216906001600160401b0381168210611b8657611a8083600355565b611ab4611a9861044b6005546001600160401b031690565b6001600160401b03166001600160401b03196005541617600555565b611abd5f600455565b611ad667ffffffffffffffff60401b1960055416600555565b60055460c01c611b0d611ae88261218e565b600580546001600160c01b031660c09290921b6001600160c01b031916919091179055565b6001600160401b0380611b5d6003546005549083611b31836001600160401b031690565b16907ffb332b8e86a2547d32a254749d32450f293166f997ff9e73626590f1564498545f80a360c01c90565b1691167fbdf7a4e360e060b2bfa9e310546ce8ce1b892bd04394c9a234e817dd15191a8a5f80a3005b63a16fa60560e01b5f526001600160401b039081166004521660245260445ffd5b631500c4af60e11b5f5260045ffd5b346103d45760203660031901126103d457600435611bd38161059f565b60018060a01b03165f5260096020526106de61076260405f206122e7565b346103d45760203660031901126103d4576020600435611c108161059f565b3f604051908152f35b346103d457611c2736611109565b611c2f612e86565b611c37612f7c565b60648111611dd1575f905f5b818110611cad57507f10da44a9075ceb933a055d181f60aabdccf48b2099107893f1c701c790d5cfa59192611c7d60405192839283612b4e565b0390a1611c8657005b60055460c01c611c98611ae88261218e565b6001600160401b0380611b5d60055460c01c90565b611cbb61096882848761256b565b611cd96117088263ffffffff60e01b165f52600760205260405f2090565b6001600160a01b038116611cf2575b5050600101611c43565b8192945090611d4b91611d24611d198363ffffffff60e01b165f52600760205260405f2090565b60015f918281550155565b611d426110828363ffffffff60e01b165f52600860205260405f2090565b611d835761377a565b6001600160e01b0319167f76d504ba17812cd58154028a97a1e6704678fd628c01ae5514483383a787e9595f80a2600191825f611ce8565b611dab611da18363ffffffff60e01b165f52600860205260405f2090565b805460ff19169055565b600b5480611dba575b5061377a565b611dc6611dcb91612b42565b600b55565b5f611db4565b63533dcfcf60e11b5f5260045260245ffd5b346103d45760a03660031901126103d457600435611e00816104ec565b60243590611e0d8261059f565b604435916064356001600160401b0381116103d457611e3090369060040161081c565b916084356001600160401b0381116103d457611e53611ee691369060040161081c565b611e5b612e17565b611e63612f7c565b611ecb611e6e612293565b95611e77612293565b97611e80612293565b9a611eba611e8c612b96565b98611ea2611e98612b96565b9d6109778d61254a565b611eab8c61254a565b6001600160a01b039091169052565b611ec38c61254a565b52369161283b565b611ed48561254a565b52611ede8461254a565b503691612887565b611eef8561254a565b52611ef98461254a565b50303b156103d4575f93611f2291604051968795869563575d748760e01b875260048701612c40565b038183305af18015611f4857611f3457005b80611f425f610a9793612220565b806105df565b612d10565b346103d45760203660031901126103d457611f6661085b565b600a549015611fb657611f78816122b5565b905f5b818110611f945750506106de9060405191829182611173565b80611fb0611fa66110356001946127d0565b611eab8387612557565b01611f7b565b5f5f5b8281106120435750611fca906122b5565b905f5f5b828110611fe1575050506106de9061137a565b80611ff06110356001936127d0565b6001600160a01b0381165f908152600c6020526040902061201a9061201490611082565b60ff1690565b612026575b5001611fce565b61203d90611eab61203686612d1b565b9588612557565b5f61201f565b612071612014611082612058611035856127d0565b6001600160a01b03165f908152600c6020526040902090565b61207e575b600101611fb9565b9061208a600191612d1b565b919050612076565b346103d45760403660031901126103d457610a976024356004356120b58261059f565b6120cd610d7d825f525f602052600160405f20015490565b613503565b346103d4575f3660031901126103d45760206120f86001600160401b036005541661218e565b6001600160401b0360405191168152f35b346103d4575f3660031901126103d45760e060035460045460055460ff600654169160405193845260208401526001600160401b03811660408401526001600160401b038160401c1660608401526001600160401b038160801c16608084015260c01c60a0830152151560c0820152f35b634e487b7160e01b5f52601160045260245ffd5b6001600160401b036001911601906001600160401b0382116121ac57565b61217a565b906001600160401b03809116911601906001600160401b0382116121ac57565b634e487b7160e01b5f52604160045260245ffd5b608081019081106001600160401b0382111761220057604052565b6121d1565b604081019081106001600160401b0382111761220057604052565b90601f801991011681019081106001600160401b0382111761220057604052565b60405190612250608083612220565b565b60405190612250604083612220565b6001600160401b0381116122005760051b60200190565b60405190612287602083612220565b5f808352366020840137565b604080519091906122a48382612220565b6001815291601f1901366020840137565b906122bf82612261565b6122cc6040519182612220565b82815280926122dd601f1991612261565b0190602036910137565b6040518154808252909291839061230560208301915f5260205f2090565b925f905b80600783011061244c5761225094549181811061242d575b81811061240e575b8181106123ef575b8181106123d0575b8181106123b1575b818110612392575b818110612374575b1061235f575b500383612220565b6001600160e01b03191681526020015f612357565b602083811b6001600160e01b03191685529093600191019301612351565b604083901b6001600160e01b0319168452926001906020019301612349565b606083901b6001600160e01b0319168452926001906020019301612341565b608083901b6001600160e01b0319168452926001906020019301612339565b60a083901b6001600160e01b0319168452926001906020019301612331565b60c083901b6001600160e01b0319168452926001906020019301612329565b6001600160e01b031960e084901b168452926001906020019301612321565b9160089193506101006001916124fb8754612472838260e01b63ffffffff60e01b169052565b60c081901b6001600160e01b031916602084015260a081901b6001600160e01b0319166040840152608081901b6001600160e01b0319166060840152606081901b6001600160e01b0319166080840152604081901b6001600160e01b03191660a0840152602081901b6001600160e01b03191660c08401526001600160e01b03191660e0830152565b019401920185929391612309565b6001600160a01b03165f818152600c6020526040902054909160ff918216911611612541575f526009602052610b8160405f206122e7565b50610b81612278565b8051156107ab5760200190565b80518210156107ab5760209160051b010190565b91908110156107ab5760051b0190565b35610b81816104ec565b35610b818161059f565b91908110156107ab5760051b81013590601e19813603018212156103d45701908135916001600160401b0383116103d4576020018260051b360381136103d4579190565b9192908015612742578181036127335760648111611dd1575f5b81811061264f57505050505061260560055460c01c90565b612611611ae88261218e565b6001600160401b038061262660055460c01c90565b1691167fbdf7a4e360e060b2bfa9e310546ce8ce1b892bd04394c9a234e817dd15191a8a5f80a3565b61266261265d82848761256b565b612585565b6001600160a01b038116801561272457301461271557803b80156126f95761600081116126d95750803f61269783868961258f565b60648194929411611dd1575f5b8181106126b85750505050506001016125ed565b806126d385856126ce610968600196888c61256b565b6131e4565b016126a4565b63182977e560e01b5f526001600160a01b0390911660045260245260445ffd5b632dcff22f60e11b5f526001600160a01b03821660045260245ffd5b633aa7666160e21b5f5260045ffd5b63d92e233d60e01b5f5260045ffd5b638b140a8160e01b5f5260045ffd5b50505050565b60405190612757602083612220565b5f8252565b5f5b82811061276a57505050565b60608282015260200161275e565b6001600160e01b0319165f908152600760205260409020546001600160a01b03169081156127ca5780159081156127b4575b50610b8157505f90565b9050815f52600d60205260405f2054145f6127aa565b50505f90565b600a548110156107ab57600a5f5260205f2001905f90565b9897969594939291906127f9612e17565b612801612f7c565b600280541461281e5761281799600280556128db565b6001600255565b633ee5aeb560e01b5f5260045ffd5b90600182018092116121ac57565b92919061284781612261565b936128556040519586612220565b602085838152019160051b81019283116103d457905b82821061287757505050565b813581526020918201910161286b565b929161289282612261565b936128a06040519586612220565b602085848152019260051b81019182116103d457915b8183106128c257505050565b823580151581036103d4578152602092830192016128b6565b939592919790989694966128f160065460ff1690565b6104dd57600454928315611ba7578a15612b3557808b14801590612b2b575b8015612b21575b8015612b17575b6127335760648b11612b03575f5b8b8110612a7357505f5b8b81106129555750505050505050505050505061260560055460c01c90565b61296361265d82848e61256b565b906001600160a01b038216801561272457301461271557813b8015612a57576160008111612a3857506129fc6129f8888f888f8f8f8f898f96818f95946129d28f966129ea976129cb856129f29c6129c5610968836129d89b6129e09e61256b565b9461256b565b3591613587565b9a61258f565b94909661258f565b949092369161283b565b923691612887565b906135ce565b1590565b612a2957612a238a6001938f848f6129c56109688f612a1c95859161256b565b35916131e4565b01612936565b6309bde33960e01b5f5260045ffd5b63182977e560e01b5f526001600160a01b03831660045260245260445ffd5b632dcff22f60e11b5f526001600160a01b03831660045260245ffd5b612a7c8161282d565b8c88818310612a905750505060010161292c565b612aaf61096884612aa86109688887612abc9761256b565b948d61256b565b6001600160e01b03191690565b6001600160e01b031990911614612ad557600101612a7c565b50612ae76109686112c1928e8a61256b565b63edd7c12360e01b5f526001600160e01b031916600452602490565b63533dcfcf60e11b5f5260048b905260245ffd5b50818b141561291e565b50868b1415612917565b50888b1415612910565b5050505050505050505050565b80156121ac575f190190565b60208082528101839052604001915f5b818110612b6b5750505090565b9091926020806001928635612b7f816104ec565b6001600160e01b0319168152019401929101612b5e565b604080519190612ba68184612220565b6001835261225090601f19016020840161275c565b9080602083519182815201916020808360051b8301019401925f915b838310612be657505050505090565b9091929394601f19828203018352855190602080835192838152019201905f905b808210612c265750505060208060019297019301930191939290612bd7565b909192602080600192865115158152019401920190612c07565b95949290612c7992612c5d612c6b9260a08a5260a08a019061070b565b9088820360208a0152611137565b9086820360408801526109be565b938085036060820152825180865260208601906020808260051b8901019501915f905b828210612cba5750505050610b819394506080818403910152612bbb565b90919295601f19898203018252865190602080835192838152019201905f905b808210612cf857505050602080600192980192019201909291612c9c565b90919260208060019286518152019401920190612cda565b6040513d5f823e3d90fd5b5f1981146121ac5760010190565b612d31612f7c565b5f80356001600160e01b031916815260076020526040902080546001600160a01b0316906001600160a01b03821615612d99576001823f91015403612d8a575f8091368280378136915af43d90815f803e156112c1575ff35b63a5cfda9b60e01b5f5260045ffd5b636586e12960e01b5f5260045ffd5b335f9081527fd2764f229a30959c33f3f0a590f28c7c9a71ddce646f8bc9daff3e93f5ac2a1a602052604090205460ff1615612de057565b63e2517d3f60e01b5f52336004527fa7cca97e47194b7e39f5c716bb579f82fd22f5387703122260b316b1079e8ad160245260445ffd5b335f9081527f38aaaa29dfb0303c7bae203044f1aff27cc0d67cf1698cf28c98febc0bf7b8fb602052604090205460ff1615612e4f57565b63e2517d3f60e01b5f52336004527f151f387c3ce2424b7e46cbb7332b70a561e2f859e3a3c7816c8ccc16ea05463960245260445ffd5b335f9081527f3c1b1854ab1360abbb06c8d4c6b2672d4b8cedc5eff522ab19e51d5cb8fdbd46602052604090205460ff1615612ebe57565b63e2517d3f60e01b5f52336004527fbf233dd2aafeb4d50879c4aa5c81e96d92f6e6945c906a58f9f2d1c1631b4b2660245260445ffd5b335f9081527fad3228b676f7d3cd4284a5443f17f1962b36e491b30a40b2405849e597ba5fb5602052604090205460ff1615612f2d57565b63e2517d3f60e01b5f52336004525f60245260445ffd5b5f8181526020818152604080832033845290915290205460ff1615612f665750565b63e2517d3f60e01b5f523360045260245260445ffd5b60ff60015416612f8857565b63d93c066560e01b5f5260045ffd5b5f198101919082116121ac57565b60209181520160208251919201905f5b818110612fc25750505090565b82516001600160e01b031916845260209384019390920191600101612fb5565b6001600160a01b0381165f908152600960205260409020613002906122e7565b9081516001905b80821061304057505061303a61302c913f92604051928391602083019586612fa5565b03601f198101835282612220565b51902090565b90919361305e6130508486612557565b516001600160e01b03191690565b94835b801515806130aa575b1561308f5761308761096d61305061308184612f97565b89612557565b5f1901613061565b600192966109776130a39296939688612557565b0190613009565b506130c36130bd61305061308184612f97565b60e01c90565b63ffffffff8860e01c91161161306a565b905f935b825185101561317a575f935f5b8351811015613170576130fb6130508887612557565b61310b612aaf6130508488612557565b6001600160e01b031990911614613124576001016130e5565b50949091935060015b1561313d576001019392906130d8565b61314d6130506112c19285612557565b632e2ce35360e21b5f9081526001600160e01b0319909116600452602452604490565b509490919361312d565b9350911591826131d6575b505061319057600190565b6040516345b78ccd60e01b815260206004820181905260248201527f53656c6563746f72206164646974696f6e73206e6f74207065726d69747465646044820152606490fd5b519051141590505f80613185565b909180833f036134595761320c6117088363ffffffff60e01b165f52600760205260405f2090565b61326e613217612252565b6001600160a01b03861681528360208201526132448563ffffffff60e01b165f52600760205260405f2090565b815181546001600160a01b0319166001600160a01b03919091161781559060019060200151910155565b61328f6129f86110828563ffffffff60e01b165f52600860205260405f2090565b156133eb57506132c06132b38363ffffffff60e01b165f52600860205260405f2090565b805460ff19166001179055565b6132ce611dc6600b54612d1b565b6132d882846138ce565b6040519081526001600160a01b038316916001600160e01b031916907f4c4455a30528c319643ae6fc35f3a0fcabde6c015f2a1a5270382c4a190b0fa390602090a35b6001600160a01b038181165f908152600e6020526040902061333c90611708565b161561338e575b6001600160a01b0381165f908152600c6020526040902060ff9061336690611082565b161561336f5750565b6001600160a01b03165f908152600c60205260409020612250906132b3565b6001600160a01b0381165f908152600e6020526040902080546001600160a01b031916331790556001600160a01b0381165f908152600f60205260409020805467ffffffffffffffff19166001600160401b034216179055613343565b6001600160a01b038481169390821692509083830361340e575b5050505061331b565b816134189161377a565b61342281856138ce565b6001600160e01b0319167f6b1a92a4c09810a2a37b98e56f4200944bb663ffcf62c886229b65a5ea5d14a75f80a45f808080613405565b63581bae3360e11b5f526001600160a01b038316600452602452813f60445260645ffd5b5f818152602081815260408083206001600160a01b038616845290915290205460ff166127ca575f818152602081815260408083206001600160a01b03861684529091529020805460ff1916600117905533916001600160a01b0316907f2f8788117e7eff1d82e926ec794901d17c78024a50270940304540a733656f0d5f80a4600190565b5f818152602081815260408083206001600160a01b038616845290915290205460ff16156127ca575f818152602081815260408083206001600160a01b03861684529091529020805460ff1916905533916001600160a01b0316907ff6391f5c32d9c69d2a47ea670b442974b53935d1edc7fd64eb21e047a839171b5f80a4600190565b916040519160208301935f855263ffffffff60e01b1660218401526bffffffffffffffffffffffff199060601b16602583015260398201526039815261303a605982612220565b9290919280518351908181036136d057505080519161010083116136b6575f935f5b848110613689575050610100831061366f575b6136109093929193613963565b925f925b82841061362357505050501490565b90919293600190818084881c16145f146136565761364c906136458786612557565b5190613982565b9401929190613614565b61366a906136648786612557565b51613982565b61364c565b92613610906136806001851b612f97565b16939050613603565b61369c6136968284612557565b51151590565b6136a9575b6001016135f0565b6001811b909517946136a1565b63d31c949560e01b5f52600483905261010060245260445ffd5b633a67ea2360e11b5f5260045260245260445ffd5b634e487b7160e01b5f52603160045260245ffd5b80548015613722575f19019061370f828261078a565b63ffffffff82549160031b1b1916905555565b6136e5565b600a548015613722575f19810190600a548210156107ab57600a5f8190527fc65a7bb8d6351c1cf70c95a316cc6a92839c986682d98bc35f958f4883f9d2a790910180546001600160a01b031916905555565b6001600160a01b0381165f9081526009602052604090205f5b8154808210156138a1576137aa6109a0838561078a565b6001600160e01b03198681169116146137c65750600101613793565b613809929394506137e56109a06137df6137ec93612f97565b8661078a565b918461078a565b90919063ffffffff83549160031b9260e01c831b921b1916179055565b613812816136f9565b541561381b5750565b600a545f5b81811061382c57505050565b613838611035826127d0565b6001600160a01b0384811691161461385257600101613820565b90613899925061386f61103561386a61387593612f97565b6127d0565b916127d0565b81546001600160a01b0393841660039290921b91821b9390911b1916919091179055565b612250613727565b5050909150613812565b90815491600160401b83101561220057826137ec9160016122509501815561078a565b9060018060a01b0382165f52600960205260405f205f8154905b81811061392b575015613900575b61225092506138ab565b600a54600160401b81101561220057612250936138758260016139269401600a556127d0565b6138f6565b613935818461078a565b90546001600160e01b031960039290921b1c60e01b81169085161461395c576001016138e8565b5050505050565b60405160208101915f835260218201526021815261303a604182612220565b90604051906020820192600160f81b8452602183015260418201526041815261303a60618261222056fea2646970667358221220527adc570d1d68f8523a4a12205eabe709c87fb967e38695a52732b0eed74f6464736f6c634300081e00332f8788117e7eff1d82e926ec794901d17c78024a50270940304540a733656f0d38aaaa29dfb0303c7bae203044f1aff27cc0d67cf1698cf28c98febc0bf7b8fbd2764f229a30959c33f3f0a590f28c7c9a71ddce646f8bc9daff3e93f5ac2a1a3c1b1854ab1360abbb06c8d4c6b2672d4b8cedc5eff522ab19e51d5cb8fdbd46ad3228b676f7d3cd4284a5443f17f1962b36e491b30a40b2405849e597ba5fb5",
  "linkReferences": {},
  "deployedLinkReferences": {}
}