{
  "_format": "hh-sol-artifact-1",
  "contractName": "DeterministicChunkFactory",
  "sourceName": "contracts/factory/DeterministicChunkFactory.sol",
  "abi": [
    {
      "inputs": [
        {
          "internalType": "address",
          "name": "_feeRecipient",
          "type": "address"
        },
        {
          "internalType": "address",
          "name": "_manifestDispatcher",
          "type": "address"
        },
        {
          "internalType": "bytes32",
          "name": "_manifestHash",
          "type": "bytes32"
        },
        {
          "internalType": "bytes32",
          "name": "_factoryBytecodeHash",
          "type": "bytes32"
        },
        {
          "internalType": "uint256",
          "name": "_baseFeeWei",
          "type": "uint256"
        },
        {
          "internalType": "bool",
          "name": "_feesEnabled",
          "type": "bool"
        }
      ],
      "stateMutability": "nonpayable",
      "type": "constructor"
    },
    {
      "inputs": [],
      "name": "AccessControlBadConfirmation",
      "type": "error"
    },
    {
      "inputs": [
        {
          "internalType": "address",
          "name": "account",
          "type": "address"
        },
        {
          "internalType": "bytes32",
          "name": "neededRole",
          "type": "bytes32"
        }
      ],
      "name": "AccessControlUnauthorizedAccount",
      "type": "error"
    },
    {
      "inputs": [],
      "name": "EnforcedPause",
      "type": "error"
    },
    {
      "inputs": [],
      "name": "ExpectedPause",
      "type": "error"
    },
    {
      "inputs": [],
      "name": "InvalidConstructorArgs",
      "type": "error"
    },
    {
      "inputs": [],
      "name": "ReentrancyGuardReentrantCall",
      "type": "error"
    },
    {
      "inputs": [],
      "name": "ZeroAddress",
      "type": "error"
    },
    {
      "anonymous": false,
      "inputs": [
        {
          "indexed": true,
          "internalType": "address",
          "name": "recipient",
          "type": "address"
        }
      ],
      "name": "AuthorizedRecipientAdded",
      "type": "event"
    },
    {
      "anonymous": false,
      "inputs": [
        {
          "indexed": true,
          "internalType": "address",
          "name": "recipient",
          "type": "address"
        }
      ],
      "name": "AuthorizedRecipientRemoved",
      "type": "event"
    },
    {
      "anonymous": false,
      "inputs": [
        {
          "indexed": false,
          "internalType": "uint256",
          "name": "newBaseFee",
          "type": "uint256"
        }
      ],
      "name": "BaseFeeSet",
      "type": "event"
    },
    {
      "anonymous": false,
      "inputs": [
        {
          "indexed": false,
          "internalType": "address[]",
          "name": "deployed",
          "type": "address[]"
        },
        {
          "indexed": false,
          "internalType": "bytes32[]",
          "name": "salts",
          "type": "bytes32[]"
        },
        {
          "indexed": true,
          "internalType": "address",
          "name": "deployer",
          "type": "address"
        },
        {
          "indexed": false,
          "internalType": "uint256",
          "name": "totalFee",
          "type": "uint256"
        }
      ],
      "name": "BatchDeployed",
      "type": "event"
    },
    {
      "anonymous": false,
      "inputs": [
        {
          "indexed": false,
          "internalType": "uint256",
          "name": "chunkCount",
          "type": "uint256"
        },
        {
          "indexed": false,
          "internalType": "uint256",
          "name": "gasUsed",
          "type": "uint256"
        },
        {
          "indexed": false,
          "internalType": "bytes32",
          "name": "packedMetadata",
          "type": "bytes32"
        },
        {
          "indexed": false,
          "internalType": "uint256",
          "name": "timestamp",
          "type": "uint256"
        }
      ],
      "name": "BatchStaged",
      "type": "event"
    },
    {
      "anonymous": false,
      "inputs": [
        {
          "indexed": true,
          "internalType": "address",
          "name": "chunk",
          "type": "address"
        },
        {
          "indexed": true,
          "internalType": "bytes32",
          "name": "hash",
          "type": "bytes32"
        },
        {
          "indexed": false,
          "internalType": "bytes32",
          "name": "salt",
          "type": "bytes32"
        },
        {
          "indexed": false,
          "internalType": "uint256",
          "name": "size",
          "type": "uint256"
        }
      ],
      "name": "ChunkStaged",
      "type": "event"
    },
    {
      "anonymous": false,
      "inputs": [
        {
          "indexed": true,
          "internalType": "address",
          "name": "deployed",
          "type": "address"
        },
        {
          "indexed": true,
          "internalType": "bytes32",
          "name": "salt",
          "type": "bytes32"
        },
        {
          "indexed": true,
          "internalType": "address",
          "name": "deployer",
          "type": "address"
        },
        {
          "indexed": false,
          "internalType": "uint256",
          "name": "fee",
          "type": "uint256"
        }
      ],
      "name": "ContractDeployed",
      "type": "event"
    },
    {
      "anonymous": false,
      "inputs": [
        {
          "indexed": true,
          "internalType": "address",
          "name": "previousAdmin",
          "type": "address"
        },
        {
          "indexed": true,
          "internalType": "address",
          "name": "newAdmin",
          "type": "address"
        }
      ],
      "name": "DefaultAdminTransferred",
      "type": "event"
    },
    {
      "anonymous": false,
      "inputs": [
        {
          "indexed": true,
          "internalType": "address",
          "name": "recipient",
          "type": "address"
        },
        {
          "indexed": false,
          "internalType": "uint256",
          "name": "amount",
          "type": "uint256"
        }
      ],
      "name": "EmergencyWithdrawal",
      "type": "event"
    },
    {
      "anonymous": false,
      "inputs": [
        {
          "indexed": true,
          "internalType": "address",
          "name": "collector",
          "type": "address"
        },
        {
          "indexed": false,
          "internalType": "uint256",
          "name": "amount",
          "type": "uint256"
        }
      ],
      "name": "FeeCollectionFailed",
      "type": "event"
    },
    {
      "anonymous": false,
      "inputs": [
        {
          "indexed": true,
          "internalType": "address",
          "name": "newRecipient",
          "type": "address"
        }
      ],
      "name": "FeeRecipientSet",
      "type": "event"
    },
    {
      "anonymous": false,
      "inputs": [
        {
          "indexed": false,
          "internalType": "bool",
          "name": "enabled",
          "type": "bool"
        }
      ],
      "name": "FeesEnabledSet",
      "type": "event"
    },
    {
      "anonymous": false,
      "inputs": [
        {
          "indexed": true,
          "internalType": "address",
          "name": "recipient",
          "type": "address"
        },
        {
          "indexed": false,
          "internalType": "uint256",
          "name": "amount",
          "type": "uint256"
        }
      ],
      "name": "FeesWithdrawn",
      "type": "event"
    },
    {
      "anonymous": false,
      "inputs": [
        {
          "indexed": false,
          "internalType": "bool",
          "name": "enabled",
          "type": "bool"
        }
      ],
      "name": "IdempotentModeSet",
      "type": "event"
    },
    {
      "anonymous": false,
      "inputs": [
        {
          "indexed": false,
          "internalType": "address",
          "name": "account",
          "type": "address"
        }
      ],
      "name": "Paused",
      "type": "event"
    },
    {
      "anonymous": false,
      "inputs": [
        {
          "indexed": true,
          "internalType": "bytes32",
          "name": "role",
          "type": "bytes32"
        },
        {
          "indexed": true,
          "internalType": "bytes32",
          "name": "previousAdminRole",
          "type": "bytes32"
        },
        {
          "indexed": true,
          "internalType": "bytes32",
          "name": "newAdminRole",
          "type": "bytes32"
        }
      ],
      "name": "RoleAdminChanged",
      "type": "event"
    },
    {
      "anonymous": false,
      "inputs": [
        {
          "indexed": true,
          "internalType": "bytes32",
          "name": "role",
          "type": "bytes32"
        },
        {
          "indexed": true,
          "internalType": "address",
          "name": "account",
          "type": "address"
        },
        {
          "indexed": true,
          "internalType": "address",
          "name": "sender",
          "type": "address"
        }
      ],
      "name": "RoleGranted",
      "type": "event"
    },
    {
      "anonymous": false,
      "inputs": [
        {
          "indexed": true,
          "internalType": "bytes32",
          "name": "role",
          "type": "bytes32"
        },
        {
          "indexed": true,
          "internalType": "address",
          "name": "account",
          "type": "address"
        },
        {
          "indexed": true,
          "internalType": "address",
          "name": "sender",
          "type": "address"
        }
      ],
      "name": "RoleRevoked",
      "type": "event"
    },
    {
      "anonymous": false,
      "inputs": [
        {
          "indexed": true,
          "internalType": "uint8",
          "name": "tier",
          "type": "uint8"
        },
        {
          "indexed": false,
          "internalType": "uint256",
          "name": "fee",
          "type": "uint256"
        }
      ],
      "name": "TierFeeSet",
      "type": "event"
    },
    {
      "anonymous": false,
      "inputs": [
        {
          "indexed": false,
          "internalType": "address",
          "name": "account",
          "type": "address"
        }
      ],
      "name": "Unpaused",
      "type": "event"
    },
    {
      "anonymous": false,
      "inputs": [
        {
          "indexed": true,
          "internalType": "address",
          "name": "user",
          "type": "address"
        },
        {
          "indexed": false,
          "internalType": "uint8",
          "name": "tier",
          "type": "uint8"
        }
      ],
      "name": "UserTierSet",
      "type": "event"
    },
    {
      "inputs": [],
      "name": "DEFAULT_ADMIN_ROLE",
      "outputs": [
        {
          "internalType": "bytes32",
          "name": "",
          "type": "bytes32"
        }
      ],
      "stateMutability": "view",
      "type": "function"
    },
    {
      "inputs": [],
      "name": "FEE_ROLE",
      "outputs": [
        {
          "internalType": "bytes32",
          "name": "",
          "type": "bytes32"
        }
      ],
      "stateMutability": "view",
      "type": "function"
    },
    {
      "inputs": [],
      "name": "MAX_CHUNK_BYTES",
      "outputs": [
        {
          "internalType": "uint256",
          "name": "",
          "type": "uint256"
        }
      ],
      "stateMutability": "view",
      "type": "function"
    },
    {
      "inputs": [],
      "name": "OPERATOR_ROLE",
      "outputs": [
        {
          "internalType": "bytes32",
          "name": "",
          "type": "bytes32"
        }
      ],
      "stateMutability": "view",
      "type": "function"
    },
    {
      "inputs": [
        {
          "internalType": "address",
          "name": "recipient",
          "type": "address"
        }
      ],
      "name": "addAuthorizedRecipient",
      "outputs": [],
      "stateMutability": "nonpayable",
      "type": "function"
    },
    {
      "inputs": [
        {
          "internalType": "address",
          "name": "",
          "type": "address"
        }
      ],
      "name": "authorizedRecipients",
      "outputs": [
        {
          "internalType": "bool",
          "name": "",
          "type": "bool"
        }
      ],
      "stateMutability": "view",
      "type": "function"
    },
    {
      "inputs": [],
      "name": "baseFeeWei",
      "outputs": [
        {
          "internalType": "uint256",
          "name": "",
          "type": "uint256"
        }
      ],
      "stateMutability": "view",
      "type": "function"
    },
    {
      "inputs": [
        {
          "internalType": "bytes32",
          "name": "",
          "type": "bytes32"
        }
      ],
      "name": "chunkOf",
      "outputs": [
        {
          "internalType": "address",
          "name": "",
          "type": "address"
        }
      ],
      "stateMutability": "view",
      "type": "function"
    },
    {
      "inputs": [],
      "name": "defaultAdmin",
      "outputs": [
        {
          "internalType": "address",
          "name": "",
          "type": "address"
        }
      ],
      "stateMutability": "view",
      "type": "function"
    },
    {
      "inputs": [
        {
          "internalType": "bytes32",
          "name": "salt",
          "type": "bytes32"
        },
        {
          "internalType": "bytes",
          "name": "bytecode",
          "type": "bytes"
        },
        {
          "internalType": "bytes",
          "name": "constructorArgs",
          "type": "bytes"
        }
      ],
      "name": "deployDeterministic",
      "outputs": [
        {
          "internalType": "address",
          "name": "deployed",
          "type": "address"
        }
      ],
      "stateMutability": "payable",
      "type": "function"
    },
    {
      "inputs": [
        {
          "internalType": "bytes32[]",
          "name": "salts",
          "type": "bytes32[]"
        },
        {
          "internalType": "bytes[]",
          "name": "bytecodes",
          "type": "bytes[]"
        },
        {
          "internalType": "bytes[]",
          "name": "constructorArgs",
          "type": "bytes[]"
        }
      ],
      "name": "deployDeterministicBatch",
      "outputs": [
        {
          "internalType": "address[]",
          "name": "deployed",
          "type": "address[]"
        }
      ],
      "stateMutability": "payable",
      "type": "function"
    },
    {
      "inputs": [],
      "name": "deploymentCount",
      "outputs": [
        {
          "internalType": "uint256",
          "name": "",
          "type": "uint256"
        }
      ],
      "stateMutability": "view",
      "type": "function"
    },
    {
      "inputs": [],
      "name": "emergencyWithdraw",
      "outputs": [],
      "stateMutability": "nonpayable",
      "type": "function"
    },
    {
      "inputs": [
        {
          "internalType": "bytes32",
          "name": "hash",
          "type": "bytes32"
        }
      ],
      "name": "exists",
      "outputs": [
        {
          "internalType": "bool",
          "name": "",
          "type": "bool"
        }
      ],
      "stateMutability": "view",
      "type": "function"
    },
    {
      "inputs": [],
      "name": "expectedFactoryBytecodeHash",
      "outputs": [
        {
          "internalType": "bytes32",
          "name": "",
          "type": "bytes32"
        }
      ],
      "stateMutability": "view",
      "type": "function"
    },
    {
      "inputs": [],
      "name": "expectedManifestDispatcher",
      "outputs": [
        {
          "internalType": "address",
          "name": "",
          "type": "address"
        }
      ],
      "stateMutability": "view",
      "type": "function"
    },
    {
      "inputs": [],
      "name": "expectedManifestHash",
      "outputs": [
        {
          "internalType": "bytes32",
          "name": "",
          "type": "bytes32"
        }
      ],
      "stateMutability": "view",
      "type": "function"
    },
    {
      "inputs": [],
      "name": "feeRecipient",
      "outputs": [
        {
          "internalType": "address",
          "name": "",
          "type": "address"
        }
      ],
      "stateMutability": "view",
      "type": "function"
    },
    {
      "inputs": [],
      "name": "feesEnabled",
      "outputs": [
        {
          "internalType": "bool",
          "name": "",
          "type": "bool"
        }
      ],
      "stateMutability": "view",
      "type": "function"
    },
    {
      "inputs": [],
      "name": "getDeploymentCount",
      "outputs": [
        {
          "internalType": "uint256",
          "name": "",
          "type": "uint256"
        }
      ],
      "stateMutability": "view",
      "type": "function"
    },
    {
      "inputs": [],
      "name": "getDeploymentFee",
      "outputs": [
        {
          "internalType": "uint256",
          "name": "",
          "type": "uint256"
        }
      ],
      "stateMutability": "view",
      "type": "function"
    },
    {
      "inputs": [],
      "name": "getExpectedFactoryBytecodeHash",
      "outputs": [
        {
          "internalType": "bytes32",
          "name": "",
          "type": "bytes32"
        }
      ],
      "stateMutability": "view",
      "type": "function"
    },
    {
      "inputs": [],
      "name": "getExpectedManifestHash",
      "outputs": [
        {
          "internalType": "bytes32",
          "name": "",
          "type": "bytes32"
        }
      ],
      "stateMutability": "view",
      "type": "function"
    },
    {
      "inputs": [],
      "name": "getManifestDispatcher",
      "outputs": [
        {
          "internalType": "address",
          "name": "",
          "type": "address"
        }
      ],
      "stateMutability": "view",
      "type": "function"
    },
    {
      "inputs": [
        {
          "internalType": "bytes32",
          "name": "role",
          "type": "bytes32"
        }
      ],
      "name": "getRoleAdmin",
      "outputs": [
        {
          "internalType": "bytes32",
          "name": "",
          "type": "bytes32"
        }
      ],
      "stateMutability": "view",
      "type": "function"
    },
    {
      "inputs": [
        {
          "internalType": "address",
          "name": "user",
          "type": "address"
        }
      ],
      "name": "getUserTier",
      "outputs": [
        {
          "internalType": "uint8",
          "name": "",
          "type": "uint8"
        }
      ],
      "stateMutability": "view",
      "type": "function"
    },
    {
      "inputs": [
        {
          "internalType": "bytes32",
          "name": "role",
          "type": "bytes32"
        },
        {
          "internalType": "address",
          "name": "account",
          "type": "address"
        }
      ],
      "name": "grantRole",
      "outputs": [],
      "stateMutability": "nonpayable",
      "type": "function"
    },
    {
      "inputs": [
        {
          "internalType": "bytes32",
          "name": "role",
          "type": "bytes32"
        },
        {
          "internalType": "address",
          "name": "account",
          "type": "address"
        }
      ],
      "name": "hasRole",
      "outputs": [
        {
          "internalType": "bool",
          "name": "",
          "type": "bool"
        }
      ],
      "stateMutability": "view",
      "type": "function"
    },
    {
      "inputs": [],
      "name": "idempotentMode",
      "outputs": [
        {
          "internalType": "bool",
          "name": "",
          "type": "bool"
        }
      ],
      "stateMutability": "view",
      "type": "function"
    },
    {
      "inputs": [
        {
          "internalType": "address",
          "name": "target",
          "type": "address"
        }
      ],
      "name": "isDeployed",
      "outputs": [
        {
          "internalType": "bool",
          "name": "",
          "type": "bool"
        }
      ],
      "stateMutability": "view",
      "type": "function"
    },
    {
      "inputs": [
        {
          "internalType": "address",
          "name": "",
          "type": "address"
        }
      ],
      "name": "isDeployedContract",
      "outputs": [
        {
          "internalType": "bool",
          "name": "",
          "type": "bool"
        }
      ],
      "stateMutability": "view",
      "type": "function"
    },
    {
      "inputs": [],
      "name": "maxSingleTransfer",
      "outputs": [
        {
          "internalType": "uint256",
          "name": "",
          "type": "uint256"
        }
      ],
      "stateMutability": "view",
      "type": "function"
    },
    {
      "inputs": [],
      "name": "owner",
      "outputs": [
        {
          "internalType": "address",
          "name": "",
          "type": "address"
        }
      ],
      "stateMutability": "view",
      "type": "function"
    },
    {
      "inputs": [],
      "name": "pause",
      "outputs": [],
      "stateMutability": "nonpayable",
      "type": "function"
    },
    {
      "inputs": [],
      "name": "paused",
      "outputs": [
        {
          "internalType": "bool",
          "name": "",
          "type": "bool"
        }
      ],
      "stateMutability": "view",
      "type": "function"
    },
    {
      "inputs": [
        {
          "internalType": "bytes",
          "name": "data",
          "type": "bytes"
        }
      ],
      "name": "predict",
      "outputs": [
        {
          "internalType": "address",
          "name": "predicted",
          "type": "address"
        },
        {
          "internalType": "bytes32",
          "name": "hash",
          "type": "bytes32"
        }
      ],
      "stateMutability": "view",
      "type": "function"
    },
    {
      "inputs": [
        {
          "internalType": "bytes32",
          "name": "salt",
          "type": "bytes32"
        },
        {
          "internalType": "bytes32",
          "name": "codeHash",
          "type": "bytes32"
        }
      ],
      "name": "predictAddress",
      "outputs": [
        {
          "internalType": "address",
          "name": "",
          "type": "address"
        }
      ],
      "stateMutability": "view",
      "type": "function"
    },
    {
      "inputs": [
        {
          "internalType": "bytes32[]",
          "name": "salts",
          "type": "bytes32[]"
        },
        {
          "internalType": "bytes32[]",
          "name": "codeHashes",
          "type": "bytes32[]"
        }
      ],
      "name": "predictAddressBatch",
      "outputs": [
        {
          "internalType": "address[]",
          "name": "predicted",
          "type": "address[]"
        }
      ],
      "stateMutability": "view",
      "type": "function"
    },
    {
      "inputs": [
        {
          "internalType": "address",
          "name": "chunk",
          "type": "address"
        }
      ],
      "name": "read",
      "outputs": [
        {
          "internalType": "bytes",
          "name": "",
          "type": "bytes"
        }
      ],
      "stateMutability": "view",
      "type": "function"
    },
    {
      "inputs": [
        {
          "internalType": "address",
          "name": "recipient",
          "type": "address"
        }
      ],
      "name": "removeAuthorizedRecipient",
      "outputs": [],
      "stateMutability": "nonpayable",
      "type": "function"
    },
    {
      "inputs": [
        {
          "internalType": "bytes32",
          "name": "role",
          "type": "bytes32"
        },
        {
          "internalType": "address",
          "name": "callerConfirmation",
          "type": "address"
        }
      ],
      "name": "renounceRole",
      "outputs": [],
      "stateMutability": "nonpayable",
      "type": "function"
    },
    {
      "inputs": [
        {
          "internalType": "bytes32",
          "name": "role",
          "type": "bytes32"
        },
        {
          "internalType": "address",
          "name": "account",
          "type": "address"
        }
      ],
      "name": "revokeRole",
      "outputs": [],
      "stateMutability": "nonpayable",
      "type": "function"
    },
    {
      "inputs": [
        {
          "internalType": "uint256",
          "name": "newBase",
          "type": "uint256"
        }
      ],
      "name": "setBaseFeeWei",
      "outputs": [],
      "stateMutability": "nonpayable",
      "type": "function"
    },
    {
      "inputs": [
        {
          "internalType": "address",
          "name": "newRecipient",
          "type": "address"
        }
      ],
      "name": "setFeeRecipient",
      "outputs": [],
      "stateMutability": "nonpayable",
      "type": "function"
    },
    {
      "inputs": [
        {
          "internalType": "bool",
          "name": "enabled",
          "type": "bool"
        }
      ],
      "name": "setFeesEnabled",
      "outputs": [],
      "stateMutability": "nonpayable",
      "type": "function"
    },
    {
      "inputs": [
        {
          "internalType": "bool",
          "name": "enabled",
          "type": "bool"
        }
      ],
      "name": "setIdempotentMode",
      "outputs": [],
      "stateMutability": "nonpayable",
      "type": "function"
    },
    {
      "inputs": [
        {
          "internalType": "uint256",
          "name": "newMax",
          "type": "uint256"
        }
      ],
      "name": "setMaxSingleTransfer",
      "outputs": [],
      "stateMutability": "nonpayable",
      "type": "function"
    },
    {
      "inputs": [
        {
          "internalType": "uint8",
          "name": "tier",
          "type": "uint8"
        },
        {
          "internalType": "uint256",
          "name": "fee",
          "type": "uint256"
        }
      ],
      "name": "setTierFee",
      "outputs": [],
      "stateMutability": "nonpayable",
      "type": "function"
    },
    {
      "inputs": [
        {
          "internalType": "address",
          "name": "user",
          "type": "address"
        },
        {
          "internalType": "uint8",
          "name": "tier",
          "type": "uint8"
        }
      ],
      "name": "setUserTier",
      "outputs": [],
      "stateMutability": "nonpayable",
      "type": "function"
    },
    {
      "inputs": [
        {
          "internalType": "bytes",
          "name": "data",
          "type": "bytes"
        }
      ],
      "name": "stage",
      "outputs": [
        {
          "internalType": "address",
          "name": "chunk",
          "type": "address"
        },
        {
          "internalType": "bytes32",
          "name": "hash",
          "type": "bytes32"
        }
      ],
      "stateMutability": "payable",
      "type": "function"
    },
    {
      "inputs": [
        {
          "internalType": "bytes[]",
          "name": "blobs",
          "type": "bytes[]"
        }
      ],
      "name": "stageBatch",
      "outputs": [
        {
          "internalType": "address[]",
          "name": "chunks",
          "type": "address[]"
        },
        {
          "internalType": "bytes32[]",
          "name": "hashes",
          "type": "bytes32[]"
        }
      ],
      "stateMutability": "payable",
      "type": "function"
    },
    {
      "inputs": [
        {
          "internalType": "bytes[]",
          "name": "dataArray",
          "type": "bytes[]"
        }
      ],
      "name": "stageMany",
      "outputs": [
        {
          "internalType": "address[]",
          "name": "chunks",
          "type": "address[]"
        }
      ],
      "stateMutability": "payable",
      "type": "function"
    },
    {
      "inputs": [
        {
          "internalType": "bytes4",
          "name": "interfaceId",
          "type": "bytes4"
        }
      ],
      "name": "supportsInterface",
      "outputs": [
        {
          "internalType": "bool",
          "name": "",
          "type": "bool"
        }
      ],
      "stateMutability": "view",
      "type": "function"
    },
    {
      "inputs": [
        {
          "internalType": "uint8",
          "name": "",
          "type": "uint8"
        }
      ],
      "name": "tierFees",
      "outputs": [
        {
          "internalType": "uint256",
          "name": "",
          "type": "uint256"
        }
      ],
      "stateMutability": "view",
      "type": "function"
    },
    {
      "inputs": [
        {
          "internalType": "address",
          "name": "newAdmin",
          "type": "address"
        }
      ],
      "name": "transferDefaultAdmin",
      "outputs": [],
      "stateMutability": "nonpayable",
      "type": "function"
    },
    {
      "inputs": [],
      "name": "unpause",
      "outputs": [],
      "stateMutability": "nonpayable",
      "type": "function"
    },
    {
      "inputs": [
        {
          "internalType": "address",
          "name": "",
          "type": "address"
        }
      ],
      "name": "userTiers",
      "outputs": [
        {
          "internalType": "uint8",
          "name": "",
          "type": "uint8"
        }
      ],
      "stateMutability": "view",
      "type": "function"
    },
    {
      "inputs": [
        {
          "internalType": "bytes",
          "name": "bytecode",
          "type": "bytes"
        }
      ],
      "name": "validateBytecodeSize",
      "outputs": [
        {
          "internalType": "bool",
          "name": "",
          "type": "bool"
        }
      ],
      "stateMutability": "pure",
      "type": "function"
    },
    {
      "inputs": [],
      "name": "verifySystemIntegrity",
      "outputs": [
        {
          "internalType": "bool",
          "name": "",
          "type": "bool"
        }
      ],
      "stateMutability": "view",
      "type": "function"
    },
    {
      "inputs": [],
      "name": "withdrawFees",
      "outputs": [],
      "stateMutability": "nonpayable",
      "type": "function"
    },
    {
      "inputs": [],
      "name": "withdrawRefund",
      "outputs": [],
      "stateMutability": "nonpayable",
      "type": "function"
    }
  ],
  "bytecode": "0x60e03461018a57601f612ed238819003918201601f19168301916001600160401b0383118484101761018e5780849260c09460405283398101031261018a57610047816101a2565b90610054602082016101a2565b604082015160608301519160a060808501519401519485151580960361018a5760018055670de0b6b3a76400006004556008805461ff0019166101001790556001600160a01b0316801561017b576001600160a01b0382161561017b57821561016c57831561016c576100c6336101b6565b506100d03361022c565b506100da336102bf565b503360018060a01b03196005541617600555335f52600360205260405f20600160ff1982541617905560018060a01b0319600654161760065560805260a05260c05260075560ff801960085416911617600855604051612aff908161035382396080518181816108bf0152612429015260a0518181816109df0152612499015260c051818181610d32015261245a0152f35b63d3c1346960e01b5f5260045ffd5b63d92e233d60e01b5f5260045ffd5b5f80fd5b634e487b7160e01b5f52604160045260245ffd5b51906001600160a01b038216820361018a57565b6001600160a01b0381165f9081525f516020612e925f395f51905f52602052604090205460ff16610227576001600160a01b03165f8181525f516020612e925f395f51905f5260205260408120805460ff191660011790553391905f516020612e525f395f51905f528180a4600190565b505f90565b6001600160a01b0381165f9081525f516020612e725f395f51905f52602052604090205460ff16610227576001600160a01b03165f8181525f516020612e725f395f51905f5260205260408120805460ff191660011790553391907f97667070c54ef182b0f5858b034beac1b6f3089aa2d3188bb1e8929f4fa9b929905f516020612e525f395f51905f529080a4600190565b6001600160a01b0381165f9081525f516020612eb25f395f51905f52602052604090205460ff16610227576001600160a01b03165f8181525f516020612eb25f395f51905f5260205260408120805460ff191660011790553391907ff33fe78eb7c840e8bf68670029904b6f0da8e79346941c278a4e7676d473df15905f516020612e525f395f51905f529080a460019056fe60806040526004361015610011575f80fd5b5f3560e01c806301ffc9a7146103c15780630bfde0da146103bc57806310a93528146103b7578063110f8874146103b25780631a0275b7146103ad5780631d513465146103a857806324063c82146102db578063248a9ca3146103a35780632a0276f81461039e5780632f2ff15d1461039957806336568abe1461039457806336b089d81461038f578063377e70fd1461038a57806338a699a41461038557806339f907dd146102c75780633f4ba83a1461038057806340fca0081461037b5780634311dc75146102f4578063469048401461037657806346c549cc14610371578063476343ee1461036c5780634c36f10d146103035780634e0e2526146103675780635c975abb146103625780635ea31b981461035d5780636290caec14610335578063632214901461035857806379189d61146103535780637ed1cd47146103085780637f4aedfe1461034e5780638061c715146103495780638456cb591461034457806384ef8ffc1461033f5780638da5cb5b1461033f5780638e7163c21461033a57806390184b021461033557806391d1485414610330578063939e255c1461032b578063a04725c614610326578063a087a87e14610321578063a217fddf1461031c578063a64139fa14610317578063a64e4f8a14610312578063a901dd921461030d578063aec8dc8414610308578063b3eedf1214610303578063b632ab57146102fe578063b697ff8a146102f9578063bc2e51df146102f4578063c2c8e21a146102ef578063c97237be146102ea578063d547741f146102e5578063db2e21bc146102e0578063e4d2620e146102db578063e74b981b146102d6578063ebc471c4146102d1578063ee05163a146102cc578063ee9d1ef5146102c7578063f5b541a6146102c2578063f5d70dd4146102bd5763fa8c96ef146102b8575f80fd5b6117a0565b611783565b611749565b6108aa565b6116c5565b611693565b61162b565b6106f8565b611579565b61153c565b6114f0565b611251565b6109c8565b611229565b61120d565b610b21565b610d1b565b6111ba565b611198565b611135565b6110c4565b611073565b610ff6565b610fd2565b610f84565b610c19565b610ec9565b610ea1565b610e48565b610de9565b610d69565b610c77565b610c56565b610b9d565b610b7b565b610b3e565b610a45565b610a2a565b610a02565b61096f565b6108ee565b610876565b610844565b610827565b6107e3565b61079f565b610765565b610733565b6105d3565b610514565b6104c1565b61048d565b61042b565b346104175760203660031901126104175760043563ffffffff60e01b811680910361041757602090637965db0b60e01b8114908115610406575b506040519015158152f35b6301ffc9a760e01b1490505f6103fb565b5f80fd5b6004359060ff8216820361041757565b346104175760403660031901126104175761044461041b565b7f255168929ef495e26e40b56a53cdf3b4782edb23a91efb8349e3e02c5bda0c59602060ff60243593610475611d5d565b1692835f52600c82528060405f2055604051908152a2005b346104175760403660031901126104175760206104af60243560043530611eaf565b6040516001600160a01b039091168152f35b34610417575f366003190112610417576104d9611f02565b60405162461bcd60e51b81526020600482015260136024820152724e6f20726566756e6420617661696c61626c6560681b6044820152606490fd5b34610417575f36600319011261041757602060ff60085460081c166040519015158152f35b9181601f84011215610417578235916001600160401b038311610417576020808501948460051b01011161041757565b602060031982011261041757600435906001600160401b0382116104175761059391600401610539565b9091565b90602080835192838152019201905f5b8181106105b45750505090565b82516001600160a01b03168452602093840193909201916001016105a7565b6105dc36610569565b6105e4611f02565b6105ec611f22565b6105f581611834565b916105ff8261181d565b9161060d60405193846117f7565b808352601f1961061c8261181d565b0136602085013761062c81611f3d565b5f5b81811061069057610652858560018055604051928392604084526040840190610597565b8281036020840152602080835192838152019201905f5b818110610677575050500390f35b8251845285945060209384019390920191600101610669565b806106a76106a1600193858761187a565b90612046565b6106b183886118c0565b526106bc82886118c0565b90838060a01b031690520161062e565b600435906001600160a01b038216820361041757565b602435906001600160a01b038216820361041757565b34610417576020366003190112610417576001600160a01b036107196106cc565b165f52600d602052602060ff60405f205416604051908152f35b3461041757602036600319011261041757602061075d6004355f525f602052600160405f20015490565b604051908152f35b34610417575f3660031901126104175760206040517ff33fe78eb7c840e8bf68670029904b6f0da8e79346941c278a4e7676d473df158152f35b34610417576040366003190112610417576107e16004356107be6106e2565b906107dc6107d7825f525f602052600160405f20015490565b611e77565b612253565b005b34610417576040366003190112610417576004356107ff6106e2565b336001600160a01b03821603610818576107e191612361565b63334bd91960e11b5f5260045ffd5b34610417575f366003190112610417576020600454604051908152f35b34610417576020366003190112610417576004355f526009602052602060018060a01b0360405f205416604051908152f35b34610417576020366003190112610417576004355f526009602052602060018060a01b0360405f2054161515604051908152f35b34610417575f366003190112610417576040517f00000000000000000000000000000000000000000000000000000000000000006001600160a01b03168152602090f35b34610417575f36600319011261041757610906611dcc565b60025460ff8116156109455760ff19166002557f5db9ee0a495bf2e6ff9c91a7834c1ba4fdd244a5e8aa4e537bd38aeae4b073aa6020604051338152a1005b638dfc202b60e01b5f5260045ffd5b60209060031901126104175760043580151581036104175790565b34610417577ffe7387ce7a577db9fff975d9cdddba35483399f4aebdad1429e9a8ae1bc4451260206109a036610954565b6109a8611dcc565b151560085461ff008260081b169061ff00191617600855604051908152a1005b34610417575f3660031901126104175760206040517f00000000000000000000000000000000000000000000000000000000000000008152f35b34610417575f366003190112610417576006546040516001600160a01b039091168152602090f35b34610417575f36600319011261041757602061075d336123e5565b34610417575f36600319011261041757610a5d611f02565b6006546001600160a01b0381163303610ae857610aa65f808080610a969547968791610a8a8315156118d4565b6001600160a01b031690565b5af1610aa0611931565b50611960565b6006546040519182526001600160a01b0316907fc0819c13be868895eb93e40eaceb96de976442fa1d404e5c55f14bb65a8c489a90602090a26107e160018055565b60405162461bcd60e51b8152602060048201526011602482015270139bdd08199959481c9958da5c1a595b9d607a1b6044820152606490fd5b34610417575f366003190112610417576020600a54604051908152f35b34610417576020366003190112610417576001600160a01b03610b5f6106cc565b165f526003602052602060ff60405f2054166040519015158152f35b34610417575f36600319011261041757602060ff600254166040519015158152f35b3461041757602036600319011261041757610bb66106cc565b610bbe611e3b565b6001600160a01b038116908115610c0a57610bed90610be760018060a01b0360055416916121ca565b506122df565b506bffffffffffffffffffffffff60a01b60055416176005555f80f35b63d92e233d60e01b5f5260045ffd5b34610417576020366003190112610417576001600160a01b03610c3a6106cc565b165f52600b602052602060ff60405f2054166040519015158152f35b3461041757602036600319011261041757600435610c72611e3b565b600455005b3461041757602036600319011261041757610c906106cc565b335f9081525f516020612aaa5f395f51905f5260205260409020610cb99060ff905b541661199e565b6001600160a01b03168015610ce2575f908152600360205260409020805460ff19166001179055005b60405162461bcd60e51b8152602060048201526011602482015270125b9d985b1a59081c9958da5c1a595b9d607a1b6044820152606490fd5b34610417575f3660031901126104175760206040517f00000000000000000000000000000000000000000000000000000000000000008152f35b906020610d66928181520190610597565b90565b610d7236610569565b90610d7b611f02565b610d83611f22565b610d8c82611834565b91610d9681611f3d565b5f5b818110610dbd576001805560405160208082528190610db990820187610597565b0390f35b80610dce6106a1600193858761187a565b50610dd982876118c0565b90838060a01b0316905201610d98565b3461041757602036600319011261041757610e026106cc565b335f9081525f516020612aaa5f395f51905f5260205260409020610e289060ff90610cb2565b6001600160a01b03165f908152600360205260409020805460ff19169055005b34610417575f36600319011261041757610e60611dcc565b610e68611f22565b600160ff1960025416176002557f62e78cea01bee320cd4e420270b5ea74000d11b0c9f74754ebdbfc544b05a2586020604051338152a1005b34610417575f366003190112610417576005546040516001600160a01b039091168152602090f35b34610417576040366003190112610417576004356001600160401b03811161041757610ef9903690600401610539565b906024356001600160401b03811161041757610f19903690600401610539565b610f248185146119d6565b610f2d84611834565b935f5b818110610f455760405180610db98882610d55565b80610f6a610f566001938589611a1a565b35610f62838789611a1a565b359030611eaf565b610f7482896118c0565b90838060a01b0316905201610f30565b3461041757604036600319011261041757602060ff610fc6600435610fa76106e2565b905f525f845260405f209060018060a01b03165f5260205260405f2090565b54166040519015158152f35b34610417575f366003190112610417576020610fec612427565b6040519015158152f35b346104175760403660031901126104175761100f6106cc565b6024359060ff82168092036104175760207f815e4d8cfbf89de2051d8965cbffb95b36c1e3eb77b2789fa4ca1c298c97d8659161104a611d5d565b6001600160a01b03165f818152600d8352604090819020805460ff1916861790555193845292a2005b3461041757602036600319011261041757602060406110986110936106cc565b6124de565b815192839181835280519182918282860152018484015e5f828201840152601f01601f19168101030190f35b34610417575f3660031901126104175760206040515f8152f35b9181601f84011215610417578235916001600160401b038311610417576020838186019501011161041757565b602060031982011261041757600435906001600160401b03821161041757610593916004016110de565b346104175761117c6111463661110b565b919061116e611156368584611a2a565b6020815191012093611168818461253b565b9261258d565b602081519101209030611eaf565b604080516001600160a01b039290921682526020820192909252f35b34610417575f36600319011261041757602060ff600854166040519015158152f35b34610417577fa61c2215b736b8ccd98e82c522342dfeb181222fcf44244e0e681496a830d04e60206111eb36610954565b6111f3611d5d565b151560ff196008541660ff821617600855604051908152a1005b34610417575f366003190112610417576020604051615dc08152f35b3461041757602061c00061124661123f3661110b565b3691611a2a565b511115604051908152f35b6060366003190112610417576004356001600160401b0381116104175761127c903690600401610539565b6024356001600160401b0381116104175761129b903690600401610539565b92906044356001600160401b038111610417576112bc903690600401610539565b9390916112c7611f02565b6112cf611f22565b858214806114e7575b6112e1906119d6565b6112ea82611834565b946112fd836112f8336123e5565b611a74565b9361130a85341015611a8c565b5f5b84811061139457610db988887f20076281d01816c3e99faad6c3db1daed16a9861f1dedace7575e80bea36910b898981341161136d575b61135560405192839233968885611b73565b0390a261136160018055565b60405191829182610d55565b61138f5f80808061137e8734611b2a565b335af1611389611931565b50611b37565b611343565b6113c76113db6113a5838c8861187a565b91906113cd6113b586898961187a565b60405196879460208601978891611acb565b91611acb565b03601f1981018452836117f7565b6113f16113ec8361c0009051111590565b611ad8565b61140a82518220611403858a8d611a1a565b3530611eaf565b803b1515806114d8575b6114b0575061142483888b611a1a565b359151905ff590811561149d5760019160208260051b8b01015261148461147761145e611451848d6118c0565b516001600160a01b031690565b6001600160a01b03165f908152600b6020526040902090565b805460ff19166001179055565b611497611492600a54611b1c565b600a55565b0161130c565b3d806114a7575f80fd5b604051815f823efd5b8392506114d391506114c46001948c6118c0565b6001600160a01b039091169052565b611497565b5060088054901c60ff16611414565b508585146112d8565b34610417576020366003190112610417577f7ebed77c7e1ffbe2a85cbeff53ae70227be1cb6e4131d9d4baf70c22b9edcc68602060043561152f611d5d565b80600755604051908152a1005b34610417576040366003190112610417576107e160043561155b6106e2565b906115746107d7825f525f602052600160405f20015490565b612361565b34610417575f36600319011261041757335f9081525f516020612aaa5f395f51905f52602052604090206115af9060ff90610cb2565b47156115ef575f808080476115d1610a8a610a8a60055460018060a01b031690565b8282156115e6575bf1156115e157005b611bb9565b506108fc6115d9565b60405162461bcd60e51b81526020600482015260146024820152734e6f20457468657220746f20776974686472617760601b6044820152606490fd5b34610417576020366003190112610417576116446106cc565b61164c611d5d565b6001600160a01b03168015610c0a57600680546001600160a01b031916821790557fbf9a9534339a9d6b81696e05dcfb614b7dc518a31d48be3cfb757988381fb3235f80a2005b346104175760203660031901126104175760ff6116ae61041b565b165f52600c602052602060405f2054604051908152f35b6060366003190112610417576004356024356001600160401b038111610417576116f39036906004016110de565b9190604435916001600160401b0383116104175760209361171b6117339436906004016110de565b939092611726611f02565b61172e611f22565b611c10565b600180556040516001600160a01b039091168152f35b34610417575f3660031901126104175760206040517f97667070c54ef182b0f5858b034beac1b6f3089aa2d3188bb1e8929f4fa9b9298152f35b34610417575f366003190112610417576020600754604051908152f35b6117c26117ac3661110b565b906117b5611f02565b6117bd611f22565b612862565b60018055604080516001600160a01b03939093168352602083019190915290f35b634e487b7160e01b5f52604160045260245ffd5b90601f801991011681019081106001600160401b0382111761181857604052565b6117e3565b6001600160401b0381116118185760051b60200190565b9061183e8261181d565b61184b60405191826117f7565b828152809261185c601f199161181d565b0190602036910137565b634e487b7160e01b5f52603260045260245ffd5b91908110156118bb5760051b81013590601e19813603018212156104175701908135916001600160401b038311610417576020018236038113610417579190565b611866565b80518210156118bb5760209160051b010190565b156118db57565b60405162461bcd60e51b81526020600482015260136024820152724e6f206665657320746f20776974686472617760681b6044820152606490fd5b6001600160401b03811161181857601f01601f191660200190565b3d1561195b573d9061194282611916565b9161195060405193846117f7565b82523d5f602084013e565b606090565b1561196757565b60405162461bcd60e51b815260206004820152600f60248201526e151c985b9cd9995c8819985a5b1959608a1b6044820152606490fd5b156119a557565b60405162461bcd60e51b81526020600482015260096024820152682737ba1037bbb732b960b91b6044820152606490fd5b156119dd57565b60405162461bcd60e51b8152602060048201526015602482015274082e4e4c2f240d8cadccee8d040dad2e6dac2e8c6d605b1b6044820152606490fd5b91908110156118bb5760051b0190565b929192611a3682611916565b91611a4460405193846117f7565b829481845281830111610417578281602093845f960137010152565b634e487b7160e01b5f52601160045260245ffd5b81810292918115918404141715611a8757565b611a60565b15611a9357565b60405162461bcd60e51b815260206004820152601060248201526f496e73756666696369656e742066656560801b6044820152606490fd5b908092918237015f815290565b15611adf57565b60405162461bcd60e51b8152602060048201526015602482015274496e76616c69642062797465636f64652073697a6560581b6044820152606490fd5b5f198114611a875760010190565b91908203918211611a8757565b15611b3e57565b60405162461bcd60e51b815260206004820152600d60248201526c1499599d5b990819985a5b1959609a1b6044820152606490fd5b94939290611b8990606087526060870190610597565b8581036020870152818152916001600160fb1b0382116104175760409260209260051b8092848301370101930152565b6040513d5f823e3d90fd5b15611bcb57565b60405162461bcd60e51b815260206004820152601b60248201527f4465706c6f796d656e742061646472657373206d69736d6174636800000000006044820152606490fd5b9290611c38611c46926113c79796611c26612702565b60405198899460208601978891611acb565b03601f1981018652856117f7565b611c576113ec8561c0009051111590565b8351812093611c67858430611eaf565b803b611d0757505182915ff592831561149d57610a8a611c88918330611eaf565b6001600160a01b0384169190611c9f908314611bc4565b6001600160a01b0384165f908152600b60205260409020611cbf90611477565b611ccd611492600a54611b1c565b611cd6336123e5565b6040519081523392907f6f12dc0e4d0e1b50f4589e6e1100d3978b6aa062a0a67bf8e2d97f64126b0c4590602090a4565b939450505050611d1d60085460ff9060081c1690565b15611d255790565b60405162461bcd60e51b815260206004820152601060248201526f105b1c9958591e4819195c1b1bde595960821b6044820152606490fd5b335f9081527f127f6694bd7d2b38e18cf94c539cfa6ae4a708e6c203f09f0904141ec222f81f602052604090205460ff1615611d9557565b63e2517d3f60e01b5f52336004527ff33fe78eb7c840e8bf68670029904b6f0da8e79346941c278a4e7676d473df1560245260445ffd5b335f9081527fee57cd81e84075558e8fcc182a1f4393f91fc97f963a136e66b7f949a62f319f602052604090205460ff1615611e0457565b63e2517d3f60e01b5f52336004527f97667070c54ef182b0f5858b034beac1b6f3089aa2d3188bb1e8929f4fa9b92960245260445ffd5b335f9081525f516020612aaa5f395f51905f52602052604090205460ff1615611e6057565b63e2517d3f60e01b5f52336004525f60245260445ffd5b5f8181526020818152604080832033845290915290205460ff1615611e995750565b63e2517d3f60e01b5f523360045260245260445ffd5b909160405192602084019260ff60f81b84526bffffffffffffffffffffffff199060601b1660218501526035840152605583015260558252611ef26075836117f7565b905190206001600160a01b031690565b600260015414611f13576002600155565b633ee5aeb560e01b5f5260045ffd5b60ff60025416611f2e57565b63d93c066560e01b5f5260045ffd5b60ff6008541615611fc957611f55906112f8336123e5565b803410611f8457803411611f665750565b3403348111611a87575f808080611f8294335af1611389611931565b565b60405162461bcd60e51b815260206004820152601a60248201527f496e73756666696369656e742066656520666f722062617463680000000000006044820152606490fd5b50565b15611fd357565b60405162461bcd60e51b815260206004820152600c60248201526b496e76616c6964206461746160a01b6044820152606490fd5b1561200e57565b60405162461bcd60e51b815260206004820152601060248201526f082c8c8e4cae6e640dad2e6dac2e8c6d60831b6044820152606490fd5b909161206361205e612059368686611a2a565b6129cf565b611fcc565b61206d838361253b565b92612079368285611a2a565b602081519101209261209160085460ff9060081c1690565b806121a2575b61217757816120a59161258d565b8481516120b9602084019182208330611eaf565b9251905ff59485156104175784926001600160a01b03878116937ffe8c29f157dd5c1c0222d0d85766158c1b52fff7f8f2dca1d72f399fd762a356939161210291168514612007565b61213788612118875f52600960205260405f2090565b80546001600160a01b0319166001600160a01b03909216919091179055565b6001600160a01b0388165f908152600b6020526040902061215790611477565b612165611492600a54611b1c565b604080519182526020820192909252a3565b505090915061219e612191835f52600960205260405f2090565b546001600160a01b031690565b9190565b505f8481526009602052604090206001600160a01b03906121c290612191565b161515612097565b6001600160a01b0381165f9081525f516020612aaa5f395f51905f52602052604090205460ff1661224e576001600160a01b03165f8181525f516020612aaa5f395f51905f5260205260408120805460ff191660011790553391907f2f8788117e7eff1d82e926ec794901d17c78024a50270940304540a733656f0d8180a4600190565b505f90565b5f818152602081815260408083206001600160a01b038616845290915290205460ff166122d9575f818152602081815260408083206001600160a01b03861684529091529020805460ff1916600117905533916001600160a01b0316907f2f8788117e7eff1d82e926ec794901d17c78024a50270940304540a733656f0d5f80a4600190565b50505f90565b6001600160a01b0381165f9081525f516020612aaa5f395f51905f52602052604090205460ff161561224e576001600160a01b03165f8181525f516020612aaa5f395f51905f5260205260408120805460ff191690553391907ff6391f5c32d9c69d2a47ea670b442974b53935d1edc7fd64eb21e047a839171b8180a4600190565b5f818152602081815260408083206001600160a01b038616845290915290205460ff16156122d9575f818152602081815260408083206001600160a01b03861684529091529020805460ff1916905533916001600160a01b0316907ff6391f5c32d9c69d2a47ea670b442974b53935d1edc7fd64eb21e047a839171b5f80a4600190565b60ff600854161561224e576001600160a01b03165f908152600d602090815260408083205460ff168352600c90915290205480156124205790565b5060075490565b7f00000000000000000000000000000000000000000000000000000000000000006001600160a01b038116612496575b507f000000000000000000000000000000000000000000000000000000000000000080612485575b50600190565b303f03612492575f61247f565b5f90565b3f7f000000000000000000000000000000000000000000000000000000000000000003612492575f612457565b604051906124d26020836117f7565b5f808352366020840137565b906001600160a01b0382161561253157813b91600583111561252657600419830190838211611a875760059060405194838652603a601f19910116850160405260208501903c565b509050610d666124c3565b9050610d666124c3565b612546913691611a2a565b6020815191012060405160208101916531b43ab7359d60d11b83526026820152602681526125756046826117f7565b51902090565b805191908290602001825e015f815290565b612598913691611a2a565b805160ff811161264157604051600360fd1b6020820181905260f89290921b6001600160f81b0319166021820152600160ff1b602282015260238101829052600760f81b602482015260258101829052603960f81b6027820152602881019190915260f360f81b602a82015261263b91610d669161261b9061262981602b810184565b03601f1981018352826117f7565b915b604051948593602085019061257b565b9061257b565b61ffff81116126cc57604051606160f81b6020820181905260f09290921b6001600160f01b0319166021820152600160ff1b60238201526024810191909152600960f01b6025820152600360fd1b60278201819052603960f81b6029830152602a82015260f360f81b602c82015261263b91610d669161261b906126c681602d810184565b9161262b565b60405162461bcd60e51b815260206004820152600e60248201526d4461746120746f6f206c6172676560901b6044820152606490fd5b60ff6008541615611f8257612716336123e5565b61272281341015611a8c565b803411611f665750565b1561273357565b60405162461bcd60e51b815260206004820152602d60248201527f44657465726d696e69737469634368756e6b466163746f72793a20696e76616c60448201526c6964206368756e6b206461746160981b6064820152608490fd5b1561279557565b60405162461bcd60e51b815260206004820152603460248201527f44657465726d696e69737469634368756e6b466163746f72793a20696e76616c604482015273696420707265646963746564206164647265737360601b6064820152608490fd5b156127fe57565b60405162461bcd60e51b815260206004820152603660248201527f44657465726d696e69737469634368756e6b466163746f72793a206465706c6f6044820152750f2dacadce840c2c8c8e4cae6e640dad2e6dac2e8c6d60531b6064820152608490fd5b919061287a612875612059368487611a2a565b61272c565b612884818461253b565b90612890368286611a2a565b60208151910120936128a860085460ff9060081c1690565b806129a7575b61298f57816128bc9161258d565b8051602082019081208491906001600160a01b03906128dc908430611eaf565b16926128e984151561278e565b51905ff59283156104175785926001600160a01b038516927ffe8c29f157dd5c1c0222d0d85766158c1b52fff7f8f2dca1d72f399fd762a356929061292f9085146127f7565b61294586612118875f52600960205260405f2090565b6001600160a01b0386165f908152600b6020526040902061296590611477565b612973611492600a54611b1c565b61297b6129f1565b604080519182526020820192909252a39190565b50505061219e612191835f52600960205260405f2090565b505f8581526009602052604090206001600160a01b03906129c790612191565b1615156128ae565b51615dc0811161224e5760058101809111611a875761c0001061249257600190565b612a04612a0060085460ff1690565b1590565b611f8257612a11336123e5565b612a1d81341015611a8c565b80612a3e575b803411612a2d5750565b5f80808061137e611f829534611b2a565b5f80808084612a5a610a8a610a8a60065460018060a01b031690565b5af1612a64611931565b50612a23576006546040518281526001600160a01b03909116907f35c17c91437811502092c1c70baab3fad38f635163bfb5229604f82796e20c4d90602090a2612a2356fead3228b676f7d3cd4284a5443f17f1962b36e491b30a40b2405849e597ba5fb5a26469706673582212205ba45fc1a189ae96b95bc38a97c65289b5ddb7f0e21734a9155bd959dd61d6df64736f6c634300081e00332f8788117e7eff1d82e926ec794901d17c78024a50270940304540a733656f0dee57cd81e84075558e8fcc182a1f4393f91fc97f963a136e66b7f949a62f319fad3228b676f7d3cd4284a5443f17f1962b36e491b30a40b2405849e597ba5fb5127f6694bd7d2b38e18cf94c539cfa6ae4a708e6c203f09f0904141ec222f81f",
  "linkReferences": {},
  "deployedLinkReferences": {}
}