{
  "_format": "hh-sol-artifact-1",
  "contractName": "DeterministicChunkFactory",
  "sourceName": "contracts/factory/DeterministicChunkFactory.sol",
  "abi": [
    {
      "inputs": [
        {
          "internalType": "address",
          "name": "_feeRecipient",
          "type": "address"
        },
        {
          "internalType": "address",
          "name": "_manifestDispatcher",
          "type": "address"
        },
        {
          "internalType": "bytes32",
          "name": "_manifestHash",
          "type": "bytes32"
        },
        {
          "internalType": "bytes32",
          "name": "_dispatcherCodehash",
          "type": "bytes32"
        },
        {
          "internalType": "bytes32",
          "name": "_factoryBytecodeHash",
          "type": "bytes32"
        },
        {
          "internalType": "uint256",
          "name": "_baseFeeWei",
          "type": "uint256"
        },
        {
          "internalType": "bool",
          "name": "_feesEnabled",
          "type": "bool"
        }
      ],
      "stateMutability": "nonpayable",
      "type": "constructor"
    },
    {
      "inputs": [],
      "name": "AccessControlBadConfirmation",
      "type": "error"
    },
    {
      "inputs": [
        {
          "internalType": "address",
          "name": "account",
          "type": "address"
        },
        {
          "internalType": "bytes32",
          "name": "neededRole",
          "type": "bytes32"
        }
      ],
      "name": "AccessControlUnauthorizedAccount",
      "type": "error"
    },
    {
      "inputs": [],
      "name": "EnforcedPause",
      "type": "error"
    },
    {
      "inputs": [],
      "name": "ExpectedPause",
      "type": "error"
    },
    {
      "inputs": [],
      "name": "InvalidConstructorArgs",
      "type": "error"
    },
    {
      "inputs": [],
      "name": "ReentrancyGuardReentrantCall",
      "type": "error"
    },
    {
      "inputs": [],
      "name": "ZeroAddress",
      "type": "error"
    },
    {
      "anonymous": false,
      "inputs": [
        {
          "indexed": true,
          "internalType": "address",
          "name": "recipient",
          "type": "address"
        }
      ],
      "name": "AuthorizedRecipientAdded",
      "type": "event"
    },
    {
      "anonymous": false,
      "inputs": [
        {
          "indexed": true,
          "internalType": "address",
          "name": "recipient",
          "type": "address"
        }
      ],
      "name": "AuthorizedRecipientRemoved",
      "type": "event"
    },
    {
      "anonymous": false,
      "inputs": [
        {
          "indexed": false,
          "internalType": "uint256",
          "name": "newBaseFee",
          "type": "uint256"
        }
      ],
      "name": "BaseFeeSet",
      "type": "event"
    },
    {
      "anonymous": false,
      "inputs": [
        {
          "indexed": false,
          "internalType": "address[]",
          "name": "deployed",
          "type": "address[]"
        },
        {
          "indexed": false,
          "internalType": "bytes32[]",
          "name": "salts",
          "type": "bytes32[]"
        },
        {
          "indexed": true,
          "internalType": "address",
          "name": "deployer",
          "type": "address"
        },
        {
          "indexed": false,
          "internalType": "uint256",
          "name": "totalFee",
          "type": "uint256"
        }
      ],
      "name": "BatchDeployed",
      "type": "event"
    },
    {
      "anonymous": false,
      "inputs": [
        {
          "indexed": false,
          "internalType": "uint256",
          "name": "chunkCount",
          "type": "uint256"
        },
        {
          "indexed": false,
          "internalType": "uint256",
          "name": "gasUsed",
          "type": "uint256"
        },
        {
          "indexed": false,
          "internalType": "bytes32",
          "name": "packedMetadata",
          "type": "bytes32"
        },
        {
          "indexed": false,
          "internalType": "uint256",
          "name": "timestamp",
          "type": "uint256"
        }
      ],
      "name": "BatchStaged",
      "type": "event"
    },
    {
      "anonymous": false,
      "inputs": [
        {
          "indexed": true,
          "internalType": "address",
          "name": "chunk",
          "type": "address"
        },
        {
          "indexed": true,
          "internalType": "bytes32",
          "name": "hash",
          "type": "bytes32"
        },
        {
          "indexed": false,
          "internalType": "bytes32",
          "name": "salt",
          "type": "bytes32"
        },
        {
          "indexed": false,
          "internalType": "uint256",
          "name": "size",
          "type": "uint256"
        }
      ],
      "name": "ChunkStaged",
      "type": "event"
    },
    {
      "anonymous": false,
      "inputs": [
        {
          "indexed": true,
          "internalType": "address",
          "name": "deployed",
          "type": "address"
        },
        {
          "indexed": true,
          "internalType": "bytes32",
          "name": "salt",
          "type": "bytes32"
        },
        {
          "indexed": true,
          "internalType": "address",
          "name": "deployer",
          "type": "address"
        },
        {
          "indexed": false,
          "internalType": "uint256",
          "name": "fee",
          "type": "uint256"
        }
      ],
      "name": "ContractDeployed",
      "type": "event"
    },
    {
      "anonymous": false,
      "inputs": [
        {
          "indexed": true,
          "internalType": "address",
          "name": "previousAdmin",
          "type": "address"
        },
        {
          "indexed": true,
          "internalType": "address",
          "name": "newAdmin",
          "type": "address"
        }
      ],
      "name": "DefaultAdminTransferred",
      "type": "event"
    },
    {
      "anonymous": false,
      "inputs": [
        {
          "indexed": true,
          "internalType": "address",
          "name": "recipient",
          "type": "address"
        },
        {
          "indexed": false,
          "internalType": "uint256",
          "name": "amount",
          "type": "uint256"
        }
      ],
      "name": "EmergencyWithdrawal",
      "type": "event"
    },
    {
      "anonymous": false,
      "inputs": [
        {
          "indexed": true,
          "internalType": "address",
          "name": "collector",
          "type": "address"
        },
        {
          "indexed": false,
          "internalType": "uint256",
          "name": "amount",
          "type": "uint256"
        }
      ],
      "name": "FeeCollectionFailed",
      "type": "event"
    },
    {
      "anonymous": false,
      "inputs": [
        {
          "indexed": true,
          "internalType": "address",
          "name": "newRecipient",
          "type": "address"
        }
      ],
      "name": "FeeRecipientSet",
      "type": "event"
    },
    {
      "anonymous": false,
      "inputs": [
        {
          "indexed": false,
          "internalType": "bool",
          "name": "enabled",
          "type": "bool"
        }
      ],
      "name": "FeesEnabledSet",
      "type": "event"
    },
    {
      "anonymous": false,
      "inputs": [
        {
          "indexed": true,
          "internalType": "address",
          "name": "recipient",
          "type": "address"
        },
        {
          "indexed": false,
          "internalType": "uint256",
          "name": "amount",
          "type": "uint256"
        }
      ],
      "name": "FeesWithdrawn",
      "type": "event"
    },
    {
      "anonymous": false,
      "inputs": [
        {
          "indexed": false,
          "internalType": "bool",
          "name": "enabled",
          "type": "bool"
        }
      ],
      "name": "IdempotentModeSet",
      "type": "event"
    },
    {
      "anonymous": false,
      "inputs": [
        {
          "indexed": false,
          "internalType": "address",
          "name": "account",
          "type": "address"
        }
      ],
      "name": "Paused",
      "type": "event"
    },
    {
      "anonymous": false,
      "inputs": [
        {
          "indexed": true,
          "internalType": "bytes32",
          "name": "role",
          "type": "bytes32"
        },
        {
          "indexed": true,
          "internalType": "bytes32",
          "name": "previousAdminRole",
          "type": "bytes32"
        },
        {
          "indexed": true,
          "internalType": "bytes32",
          "name": "newAdminRole",
          "type": "bytes32"
        }
      ],
      "name": "RoleAdminChanged",
      "type": "event"
    },
    {
      "anonymous": false,
      "inputs": [
        {
          "indexed": true,
          "internalType": "bytes32",
          "name": "role",
          "type": "bytes32"
        },
        {
          "indexed": true,
          "internalType": "address",
          "name": "account",
          "type": "address"
        },
        {
          "indexed": true,
          "internalType": "address",
          "name": "sender",
          "type": "address"
        }
      ],
      "name": "RoleGranted",
      "type": "event"
    },
    {
      "anonymous": false,
      "inputs": [
        {
          "indexed": true,
          "internalType": "bytes32",
          "name": "role",
          "type": "bytes32"
        },
        {
          "indexed": true,
          "internalType": "address",
          "name": "account",
          "type": "address"
        },
        {
          "indexed": true,
          "internalType": "address",
          "name": "sender",
          "type": "address"
        }
      ],
      "name": "RoleRevoked",
      "type": "event"
    },
    {
      "anonymous": false,
      "inputs": [
        {
          "indexed": true,
          "internalType": "uint8",
          "name": "tier",
          "type": "uint8"
        },
        {
          "indexed": false,
          "internalType": "uint256",
          "name": "fee",
          "type": "uint256"
        }
      ],
      "name": "TierFeeSet",
      "type": "event"
    },
    {
      "anonymous": false,
      "inputs": [
        {
          "indexed": false,
          "internalType": "address",
          "name": "account",
          "type": "address"
        }
      ],
      "name": "Unpaused",
      "type": "event"
    },
    {
      "anonymous": false,
      "inputs": [
        {
          "indexed": true,
          "internalType": "address",
          "name": "user",
          "type": "address"
        },
        {
          "indexed": false,
          "internalType": "uint8",
          "name": "tier",
          "type": "uint8"
        }
      ],
      "name": "UserTierSet",
      "type": "event"
    },
    {
      "inputs": [],
      "name": "DEFAULT_ADMIN_ROLE",
      "outputs": [
        {
          "internalType": "bytes32",
          "name": "",
          "type": "bytes32"
        }
      ],
      "stateMutability": "view",
      "type": "function"
    },
    {
      "inputs": [],
      "name": "FEE_ROLE",
      "outputs": [
        {
          "internalType": "bytes32",
          "name": "",
          "type": "bytes32"
        }
      ],
      "stateMutability": "view",
      "type": "function"
    },
    {
      "inputs": [],
      "name": "MAX_CHUNK_BYTES",
      "outputs": [
        {
          "internalType": "uint256",
          "name": "",
          "type": "uint256"
        }
      ],
      "stateMutability": "view",
      "type": "function"
    },
    {
      "inputs": [],
      "name": "OPERATOR_ROLE",
      "outputs": [
        {
          "internalType": "bytes32",
          "name": "",
          "type": "bytes32"
        }
      ],
      "stateMutability": "view",
      "type": "function"
    },
    {
      "inputs": [
        {
          "internalType": "address",
          "name": "recipient",
          "type": "address"
        }
      ],
      "name": "addAuthorizedRecipient",
      "outputs": [],
      "stateMutability": "nonpayable",
      "type": "function"
    },
    {
      "inputs": [
        {
          "internalType": "address",
          "name": "",
          "type": "address"
        }
      ],
      "name": "authorizedRecipients",
      "outputs": [
        {
          "internalType": "bool",
          "name": "",
          "type": "bool"
        }
      ],
      "stateMutability": "view",
      "type": "function"
    },
    {
      "inputs": [],
      "name": "baseFeeWei",
      "outputs": [
        {
          "internalType": "uint256",
          "name": "",
          "type": "uint256"
        }
      ],
      "stateMutability": "view",
      "type": "function"
    },
    {
      "inputs": [
        {
          "internalType": "bytes32",
          "name": "",
          "type": "bytes32"
        }
      ],
      "name": "chunkOf",
      "outputs": [
        {
          "internalType": "address",
          "name": "",
          "type": "address"
        }
      ],
      "stateMutability": "view",
      "type": "function"
    },
    {
      "inputs": [],
      "name": "defaultAdmin",
      "outputs": [
        {
          "internalType": "address",
          "name": "",
          "type": "address"
        }
      ],
      "stateMutability": "view",
      "type": "function"
    },
    {
      "inputs": [
        {
          "internalType": "bytes32",
          "name": "salt",
          "type": "bytes32"
        },
        {
          "internalType": "bytes",
          "name": "bytecode",
          "type": "bytes"
        },
        {
          "internalType": "bytes",
          "name": "constructorArgs",
          "type": "bytes"
        }
      ],
      "name": "deployDeterministic",
      "outputs": [
        {
          "internalType": "address",
          "name": "deployed",
          "type": "address"
        }
      ],
      "stateMutability": "payable",
      "type": "function"
    },
    {
      "inputs": [
        {
          "internalType": "bytes32[]",
          "name": "salts",
          "type": "bytes32[]"
        },
        {
          "internalType": "bytes[]",
          "name": "bytecodes",
          "type": "bytes[]"
        },
        {
          "internalType": "bytes[]",
          "name": "constructorArgs",
          "type": "bytes[]"
        }
      ],
      "name": "deployDeterministicBatch",
      "outputs": [
        {
          "internalType": "address[]",
          "name": "deployed",
          "type": "address[]"
        }
      ],
      "stateMutability": "payable",
      "type": "function"
    },
    {
      "inputs": [],
      "name": "deploymentCount",
      "outputs": [
        {
          "internalType": "uint256",
          "name": "",
          "type": "uint256"
        }
      ],
      "stateMutability": "view",
      "type": "function"
    },
    {
      "inputs": [],
      "name": "emergencyWithdraw",
      "outputs": [],
      "stateMutability": "nonpayable",
      "type": "function"
    },
    {
      "inputs": [
        {
          "internalType": "bytes32",
          "name": "hash",
          "type": "bytes32"
        }
      ],
      "name": "exists",
      "outputs": [
        {
          "internalType": "bool",
          "name": "",
          "type": "bool"
        }
      ],
      "stateMutability": "view",
      "type": "function"
    },
    {
      "inputs": [],
      "name": "expectedDispatcherCodehash",
      "outputs": [
        {
          "internalType": "bytes32",
          "name": "",
          "type": "bytes32"
        }
      ],
      "stateMutability": "view",
      "type": "function"
    },
    {
      "inputs": [],
      "name": "expectedFactoryBytecodeHash",
      "outputs": [
        {
          "internalType": "bytes32",
          "name": "",
          "type": "bytes32"
        }
      ],
      "stateMutability": "view",
      "type": "function"
    },
    {
      "inputs": [],
      "name": "expectedManifestDispatcher",
      "outputs": [
        {
          "internalType": "address",
          "name": "",
          "type": "address"
        }
      ],
      "stateMutability": "view",
      "type": "function"
    },
    {
      "inputs": [],
      "name": "expectedManifestHash",
      "outputs": [
        {
          "internalType": "bytes32",
          "name": "",
          "type": "bytes32"
        }
      ],
      "stateMutability": "view",
      "type": "function"
    },
    {
      "inputs": [],
      "name": "feeRecipient",
      "outputs": [
        {
          "internalType": "address",
          "name": "",
          "type": "address"
        }
      ],
      "stateMutability": "view",
      "type": "function"
    },
    {
      "inputs": [],
      "name": "feesEnabled",
      "outputs": [
        {
          "internalType": "bool",
          "name": "",
          "type": "bool"
        }
      ],
      "stateMutability": "view",
      "type": "function"
    },
    {
      "inputs": [],
      "name": "getDeploymentCount",
      "outputs": [
        {
          "internalType": "uint256",
          "name": "",
          "type": "uint256"
        }
      ],
      "stateMutability": "view",
      "type": "function"
    },
    {
      "inputs": [],
      "name": "getDeploymentFee",
      "outputs": [
        {
          "internalType": "uint256",
          "name": "",
          "type": "uint256"
        }
      ],
      "stateMutability": "view",
      "type": "function"
    },
    {
      "inputs": [],
      "name": "getExpectedDispatcherCodehash",
      "outputs": [
        {
          "internalType": "bytes32",
          "name": "",
          "type": "bytes32"
        }
      ],
      "stateMutability": "view",
      "type": "function"
    },
    {
      "inputs": [],
      "name": "getExpectedFactoryBytecodeHash",
      "outputs": [
        {
          "internalType": "bytes32",
          "name": "",
          "type": "bytes32"
        }
      ],
      "stateMutability": "view",
      "type": "function"
    },
    {
      "inputs": [],
      "name": "getExpectedManifestHash",
      "outputs": [
        {
          "internalType": "bytes32",
          "name": "",
          "type": "bytes32"
        }
      ],
      "stateMutability": "view",
      "type": "function"
    },
    {
      "inputs": [],
      "name": "getManifestDispatcher",
      "outputs": [
        {
          "internalType": "address",
          "name": "",
          "type": "address"
        }
      ],
      "stateMutability": "view",
      "type": "function"
    },
    {
      "inputs": [
        {
          "internalType": "bytes32",
          "name": "role",
          "type": "bytes32"
        }
      ],
      "name": "getRoleAdmin",
      "outputs": [
        {
          "internalType": "bytes32",
          "name": "",
          "type": "bytes32"
        }
      ],
      "stateMutability": "view",
      "type": "function"
    },
    {
      "inputs": [
        {
          "internalType": "address",
          "name": "user",
          "type": "address"
        }
      ],
      "name": "getUserTier",
      "outputs": [
        {
          "internalType": "uint8",
          "name": "",
          "type": "uint8"
        }
      ],
      "stateMutability": "view",
      "type": "function"
    },
    {
      "inputs": [
        {
          "internalType": "bytes32",
          "name": "role",
          "type": "bytes32"
        },
        {
          "internalType": "address",
          "name": "account",
          "type": "address"
        }
      ],
      "name": "grantRole",
      "outputs": [],
      "stateMutability": "nonpayable",
      "type": "function"
    },
    {
      "inputs": [
        {
          "internalType": "bytes32",
          "name": "role",
          "type": "bytes32"
        },
        {
          "internalType": "address",
          "name": "account",
          "type": "address"
        }
      ],
      "name": "hasRole",
      "outputs": [
        {
          "internalType": "bool",
          "name": "",
          "type": "bool"
        }
      ],
      "stateMutability": "view",
      "type": "function"
    },
    {
      "inputs": [],
      "name": "idempotentMode",
      "outputs": [
        {
          "internalType": "bool",
          "name": "",
          "type": "bool"
        }
      ],
      "stateMutability": "view",
      "type": "function"
    },
    {
      "inputs": [
        {
          "internalType": "address",
          "name": "target",
          "type": "address"
        }
      ],
      "name": "isDeployed",
      "outputs": [
        {
          "internalType": "bool",
          "name": "",
          "type": "bool"
        }
      ],
      "stateMutability": "view",
      "type": "function"
    },
    {
      "inputs": [
        {
          "internalType": "address",
          "name": "",
          "type": "address"
        }
      ],
      "name": "isDeployedContract",
      "outputs": [
        {
          "internalType": "bool",
          "name": "",
          "type": "bool"
        }
      ],
      "stateMutability": "view",
      "type": "function"
    },
    {
      "inputs": [],
      "name": "maxSingleTransfer",
      "outputs": [
        {
          "internalType": "uint256",
          "name": "",
          "type": "uint256"
        }
      ],
      "stateMutability": "view",
      "type": "function"
    },
    {
      "inputs": [],
      "name": "owner",
      "outputs": [
        {
          "internalType": "address",
          "name": "",
          "type": "address"
        }
      ],
      "stateMutability": "view",
      "type": "function"
    },
    {
      "inputs": [],
      "name": "pause",
      "outputs": [],
      "stateMutability": "nonpayable",
      "type": "function"
    },
    {
      "inputs": [],
      "name": "paused",
      "outputs": [
        {
          "internalType": "bool",
          "name": "",
          "type": "bool"
        }
      ],
      "stateMutability": "view",
      "type": "function"
    },
    {
      "inputs": [
        {
          "internalType": "bytes",
          "name": "data",
          "type": "bytes"
        }
      ],
      "name": "predict",
      "outputs": [
        {
          "internalType": "address",
          "name": "predicted",
          "type": "address"
        },
        {
          "internalType": "bytes32",
          "name": "hash",
          "type": "bytes32"
        }
      ],
      "stateMutability": "view",
      "type": "function"
    },
    {
      "inputs": [
        {
          "internalType": "bytes32",
          "name": "salt",
          "type": "bytes32"
        },
        {
          "internalType": "bytes32",
          "name": "codeHash",
          "type": "bytes32"
        }
      ],
      "name": "predictAddress",
      "outputs": [
        {
          "internalType": "address",
          "name": "",
          "type": "address"
        }
      ],
      "stateMutability": "view",
      "type": "function"
    },
    {
      "inputs": [
        {
          "internalType": "bytes32[]",
          "name": "salts",
          "type": "bytes32[]"
        },
        {
          "internalType": "bytes32[]",
          "name": "codeHashes",
          "type": "bytes32[]"
        }
      ],
      "name": "predictAddressBatch",
      "outputs": [
        {
          "internalType": "address[]",
          "name": "predicted",
          "type": "address[]"
        }
      ],
      "stateMutability": "view",
      "type": "function"
    },
    {
      "inputs": [
        {
          "internalType": "address",
          "name": "chunk",
          "type": "address"
        }
      ],
      "name": "read",
      "outputs": [
        {
          "internalType": "bytes",
          "name": "",
          "type": "bytes"
        }
      ],
      "stateMutability": "view",
      "type": "function"
    },
    {
      "inputs": [
        {
          "internalType": "address",
          "name": "recipient",
          "type": "address"
        }
      ],
      "name": "removeAuthorizedRecipient",
      "outputs": [],
      "stateMutability": "nonpayable",
      "type": "function"
    },
    {
      "inputs": [
        {
          "internalType": "bytes32",
          "name": "role",
          "type": "bytes32"
        },
        {
          "internalType": "address",
          "name": "callerConfirmation",
          "type": "address"
        }
      ],
      "name": "renounceRole",
      "outputs": [],
      "stateMutability": "nonpayable",
      "type": "function"
    },
    {
      "inputs": [
        {
          "internalType": "bytes32",
          "name": "role",
          "type": "bytes32"
        },
        {
          "internalType": "address",
          "name": "account",
          "type": "address"
        }
      ],
      "name": "revokeRole",
      "outputs": [],
      "stateMutability": "nonpayable",
      "type": "function"
    },
    {
      "inputs": [
        {
          "internalType": "uint256",
          "name": "newBase",
          "type": "uint256"
        }
      ],
      "name": "setBaseFeeWei",
      "outputs": [],
      "stateMutability": "nonpayable",
      "type": "function"
    },
    {
      "inputs": [
        {
          "internalType": "address",
          "name": "newRecipient",
          "type": "address"
        }
      ],
      "name": "setFeeRecipient",
      "outputs": [],
      "stateMutability": "nonpayable",
      "type": "function"
    },
    {
      "inputs": [
        {
          "internalType": "bool",
          "name": "enabled",
          "type": "bool"
        }
      ],
      "name": "setFeesEnabled",
      "outputs": [],
      "stateMutability": "nonpayable",
      "type": "function"
    },
    {
      "inputs": [
        {
          "internalType": "bool",
          "name": "enabled",
          "type": "bool"
        }
      ],
      "name": "setIdempotentMode",
      "outputs": [],
      "stateMutability": "nonpayable",
      "type": "function"
    },
    {
      "inputs": [
        {
          "internalType": "uint256",
          "name": "newMax",
          "type": "uint256"
        }
      ],
      "name": "setMaxSingleTransfer",
      "outputs": [],
      "stateMutability": "nonpayable",
      "type": "function"
    },
    {
      "inputs": [
        {
          "internalType": "uint8",
          "name": "tier",
          "type": "uint8"
        },
        {
          "internalType": "uint256",
          "name": "fee",
          "type": "uint256"
        }
      ],
      "name": "setTierFee",
      "outputs": [],
      "stateMutability": "nonpayable",
      "type": "function"
    },
    {
      "inputs": [
        {
          "internalType": "address",
          "name": "user",
          "type": "address"
        },
        {
          "internalType": "uint8",
          "name": "tier",
          "type": "uint8"
        }
      ],
      "name": "setUserTier",
      "outputs": [],
      "stateMutability": "nonpayable",
      "type": "function"
    },
    {
      "inputs": [
        {
          "internalType": "bytes",
          "name": "data",
          "type": "bytes"
        }
      ],
      "name": "stage",
      "outputs": [
        {
          "internalType": "address",
          "name": "chunk",
          "type": "address"
        },
        {
          "internalType": "bytes32",
          "name": "hash",
          "type": "bytes32"
        }
      ],
      "stateMutability": "payable",
      "type": "function"
    },
    {
      "inputs": [
        {
          "internalType": "bytes[]",
          "name": "blobs",
          "type": "bytes[]"
        }
      ],
      "name": "stageBatch",
      "outputs": [
        {
          "internalType": "address[]",
          "name": "chunks",
          "type": "address[]"
        },
        {
          "internalType": "bytes32[]",
          "name": "hashes",
          "type": "bytes32[]"
        }
      ],
      "stateMutability": "payable",
      "type": "function"
    },
    {
      "inputs": [
        {
          "internalType": "bytes[]",
          "name": "dataArray",
          "type": "bytes[]"
        }
      ],
      "name": "stageMany",
      "outputs": [
        {
          "internalType": "address[]",
          "name": "chunks",
          "type": "address[]"
        }
      ],
      "stateMutability": "payable",
      "type": "function"
    },
    {
      "inputs": [
        {
          "internalType": "bytes4",
          "name": "interfaceId",
          "type": "bytes4"
        }
      ],
      "name": "supportsInterface",
      "outputs": [
        {
          "internalType": "bool",
          "name": "",
          "type": "bool"
        }
      ],
      "stateMutability": "view",
      "type": "function"
    },
    {
      "inputs": [
        {
          "internalType": "uint8",
          "name": "",
          "type": "uint8"
        }
      ],
      "name": "tierFees",
      "outputs": [
        {
          "internalType": "uint256",
          "name": "",
          "type": "uint256"
        }
      ],
      "stateMutability": "view",
      "type": "function"
    },
    {
      "inputs": [
        {
          "internalType": "address",
          "name": "newAdmin",
          "type": "address"
        }
      ],
      "name": "transferDefaultAdmin",
      "outputs": [],
      "stateMutability": "nonpayable",
      "type": "function"
    },
    {
      "inputs": [],
      "name": "unpause",
      "outputs": [],
      "stateMutability": "nonpayable",
      "type": "function"
    },
    {
      "inputs": [
        {
          "internalType": "address",
          "name": "",
          "type": "address"
        }
      ],
      "name": "userTiers",
      "outputs": [
        {
          "internalType": "uint8",
          "name": "",
          "type": "uint8"
        }
      ],
      "stateMutability": "view",
      "type": "function"
    },
    {
      "inputs": [
        {
          "internalType": "bytes",
          "name": "bytecode",
          "type": "bytes"
        }
      ],
      "name": "validateBytecodeSize",
      "outputs": [
        {
          "internalType": "bool",
          "name": "",
          "type": "bool"
        }
      ],
      "stateMutability": "pure",
      "type": "function"
    },
    {
      "inputs": [],
      "name": "verifySystemIntegrity",
      "outputs": [
        {
          "internalType": "bool",
          "name": "",
          "type": "bool"
        }
      ],
      "stateMutability": "view",
      "type": "function"
    },
    {
      "inputs": [],
      "name": "withdrawFees",
      "outputs": [],
      "stateMutability": "nonpayable",
      "type": "function"
    },
    {
      "inputs": [],
      "name": "withdrawRefund",
      "outputs": [],
      "stateMutability": "nonpayable",
      "type": "function"
    }
  ],
  "bytecode": "0x610100346101aa57601f6130d738819003918201601f19168301916001600160401b038311848410176101ae5780849260e0946040528339810103126101aa57610048816101c2565b90610055602082016101c2565b604082015160608301519060808401519260c060a0860151950151958615158097036101aa5760018055670de0b6b3a76400006004556008805461ff0019166101001790556001600160a01b0316801561019b576001600160a01b0382161561019b57821561018c57831561018c57841561018c576100d3336101d6565b506100dd3361024c565b506100e7336102df565b503360018060a01b03196005541617600555335f52600360205260405f20600160ff1982541617905560018060a01b0319600654161760065560805260a05260c05260e05260075560ff801960085416911617600855604051612ce4908161037382396080518181816108da01526124ed015260a0518181816109fa01526125b3015260c051818181610ca9015261255f015260e051818181610d8701526125210152f35b63d3c1346960e01b5f5260045ffd5b63d92e233d60e01b5f5260045ffd5b5f80fd5b634e487b7160e01b5f52604160045260245ffd5b51906001600160a01b03821682036101aa57565b6001600160a01b0381165f9081525f5160206130975f395f51905f52602052604090205460ff16610247576001600160a01b03165f8181525f5160206130975f395f51905f5260205260408120805460ff191660011790553391905f5160206130575f395f51905f528180a4600190565b505f90565b6001600160a01b0381165f9081525f5160206130775f395f51905f52602052604090205460ff16610247576001600160a01b03165f8181525f5160206130775f395f51905f5260205260408120805460ff191660011790553391907f97667070c54ef182b0f5858b034beac1b6f3089aa2d3188bb1e8929f4fa9b929905f5160206130575f395f51905f529080a4600190565b6001600160a01b0381165f9081525f5160206130b75f395f51905f52602052604090205460ff16610247576001600160a01b03165f8181525f5160206130b75f395f51905f5260205260408120805460ff191660011790553391907ff33fe78eb7c840e8bf68670029904b6f0da8e79346941c278a4e7676d473df15905f5160206130575f395f51905f529080a460019056fe60806040526004361015610011575f80fd5b5f3560e01c806301ffc9a7146103dc5780630bfde0da146103d757806310a93528146103d2578063110f8874146103cd5780631a0275b7146103c85780631d513465146103c357806324063c82146102f6578063248a9ca3146103be5780632a0276f8146103b95780632f2ff15d146103b457806336568abe146103af57806336b089d8146103aa578063377e70fd146103a557806338a699a4146103a057806339f907dd146102e25780633f4ba83a1461039b57806340fca008146103965780634311dc751461030f578063469048401461039157806346c549cc1461038c578063476343ee146103875780634c36f10d1461031e5780634e0e2526146103825780635c975abb1461037d5780635ea31b98146103785780636290caec14610350578063632214901461037357806378e65193146102d357806379189d611461036e5780637ed1cd47146103235780637f4aedfe146103695780638061c715146103645780638456cb591461035f57806384ef8ffc1461035a5780638da5cb5b1461035a5780638e7163c21461035557806390184b021461035057806391d148541461034b578063939e255c14610346578063a04725c614610341578063a087a87e1461033c578063a217fddf14610337578063a64139fa14610332578063a64e4f8a1461032d578063a901dd9214610328578063aec8dc8414610323578063b3eedf121461031e578063b632ab5714610319578063b697ff8a14610314578063bc2e51df1461030f578063c2c8e21a1461030a578063c97237be14610305578063d547741f14610300578063db2e21bc146102fb578063e4d2620e146102f6578063e74b981b146102f1578063ebc471c4146102ec578063ee05163a146102e7578063ee9d1ef5146102e2578063f5b541a6146102dd578063f5d70dd4146102d8578063f642221f146102d35763fa8c96ef146102ce575f80fd5b6117fe565b610c92565b6117e1565b6117a7565b6108c5565b611723565b6116f1565b611689565b610713565b6115d7565b61159a565b61154e565b6112a6565b6109e3565b61127e565b611262565b610b3c565b610d70565b61120f565b6111ed565b61118a565b611119565b6110c8565b61104b565b611027565b610fd9565b610c34565b610f1e565b610ef6565b610e9d565b610e3e565b610dbe565b610ccc565b610c71565b610bb8565b610b96565b610b59565b610a60565b610a45565b610a1d565b61098a565b610909565b610891565b61085f565b610842565b6107fe565b6107ba565b610780565b61074e565b6105ee565b61052f565b6104dc565b6104a8565b610446565b346104325760203660031901126104325760043563ffffffff60e01b811680910361043257602090637965db0b60e01b8114908115610421575b506040519015158152f35b6301ffc9a760e01b1490505f610416565b5f80fd5b6004359060ff8216820361043257565b346104325760403660031901126104325761045f610436565b7f255168929ef495e26e40b56a53cdf3b4782edb23a91efb8349e3e02c5bda0c59602060ff60243593610490611dc4565b1692835f52600c82528060405f2055604051908152a2005b346104325760403660031901126104325760206104ca60243560043530611f16565b6040516001600160a01b039091168152f35b34610432575f366003190112610432576104f4611f69565b60405162461bcd60e51b81526020600482015260136024820152724e6f20726566756e6420617661696c61626c6560681b6044820152606490fd5b34610432575f36600319011261043257602060ff60085460081c166040519015158152f35b9181601f84011215610432578235916001600160401b038311610432576020808501948460051b01011161043257565b602060031982011261043257600435906001600160401b038211610432576105ae91600401610554565b9091565b90602080835192838152019201905f5b8181106105cf5750505090565b82516001600160a01b03168452602093840193909201916001016105c2565b6105f736610584565b6105ff611f69565b610607611f89565b61061081611892565b9161061a8261187b565b916106286040519384611855565b808352601f196106378261187b565b0136602085013761064781611fa4565b5f5b8181106106ab5761066d8585600180556040519283926040845260408401906105b2565b8281036020840152602080835192838152019201905f5b818110610692575050500390f35b8251845285945060209384019390920191600101610684565b806106c26106bc60019385876118d8565b906120ed565b6106cc838861191e565b526106d7828861191e565b90838060a01b0316905201610649565b600435906001600160a01b038216820361043257565b602435906001600160a01b038216820361043257565b34610432576020366003190112610432576001600160a01b036107346106e7565b165f52600d602052602060ff60405f205416604051908152f35b346104325760203660031901126104325760206107786004355f525f602052600160405f20015490565b604051908152f35b34610432575f3660031901126104325760206040517ff33fe78eb7c840e8bf68670029904b6f0da8e79346941c278a4e7676d473df158152f35b34610432576040366003190112610432576107fc6004356107d96106fd565b906107f76107f2825f525f602052600160405f20015490565b611ede565b612308565b005b346104325760403660031901126104325760043561081a6106fd565b336001600160a01b03821603610833576107fc91612416565b63334bd91960e11b5f5260045ffd5b34610432575f366003190112610432576020600454604051908152f35b34610432576020366003190112610432576004355f526009602052602060018060a01b0360405f205416604051908152f35b34610432576020366003190112610432576004355f526009602052602060018060a01b0360405f2054161515604051908152f35b34610432575f366003190112610432576040517f00000000000000000000000000000000000000000000000000000000000000006001600160a01b03168152602090f35b34610432575f36600319011261043257610921611e33565b60025460ff8116156109605760ff19166002557f5db9ee0a495bf2e6ff9c91a7834c1ba4fdd244a5e8aa4e537bd38aeae4b073aa6020604051338152a1005b638dfc202b60e01b5f5260045ffd5b60209060031901126104325760043580151581036104325790565b34610432577ffe7387ce7a577db9fff975d9cdddba35483399f4aebdad1429e9a8ae1bc4451260206109bb3661096f565b6109c3611e33565b151560085461ff008260081b169061ff00191617600855604051908152a1005b34610432575f3660031901126104325760206040517f00000000000000000000000000000000000000000000000000000000000000008152f35b34610432575f366003190112610432576006546040516001600160a01b039091168152602090f35b34610432575f3660031901126104325760206107783361249a565b34610432575f36600319011261043257610a78611f69565b6006546001600160a01b0381163303610b0357610ac15f808080610ab19547968791610aa5831515611932565b6001600160a01b031690565b5af1610abb61198f565b506119be565b6006546040519182526001600160a01b0316907fc0819c13be868895eb93e40eaceb96de976442fa1d404e5c55f14bb65a8c489a90602090a26107fc60018055565b60405162461bcd60e51b8152602060048201526011602482015270139bdd08199959481c9958da5c1a595b9d607a1b6044820152606490fd5b34610432575f366003190112610432576020600a54604051908152f35b34610432576020366003190112610432576001600160a01b03610b7a6106e7565b165f526003602052602060ff60405f2054166040519015158152f35b34610432575f36600319011261043257602060ff600254166040519015158152f35b3461043257602036600319011261043257610bd16106e7565b610bd9611ea2565b6001600160a01b038116908115610c2557610c0890610c0260018060a01b03600554169161227f565b50612394565b506bffffffffffffffffffffffff60a01b60055416176005555f80f35b63d92e233d60e01b5f5260045ffd5b34610432576020366003190112610432576001600160a01b03610c556106e7565b165f52600b602052602060ff60405f2054166040519015158152f35b3461043257602036600319011261043257600435610c8d611ea2565b600455005b34610432575f3660031901126104325760206040517f00000000000000000000000000000000000000000000000000000000000000008152f35b3461043257602036600319011261043257610ce56106e7565b335f9081525f516020612c8f5f395f51905f5260205260409020610d0e9060ff905b54166119fc565b6001600160a01b03168015610d37575f908152600360205260409020805460ff19166001179055005b60405162461bcd60e51b8152602060048201526011602482015270125b9d985b1a59081c9958da5c1a595b9d607a1b6044820152606490fd5b34610432575f3660031901126104325760206040517f00000000000000000000000000000000000000000000000000000000000000008152f35b906020610dbb9281815201906105b2565b90565b610dc736610584565b90610dd0611f69565b610dd8611f89565b610de182611892565b91610deb81611fa4565b5f5b818110610e12576001805560405160208082528190610e0e908201876105b2565b0390f35b80610e236106bc60019385876118d8565b50610e2e828761191e565b90838060a01b0316905201610ded565b3461043257602036600319011261043257610e576106e7565b335f9081525f516020612c8f5f395f51905f5260205260409020610e7d9060ff90610d07565b6001600160a01b03165f908152600360205260409020805460ff19169055005b34610432575f36600319011261043257610eb5611e33565b610ebd611f89565b600160ff1960025416176002557f62e78cea01bee320cd4e420270b5ea74000d11b0c9f74754ebdbfc544b05a2586020604051338152a1005b34610432575f366003190112610432576005546040516001600160a01b039091168152602090f35b34610432576040366003190112610432576004356001600160401b03811161043257610f4e903690600401610554565b906024356001600160401b03811161043257610f6e903690600401610554565b610f79818514611a34565b610f8284611892565b935f5b818110610f9a5760405180610e0e8882610daa565b80610fbf610fab6001938589611a78565b35610fb7838789611a78565b359030611f16565b610fc9828961191e565b90838060a01b0316905201610f85565b3461043257604036600319011261043257602060ff61101b600435610ffc6106fd565b905f525f845260405f209060018060a01b03165f5260205260405f2090565b54166040519015158152f35b34610432575f3660031901126104325760206110416124eb565b6040519015158152f35b34610432576040366003190112610432576110646106e7565b6024359060ff82168092036104325760207f815e4d8cfbf89de2051d8965cbffb95b36c1e3eb77b2789fa4ca1c298c97d8659161109f611dc4565b6001600160a01b03165f818152600d8352604090819020805460ff1916861790555193845292a2005b3461043257602036600319011261043257602060406110ed6110e86106e7565b61264d565b815192839181835280519182918282860152018484015e5f828201840152601f01601f19168101030190f35b34610432575f3660031901126104325760206040515f8152f35b9181601f84011215610432578235916001600160401b038311610432576020838186019501011161043257565b602060031982011261043257600435906001600160401b038211610432576105ae91600401611133565b34610432576111d161119b36611160565b91906111c36111ab368584611a88565b60208151910120936111bd81846126aa565b926126fc565b602081519101209030611f16565b604080516001600160a01b039290921682526020820192909252f35b34610432575f36600319011261043257602060ff600854166040519015158152f35b34610432577fa61c2215b736b8ccd98e82c522342dfeb181222fcf44244e0e681496a830d04e60206112403661096f565b611248611dc4565b151560ff196008541660ff821617600855604051908152a1005b34610432575f366003190112610432576020604051615dc08152f35b3461043257602061c00061129b61129436611160565b3691611a88565b511115604051908152f35b6060366003190112610432576004356001600160401b038111610432576112d1903690600401610554565b6024356001600160401b038111610432576112f0903690600401610554565b92906044356001600160401b03811161043257611311903690600401610554565b93909161131c611f69565b611324611f89565b85821480611545575b61133690611a34565b61133e6124eb565b5061134882611892565b9461135b836113563361249a565b611ad2565b9361136885341015611aea565b5f5b8481106113f257610e0e88887f20076281d01816c3e99faad6c3db1daed16a9861f1dedace7575e80bea36910b89898134116113cb575b6113b360405192839233968885611bd1565b0390a26113bf60018055565b60405191829182610daa565b6113ed5f8080806113dc8734611b88565b335af16113e761198f565b50611b95565b6113a1565b611425611439611403838c886118d8565b919061142b6114138689896118d8565b60405196879460208601978891611b29565b91611b29565b03601f198101845283611855565b61144f61144a8361c0009051111590565b611b36565b61146882518220611461858a8d611a78565b3530611f16565b803b151580611536575b61150e575061148283888b611a78565b359151905ff59081156114fb5760019160208260051b8b0101526114e26114d56114bc6114af848d61191e565b516001600160a01b031690565b6001600160a01b03165f908152600b6020526040902090565b805460ff19166001179055565b6114f56114f0600a54611b7a565b600a55565b0161136a565b3d80611505575f80fd5b604051815f823efd5b83925061153191506115226001948c61191e565b6001600160a01b039091169052565b6114f5565b5060088054901c60ff16611472565b5085851461132d565b34610432576020366003190112610432577f7ebed77c7e1ffbe2a85cbeff53ae70227be1cb6e4131d9d4baf70c22b9edcc68602060043561158d611dc4565b80600755604051908152a1005b34610432576040366003190112610432576107fc6004356115b96106fd565b906115d26107f2825f525f602052600160405f20015490565b612416565b34610432575f36600319011261043257335f9081525f516020612c8f5f395f51905f526020526040902061160d9060ff90610d07565b471561164d575f8080804761162f610aa5610aa560055460018060a01b031690565b828215611644575bf11561163f57005b611c17565b506108fc611637565b60405162461bcd60e51b81526020600482015260146024820152734e6f20457468657220746f20776974686472617760601b6044820152606490fd5b34610432576020366003190112610432576116a26106e7565b6116aa611dc4565b6001600160a01b03168015610c2557600680546001600160a01b031916821790557fbf9a9534339a9d6b81696e05dcfb614b7dc518a31d48be3cfb757988381fb3235f80a2005b346104325760203660031901126104325760ff61170c610436565b165f52600c602052602060405f2054604051908152f35b6060366003190112610432576004356024356001600160401b03811161043257611751903690600401611133565b9190604435916001600160401b03831161043257602093611779611791943690600401611133565b939092611784611f69565b61178c611f89565b611c6e565b600180556040516001600160a01b039091168152f35b34610432575f3660031901126104325760206040517f97667070c54ef182b0f5858b034beac1b6f3089aa2d3188bb1e8929f4fa9b9298152f35b34610432575f366003190112610432576020600754604051908152f35b61182061180a36611160565b90611813611f69565b61181b611f89565b612a39565b60018055604080516001600160a01b03939093168352602083019190915290f35b634e487b7160e01b5f52604160045260245ffd5b90601f801991011681019081106001600160401b0382111761187657604052565b611841565b6001600160401b0381116118765760051b60200190565b9061189c8261187b565b6118a96040519182611855565b82815280926118ba601f199161187b565b0190602036910137565b634e487b7160e01b5f52603260045260245ffd5b91908110156119195760051b81013590601e19813603018212156104325701908135916001600160401b038311610432576020018236038113610432579190565b6118c4565b80518210156119195760209160051b010190565b1561193957565b60405162461bcd60e51b81526020600482015260136024820152724e6f206665657320746f20776974686472617760681b6044820152606490fd5b6001600160401b03811161187657601f01601f191660200190565b3d156119b9573d906119a082611974565b916119ae6040519384611855565b82523d5f602084013e565b606090565b156119c557565b60405162461bcd60e51b815260206004820152600f60248201526e151c985b9cd9995c8819985a5b1959608a1b6044820152606490fd5b15611a0357565b60405162461bcd60e51b81526020600482015260096024820152682737ba1037bbb732b960b91b6044820152606490fd5b15611a3b57565b60405162461bcd60e51b8152602060048201526015602482015274082e4e4c2f240d8cadccee8d040dad2e6dac2e8c6d605b1b6044820152606490fd5b91908110156119195760051b0190565b929192611a9482611974565b91611aa26040519384611855565b829481845281830111610432578281602093845f960137010152565b634e487b7160e01b5f52601160045260245ffd5b81810292918115918404141715611ae557565b611abe565b15611af157565b60405162461bcd60e51b815260206004820152601060248201526f496e73756666696369656e742066656560801b6044820152606490fd5b908092918237015f815290565b15611b3d57565b60405162461bcd60e51b8152602060048201526015602482015274496e76616c69642062797465636f64652073697a6560581b6044820152606490fd5b5f198114611ae55760010190565b91908203918211611ae557565b15611b9c57565b60405162461bcd60e51b815260206004820152600d60248201526c1499599d5b990819985a5b1959609a1b6044820152606490fd5b94939290611be7906060875260608701906105b2565b8581036020870152818152916001600160fb1b0382116104325760409260209260051b8092848301370101930152565b6040513d5f823e3d90fd5b15611c2957565b60405162461bcd60e51b815260206004820152601b60248201527f4465706c6f796d656e742061646472657373206d69736d6174636800000000006044820152606490fd5b9290611c9f611cad926114259796611c846124eb565b50611c8d612871565b60405198899460208601978891611b29565b03601f198101865285611855565b611cbe61144a8561c0009051111590565b8351812093611cce858430611f16565b803b611d6e57505182915ff59283156114fb57610aa5611cef918330611f16565b6001600160a01b0384169190611d06908314611c22565b6001600160a01b0384165f908152600b60205260409020611d26906114d5565b611d346114f0600a54611b7a565b611d3d3361249a565b6040519081523392907f6f12dc0e4d0e1b50f4589e6e1100d3978b6aa062a0a67bf8e2d97f64126b0c4590602090a4565b939450505050611d8460085460ff9060081c1690565b15611d8c5790565b60405162461bcd60e51b815260206004820152601060248201526f105b1c9958591e4819195c1b1bde595960821b6044820152606490fd5b335f9081527f127f6694bd7d2b38e18cf94c539cfa6ae4a708e6c203f09f0904141ec222f81f602052604090205460ff1615611dfc57565b63e2517d3f60e01b5f52336004527ff33fe78eb7c840e8bf68670029904b6f0da8e79346941c278a4e7676d473df1560245260445ffd5b335f9081527fee57cd81e84075558e8fcc182a1f4393f91fc97f963a136e66b7f949a62f319f602052604090205460ff1615611e6b57565b63e2517d3f60e01b5f52336004527f97667070c54ef182b0f5858b034beac1b6f3089aa2d3188bb1e8929f4fa9b92960245260445ffd5b335f9081525f516020612c8f5f395f51905f52602052604090205460ff1615611ec757565b63e2517d3f60e01b5f52336004525f60245260445ffd5b5f8181526020818152604080832033845290915290205460ff1615611f005750565b63e2517d3f60e01b5f523360045260245260445ffd5b909160405192602084019260ff60f81b84526bffffffffffffffffffffffff199060601b1660218501526035840152605583015260558252611f59607583611855565b905190206001600160a01b031690565b600260015414611f7a576002600155565b633ee5aeb560e01b5f5260045ffd5b60ff60025416611f9557565b63d93c066560e01b5f5260045ffd5b60ff600854161561203057611fbc906113563361249a565b803410611feb57803411611fcd5750565b3403348111611ae5575f808080611fe994335af16113e761198f565b565b60405162461bcd60e51b815260206004820152601a60248201527f496e73756666696369656e742066656520666f722062617463680000000000006044820152606490fd5b50565b1561203a57565b60405162461bcd60e51b8152602060048201526011602482015270496e76616c696420646174612073697a6560781b6044820152606490fd5b1561207a57565b60405162461bcd60e51b815260206004820152600c60248201526b496e76616c6964206461746160a01b6044820152606490fd5b156120b557565b60405162461bcd60e51b815260206004820152601060248201526f082c8c8e4cae6e640dad2e6dac2e8c6d60831b6044820152606490fd5b9091612118612113612100368686611a88565b61210e615dc0871115612033565b612bb4565b612073565b61212283836126aa565b9261212e368285611a88565b602081519101209261214660085460ff9060081c1690565b80612257575b61222c578161215a916126fc565b84815161216e602084019182208330611f16565b9251905ff59485156104325784926001600160a01b03878116937ffe8c29f157dd5c1c0222d0d85766158c1b52fff7f8f2dca1d72f399fd762a35693916121b7911685146120ae565b6121ec886121cd875f52600960205260405f2090565b80546001600160a01b0319166001600160a01b03909216919091179055565b6001600160a01b0388165f908152600b6020526040902061220c906114d5565b61221a6114f0600a54611b7a565b604080519182526020820192909252a3565b5050909150612253612246835f52600960205260405f2090565b546001600160a01b031690565b9190565b505f8481526009602052604090206001600160a01b039061227790612246565b16151561214c565b6001600160a01b0381165f9081525f516020612c8f5f395f51905f52602052604090205460ff16612303576001600160a01b03165f8181525f516020612c8f5f395f51905f5260205260408120805460ff191660011790553391907f2f8788117e7eff1d82e926ec794901d17c78024a50270940304540a733656f0d8180a4600190565b505f90565b5f818152602081815260408083206001600160a01b038616845290915290205460ff1661238e575f818152602081815260408083206001600160a01b03861684529091529020805460ff1916600117905533916001600160a01b0316907f2f8788117e7eff1d82e926ec794901d17c78024a50270940304540a733656f0d5f80a4600190565b50505f90565b6001600160a01b0381165f9081525f516020612c8f5f395f51905f52602052604090205460ff1615612303576001600160a01b03165f8181525f516020612c8f5f395f51905f5260205260408120805460ff191690553391907ff6391f5c32d9c69d2a47ea670b442974b53935d1edc7fd64eb21e047a839171b8180a4600190565b5f818152602081815260408083206001600160a01b038616845290915290205460ff161561238e575f818152602081815260408083206001600160a01b03861684529091529020805460ff1916905533916001600160a01b0316907ff6391f5c32d9c69d2a47ea670b442974b53935d1edc7fd64eb21e047a839171b5f80a4600190565b60ff6008541615612303576001600160a01b03165f908152600d602090815260408083205460ff168352600c90915290205480156124d55790565b5060075490565b90816020910312610432575190565b7f00000000000000000000000000000000000000000000000000000000000000006001600160a01b038116908161255d575b50507f00000000000000000000000000000000000000000000000000000000000000008061254c575b50600190565b303f03612559575f612546565b5f90565b7f00000000000000000000000000000000000000000000000000000000000000009081612625575b505060206004916040519283809263abb2efdf60e01b82525afa5f91816125f4575b506125b157505f90565b7f000000000000000000000000000000000000000000000000000000000000000080151591826125e9575b5050612559575f8061251d565b141590505f806125dc565b61261791925060203d60201161261e575b61260f8183611855565b8101906124dc565b905f6125a7565b503d612605565b3f03612303575f80612585565b60405190612641602083611855565b5f808352366020840137565b906001600160a01b038216156126a057813b91600583111561269557600419830190838211611ae55760059060405194838652603a601f19910116850160405260208501903c565b509050610dbb612632565b9050610dbb612632565b6126b5913691611a88565b6020815191012060405160208101916531b43ab7359d60d11b83526026820152602681526126e4604682611855565b51902090565b805191908290602001825e015f815290565b612707913691611a88565b805160ff81116127b057604051600360fd1b6020820181905260f89290921b6001600160f81b0319166021820152600160ff1b602282015260238101829052600760f81b602482015260258101829052603960f81b6027820152602881019190915260f360f81b602a8201526127aa91610dbb9161278a9061279881602b810184565b03601f198101835282611855565b915b60405194859360208501906126ea565b906126ea565b61ffff811161283b57604051606160f81b6020820181905260f09290921b6001600160f01b0319166021820152600160ff1b60238201526024810191909152600960f01b6025820152600360fd1b60278201819052603960f81b6029830152602a82015260f360f81b602c8201526127aa91610dbb9161278a9061283581602d810184565b9161279a565b60405162461bcd60e51b815260206004820152600e60248201526d4461746120746f6f206c6172676560901b6044820152606490fd5b60ff6008541615611fe9576128853361249a565b61289181341015611aea565b803411611fcd5750565b156128a257565b60405162461bcd60e51b815260206004820152603360248201527f44657465726d696e69737469634368756e6b466163746f72793a206368756e6b60448201527208195e18d959591cc81cda5e99481b1a5b5a5d606a1b6064820152608490fd5b1561290a57565b60405162461bcd60e51b815260206004820152602d60248201527f44657465726d696e69737469634368756e6b466163746f72793a20696e76616c60448201526c6964206368756e6b206461746160981b6064820152608490fd5b1561296c57565b60405162461bcd60e51b815260206004820152603460248201527f44657465726d696e69737469634368756e6b466163746f72793a20696e76616c604482015273696420707265646963746564206164647265737360601b6064820152608490fd5b156129d557565b60405162461bcd60e51b815260206004820152603660248201527f44657465726d696e69737469634368756e6b466163746f72793a206465706c6f6044820152750f2dacadce840c2c8c8e4cae6e640dad2e6dac2e8c6d60531b6064820152608490fd5b9190612a5f612a5a612a4c368487611a88565b61210e615dc085111561289b565b612903565b612a6981846126aa565b90612a75368286611a88565b6020815191012093612a8d60085460ff9060081c1690565b80612b8c575b612b745781612aa1916126fc565b8051602082019081208491906001600160a01b0390612ac1908430611f16565b1692612ace841515612965565b51905ff59283156104325785926001600160a01b038516927ffe8c29f157dd5c1c0222d0d85766158c1b52fff7f8f2dca1d72f399fd762a3569290612b149085146129ce565b612b2a866121cd875f52600960205260405f2090565b6001600160a01b0386165f908152600b60205260409020612b4a906114d5565b612b586114f0600a54611b7a565b612b60612bd6565b604080519182526020820192909252a39190565b505050612253612246835f52600960205260405f2090565b505f8581526009602052604090206001600160a01b0390612bac90612246565b161515612a93565b51615dc081116123035760058101809111611ae55761c0001061255957600190565b612be9612be560085460ff1690565b1590565b611fe957612bf63361249a565b612c0281341015611aea565b80612c23575b803411612c125750565b5f8080806113dc611fe99534611b88565b5f80808084612c3f610aa5610aa560065460018060a01b031690565b5af1612c4961198f565b50612c08576006546040518281526001600160a01b03909116907f35c17c91437811502092c1c70baab3fad38f635163bfb5229604f82796e20c4d90602090a2612c0856fead3228b676f7d3cd4284a5443f17f1962b36e491b30a40b2405849e597ba5fb5a2646970667358221220c56a38423d9a764fec111e88b5fa78b08c09d7edf6476bad3aff3d9b6d38d35064736f6c634300081e00332f8788117e7eff1d82e926ec794901d17c78024a50270940304540a733656f0dee57cd81e84075558e8fcc182a1f4393f91fc97f963a136e66b7f949a62f319fad3228b676f7d3cd4284a5443f17f1962b36e491b30a40b2405849e597ba5fb5127f6694bd7d2b38e18cf94c539cfa6ae4a708e6c203f09f0904141ec222f81f",
  "linkReferences": {},
  "deployedLinkReferences": {}
}