{
  "_format": "hh-sol-artifact-1",
  "contractName": "ExampleFacetA",
  "sourceName": "contracts/facets/ExampleFacetA.sol",
  "abi": [
    {
      "inputs": [],
      "name": "DataTooLarge",
      "type": "error"
    },
    {
      "inputs": [],
      "name": "EmptyData",
      "type": "error"
    },
    {
      "inputs": [],
      "name": "EmptyMessage",
      "type": "error"
    },
    {
      "inputs": [],
      "name": "InvalidKey",
      "type": "error"
    },
    {
      "inputs": [],
      "name": "TooManyMessages",
      "type": "error"
    },
    {
      "anonymous": false,
      "inputs": [
        {
          "indexed": false,
          "internalType": "uint256",
          "name": "messageCount",
          "type": "uint256"
        },
        {
          "indexed": false,
          "internalType": "uint256",
          "name": "gasUsed",
          "type": "uint256"
        },
        {
          "indexed": false,
          "internalType": "bytes32",
          "name": "packedMetadata",
          "type": "bytes32"
        },
        {
          "indexed": false,
          "internalType": "uint256",
          "name": "timestamp",
          "type": "uint256"
        }
      ],
      "name": "BatchExecutedOptimized",
      "type": "event"
    },
    {
      "anonymous": false,
      "inputs": [
        {
          "indexed": true,
          "internalType": "bytes32",
          "name": "key",
          "type": "bytes32"
        },
        {
          "indexed": true,
          "internalType": "bytes32",
          "name": "dataHash",
          "type": "bytes32"
        },
        {
          "indexed": false,
          "internalType": "uint256",
          "name": "size",
          "type": "uint256"
        },
        {
          "indexed": true,
          "internalType": "address",
          "name": "setter",
          "type": "address"
        }
      ],
      "name": "DataStored",
      "type": "event"
    },
    {
      "anonymous": false,
      "inputs": [
        {
          "indexed": true,
          "internalType": "address",
          "name": "caller",
          "type": "address"
        },
        {
          "indexed": true,
          "internalType": "uint256",
          "name": "value",
          "type": "uint256"
        },
        {
          "indexed": false,
          "internalType": "string",
          "name": "message",
          "type": "string"
        }
      ],
      "name": "FacetAExecuted",
      "type": "event"
    },
    {
      "anonymous": false,
      "inputs": [
        {
          "indexed": true,
          "internalType": "address",
          "name": "caller",
          "type": "address"
        },
        {
          "indexed": true,
          "internalType": "bytes32",
          "name": "msgHash",
          "type": "bytes32"
        }
      ],
      "name": "FacetAExecutedHash",
      "type": "event"
    },
    {
      "anonymous": false,
      "inputs": [
        {
          "indexed": false,
          "internalType": "uint256",
          "name": "version",
          "type": "uint256"
        },
        {
          "indexed": false,
          "internalType": "bytes32",
          "name": "codeHash",
          "type": "bytes32"
        }
      ],
      "name": "RefactorSafetyInitialized",
      "type": "event"
    },
    {
      "anonymous": false,
      "inputs": [
        {
          "indexed": true,
          "internalType": "bytes32",
          "name": "checkId",
          "type": "bytes32"
        },
        {
          "indexed": false,
          "internalType": "string",
          "name": "checkType",
          "type": "string"
        }
      ],
      "name": "RefactorValidationPassed",
      "type": "event"
    },
    {
      "inputs": [
        {
          "internalType": "string[]",
          "name": "messages",
          "type": "string[]"
        }
      ],
      "name": "batchExecute",
      "outputs": [
        {
          "internalType": "bool[]",
          "name": "results",
          "type": "bool[]"
        }
      ],
      "stateMutability": "nonpayable",
      "type": "function"
    },
    {
      "inputs": [
        {
          "internalType": "bytes",
          "name": "input",
          "type": "bytes"
        }
      ],
      "name": "calculateHash",
      "outputs": [
        {
          "internalType": "bytes32",
          "name": "hash",
          "type": "bytes32"
        }
      ],
      "stateMutability": "pure",
      "type": "function"
    },
    {
      "inputs": [],
      "name": "emergencyRefactorValidation",
      "outputs": [
        {
          "internalType": "bool",
          "name": "",
          "type": "bool"
        }
      ],
      "stateMutability": "view",
      "type": "function"
    },
    {
      "inputs": [
        {
          "internalType": "string",
          "name": "message",
          "type": "string"
        }
      ],
      "name": "executeA",
      "outputs": [
        {
          "internalType": "bool",
          "name": "success",
          "type": "bool"
        }
      ],
      "stateMutability": "nonpayable",
      "type": "function"
    },
    {
      "inputs": [
        {
          "internalType": "bytes32",
          "name": "key",
          "type": "bytes32"
        }
      ],
      "name": "getData",
      "outputs": [
        {
          "internalType": "bytes",
          "name": "data",
          "type": "bytes"
        }
      ],
      "stateMutability": "view",
      "type": "function"
    },
    {
      "inputs": [],
      "name": "getFacetInfo",
      "outputs": [
        {
          "internalType": "string",
          "name": "name",
          "type": "string"
        },
        {
          "internalType": "string",
          "name": "version",
          "type": "string"
        },
        {
          "internalType": "bytes4[]",
          "name": "selectors",
          "type": "bytes4[]"
        }
      ],
      "stateMutability": "pure",
      "type": "function"
    },
    {
      "inputs": [
        {
          "internalType": "address",
          "name": "user",
          "type": "address"
        }
      ],
      "name": "getUserCount",
      "outputs": [
        {
          "internalType": "uint256",
          "name": "count",
          "type": "uint256"
        }
      ],
      "stateMutability": "view",
      "type": "function"
    },
    {
      "inputs": [],
      "name": "lastCaller",
      "outputs": [
        {
          "internalType": "address",
          "name": "",
          "type": "address"
        }
      ],
      "stateMutability": "view",
      "type": "function"
    },
    {
      "inputs": [
        {
          "internalType": "bytes32",
          "name": "key",
          "type": "bytes32"
        },
        {
          "internalType": "bytes",
          "name": "data_",
          "type": "bytes"
        }
      ],
      "name": "storeData",
      "outputs": [],
      "stateMutability": "nonpayable",
      "type": "function"
    },
    {
      "inputs": [],
      "name": "totalExecutions",
      "outputs": [
        {
          "internalType": "uint256",
          "name": "",
          "type": "uint256"
        }
      ],
      "stateMutability": "view",
      "type": "function"
    },
    {
      "inputs": [
        {
          "internalType": "bytes32",
          "name": "hash",
          "type": "bytes32"
        },
        {
          "internalType": "bytes",
          "name": "signature",
          "type": "bytes"
        },
        {
          "internalType": "address",
          "name": "expectedSigner",
          "type": "address"
        }
      ],
      "name": "verifySignature",
      "outputs": [
        {
          "internalType": "bool",
          "name": "isValid",
          "type": "bool"
        }
      ],
      "stateMutability": "pure",
      "type": "function"
    }
  ],
  "bytecode": "0x60808060405234601557610f76908161001a8239f35b5f80fdfe60806040526004361015610011575f80fd5b5f3560e01c806303e8837c14610b795780632113522a14610b3257806324d824cb14610aef57806331cd419914610a9257806354f6127f14610968578063642f7d5e1461093f5780637ab7b94b146107615780639730174d14610537578063b5211ec414610436578063bdb475b8146100cb5763e623a87c14610092575f80fd5b346100c7575f3660031901126100c7576100bc60346040513060601b602082015260148152610c3a565b602060405160018152f35b5f80fd5b346100c75760203660031901126100c7576004356001600160401b0381116100c757366023820112156100c7578060040135906001600160401b0382116100c7576024810190602436918460051b0101116100c757811561042757600a82116104185761013782610d71565b916101456040519384610c3a565b80835261015181610d71565b602084019290601f190136843761016782610d71565b916101756040519384610c3a565b80835261018181610d71565b602084019390601f19013685375a925f5b8381106103055750506101a433610d9c565b6040516315d8956f60e01b815260206004820152905160248201819052909384916044830191905f5b8181106102e3575050509080602092038173__$6853d4dd8c8d70faf0c6e9a986736f2751$__5af49283156102d8575f936102a4575b505a82039182116102905760809085937fcdb4ed3e5ec53c14085bc1ef8a5b656bb1d3ced5855695a85d8e42820f9fef259360405192835260208301526040820152426060820152a1604051918291602083019060208452518091526040830191905f5b818110610275575050500390f35b82511515845285945060209384019390920191600101610267565b634e487b7160e01b5f52601160045260245ffd5b9092506020813d6020116102d0575b816102c060209383610c3a565b810103126100c757519185610203565b3d91506102b3565b6040513d5f823e3d90fd5b82516001600160401b03168452879450602093840193909201916001016101cd565b806103166001928685999699610e23565b159050610407576001600160401b03610330828786610e23565b90501661033d8289610d88565b5261034733610c02565b828154019055815f516020610f215f395f51905f5254015f516020610f215f395f51905f52555f6103ad7f52230493755cb5cebbdbb65057f8ed8fca9e062e50f03f039b2e7a84d378afaf61039d848988610e23565b6040513394909283929083610dfc565b0390a36103c56103be828786610e23565b3691610c5b565b60208151910120337f6ff2fae33162daee175ec7ec71a83661d5a0a19249ce40d3de3c4001c86c586b5f80a3816103fc828b610d88565b525b01949194610192565b5f610412828b610d88565b526103fe565b631ec0b2f760e01b5f5260045ffd5b63017636cb60e71b5f5260045ffd5b346100c75760203660031901126100c7576004356001600160401b0381116100c757610466903690600401610bb1565b8015610427576104008111610528576020916104f39161048533610c02565b6001815401905560015f516020610f215f395f51905f5254015f516020610f215f395f51905f52556104b633610d9c565b5f6040517f52230493755cb5cebbdbb65057f8ed8fca9e062e50f03f039b2e7a84d378afaf3391806104e9868883610dfc565b0390a33691610c5b565b81815191012060405190337f6ff2fae33162daee175ec7ec71a83661d5a0a19249ce40d3de3c4001c86c586b5f80a360018152f35b632a77a3f760e11b5f5260045ffd5b346100c75760403660031901126100c7576004356024356001600160401b0381116100c75761056a903690600401610bb1565b90918015610752578115610743576110008211610528576040513360601b6bffffffffffffffffffffffff19166020820190815260348201929092526105bd81605481015b03601f198101835282610c3a565b519020805f527fb81528f1544d013fd9906e7d298b2564a1a1cfd25df53ef606babf888d101a5e60205260405f20926001600160401b03831161072f576106048454610d39565b601f81116106ea575b505f93601f841160011461068557836106449394955f9161067a575b508560011b905f198760031b1c19161790555b833691610c5b565b60208151910120906040519283527f9c127bb6a78710646dc639c8dce00540002bcffb57abdb1382c055c44ee7071460203394a4005b905082013586610629565b601f19841694815f5260205f20905f5b8781106106d2575085610644959697106106b9575b5050600185811b01905561063c565b8301355f19600388901b60f8161c1916905585806106aa565b90916020600181928588013581550193019101610695565b845f5260205f20601f850160051c81019160208610610725575b601f0160051c01905b81811061071a575061060d565b5f815560010161070d565b9091508190610704565b634e487b7160e01b5f52604160045260245ffd5b6399d8fec960e01b5f5260045ffd5b630eda9c3d60e31b5f5260045ffd5b346100c7575f3660031901126100c75760408051906107808183610c3a565b600d82526c4578616d706c6546616365744160981b60208301528051906107a78183610c3a565b60058252640312e312e360dc1b60208301526101609181516107c98482610c3a565b600a81526020810193601f190136853780511561092b57632d4847b160e21b845280516001101561092b57639730174d60e01b8184015280516002101561092b576354f6127f60e01b606082015280516003101561092b5762fa20df60e21b608082015280516004101561092b576317b68eb760e31b60a082015280516005101561092b576324d824cb60e01b60c082015280516006101561092b576331cd419960e01b60e082015280516007101561092b57633217beaf60e11b61010082015280516008101561092b57631089a91560e11b61012082015280516009101561092b57637ab7b94b60e01b61014082015282516060808252909586959493602093926108e8926108db91890190610bde565b9087820385890152610bde565b928584039086015251918281520191905f5b818110610908575050500390f35b82516001600160e01b0319168452859450602093840193909201916001016108fa565b634e487b7160e01b5f52603260045260245ffd5b346100c7575f3660031901126100c75760205f516020610f215f395f51905f5254604051908152f35b346100c75760203660031901126100c7576040513360601b6bffffffffffffffffffffffff1916602082019081526004356034830152906109ac81605481016105af565b5190205f527fb81528f1544d013fd9906e7d298b2564a1a1cfd25df53ef606babf888d101a5e60205260405f20604051905f908054906109eb82610d39565b8085529160018116908115610a6b5750600114610a2b575b610a2784610a1381860382610c3a565b604051918291602083526020830190610bde565b0390f35b5f90815260208120939250905b808210610a5157509091508101602001610a1382610a03565b919260018160209254838588010152019101909291610a38565b60ff191660208087019190915292151560051b85019092019250610a139150839050610a03565b346100c75760603660031901126100c7576024356001600160401b0381116100c757610ac2903690600401610bb1565b906044356001600160a01b03811681036100c757602092610ae592600435610ca0565b6040519015158152f35b346100c75760203660031901126100c7576004356001600160401b0381116100c757610b246103be6020923690600401610bb1565b818151910120604051908152f35b346100c7575f3660031901126100c7577fb81528f1544d013fd9906e7d298b2564a1a1cfd25df53ef606babf888d101a61546040516001600160a01b039091168152602090f35b346100c75760203660031901126100c7576004356001600160a01b03811681036100c757610ba8602091610c02565b54604051908152f35b9181601f840112156100c7578235916001600160401b0383116100c757602083818601950101116100c757565b805180835260209291819084018484015e5f828201840152601f01601f1916010190565b6001600160a01b03165f9081527fb81528f1544d013fd9906e7d298b2564a1a1cfd25df53ef606babf888d101a5f6020526040902090565b90601f801991011681019081106001600160401b0382111761072f57604052565b9291926001600160401b03821161072f5760405191610c84601f8201601f191660200184610c3a565b8294818452818301116100c7578281602093845f960137010152565b6001600160a01b03909316929091908315610d3157610cf592610cef917f19457468657265756d205369676e6564204d6573736167653a0a3332000000005f52601c52603c5f20923691610c5b565b90610e64565b506004819392931015610d1d57159182610d0e57505090565b6001600160a01b031614919050565b634e487b7160e01b5f52602160045260245ffd5b505050505f90565b90600182811c92168015610d67575b6020831014610d5357565b634e487b7160e01b5f52602260045260245ffd5b91607f1691610d48565b6001600160401b03811161072f5760051b60200190565b805182101561092b5760209160051b010190565b60018060a01b03166bffffffffffffffffffffffff60a01b7fb81528f1544d013fd9906e7d298b2564a1a1cfd25df53ef606babf888d101a615416177fb81528f1544d013fd9906e7d298b2564a1a1cfd25df53ef606babf888d101a6155565b90918060409360208452816020850152848401375f828201840152601f01601f1916010190565b919081101561092b5760051b81013590601e19813603018212156100c75701908135916001600160401b0383116100c75760200182360381136100c7579190565b8151919060418303610e9457610e8d9250602082015190606060408401519301515f1a90610e9e565b9192909190565b50505f9160029190565b91907f7fffffffffffffffffffffffffffffff5d576e7357a4501ddfe92f46681b20a08411610f15579160209360809260ff5f9560405194855216868401526040830152606082015282805260015afa156102d8575f516001600160a01b03811615610f0b57905f905f90565b505f906001905f90565b5050505f916003919056feb81528f1544d013fd9906e7d298b2564a1a1cfd25df53ef606babf888d101a60a26469706673582212207089c635b9d2465eda9be5f513b350a961e98688c5071973f1d2c0bb3f5bc8b564736f6c634300081e0033",
  "linkReferences": {
    "contracts/utils/GasOptimizationUtils.sol": {
      "GasOptimizationUtils": [
        {
          "length": 20,
          "start": 506
        }
      ]
    }
  },
  "deployedLinkReferences": {
    "contracts/utils/GasOptimizationUtils.sol": {
      "GasOptimizationUtils": [
        {
          "length": 20,
          "start": 480
        }
      ]
    }
  }
}