{
  "_format": "hh-sol-artifact-1",
  "contractName": "AuditRegistry",
  "sourceName": "contracts/audit/AuditRegistry.sol",
  "abi": [
    {
      "inputs": [
        {
          "internalType": "address",
          "name": "admin",
          "type": "address"
        }
      ],
      "stateMutability": "nonpayable",
      "type": "constructor"
    },
    {
      "inputs": [],
      "name": "AccessControlBadConfirmation",
      "type": "error"
    },
    {
      "inputs": [
        {
          "internalType": "address",
          "name": "account",
          "type": "address"
        },
        {
          "internalType": "bytes32",
          "name": "neededRole",
          "type": "bytes32"
        }
      ],
      "name": "AccessControlUnauthorizedAccount",
      "type": "error"
    },
    {
      "inputs": [
        {
          "internalType": "bytes32",
          "name": "manifestHash",
          "type": "bytes32"
        }
      ],
      "name": "AuditAlreadyExists",
      "type": "error"
    },
    {
      "inputs": [
        {
          "internalType": "bytes32",
          "name": "manifestHash",
          "type": "bytes32"
        }
      ],
      "name": "AuditExpiredError",
      "type": "error"
    },
    {
      "inputs": [
        {
          "internalType": "bytes32",
          "name": "manifestHash",
          "type": "bytes32"
        }
      ],
      "name": "AuditNotFound",
      "type": "error"
    },
    {
      "inputs": [
        {
          "internalType": "address",
          "name": "auditor",
          "type": "address"
        }
      ],
      "name": "AuditorAlreadyCertified",
      "type": "error"
    },
    {
      "inputs": [
        {
          "internalType": "address",
          "name": "auditor",
          "type": "address"
        }
      ],
      "name": "AuditorNotCertified",
      "type": "error"
    },
    {
      "inputs": [],
      "name": "EnforcedPause",
      "type": "error"
    },
    {
      "inputs": [],
      "name": "ExpectedPause",
      "type": "error"
    },
    {
      "inputs": [
        {
          "internalType": "uint256",
          "name": "period",
          "type": "uint256"
        }
      ],
      "name": "InvalidAuditPeriod",
      "type": "error"
    },
    {
      "inputs": [
        {
          "internalType": "string",
          "name": "uri",
          "type": "string"
        }
      ],
      "name": "InvalidReportUri",
      "type": "error"
    },
    {
      "inputs": [],
      "name": "UnauthorizedDeployer",
      "type": "error"
    },
    {
      "anonymous": false,
      "inputs": [
        {
          "indexed": true,
          "internalType": "bytes32",
          "name": "manifestHash",
          "type": "bytes32"
        },
        {
          "indexed": true,
          "internalType": "address",
          "name": "auditor",
          "type": "address"
        },
        {
          "indexed": false,
          "internalType": "bool",
          "name": "passed",
          "type": "bool"
        }
      ],
      "name": "AuditCompleted",
      "type": "event"
    },
    {
      "anonymous": false,
      "inputs": [
        {
          "indexed": true,
          "internalType": "bytes32",
          "name": "manifestHash",
          "type": "bytes32"
        },
        {
          "indexed": true,
          "internalType": "address",
          "name": "auditor",
          "type": "address"
        }
      ],
      "name": "AuditExpired",
      "type": "event"
    },
    {
      "anonymous": false,
      "inputs": [
        {
          "indexed": true,
          "internalType": "bytes32",
          "name": "manifestHash",
          "type": "bytes32"
        },
        {
          "indexed": true,
          "internalType": "address",
          "name": "auditor",
          "type": "address"
        },
        {
          "indexed": false,
          "internalType": "bool",
          "name": "passed",
          "type": "bool"
        },
        {
          "indexed": false,
          "internalType": "string",
          "name": "reportUri",
          "type": "string"
        }
      ],
      "name": "AuditSubmitted",
      "type": "event"
    },
    {
      "anonymous": false,
      "inputs": [
        {
          "indexed": false,
          "internalType": "uint256",
          "name": "oldPeriod",
          "type": "uint256"
        },
        {
          "indexed": false,
          "internalType": "uint256",
          "name": "newPeriod",
          "type": "uint256"
        }
      ],
      "name": "AuditValidityUpdated",
      "type": "event"
    },
    {
      "anonymous": false,
      "inputs": [
        {
          "indexed": true,
          "internalType": "address",
          "name": "auditor",
          "type": "address"
        },
        {
          "indexed": true,
          "internalType": "address",
          "name": "certifier",
          "type": "address"
        }
      ],
      "name": "AuditorCertified",
      "type": "event"
    },
    {
      "anonymous": false,
      "inputs": [
        {
          "indexed": true,
          "internalType": "address",
          "name": "auditor",
          "type": "address"
        },
        {
          "indexed": true,
          "internalType": "address",
          "name": "revoker",
          "type": "address"
        }
      ],
      "name": "AuditorRevoked",
      "type": "event"
    },
    {
      "anonymous": false,
      "inputs": [
        {
          "indexed": false,
          "internalType": "address",
          "name": "account",
          "type": "address"
        }
      ],
      "name": "Paused",
      "type": "event"
    },
    {
      "anonymous": false,
      "inputs": [
        {
          "indexed": true,
          "internalType": "bytes32",
          "name": "role",
          "type": "bytes32"
        },
        {
          "indexed": true,
          "internalType": "bytes32",
          "name": "previousAdminRole",
          "type": "bytes32"
        },
        {
          "indexed": true,
          "internalType": "bytes32",
          "name": "newAdminRole",
          "type": "bytes32"
        }
      ],
      "name": "RoleAdminChanged",
      "type": "event"
    },
    {
      "anonymous": false,
      "inputs": [
        {
          "indexed": true,
          "internalType": "bytes32",
          "name": "role",
          "type": "bytes32"
        },
        {
          "indexed": true,
          "internalType": "address",
          "name": "account",
          "type": "address"
        },
        {
          "indexed": true,
          "internalType": "address",
          "name": "sender",
          "type": "address"
        }
      ],
      "name": "RoleGranted",
      "type": "event"
    },
    {
      "anonymous": false,
      "inputs": [
        {
          "indexed": true,
          "internalType": "bytes32",
          "name": "role",
          "type": "bytes32"
        },
        {
          "indexed": true,
          "internalType": "address",
          "name": "account",
          "type": "address"
        },
        {
          "indexed": true,
          "internalType": "address",
          "name": "sender",
          "type": "address"
        }
      ],
      "name": "RoleRevoked",
      "type": "event"
    },
    {
      "anonymous": false,
      "inputs": [
        {
          "indexed": false,
          "internalType": "address",
          "name": "account",
          "type": "address"
        }
      ],
      "name": "Unpaused",
      "type": "event"
    },
    {
      "inputs": [],
      "name": "AUDITOR_ROLE",
      "outputs": [
        {
          "internalType": "bytes32",
          "name": "",
          "type": "bytes32"
        }
      ],
      "stateMutability": "view",
      "type": "function"
    },
    {
      "inputs": [],
      "name": "AUDIT_ADMIN_ROLE",
      "outputs": [
        {
          "internalType": "bytes32",
          "name": "",
          "type": "bytes32"
        }
      ],
      "stateMutability": "view",
      "type": "function"
    },
    {
      "inputs": [],
      "name": "DEFAULT_ADMIN_ROLE",
      "outputs": [
        {
          "internalType": "bytes32",
          "name": "",
          "type": "bytes32"
        }
      ],
      "stateMutability": "view",
      "type": "function"
    },
    {
      "inputs": [],
      "name": "MAX_AUDIT_VALIDITY",
      "outputs": [
        {
          "internalType": "uint256",
          "name": "",
          "type": "uint256"
        }
      ],
      "stateMutability": "view",
      "type": "function"
    },
    {
      "inputs": [],
      "name": "MIN_AUDIT_VALIDITY",
      "outputs": [
        {
          "internalType": "uint256",
          "name": "",
          "type": "uint256"
        }
      ],
      "stateMutability": "view",
      "type": "function"
    },
    {
      "inputs": [
        {
          "internalType": "bytes32",
          "name": "",
          "type": "bytes32"
        }
      ],
      "name": "auditExpiration",
      "outputs": [
        {
          "internalType": "uint256",
          "name": "",
          "type": "uint256"
        }
      ],
      "stateMutability": "view",
      "type": "function"
    },
    {
      "inputs": [],
      "name": "auditValidityPeriod",
      "outputs": [
        {
          "internalType": "uint256",
          "name": "",
          "type": "uint256"
        }
      ],
      "stateMutability": "view",
      "type": "function"
    },
    {
      "inputs": [
        {
          "internalType": "uint256",
          "name": "",
          "type": "uint256"
        }
      ],
      "name": "auditedManifests",
      "outputs": [
        {
          "internalType": "bytes32",
          "name": "",
          "type": "bytes32"
        }
      ],
      "stateMutability": "view",
      "type": "function"
    },
    {
      "inputs": [
        {
          "internalType": "address",
          "name": "",
          "type": "address"
        }
      ],
      "name": "auditorStats",
      "outputs": [
        {
          "internalType": "uint256",
          "name": "",
          "type": "uint256"
        }
      ],
      "stateMutability": "view",
      "type": "function"
    },
    {
      "inputs": [
        {
          "internalType": "bytes32",
          "name": "",
          "type": "bytes32"
        }
      ],
      "name": "audits",
      "outputs": [
        {
          "internalType": "address",
          "name": "auditor",
          "type": "address"
        },
        {
          "internalType": "bytes32",
          "name": "auditHash",
          "type": "bytes32"
        },
        {
          "internalType": "uint256",
          "name": "auditTimestamp",
          "type": "uint256"
        },
        {
          "internalType": "bool",
          "name": "passed",
          "type": "bool"
        },
        {
          "internalType": "string",
          "name": "reportUri",
          "type": "string"
        }
      ],
      "stateMutability": "view",
      "type": "function"
    },
    {
      "inputs": [
        {
          "internalType": "address",
          "name": "",
          "type": "address"
        }
      ],
      "name": "certifiedAuditors",
      "outputs": [
        {
          "internalType": "bool",
          "name": "",
          "type": "bool"
        }
      ],
      "stateMutability": "view",
      "type": "function"
    },
    {
      "inputs": [
        {
          "internalType": "address",
          "name": "auditor",
          "type": "address"
        }
      ],
      "name": "certifyAuditor",
      "outputs": [],
      "stateMutability": "nonpayable",
      "type": "function"
    },
    {
      "inputs": [],
      "name": "emergencyPause",
      "outputs": [],
      "stateMutability": "nonpayable",
      "type": "function"
    },
    {
      "inputs": [],
      "name": "emergencyUnpause",
      "outputs": [],
      "stateMutability": "nonpayable",
      "type": "function"
    },
    {
      "inputs": [],
      "name": "getAuditCount",
      "outputs": [
        {
          "internalType": "uint256",
          "name": "count",
          "type": "uint256"
        }
      ],
      "stateMutability": "view",
      "type": "function"
    },
    {
      "inputs": [
        {
          "internalType": "bytes32",
          "name": "manifestHash",
          "type": "bytes32"
        }
      ],
      "name": "getAuditStatus",
      "outputs": [
        {
          "internalType": "bool",
          "name": "isValid",
          "type": "bool"
        },
        {
          "components": [
            {
              "internalType": "address",
              "name": "auditor",
              "type": "address"
            },
            {
              "internalType": "bytes32",
              "name": "auditHash",
              "type": "bytes32"
            },
            {
              "internalType": "uint256",
              "name": "auditTimestamp",
              "type": "uint256"
            },
            {
              "internalType": "bool",
              "name": "passed",
              "type": "bool"
            },
            {
              "internalType": "string",
              "name": "reportUri",
              "type": "string"
            }
          ],
          "internalType": "struct ManifestTypes.AuditInfo",
          "name": "auditInfo",
          "type": "tuple"
        }
      ],
      "stateMutability": "view",
      "type": "function"
    },
    {
      "inputs": [
        {
          "internalType": "uint256",
          "name": "offset",
          "type": "uint256"
        },
        {
          "internalType": "uint256",
          "name": "limit",
          "type": "uint256"
        }
      ],
      "name": "getAuditedManifests",
      "outputs": [
        {
          "internalType": "bytes32[]",
          "name": "manifests",
          "type": "bytes32[]"
        },
        {
          "internalType": "uint256",
          "name": "total",
          "type": "uint256"
        }
      ],
      "stateMutability": "view",
      "type": "function"
    },
    {
      "inputs": [
        {
          "internalType": "address",
          "name": "auditor",
          "type": "address"
        }
      ],
      "name": "getAuditorInfo",
      "outputs": [
        {
          "internalType": "bool",
          "name": "isCertified",
          "type": "bool"
        },
        {
          "internalType": "uint256",
          "name": "auditCount",
          "type": "uint256"
        }
      ],
      "stateMutability": "view",
      "type": "function"
    },
    {
      "inputs": [
        {
          "internalType": "bytes32",
          "name": "role",
          "type": "bytes32"
        }
      ],
      "name": "getRoleAdmin",
      "outputs": [
        {
          "internalType": "bytes32",
          "name": "",
          "type": "bytes32"
        }
      ],
      "stateMutability": "view",
      "type": "function"
    },
    {
      "inputs": [
        {
          "internalType": "bytes32",
          "name": "role",
          "type": "bytes32"
        },
        {
          "internalType": "address",
          "name": "account",
          "type": "address"
        }
      ],
      "name": "grantRole",
      "outputs": [],
      "stateMutability": "nonpayable",
      "type": "function"
    },
    {
      "inputs": [
        {
          "internalType": "bytes32",
          "name": "role",
          "type": "bytes32"
        },
        {
          "internalType": "address",
          "name": "account",
          "type": "address"
        }
      ],
      "name": "hasRole",
      "outputs": [
        {
          "internalType": "bool",
          "name": "",
          "type": "bool"
        }
      ],
      "stateMutability": "view",
      "type": "function"
    },
    {
      "inputs": [
        {
          "internalType": "bytes32[]",
          "name": "manifestHashes",
          "type": "bytes32[]"
        }
      ],
      "name": "markExpiredAudits",
      "outputs": [],
      "stateMutability": "nonpayable",
      "type": "function"
    },
    {
      "inputs": [],
      "name": "paused",
      "outputs": [
        {
          "internalType": "bool",
          "name": "",
          "type": "bool"
        }
      ],
      "stateMutability": "view",
      "type": "function"
    },
    {
      "inputs": [
        {
          "internalType": "bytes32",
          "name": "role",
          "type": "bytes32"
        },
        {
          "internalType": "address",
          "name": "callerConfirmation",
          "type": "address"
        }
      ],
      "name": "renounceRole",
      "outputs": [],
      "stateMutability": "nonpayable",
      "type": "function"
    },
    {
      "inputs": [
        {
          "internalType": "bytes32",
          "name": "manifestHash",
          "type": "bytes32"
        }
      ],
      "name": "requiresAudit",
      "outputs": [
        {
          "internalType": "bool",
          "name": "auditRequired",
          "type": "bool"
        }
      ],
      "stateMutability": "view",
      "type": "function"
    },
    {
      "inputs": [
        {
          "internalType": "address",
          "name": "auditor",
          "type": "address"
        }
      ],
      "name": "revokeAuditor",
      "outputs": [],
      "stateMutability": "nonpayable",
      "type": "function"
    },
    {
      "inputs": [
        {
          "internalType": "bytes32",
          "name": "role",
          "type": "bytes32"
        },
        {
          "internalType": "address",
          "name": "account",
          "type": "address"
        }
      ],
      "name": "revokeRole",
      "outputs": [],
      "stateMutability": "nonpayable",
      "type": "function"
    },
    {
      "inputs": [
        {
          "internalType": "bytes32",
          "name": "manifestHash",
          "type": "bytes32"
        },
        {
          "internalType": "bool",
          "name": "passed",
          "type": "bool"
        },
        {
          "internalType": "string",
          "name": "reportUri",
          "type": "string"
        }
      ],
      "name": "submitAudit",
      "outputs": [],
      "stateMutability": "nonpayable",
      "type": "function"
    },
    {
      "inputs": [
        {
          "internalType": "bytes4",
          "name": "interfaceId",
          "type": "bytes4"
        }
      ],
      "name": "supportsInterface",
      "outputs": [
        {
          "internalType": "bool",
          "name": "",
          "type": "bool"
        }
      ],
      "stateMutability": "view",
      "type": "function"
    },
    {
      "inputs": [
        {
          "internalType": "uint256",
          "name": "newPeriod",
          "type": "uint256"
        }
      ],
      "name": "updateAuditValidityPeriod",
      "outputs": [],
      "stateMutability": "nonpayable",
      "type": "function"
    }
  ],
  "bytecode": "0x6080346100b057601f611a9b38819003918201601f19168301916001600160401b038311848410176100b4578084926020946040528339810103126100b057516001600160a01b038116908181036100b0576276a70060025581156100a1578061006b61007b926100c8565b506100758161013e565b506101d1565b505f52600460205260405f20600160ff198254161790556040516117b690816102658239f35b630b46905560e21b5f5260045ffd5b5f80fd5b634e487b7160e01b5f52604160045260245ffd5b6001600160a01b0381165f9081525f516020611a7b5f395f51905f52602052604090205460ff16610139576001600160a01b03165f8181525f516020611a7b5f395f51905f5260205260408120805460ff191660011790553391905f516020611a3b5f395f51905f528180a4600190565b505f90565b6001600160a01b0381165f9081525f516020611a5b5f395f51905f52602052604090205460ff16610139576001600160a01b03165f8181525f516020611a5b5f395f51905f5260205260408120805460ff191660011790553391907f4a9fe227f9a3c18cc62f6390fcc0b0e4be128f4997754e145f18e6f4743c66b7905f516020611a3b5f395f51905f529080a4600190565b6001600160a01b0381165f9081525f516020611a1b5f395f51905f52602052604090205460ff16610139576001600160a01b03165f8181525f516020611a1b5f395f51905f5260205260408120805460ff191660011790553391907f59a1c48e5837ad7a7f3dcedcbe129bf3249ec4fbf651fd4f5e2600ead39fe2f5905f516020611a3b5f395f51905f529080a460019056fe6080806040526004361015610012575f80fd5b5f3560e01c90816301ffc9a714610f9757508063248a9ca314610f655780632f2ff15d14610f2857806334993fe614610ea357806336568abe14610e5f5780633970c2f114610e2257806348ca00fa14610e055780634a4e3bd514610d9f57806351858e2714610d4757806352ec4a7914610d0f578063572dab0514610ce55780635c975abb14610cc35780635caad4fd14610bd75780636353bde614610bba578063678d8a5d14610b8057806368e2cef414610b485780636e1d616e14610b2157806372f88be3146109de57806391d1485414610996578063937cfca214610978578063a217fddf1461095e578063b402980b146108c1578063d547741f1461087d578063de8f821614610809578063e82d93de14610758578063e93d0639146106ee578063eae27f3114610673578063f441bfcb14610656578063f8fa3857146106095763fa86e7bd14610166575f80fd5b3461060557606036600319011261060557600435602435908115158092036106055760443567ffffffffffffffff811161060557366023820112156106055780600401359067ffffffffffffffff8211610605576024810190602483369201011161060557335f9081525f5160206117415f395f51905f52602052604090205460ff16156105e1576101f6611725565b335f52600460205260ff60405f205416156105ce575f838152600360205260409020546001600160a01b03166105bb5781156105925760405160208101908482523360408201524260608201526080808201526102698161025b60a08201878761138f565b03601f1981018352826110ba565b519020604051906102798261109e565b3382526020820190815260408201914283526060810187815261029b86611189565b936102a960405195866110ba565b868552868660208701375f60208887010152608083019485526102cc88846116d6565b1561053c57600493885f52600360205260405f209360018060a01b039051166bffffffffffffffffffffffff60a01b855416178455516001840155516002830155600382019051151560ff8019835416911617905501905180519067ffffffffffffffff821161046a5781906103428454611066565b601f81116104ec575b50602090601f8311600114610489575f9261047e575b50508160011b915f199060031b1c19161790555b610381600254426112b2565b835f52600760205260405f20556006546801000000000000000081101561046a578060016103b29201600655611016565b81549060031b9085821b915f19901b1916179055335f52600560205260405f2080545f1981146104565784927f846ec250312504437a1b4b433a764e4ff55d742700e8c3c5c7c2316cac65ebe392600161042593019055604051918291888352604060208401523396604084019161138f565b0390a36040519182527f3b54f18b4d0a76dd2c3143e10f63ef09a5a4d9dbe540cf1de6621e7bbd6eafa160203393a3005b634e487b7160e01b5f52601160045260245ffd5b634e487b7160e01b5f52604160045260245ffd5b015190505f80610361565b5f8581528281209350601f198516905b8181106104d457509084600195949392106104bc575b505050811b019055610375565b01515f1960f88460031b161c191690555f80806104af565b92936020600181928786015181550195019301610499565b909150835f5260205f20601f840160051c81019160208510610532575b90601f859493920160051c01905b818110610524575061034b565b5f8155849350600101610517565b9091508190610509565b60405162461bcd60e51b815260206004820152602860248201527f417564697452656769737472793a20696e76616c696420617564697420696e6660448201526737b936b0ba34b7b760c11b6064820152608490fd5b604051630c3c6cb360e11b8152602060048201529182916105b791602484019161138f565b0390fd5b826313753a3b60e11b5f5260045260245ffd5b6308f703ab60e21b5f523360045260245ffd5b63e2517d3f60e01b5f52336004525f5160206117615f395f51905f5260245260445ffd5b5f80fd5b346106055760203660031901126106055760406001600160a01b0361062c611000565b16805f52600460205260ff825f205416905f526005602052815f2054825191151582526020820152f35b34610605575f366003190112610605576020600254604051908152f35b34610605576020366003190112610605576004355f52600360205260405f2060018060a01b038154166106ea6001830154926002810154906106bf600460ff60038401541692016110dc565b916040519586958652602086015260408501521515606084015260a0608084015260a0830190611042565b0390f35b346106055760403660031901126106055761070d6024356004356112cc565b9060405190604082019260408352815180945260206060840192015f945b80861061074057505082935060208301520390f35b9092602080600192865181520194019501949061072b565b3461060557602036600319011261060557610771611000565b6107796113af565b6001600160a01b0381169081156107fa57815f52600460205260ff60405f2054166107e7576107be90825f52600460205260405f20600160ff198254161790556114a5565b5033907f8de3ae625f699ae5222c9df2a01916dc32609f738d4e3130deeaee5ac362a0c15f80a3005b5063033efd3360e01b5f5260045260245ffd5b630b46905560e21b5f5260045ffd5b34610605576020366003190112610605576108256004356111a5565b906106ea6080604051938493151584526040602085015260018060a01b038151166040850152602081015160608501526040810151828501526060810151151560a0850152015160a060c084015260e0830190611042565b34610605576040366003190112610605576108bf60043561089c610fea565b906108ba6108b5825f525f602052600160405f20015490565b61146d565b611656565b005b34610605576020366003190112610605576108da611000565b6108e26113af565b6001600160a01b0381165f8181526004602052604090205490919060ff161561094b5761092290825f52600460205260405f2060ff1981541690556115c5565b5033907f0ec28b3aee28784112ef9f09493c35c902b87aa6ed5d3b0d2228b971f2fc741a5f80a3005b506308f703ab60e21b5f5260045260245ffd5b34610605575f3660031901126106055760206040515f8152f35b34610605575f3660031901126106055760206040516301e133808152f35b34610605576040366003190112610605576109af610fea565b6004355f525f60205260405f209060018060a01b03165f52602052602060ff60405f2054166040519015158152f35b3461060557602036600319011261060557604051636f47c10b60e11b815260048035908201525f81602481305afa8015610b16575f90610a25575b60209060405190158152f35b503d805f833e610a3581836110ba565b81019060408183031261060557610a4b8161117c565b9060208101519067ffffffffffffffff821161060557019160a0838203126106055760405192610a7a8461109e565b80516001600160a01b03811681036106055784526020810151602085015260408101516040850152610aae6060820161117c565b606085015260808101519067ffffffffffffffff8211610605570181601f8201121561060557805193610ae085611189565b92610aee60405194856110ba565b85845260208684010111610605575f602086819782608096018388015e850101520152610a19565b6040513d5f823e3d90fd5b34610605575f3660031901126106055760206040515f5160206117615f395f51905f528152f35b346106055760203660031901126106055760043560065481101561060557610b71602091611016565b90549060031b1c604051908152f35b34610605575f3660031901126106055760206040517f4a9fe227f9a3c18cc62f6390fcc0b0e4be128f4997754e145f18e6f4743c66b78152f35b34610605575f366003190112610605576020600654604051908152f35b346106055760203660031901126106055760043567ffffffffffffffff8111610605573660238201121561060557806004013567ffffffffffffffff8111610605573660248260051b8401011161060557610c306113af565b5f5b818110156108bf5760019060248160051b85010135805f52600760205260405f2054421180610ca7575b610c68575b5001610c32565b805f526003602052828060a01b0360405f205416907f80c19af89624b3fa96dd7e95417311d3cbab88f9c55cf37cf51348c3beca95f25f80a384610c61565b50805f526003602052828060a01b0360405f2054161515610c5c565b34610605575f36600319011261060557602060ff600154166040519015158152f35b34610605576020366003190112610605576004355f526007602052602060405f2054604051908152f35b34610605576020366003190112610605576001600160a01b03610d30611000565b165f526005602052602060405f2054604051908152f35b34610605575f36600319011261060557610d5f61141e565b610d67611725565b600160ff19815416176001557f62e78cea01bee320cd4e420270b5ea74000d11b0c9f74754ebdbfc544b05a2586020604051338152a1005b34610605575f36600319011261060557610db761141e565b60015460ff811615610df65760ff19166001557f5db9ee0a495bf2e6ff9c91a7834c1ba4fdd244a5e8aa4e537bd38aeae4b073aa6020604051338152a1005b638dfc202b60e01b5f5260045ffd5b34610605575f36600319011261060557602060405162278d008152f35b34610605576020366003190112610605576001600160a01b03610e43611000565b165f526004602052602060ff60405f2054166040519015158152f35b3461060557604036600319011261060557610e78610fea565b336001600160a01b03821603610e94576108bf90600435611656565b63334bd91960e11b5f5260045ffd5b3461060557602036600319011261060557600435610ebf6113af565b62278d0081108015610f1b575b610f095760407f6373cc676e10f19ae5af0c82cbf5a30f14e8304903e9aabd3ea829a6cbaf29ea91600254908060025582519182526020820152a1005b63e0a4409b60e01b5f5260045260245ffd5b506301e133808111610ecc565b34610605576040366003190112610605576108bf600435610f47610fea565b90610f606108b5825f525f602052600160405f20015490565b61153d565b34610605576020366003190112610605576020610f8f6004355f525f602052600160405f20015490565b604051908152f35b34610605576020366003190112610605576004359063ffffffff60e01b821680920361060557602091637965db0b60e01b8114908115610fd9575b5015158152f35b6301ffc9a760e01b14905083610fd2565b602435906001600160a01b038216820361060557565b600435906001600160a01b038216820361060557565b60065481101561102e5760065f5260205f2001905f90565b634e487b7160e01b5f52603260045260245ffd5b805180835260209291819084018484015e5f828201840152601f01601f1916010190565b90600182811c92168015611094575b602083101461108057565b634e487b7160e01b5f52602260045260245ffd5b91607f1691611075565b60a0810190811067ffffffffffffffff82111761046a57604052565b90601f8019910116810190811067ffffffffffffffff82111761046a57604052565b9060405191825f8254926110ef84611066565b808452936001811690811561115a5750600114611116575b50611114925003836110ba565b565b90505f9291925260205f20905f915b81831061113e575050906020611114928201015f611107565b6020919350806001915483858901015201910190918492611125565b90506020925061111494915060ff191682840152151560051b8201015f611107565b5190811515820361060557565b67ffffffffffffffff811161046a57601f01601f191660200190565b90606060806040516111b68161109e565b5f81525f60208201525f60408201525f838201520152815f52600360205260405f20916112216004604051946111eb8661109e565b80546001600160a01b031686526001810154602087015260028101546040870152600381015460ff1615156060870152016110dc565b6080840152825183906001600160a01b0316156112925750805f52600760205260405f2054421161128c5782516001600160a01b03165f9081526004602052604090205460ff161561128c5761127790836116d6565b80611280579190565b50606082015115159190565b505f9190565b9250505f9190565b67ffffffffffffffff811161046a5760051b60200190565b9190820180921161045657565b9190820391821161045657565b916006549182841015611372576112e390846112b2565b82811161136b575b6112f584826112bf565b906112ff8261129a565b9161130d60405193846110ba565b80835261131c601f199161129a565b013660208401378194805b8281106113345750505050565b61133d81611016565b90549060031b1c9061134f83826112bf565b91855183101561102e57602060019360051b8701015201611327565b50816112eb565b509091506040516113846020826110ba565b5f81525f3681379190565b908060209392818452848401375f828201840152601f01601f1916010190565b335f9081527f6fe68ba59ef6b7acaa0838bf70c499a6e00d8090d8eb3f51d56042934ec553af602052604090205460ff16156113e757565b63e2517d3f60e01b5f52336004527f4a9fe227f9a3c18cc62f6390fcc0b0e4be128f4997754e145f18e6f4743c66b760245260445ffd5b335f9081527fad3228b676f7d3cd4284a5443f17f1962b36e491b30a40b2405849e597ba5fb5602052604090205460ff161561145657565b63e2517d3f60e01b5f52336004525f60245260445ffd5b5f8181526020818152604080832033845290915290205460ff161561148f5750565b63e2517d3f60e01b5f523360045260245260445ffd5b6001600160a01b0381165f9081525f5160206117415f395f51905f52602052604090205460ff16611538576001600160a01b03165f8181525f5160206117415f395f51905f5260205260408120805460ff191660011790553391905f5160206117615f395f51905f52907f2f8788117e7eff1d82e926ec794901d17c78024a50270940304540a733656f0d9080a4600190565b505f90565b5f818152602081815260408083206001600160a01b038616845290915290205460ff166115bf575f818152602081815260408083206001600160a01b0395909516808452949091528120805460ff19166001179055339291907f2f8788117e7eff1d82e926ec794901d17c78024a50270940304540a733656f0d9080a4600190565b50505f90565b6001600160a01b0381165f9081525f5160206117415f395f51905f52602052604090205460ff1615611538576001600160a01b03165f8181525f5160206117415f395f51905f5260205260408120805460ff191690553391905f5160206117615f395f51905f52907ff6391f5c32d9c69d2a47ea670b442974b53935d1edc7fd64eb21e047a839171b9080a4600190565b5f818152602081815260408083206001600160a01b038616845290915290205460ff16156115bf575f818152602081815260408083206001600160a01b0395909516808452949091528120805460ff19169055339291907ff6391f5c32d9c69d2a47ea670b442974b53935d1edc7fd64eb21e047a839171b9080a4600190565b9060209060018060a01b0383511661171b60408501519161025b60808701516040519485938885019788526040850152606084015260808084015260a0830190611042565b5190209101511490565b60ff6001541661173157565b63d93c066560e01b5f5260045ffdfe0d2d6a5d08cb5d871289c0a3ca855d9da72909a111c24cce2d5c2b34a20daa5459a1c48e5837ad7a7f3dcedcbe129bf3249ec4fbf651fd4f5e2600ead39fe2f5a26469706673582212201c8d081ff8b62d34891bb2eeae1fe8876de8c22664eea7138faec48ae1b9180664736f6c634300081e00330d2d6a5d08cb5d871289c0a3ca855d9da72909a111c24cce2d5c2b34a20daa542f8788117e7eff1d82e926ec794901d17c78024a50270940304540a733656f0d6fe68ba59ef6b7acaa0838bf70c499a6e00d8090d8eb3f51d56042934ec553afad3228b676f7d3cd4284a5443f17f1962b36e491b30a40b2405849e597ba5fb5",
  "linkReferences": {},
  "deployedLinkReferences": {}
}