{
  "_format": "hh-sol-artifact-1",
  "contractName": "ChunkFactoryFacet",
  "sourceName": "contracts/facets/ChunkFactoryFacet.sol",
  "abi": [
    {
      "inputs": [
        {
          "internalType": "address",
          "name": "_factoryAddress",
          "type": "address"
        }
      ],
      "stateMutability": "nonpayable",
      "type": "constructor"
    },
    {
      "anonymous": false,
      "inputs": [
        {
          "indexed": true,
          "internalType": "address",
          "name": "recipient",
          "type": "address"
        }
      ],
      "name": "AuthorizedRecipientAdded",
      "type": "event"
    },
    {
      "anonymous": false,
      "inputs": [
        {
          "indexed": true,
          "internalType": "address",
          "name": "recipient",
          "type": "address"
        }
      ],
      "name": "AuthorizedRecipientRemoved",
      "type": "event"
    },
    {
      "anonymous": false,
      "inputs": [
        {
          "indexed": false,
          "internalType": "uint256",
          "name": "newBaseFee",
          "type": "uint256"
        }
      ],
      "name": "BaseFeeSet",
      "type": "event"
    },
    {
      "anonymous": false,
      "inputs": [
        {
          "indexed": false,
          "internalType": "address[]",
          "name": "deployed",
          "type": "address[]"
        },
        {
          "indexed": false,
          "internalType": "bytes32[]",
          "name": "salts",
          "type": "bytes32[]"
        },
        {
          "indexed": true,
          "internalType": "address",
          "name": "deployer",
          "type": "address"
        },
        {
          "indexed": false,
          "internalType": "uint256",
          "name": "totalFee",
          "type": "uint256"
        }
      ],
      "name": "BatchDeployed",
      "type": "event"
    },
    {
      "anonymous": false,
      "inputs": [
        {
          "indexed": false,
          "internalType": "uint256",
          "name": "chunkCount",
          "type": "uint256"
        },
        {
          "indexed": false,
          "internalType": "uint256",
          "name": "gasUsed",
          "type": "uint256"
        },
        {
          "indexed": false,
          "internalType": "bytes32",
          "name": "packedMetadata",
          "type": "bytes32"
        },
        {
          "indexed": false,
          "internalType": "uint256",
          "name": "timestamp",
          "type": "uint256"
        }
      ],
      "name": "BatchStaged",
      "type": "event"
    },
    {
      "anonymous": false,
      "inputs": [
        {
          "indexed": true,
          "internalType": "address",
          "name": "chunk",
          "type": "address"
        },
        {
          "indexed": true,
          "internalType": "bytes32",
          "name": "hash",
          "type": "bytes32"
        },
        {
          "indexed": false,
          "internalType": "bytes32",
          "name": "salt",
          "type": "bytes32"
        },
        {
          "indexed": false,
          "internalType": "uint256",
          "name": "size",
          "type": "uint256"
        }
      ],
      "name": "ChunkStaged",
      "type": "event"
    },
    {
      "anonymous": false,
      "inputs": [
        {
          "indexed": true,
          "internalType": "address",
          "name": "deployed",
          "type": "address"
        },
        {
          "indexed": true,
          "internalType": "bytes32",
          "name": "salt",
          "type": "bytes32"
        },
        {
          "indexed": true,
          "internalType": "address",
          "name": "deployer",
          "type": "address"
        },
        {
          "indexed": false,
          "internalType": "uint256",
          "name": "fee",
          "type": "uint256"
        }
      ],
      "name": "ContractDeployed",
      "type": "event"
    },
    {
      "anonymous": false,
      "inputs": [
        {
          "indexed": true,
          "internalType": "address",
          "name": "previousAdmin",
          "type": "address"
        },
        {
          "indexed": true,
          "internalType": "address",
          "name": "newAdmin",
          "type": "address"
        }
      ],
      "name": "DefaultAdminTransferred",
      "type": "event"
    },
    {
      "anonymous": false,
      "inputs": [
        {
          "indexed": true,
          "internalType": "address",
          "name": "recipient",
          "type": "address"
        },
        {
          "indexed": false,
          "internalType": "uint256",
          "name": "amount",
          "type": "uint256"
        }
      ],
      "name": "EmergencyWithdrawal",
      "type": "event"
    },
    {
      "anonymous": false,
      "inputs": [
        {
          "indexed": true,
          "internalType": "address",
          "name": "collector",
          "type": "address"
        },
        {
          "indexed": false,
          "internalType": "uint256",
          "name": "amount",
          "type": "uint256"
        }
      ],
      "name": "FeeCollectionFailed",
      "type": "event"
    },
    {
      "anonymous": false,
      "inputs": [
        {
          "indexed": true,
          "internalType": "address",
          "name": "newRecipient",
          "type": "address"
        }
      ],
      "name": "FeeRecipientSet",
      "type": "event"
    },
    {
      "anonymous": false,
      "inputs": [
        {
          "indexed": false,
          "internalType": "bool",
          "name": "enabled",
          "type": "bool"
        }
      ],
      "name": "FeesEnabledSet",
      "type": "event"
    },
    {
      "anonymous": false,
      "inputs": [
        {
          "indexed": true,
          "internalType": "address",
          "name": "recipient",
          "type": "address"
        },
        {
          "indexed": false,
          "internalType": "uint256",
          "name": "amount",
          "type": "uint256"
        }
      ],
      "name": "FeesWithdrawn",
      "type": "event"
    },
    {
      "anonymous": false,
      "inputs": [
        {
          "indexed": false,
          "internalType": "bool",
          "name": "enabled",
          "type": "bool"
        }
      ],
      "name": "IdempotentModeSet",
      "type": "event"
    },
    {
      "anonymous": false,
      "inputs": [
        {
          "indexed": true,
          "internalType": "uint8",
          "name": "tier",
          "type": "uint8"
        },
        {
          "indexed": false,
          "internalType": "uint256",
          "name": "fee",
          "type": "uint256"
        }
      ],
      "name": "TierFeeSet",
      "type": "event"
    },
    {
      "anonymous": false,
      "inputs": [
        {
          "indexed": true,
          "internalType": "address",
          "name": "user",
          "type": "address"
        },
        {
          "indexed": false,
          "internalType": "uint8",
          "name": "tier",
          "type": "uint8"
        }
      ],
      "name": "UserTierSet",
      "type": "event"
    },
    {
      "inputs": [
        {
          "internalType": "address",
          "name": "recipient",
          "type": "address"
        }
      ],
      "name": "addAuthorizedRecipient",
      "outputs": [],
      "stateMutability": "nonpayable",
      "type": "function"
    },
    {
      "inputs": [
        {
          "internalType": "bytes32",
          "name": "salt",
          "type": "bytes32"
        },
        {
          "internalType": "bytes",
          "name": "bytecode",
          "type": "bytes"
        },
        {
          "internalType": "bytes",
          "name": "constructorArgs",
          "type": "bytes"
        }
      ],
      "name": "deployDeterministic",
      "outputs": [
        {
          "internalType": "address",
          "name": "deployed",
          "type": "address"
        }
      ],
      "stateMutability": "payable",
      "type": "function"
    },
    {
      "inputs": [
        {
          "internalType": "bytes32[]",
          "name": "salts",
          "type": "bytes32[]"
        },
        {
          "internalType": "bytes[]",
          "name": "bytecodes",
          "type": "bytes[]"
        },
        {
          "internalType": "bytes[]",
          "name": "constructorArgs",
          "type": "bytes[]"
        }
      ],
      "name": "deployDeterministicBatch",
      "outputs": [
        {
          "internalType": "address[]",
          "name": "deployed",
          "type": "address[]"
        }
      ],
      "stateMutability": "payable",
      "type": "function"
    },
    {
      "inputs": [],
      "name": "deploymentCount",
      "outputs": [
        {
          "internalType": "uint256",
          "name": "",
          "type": "uint256"
        }
      ],
      "stateMutability": "view",
      "type": "function"
    },
    {
      "inputs": [
        {
          "internalType": "bytes32",
          "name": "hash",
          "type": "bytes32"
        }
      ],
      "name": "exists",
      "outputs": [
        {
          "internalType": "bool",
          "name": "",
          "type": "bool"
        }
      ],
      "stateMutability": "view",
      "type": "function"
    },
    {
      "inputs": [],
      "name": "factoryAddress",
      "outputs": [
        {
          "internalType": "address payable",
          "name": "",
          "type": "address"
        }
      ],
      "stateMutability": "view",
      "type": "function"
    },
    {
      "inputs": [],
      "name": "getExpectedFactoryBytecodeHash",
      "outputs": [
        {
          "internalType": "bytes32",
          "name": "",
          "type": "bytes32"
        }
      ],
      "stateMutability": "view",
      "type": "function"
    },
    {
      "inputs": [],
      "name": "getExpectedManifestHash",
      "outputs": [
        {
          "internalType": "bytes32",
          "name": "",
          "type": "bytes32"
        }
      ],
      "stateMutability": "view",
      "type": "function"
    },
    {
      "inputs": [],
      "name": "getFacetFunctionSelectors",
      "outputs": [
        {
          "internalType": "bytes4[]",
          "name": "selectors",
          "type": "bytes4[]"
        }
      ],
      "stateMutability": "pure",
      "type": "function"
    },
    {
      "inputs": [],
      "name": "getFactoryAddress",
      "outputs": [
        {
          "internalType": "address",
          "name": "",
          "type": "address"
        }
      ],
      "stateMutability": "view",
      "type": "function"
    },
    {
      "inputs": [],
      "name": "getManifestDispatcher",
      "outputs": [
        {
          "internalType": "address",
          "name": "",
          "type": "address"
        }
      ],
      "stateMutability": "view",
      "type": "function"
    },
    {
      "inputs": [
        {
          "internalType": "address",
          "name": "target",
          "type": "address"
        }
      ],
      "name": "isDeployedContract",
      "outputs": [
        {
          "internalType": "bool",
          "name": "",
          "type": "bool"
        }
      ],
      "stateMutability": "view",
      "type": "function"
    },
    {
      "inputs": [],
      "name": "owner",
      "outputs": [
        {
          "internalType": "address",
          "name": "",
          "type": "address"
        }
      ],
      "stateMutability": "view",
      "type": "function"
    },
    {
      "inputs": [],
      "name": "pause",
      "outputs": [],
      "stateMutability": "nonpayable",
      "type": "function"
    },
    {
      "inputs": [
        {
          "internalType": "bytes",
          "name": "data",
          "type": "bytes"
        }
      ],
      "name": "predict",
      "outputs": [
        {
          "internalType": "address",
          "name": "predicted",
          "type": "address"
        },
        {
          "internalType": "bytes32",
          "name": "hash",
          "type": "bytes32"
        }
      ],
      "stateMutability": "view",
      "type": "function"
    },
    {
      "inputs": [
        {
          "internalType": "bytes32",
          "name": "salt",
          "type": "bytes32"
        },
        {
          "internalType": "bytes32",
          "name": "codeHash",
          "type": "bytes32"
        }
      ],
      "name": "predictAddress",
      "outputs": [
        {
          "internalType": "address",
          "name": "predicted",
          "type": "address"
        }
      ],
      "stateMutability": "view",
      "type": "function"
    },
    {
      "inputs": [
        {
          "internalType": "bytes32[]",
          "name": "salts",
          "type": "bytes32[]"
        },
        {
          "internalType": "bytes32[]",
          "name": "codeHashes",
          "type": "bytes32[]"
        }
      ],
      "name": "predictAddressBatch",
      "outputs": [
        {
          "internalType": "address[]",
          "name": "predicted",
          "type": "address[]"
        }
      ],
      "stateMutability": "view",
      "type": "function"
    },
    {
      "inputs": [
        {
          "internalType": "address",
          "name": "chunk",
          "type": "address"
        }
      ],
      "name": "read",
      "outputs": [
        {
          "internalType": "bytes",
          "name": "",
          "type": "bytes"
        }
      ],
      "stateMutability": "view",
      "type": "function"
    },
    {
      "inputs": [
        {
          "internalType": "address",
          "name": "recipient",
          "type": "address"
        }
      ],
      "name": "removeAuthorizedRecipient",
      "outputs": [],
      "stateMutability": "nonpayable",
      "type": "function"
    },
    {
      "inputs": [
        {
          "internalType": "uint256",
          "name": "newBase",
          "type": "uint256"
        }
      ],
      "name": "setBaseFeeWei",
      "outputs": [],
      "stateMutability": "nonpayable",
      "type": "function"
    },
    {
      "inputs": [
        {
          "internalType": "address",
          "name": "newRecipient",
          "type": "address"
        }
      ],
      "name": "setFeeRecipient",
      "outputs": [],
      "stateMutability": "nonpayable",
      "type": "function"
    },
    {
      "inputs": [
        {
          "internalType": "bool",
          "name": "enabled",
          "type": "bool"
        }
      ],
      "name": "setFeesEnabled",
      "outputs": [],
      "stateMutability": "nonpayable",
      "type": "function"
    },
    {
      "inputs": [
        {
          "internalType": "bool",
          "name": "enabled",
          "type": "bool"
        }
      ],
      "name": "setIdempotentMode",
      "outputs": [],
      "stateMutability": "nonpayable",
      "type": "function"
    },
    {
      "inputs": [
        {
          "internalType": "uint256",
          "name": "newMax",
          "type": "uint256"
        }
      ],
      "name": "setMaxSingleTransfer",
      "outputs": [],
      "stateMutability": "nonpayable",
      "type": "function"
    },
    {
      "inputs": [
        {
          "internalType": "uint8",
          "name": "tier",
          "type": "uint8"
        },
        {
          "internalType": "uint256",
          "name": "fee",
          "type": "uint256"
        }
      ],
      "name": "setTierFee",
      "outputs": [],
      "stateMutability": "nonpayable",
      "type": "function"
    },
    {
      "inputs": [
        {
          "internalType": "address",
          "name": "user",
          "type": "address"
        },
        {
          "internalType": "uint8",
          "name": "tier",
          "type": "uint8"
        }
      ],
      "name": "setUserTier",
      "outputs": [],
      "stateMutability": "nonpayable",
      "type": "function"
    },
    {
      "inputs": [
        {
          "internalType": "bytes",
          "name": "data",
          "type": "bytes"
        }
      ],
      "name": "stage",
      "outputs": [
        {
          "internalType": "address",
          "name": "chunk",
          "type": "address"
        },
        {
          "internalType": "bytes32",
          "name": "hash",
          "type": "bytes32"
        }
      ],
      "stateMutability": "payable",
      "type": "function"
    },
    {
      "inputs": [
        {
          "internalType": "bytes[]",
          "name": "blobs",
          "type": "bytes[]"
        }
      ],
      "name": "stageBatch",
      "outputs": [
        {
          "internalType": "address[]",
          "name": "chunks",
          "type": "address[]"
        },
        {
          "internalType": "bytes32[]",
          "name": "hashes",
          "type": "bytes32[]"
        }
      ],
      "stateMutability": "payable",
      "type": "function"
    },
    {
      "inputs": [
        {
          "internalType": "bytes[]",
          "name": "dataArray",
          "type": "bytes[]"
        }
      ],
      "name": "stageMany",
      "outputs": [
        {
          "internalType": "address[]",
          "name": "chunks",
          "type": "address[]"
        }
      ],
      "stateMutability": "payable",
      "type": "function"
    },
    {
      "inputs": [
        {
          "internalType": "bytes4",
          "name": "interfaceId",
          "type": "bytes4"
        }
      ],
      "name": "supportsInterface",
      "outputs": [
        {
          "internalType": "bool",
          "name": "",
          "type": "bool"
        }
      ],
      "stateMutability": "pure",
      "type": "function"
    },
    {
      "inputs": [
        {
          "internalType": "address",
          "name": "newAdmin",
          "type": "address"
        }
      ],
      "name": "transferDefaultAdmin",
      "outputs": [],
      "stateMutability": "nonpayable",
      "type": "function"
    },
    {
      "inputs": [],
      "name": "unpause",
      "outputs": [],
      "stateMutability": "nonpayable",
      "type": "function"
    },
    {
      "inputs": [
        {
          "internalType": "address",
          "name": "user",
          "type": "address"
        }
      ],
      "name": "userTiers",
      "outputs": [
        {
          "internalType": "uint8",
          "name": "",
          "type": "uint8"
        }
      ],
      "stateMutability": "view",
      "type": "function"
    },
    {
      "inputs": [
        {
          "internalType": "bytes",
          "name": "bytecode",
          "type": "bytes"
        }
      ],
      "name": "validateBytecodeSize",
      "outputs": [
        {
          "internalType": "bool",
          "name": "valid",
          "type": "bool"
        }
      ],
      "stateMutability": "pure",
      "type": "function"
    },
    {
      "inputs": [],
      "name": "verifySystemIntegrity",
      "outputs": [
        {
          "internalType": "bool",
          "name": "",
          "type": "bool"
        }
      ],
      "stateMutability": "view",
      "type": "function"
    },
    {
      "inputs": [],
      "name": "withdrawFees",
      "outputs": [],
      "stateMutability": "nonpayable",
      "type": "function"
    },
    {
      "inputs": [],
      "name": "withdrawRefund",
      "outputs": [],
      "stateMutability": "nonpayable",
      "type": "function"
    }
  ],
  "bytecode": "0x60a0346101e557601f6120fd38819003918201601f19168301916001600160401b038311848410176101e9578084926020946040528339810103126101e557516001600160a01b038116908181036101e55781156101a0573b1561015157608052604051611eff90816101fe823960805181818161020d015281816102d4015281816104010152818161046d0152818161050a01528181610633015281816106d7015281816107bc0152818161080d015281816108c60152818161095d01528181610a8701528181610b1f01528181610c2301528181610c9b01528181610cfa01528181610d6b01528181610e4d01528181610eab015281816113f901528181611499015281816114f2015281816115800152818161160d01528181611683015281816116f301528181611776015281816117fe015281816118d501528181611a2f01528181611abb0152611b280152f35b60405162461bcd60e51b815260206004820152602160248201527f4368756e6b466163746f727946616365743a204e6f74206120636f6e747261636044820152601d60fa1b6064820152608490fd5b60405162461bcd60e51b815260206004820152601f60248201527f4368756e6b466163746f727946616365743a205a65726f2061646472657373006044820152606490fd5b5f80fd5b634e487b7160e01b5f52604160045260245ffdfe6080806040526004361015610012575f80fd5b5f905f3560e01c90816301ffc9a714611ba6575080630bfde0da14611b0657806310a9352814611a83578063110f887414611a1b5780631d5134651461187c57806324063c82146117ba57806338a699a4146117475780633f4ba83a146116df57806340fca00814611661578063476343ee146115f95780634c36f10d1461155a5780635ea31b98146114d55780636290caec1461145557806363221490146113e4578063699ffc7e14610f1357806379189d6114610e8e5780637ed1cd4714610e265780637f4aedfe14610dd35780638061c71514610d4e5780638456cb5914610ce65780638da5cb5b14610c745780638e7163c214610b90578063939e255c14610af9578063966dae0e146107a6578063a04725c614610a5b578063a087a87e1461091a578063a64139fa14610869578063a901dd92146107eb578063a9c2e36c146107a6578063b697ff8a14610750578063bc2e51df146106b0578063c2c8e21a14610569578063c97237be146104f5578063e74b981b14610450578063ee05163a14610369578063ee9d1ef5146102ad5763fa8c96ef146101b5575f80fd5b60203660031901126102aa576004356001600160401b0381116102a8579060406101e6610208933690600401611c7b565b825163fa8c96ef60e01b81526020600482015294859283926024840191611d6d565b0381347f00000000000000000000000000000000000000000000000000000000000000006001600160a01b03165af191821561029b578192610269575b50604080516001600160a01b039092168252602082019290925290819081015b0390f35b905061028d915060403d604011610294575b6102858183611ca8565b810190611eac565b905f610245565b503d61027b565b50604051903d90823e3d90fd5b505b80fd5b50346102aa57806003193601126102aa576040516339f907dd60e01b8152906020826004817f00000000000000000000000000000000000000000000000000000000000000006001600160a01b03165afa90811561035d578091610320575b6040516001600160a01b0383168152602090f35b90506020823d602011610355575b8161033b60209383611ca8565b810103126102aa575061034f602091611cdd565b5f61030c565b3d915061032e565b604051903d90823e3d90fd5b5060603660031901126102aa576024356001600160401b0381116102a857610395903690600401611c7b565b6044356001600160401b03811161044c57916020916103fc6103bf6103ea96953690600401611c7b565b6040516377028b1d60e11b815260048035908201526060602482015297889586956064870191611d6d565b84810360031901604486015291611d6d565b0381347f00000000000000000000000000000000000000000000000000000000000000006001600160a01b03165af190811561035d578091610320576040516001600160a01b0383168152602090f35b8380fd5b50346102aa5760203660031901126102aa578061046b611c65565b7f00000000000000000000000000000000000000000000000000000000000000006001600160a01b031690813b156104f15760405163e74b981b60e01b81526001600160a01b0390911660048201529082908290602490829084905af180156104e6576104d55750f35b816104df91611ca8565b6102aa5780f35b6040513d84823e3d90fd5b5050fd5b50346102aa5760203660031901126102aa57807f00000000000000000000000000000000000000000000000000000000000000006001600160a01b0316803b15610566578180916024604051809481936364b91bdf60e11b835260043560048401525af180156104e6576104d55750f35b50fd5b5060603660031901126102aa57806004356001600160401b03811161056657610596903690600401611bf9565b91906024356001600160401b0381116106ac576105b7903690600401611bf9565b604494919435906001600160401b0382116106a85761060a9561061c6105e461062e943690600401611bf9565b929093604051998a988998636164710d60e11b8a52606060048b015260648a0191611e88565b87810360031901602489015291611d8d565b84810360031901604486015291611d8d565b0381347f00000000000000000000000000000000000000000000000000000000000000006001600160a01b03165af19081156104e657826102659392610685575b5050604051918291602083526020830190611c29565b6106a192503d8091833e6106998183611ca8565b810190611e60565b5f8061066f565b8480fd5b8280fd5b50346102aa57806003193601126102aa57604051634311dc7560e01b8152906020826004817f00000000000000000000000000000000000000000000000000000000000000006001600160a01b03165afa90811561035d5790610719575b602090604051908152f35b506020813d602011610748575b8161073360209383611ca8565b81010312610744576020905161070e565b5f80fd5b3d9150610726565b50346102aa5760203660031901126102aa57600435906001600160401b0382116102aa5760206107833660048501611c7b565b801515915081610799575b506040519015158152f35b61c000915011158261078e565b50346102aa57806003193601126102aa576040517f00000000000000000000000000000000000000000000000000000000000000006001600160a01b03168152602090f35b50346102aa5760203660031901126102aa5780600435801515809103610566577f00000000000000000000000000000000000000000000000000000000000000006001600160a01b031690813b156104f1578291602483926040519485938492635480eec960e11b845260048401525af180156104e6576104d55750f35b50346102aa5760203660031901126102aa576004356001600160401b0381116102a8579060406108a06108c2933690600401611c7b565b82516353209cfd60e11b81526020600482015294859283926024840191611d6d565b03817f00000000000000000000000000000000000000000000000000000000000000006001600160a01b03165afa91821561029b5781926102695750604080516001600160a01b039290921682526020820192909252f35b50346102aa5760203660031901126102aa57610934611c65565b604051635043d43f60e11b81526001600160a01b039182166004820152908290829060249082907f0000000000000000000000000000000000000000000000000000000000000000165afa80156104e65782906109bd575b604091506020825193849282845280519283918282870152018585015e828201840152601f01601f19168101030190f35b503d8083833e6109cd8183611ca8565b8101906020818303126106ac578051906001600160401b03821161044c57019080601f830112156106ac578151916001600160401b038311610a4757839060405192610a236020601f19601f8801160185611ca8565b848452602085830101116102a8578360409460208093018386015e8301015261098c565b634e487b7160e01b84526041600452602484fd5b50346102aa5760403660031901126102aa5780610a76611c65565b6024359060ff82168092036104f1577f00000000000000000000000000000000000000000000000000000000000000006001600160a01b031691823b15610af45760405163502392e360e11b81526001600160a01b03909216600483015260248201529082908290604490829084905af180156104e6576104d55750f35b505050fd5b50346102aa57806003193601126102aa576040516324e7895760e21b81526020816004817f00000000000000000000000000000000000000000000000000000000000000006001600160a01b03165afa9081156104e65760209291610b6357506040519015158152f35b610b839150823d8411610b89575b610b7b8183611ca8565b810190611e12565b5f61078e565b503d610b71565b50346102aa5760403660031901126102aa57806004356001600160401b03811161056657610bc2903690600401611bf9565b9190602435926001600160401b0384116106ac57610c1f610bea610c0d953690600401611bf9565b6040519687958695634738b1e160e11b8752604060048801526044870191611e88565b84810360031901602486015291611e88565b03817f00000000000000000000000000000000000000000000000000000000000000006001600160a01b03165afa9081156104e657826102659392610685575050604051918291602083526020830190611c29565b50346102aa57806003193601126102aa57604051638da5cb5b60e01b8152906020826004817f00000000000000000000000000000000000000000000000000000000000000006001600160a01b03165afa90811561035d578091610320576040516001600160a01b0383168152602090f35b50346102aa57806003193601126102aa57807f00000000000000000000000000000000000000000000000000000000000000006001600160a01b0316803b1561056657818091600460405180948193638456cb5960e01b83525af180156104e6576104d55750f35b50346102aa5760203660031901126102aa5780610d69611c65565b7f00000000000000000000000000000000000000000000000000000000000000006001600160a01b031690813b156104f157604051638061c71560e01b81526001600160a01b0390911660048201529082908290602490829084905af180156104e6576104d55750f35b5060203660031901126102aa57600435816001600160401b0382116102aa57610e0361062e923690600401611bf9565b604051633fa576ff60e11b81526020600482015293849283926024840191611d8d565b50346102aa57806003193601126102aa57604051632bb2372160e21b8152906020826004817f00000000000000000000000000000000000000000000000000000000000000006001600160a01b03165afa90811561035d579061071957602090604051908152f35b50346102aa5760203660031901126102aa5780610ea9611c65565b7f00000000000000000000000000000000000000000000000000000000000000006001600160a01b031690813b156104f1576040516379189d6160e01b81526001600160a01b0390911660048201529082908290602490829084905af180156104e6576104d55750f35b50346102aa57806003193601126102aa57610460604051610f348282611ca8565b602281526020810191601f19013683378051156113d05763fa8c96ef60e01b82528051600110156113d057633fa576ff60e11b60408201526003631d51346560e01b610f81600284611e38565b52610f8b81611e2a565b906377028b1d60e11b90610f9f9084611e38565b52610fa981611e2a565b90636164710d60e11b90610fbd9084611e38565b52610fc781611e2a565b906353209cfd60e11b90610fdb9084611e38565b52610fe581611e2a565b9063021526a560e31b90610ff99084611e38565b5261100381611e2a565b90634738b1e160e11b906110179084611e38565b5261102181611e2a565b90635043d43f60e11b906110359084611e38565b5261103f81611e2a565b90630e29a66960e21b906110539084611e38565b5261105d81611e2a565b906318a432bb60e21b906110719084611e38565b5261107b81611e2a565b90635b4bffc560e11b9061108f9084611e38565b5261109981611e2a565b906324e7895760e21b906110ad9084611e38565b526110b781611e2a565b90634c36f10d60e01b906110cb9084611e38565b526110d581611e2a565b906312031e4160e11b906110e99084611e38565b526110f381611e2a565b90638da5cb5b60e01b906111079084611e38565b5261111181611e2a565b906323b1a1f760e11b906111259084611e38565b5261112f81611e2a565b90630443e21d60e21b906111439084611e38565b5261114d81611e2a565b90638456cb5960e01b906111619084611e38565b5261116b81611e2a565b90631fa5d41d60e11b9061117f9084611e38565b5261118981611e2a565b906305fef06d60e11b9061119d9084611e38565b526111a781611e2a565b9063502392e360e11b906111bb9084611e38565b526111c581611e2a565b9063081f940160e31b906111d99084611e38565b526111e381611e2a565b9063e74b981b60e01b906111f79084611e38565b5261120181611e2a565b906364b91bdf60e11b906112159084611e38565b5261121f81611e2a565b90635480eec960e11b906112339084611e38565b5261123d81611e2a565b90630632214960e41b906112519084611e38565b5261125b81611e2a565b90630bd4637360e31b9061126f9084611e38565b5261127981611e2a565b906379189d6160e01b9061128d9084611e38565b5261129781611e2a565b90638061c71560e01b906112ab9084611e38565b526112b581611e2a565b9063bc2e51df60e01b906112c99084611e38565b526112d381611e2a565b90637ed1cd4760e01b906112e79084611e38565b526112f181611e2a565b9063ee9d1ef560e01b906113059084611e38565b5261130f81611e2a565b90632a70b8db60e21b906113239084611e38565b528151036113775790604051928392602084019060208552518091526040840192915b818110611354575050500390f35b82516001600160e01b031916845285945060209384019390920191600101611346565b60405162461bcd60e51b815260206004820152601760248201527f73656c6563746f7220636f756e74206d69736d617463680000000000000000006044820152606490fd5b634e487b7160e01b5f52601160045260245ffd5b634e487b7160e01b83526032600452602483fd5b50346102aa5760203660031901126102aa57807f00000000000000000000000000000000000000000000000000000000000000006001600160a01b0316803b1561056657818091602460405180948193630632214960e41b835260043560048401525af180156104e6576104d55750f35b50346102aa5760203660031901126102aa5761146f611c65565b6040516318a432bb60e21b81526001600160a01b03918216600482015290602090829060249082907f0000000000000000000000000000000000000000000000000000000000000000165afa9081156104e65760209291610b6357506040519015158152f35b50346102aa5760203660031901126102aa57806114f0611c65565b7f00000000000000000000000000000000000000000000000000000000000000006001600160a01b031690813b156104f157604051630bd4637360e31b81526001600160a01b0390911660048201529082908290602490829084905af180156104e6576104d55750f35b50346102aa57806003193601126102aa57604051634c36f10d60e01b81526020816004817f00000000000000000000000000000000000000000000000000000000000000006001600160a01b03165afa9081156104e65782916115c3575b602082604051908152f35b90506020813d6020116115f1575b816115de60209383611ca8565b810103126102a85760209150515f6115b8565b3d91506115d1565b50346102aa57806003193601126102aa57807f00000000000000000000000000000000000000000000000000000000000000006001600160a01b0316803b15610566578180916004604051809481936323b1a1f760e11b83525af180156104e6576104d55750f35b50346102aa5760203660031901126102aa5780600435801515809103610566577f00000000000000000000000000000000000000000000000000000000000000006001600160a01b031690813b156104f157829160248392604051948593849263081f940160e31b845260048401525af180156104e6576104d55750f35b50346102aa57806003193601126102aa57807f00000000000000000000000000000000000000000000000000000000000000006001600160a01b0316803b1561056657818091600460405180948193631fa5d41d60e11b83525af180156104e6576104d55750f35b50346102aa5760203660031901126102aa57604051630e29a66960e21b815260048035908201526020816024817f00000000000000000000000000000000000000000000000000000000000000006001600160a01b03165afa9081156104e65760209291610b6357506040519015158152f35b50346102aa5760203660031901126102aa576117d4611c65565b6040516312031e4160e11b81526001600160a01b03918216600482015290602090829060249082907f0000000000000000000000000000000000000000000000000000000000000000165afa9081156104e657829161183c575b60208260ff60405191168152f35b90506020813d602011611874575b8161185760209383611ca8565b810103126102a8575160ff811681036102a857602091505f61182e565b3d915061184a565b5060203660031901126102aa576004356001600160401b0381116102a85790806118ad6118d0933690600401611bf9565b604051631d51346560e01b81526020600482015294859283926024840191611d8d565b0381347f00000000000000000000000000000000000000000000000000000000000000006001600160a01b03165af190811561035d5780928192611967575b509061192a9291604051938493604085526040850190611c29565b8381036020850152602080845192838152019301915b81811061194e575050500390f35b8251845285945060209384019390920191600101611940565b925090503d8082843e61197a8184611ca8565b8201916040818403126102a85780516001600160401b0381116106ac57836119a3918301611d08565b906020810151906001600160401b03821161044c57019280601f850112156106ac5783516119d081611cf1565b946119de6040519687611ca8565b81865260208087019260051b8201019283116106a857602001905b828210611a0b5750505091905f61190f565b81518152602091820191016119f9565b50346102aa57806003193601126102aa57807f00000000000000000000000000000000000000000000000000000000000000006001600160a01b0316803b1561056657818091600460405180948193630443e21d60e21b83525af180156104e6576104d55750f35b50346102aa5760403660031901126102aa5760405163021526a560e31b815260048035908201526024803590820152906020826044817f00000000000000000000000000000000000000000000000000000000000000006001600160a01b03165afa90811561035d578091610320576040516001600160a01b0383168152602090f35b50346107445760403660031901126107445760043560ff8116809103610744577f00000000000000000000000000000000000000000000000000000000000000006001600160a01b031690813b15610744575f916044839260405194859384926305fef06d60e11b8452600484015260243560248401525af18015611b9b57611b8d575080f35b611b9991505f90611ca8565b005b6040513d5f823e3d90fd5b34610744576020366003190112610744576004359063ffffffff60e01b82168092036107445760209163798c8ceb60e11b8114908115611be8575b5015158152f35b6301ffc9a760e01b14905083611be1565b9181601f84011215610744578235916001600160401b038311610744576020808501948460051b01011161074457565b90602080835192838152019201905f5b818110611c465750505090565b82516001600160a01b0316845260209384019390920191600101611c39565b600435906001600160a01b038216820361074457565b9181601f84011215610744578235916001600160401b038311610744576020838186019501011161074457565b90601f801991011681019081106001600160401b03821117611cc957604052565b634e487b7160e01b5f52604160045260245ffd5b51906001600160a01b038216820361074457565b6001600160401b038111611cc95760051b60200190565b9080601f83011215610744578151611d1f81611cf1565b92611d2d6040519485611ca8565b81845260208085019260051b82010192831161074457602001905b828210611d555750505090565b60208091611d6284611cdd565b815201910190611d48565b908060209392818452848401375f828201840152601f01601f1916010190565b90602083828152019060208160051b85010193835f915b838310611db45750505050505090565b909192939495601f198282030186528635601e198436030181121561074457830190602082359201916001600160401b03811161074457803603831361074457611e046020928392600195611d6d565b980196019493019190611da4565b90816020910312610744575180151581036107445790565b5f1981146113bc5760010190565b8051821015611e4c5760209160051b010190565b634e487b7160e01b5f52603260045260245ffd5b906020828203126107445781516001600160401b03811161074457611e859201611d08565b90565b81835290916001600160fb1b0383116107445760209260051b809284830137010190565b9190826040910312610744576020611ec383611cdd565b9201519056fea2646970667358221220a5c1db8e9ab57f6321fad9e7b9556203f1150683e391a6e061f4c5e2f1b9534264736f6c634300081e0033",
  "linkReferences": {},
  "deployedLinkReferences": {}
}