{
  "_format": "hh-sol-artifact-1",
  "contractName": "ChunkFactoryFacet",
  "sourceName": "contracts/facets/ChunkFactoryFacet.sol",
  "abi": [
    {
      "inputs": [
        {
          "internalType": "address",
          "name": "_factoryAddress",
          "type": "address"
        }
      ],
      "stateMutability": "nonpayable",
      "type": "constructor"
    },
    {
      "anonymous": false,
      "inputs": [
        {
          "indexed": true,
          "internalType": "address",
          "name": "recipient",
          "type": "address"
        }
      ],
      "name": "AuthorizedRecipientAdded",
      "type": "event"
    },
    {
      "anonymous": false,
      "inputs": [
        {
          "indexed": true,
          "internalType": "address",
          "name": "recipient",
          "type": "address"
        }
      ],
      "name": "AuthorizedRecipientRemoved",
      "type": "event"
    },
    {
      "anonymous": false,
      "inputs": [
        {
          "indexed": false,
          "internalType": "uint256",
          "name": "newBaseFee",
          "type": "uint256"
        }
      ],
      "name": "BaseFeeSet",
      "type": "event"
    },
    {
      "anonymous": false,
      "inputs": [
        {
          "indexed": false,
          "internalType": "address[]",
          "name": "deployed",
          "type": "address[]"
        },
        {
          "indexed": false,
          "internalType": "bytes32[]",
          "name": "salts",
          "type": "bytes32[]"
        },
        {
          "indexed": true,
          "internalType": "address",
          "name": "deployer",
          "type": "address"
        },
        {
          "indexed": false,
          "internalType": "uint256",
          "name": "totalFee",
          "type": "uint256"
        }
      ],
      "name": "BatchDeployed",
      "type": "event"
    },
    {
      "anonymous": false,
      "inputs": [
        {
          "indexed": false,
          "internalType": "uint256",
          "name": "chunkCount",
          "type": "uint256"
        },
        {
          "indexed": false,
          "internalType": "uint256",
          "name": "gasUsed",
          "type": "uint256"
        },
        {
          "indexed": false,
          "internalType": "bytes32",
          "name": "packedMetadata",
          "type": "bytes32"
        },
        {
          "indexed": false,
          "internalType": "uint256",
          "name": "timestamp",
          "type": "uint256"
        }
      ],
      "name": "BatchStaged",
      "type": "event"
    },
    {
      "anonymous": false,
      "inputs": [
        {
          "indexed": true,
          "internalType": "address",
          "name": "chunk",
          "type": "address"
        },
        {
          "indexed": true,
          "internalType": "bytes32",
          "name": "hash",
          "type": "bytes32"
        },
        {
          "indexed": false,
          "internalType": "bytes32",
          "name": "salt",
          "type": "bytes32"
        },
        {
          "indexed": false,
          "internalType": "uint256",
          "name": "size",
          "type": "uint256"
        }
      ],
      "name": "ChunkStaged",
      "type": "event"
    },
    {
      "anonymous": false,
      "inputs": [
        {
          "indexed": true,
          "internalType": "address",
          "name": "deployed",
          "type": "address"
        },
        {
          "indexed": true,
          "internalType": "bytes32",
          "name": "salt",
          "type": "bytes32"
        },
        {
          "indexed": true,
          "internalType": "address",
          "name": "deployer",
          "type": "address"
        },
        {
          "indexed": false,
          "internalType": "uint256",
          "name": "fee",
          "type": "uint256"
        }
      ],
      "name": "ContractDeployed",
      "type": "event"
    },
    {
      "anonymous": false,
      "inputs": [
        {
          "indexed": true,
          "internalType": "address",
          "name": "previousAdmin",
          "type": "address"
        },
        {
          "indexed": true,
          "internalType": "address",
          "name": "newAdmin",
          "type": "address"
        }
      ],
      "name": "DefaultAdminTransferred",
      "type": "event"
    },
    {
      "anonymous": false,
      "inputs": [
        {
          "indexed": true,
          "internalType": "address",
          "name": "recipient",
          "type": "address"
        },
        {
          "indexed": false,
          "internalType": "uint256",
          "name": "amount",
          "type": "uint256"
        }
      ],
      "name": "EmergencyWithdrawal",
      "type": "event"
    },
    {
      "anonymous": false,
      "inputs": [
        {
          "indexed": true,
          "internalType": "address",
          "name": "collector",
          "type": "address"
        },
        {
          "indexed": false,
          "internalType": "uint256",
          "name": "amount",
          "type": "uint256"
        }
      ],
      "name": "FeeCollectionFailed",
      "type": "event"
    },
    {
      "anonymous": false,
      "inputs": [
        {
          "indexed": true,
          "internalType": "address",
          "name": "newRecipient",
          "type": "address"
        }
      ],
      "name": "FeeRecipientSet",
      "type": "event"
    },
    {
      "anonymous": false,
      "inputs": [
        {
          "indexed": false,
          "internalType": "bool",
          "name": "enabled",
          "type": "bool"
        }
      ],
      "name": "FeesEnabledSet",
      "type": "event"
    },
    {
      "anonymous": false,
      "inputs": [
        {
          "indexed": true,
          "internalType": "address",
          "name": "recipient",
          "type": "address"
        },
        {
          "indexed": false,
          "internalType": "uint256",
          "name": "amount",
          "type": "uint256"
        }
      ],
      "name": "FeesWithdrawn",
      "type": "event"
    },
    {
      "anonymous": false,
      "inputs": [
        {
          "indexed": false,
          "internalType": "bool",
          "name": "enabled",
          "type": "bool"
        }
      ],
      "name": "IdempotentModeSet",
      "type": "event"
    },
    {
      "anonymous": false,
      "inputs": [
        {
          "indexed": true,
          "internalType": "uint8",
          "name": "tier",
          "type": "uint8"
        },
        {
          "indexed": false,
          "internalType": "uint256",
          "name": "fee",
          "type": "uint256"
        }
      ],
      "name": "TierFeeSet",
      "type": "event"
    },
    {
      "anonymous": false,
      "inputs": [
        {
          "indexed": true,
          "internalType": "address",
          "name": "user",
          "type": "address"
        },
        {
          "indexed": false,
          "internalType": "uint8",
          "name": "tier",
          "type": "uint8"
        }
      ],
      "name": "UserTierSet",
      "type": "event"
    },
    {
      "inputs": [
        {
          "internalType": "address",
          "name": "recipient",
          "type": "address"
        }
      ],
      "name": "addAuthorizedRecipient",
      "outputs": [],
      "stateMutability": "nonpayable",
      "type": "function"
    },
    {
      "inputs": [
        {
          "internalType": "bytes32",
          "name": "salt",
          "type": "bytes32"
        },
        {
          "internalType": "bytes",
          "name": "bytecode",
          "type": "bytes"
        },
        {
          "internalType": "bytes",
          "name": "constructorArgs",
          "type": "bytes"
        }
      ],
      "name": "deployDeterministic",
      "outputs": [
        {
          "internalType": "address",
          "name": "deployed",
          "type": "address"
        }
      ],
      "stateMutability": "payable",
      "type": "function"
    },
    {
      "inputs": [
        {
          "internalType": "bytes32[]",
          "name": "salts",
          "type": "bytes32[]"
        },
        {
          "internalType": "bytes[]",
          "name": "bytecodes",
          "type": "bytes[]"
        },
        {
          "internalType": "bytes[]",
          "name": "constructorArgs",
          "type": "bytes[]"
        }
      ],
      "name": "deployDeterministicBatch",
      "outputs": [
        {
          "internalType": "address[]",
          "name": "deployed",
          "type": "address[]"
        }
      ],
      "stateMutability": "payable",
      "type": "function"
    },
    {
      "inputs": [],
      "name": "deploymentCount",
      "outputs": [
        {
          "internalType": "uint256",
          "name": "",
          "type": "uint256"
        }
      ],
      "stateMutability": "view",
      "type": "function"
    },
    {
      "inputs": [
        {
          "internalType": "bytes32",
          "name": "hash",
          "type": "bytes32"
        }
      ],
      "name": "exists",
      "outputs": [
        {
          "internalType": "bool",
          "name": "",
          "type": "bool"
        }
      ],
      "stateMutability": "view",
      "type": "function"
    },
    {
      "inputs": [],
      "name": "factoryAddress",
      "outputs": [
        {
          "internalType": "address payable",
          "name": "",
          "type": "address"
        }
      ],
      "stateMutability": "view",
      "type": "function"
    },
    {
      "inputs": [],
      "name": "getExpectedFactoryBytecodeHash",
      "outputs": [
        {
          "internalType": "bytes32",
          "name": "",
          "type": "bytes32"
        }
      ],
      "stateMutability": "view",
      "type": "function"
    },
    {
      "inputs": [],
      "name": "getExpectedManifestHash",
      "outputs": [
        {
          "internalType": "bytes32",
          "name": "",
          "type": "bytes32"
        }
      ],
      "stateMutability": "view",
      "type": "function"
    },
    {
      "inputs": [],
      "name": "getFactoryAddress",
      "outputs": [
        {
          "internalType": "address",
          "name": "",
          "type": "address"
        }
      ],
      "stateMutability": "view",
      "type": "function"
    },
    {
      "inputs": [],
      "name": "getManifestDispatcher",
      "outputs": [
        {
          "internalType": "address",
          "name": "",
          "type": "address"
        }
      ],
      "stateMutability": "view",
      "type": "function"
    },
    {
      "inputs": [
        {
          "internalType": "address",
          "name": "target",
          "type": "address"
        }
      ],
      "name": "isDeployedContract",
      "outputs": [
        {
          "internalType": "bool",
          "name": "",
          "type": "bool"
        }
      ],
      "stateMutability": "view",
      "type": "function"
    },
    {
      "inputs": [],
      "name": "owner",
      "outputs": [
        {
          "internalType": "address",
          "name": "",
          "type": "address"
        }
      ],
      "stateMutability": "view",
      "type": "function"
    },
    {
      "inputs": [],
      "name": "pause",
      "outputs": [],
      "stateMutability": "nonpayable",
      "type": "function"
    },
    {
      "inputs": [
        {
          "internalType": "bytes",
          "name": "data",
          "type": "bytes"
        }
      ],
      "name": "predict",
      "outputs": [
        {
          "internalType": "address",
          "name": "predicted",
          "type": "address"
        },
        {
          "internalType": "bytes32",
          "name": "hash",
          "type": "bytes32"
        }
      ],
      "stateMutability": "view",
      "type": "function"
    },
    {
      "inputs": [
        {
          "internalType": "bytes32",
          "name": "salt",
          "type": "bytes32"
        },
        {
          "internalType": "bytes32",
          "name": "codeHash",
          "type": "bytes32"
        }
      ],
      "name": "predictAddress",
      "outputs": [
        {
          "internalType": "address",
          "name": "predicted",
          "type": "address"
        }
      ],
      "stateMutability": "view",
      "type": "function"
    },
    {
      "inputs": [
        {
          "internalType": "bytes32[]",
          "name": "salts",
          "type": "bytes32[]"
        },
        {
          "internalType": "bytes32[]",
          "name": "codeHashes",
          "type": "bytes32[]"
        }
      ],
      "name": "predictAddressBatch",
      "outputs": [
        {
          "internalType": "address[]",
          "name": "predicted",
          "type": "address[]"
        }
      ],
      "stateMutability": "view",
      "type": "function"
    },
    {
      "inputs": [
        {
          "internalType": "address",
          "name": "chunk",
          "type": "address"
        }
      ],
      "name": "read",
      "outputs": [
        {
          "internalType": "bytes",
          "name": "",
          "type": "bytes"
        }
      ],
      "stateMutability": "view",
      "type": "function"
    },
    {
      "inputs": [
        {
          "internalType": "address",
          "name": "recipient",
          "type": "address"
        }
      ],
      "name": "removeAuthorizedRecipient",
      "outputs": [],
      "stateMutability": "nonpayable",
      "type": "function"
    },
    {
      "inputs": [
        {
          "internalType": "uint256",
          "name": "newBase",
          "type": "uint256"
        }
      ],
      "name": "setBaseFeeWei",
      "outputs": [],
      "stateMutability": "nonpayable",
      "type": "function"
    },
    {
      "inputs": [
        {
          "internalType": "address",
          "name": "newRecipient",
          "type": "address"
        }
      ],
      "name": "setFeeRecipient",
      "outputs": [],
      "stateMutability": "nonpayable",
      "type": "function"
    },
    {
      "inputs": [
        {
          "internalType": "bool",
          "name": "enabled",
          "type": "bool"
        }
      ],
      "name": "setFeesEnabled",
      "outputs": [],
      "stateMutability": "nonpayable",
      "type": "function"
    },
    {
      "inputs": [
        {
          "internalType": "bool",
          "name": "enabled",
          "type": "bool"
        }
      ],
      "name": "setIdempotentMode",
      "outputs": [],
      "stateMutability": "nonpayable",
      "type": "function"
    },
    {
      "inputs": [
        {
          "internalType": "uint256",
          "name": "newMax",
          "type": "uint256"
        }
      ],
      "name": "setMaxSingleTransfer",
      "outputs": [],
      "stateMutability": "nonpayable",
      "type": "function"
    },
    {
      "inputs": [
        {
          "internalType": "uint8",
          "name": "tier",
          "type": "uint8"
        },
        {
          "internalType": "uint256",
          "name": "fee",
          "type": "uint256"
        }
      ],
      "name": "setTierFee",
      "outputs": [],
      "stateMutability": "nonpayable",
      "type": "function"
    },
    {
      "inputs": [
        {
          "internalType": "address",
          "name": "user",
          "type": "address"
        },
        {
          "internalType": "uint8",
          "name": "tier",
          "type": "uint8"
        }
      ],
      "name": "setUserTier",
      "outputs": [],
      "stateMutability": "nonpayable",
      "type": "function"
    },
    {
      "inputs": [
        {
          "internalType": "bytes",
          "name": "data",
          "type": "bytes"
        }
      ],
      "name": "stage",
      "outputs": [
        {
          "internalType": "address",
          "name": "chunk",
          "type": "address"
        },
        {
          "internalType": "bytes32",
          "name": "hash",
          "type": "bytes32"
        }
      ],
      "stateMutability": "payable",
      "type": "function"
    },
    {
      "inputs": [
        {
          "internalType": "bytes[]",
          "name": "blobs",
          "type": "bytes[]"
        }
      ],
      "name": "stageBatch",
      "outputs": [
        {
          "internalType": "address[]",
          "name": "chunks",
          "type": "address[]"
        },
        {
          "internalType": "bytes32[]",
          "name": "hashes",
          "type": "bytes32[]"
        }
      ],
      "stateMutability": "payable",
      "type": "function"
    },
    {
      "inputs": [
        {
          "internalType": "bytes[]",
          "name": "dataArray",
          "type": "bytes[]"
        }
      ],
      "name": "stageMany",
      "outputs": [
        {
          "internalType": "address[]",
          "name": "chunks",
          "type": "address[]"
        }
      ],
      "stateMutability": "payable",
      "type": "function"
    },
    {
      "inputs": [
        {
          "internalType": "bytes4",
          "name": "interfaceId",
          "type": "bytes4"
        }
      ],
      "name": "supportsInterface",
      "outputs": [
        {
          "internalType": "bool",
          "name": "",
          "type": "bool"
        }
      ],
      "stateMutability": "pure",
      "type": "function"
    },
    {
      "inputs": [
        {
          "internalType": "address",
          "name": "newAdmin",
          "type": "address"
        }
      ],
      "name": "transferDefaultAdmin",
      "outputs": [],
      "stateMutability": "nonpayable",
      "type": "function"
    },
    {
      "inputs": [],
      "name": "unpause",
      "outputs": [],
      "stateMutability": "nonpayable",
      "type": "function"
    },
    {
      "inputs": [
        {
          "internalType": "address",
          "name": "user",
          "type": "address"
        }
      ],
      "name": "userTiers",
      "outputs": [
        {
          "internalType": "uint8",
          "name": "",
          "type": "uint8"
        }
      ],
      "stateMutability": "view",
      "type": "function"
    },
    {
      "inputs": [
        {
          "internalType": "bytes",
          "name": "bytecode",
          "type": "bytes"
        }
      ],
      "name": "validateBytecodeSize",
      "outputs": [
        {
          "internalType": "bool",
          "name": "valid",
          "type": "bool"
        }
      ],
      "stateMutability": "pure",
      "type": "function"
    },
    {
      "inputs": [],
      "name": "verifySystemIntegrity",
      "outputs": [
        {
          "internalType": "bool",
          "name": "",
          "type": "bool"
        }
      ],
      "stateMutability": "view",
      "type": "function"
    },
    {
      "inputs": [],
      "name": "withdrawFees",
      "outputs": [],
      "stateMutability": "nonpayable",
      "type": "function"
    },
    {
      "inputs": [],
      "name": "withdrawRefund",
      "outputs": [],
      "stateMutability": "nonpayable",
      "type": "function"
    }
  ],
  "bytecode": "0x60a0346101e557601f611beb38819003918201601f19168301916001600160401b038311848410176101e9578084926020946040528339810103126101e557516001600160a01b038116908181036101e55781156101a0573b15610151576080526040516119ed90816101fe8239608051818181610202015281816102c9015281816103f601528181610462015281816104ff01528181610628015281816106cc015281816107b101528181610802015281816108bb0152818161095201528181610a7c01528181610b1401528181610c1801528181610c9001528181610cef01528181610d6001528181610e4201528181610ea001528181610f1d01528181610fbd01528181611016015281816110a401528181611131015281816111a7015281816112170152818161129a01528181611322015281816113f901528181611553015281816115df015261164c0152f35b60405162461bcd60e51b815260206004820152602160248201527f4368756e6b466163746f727946616365743a204e6f74206120636f6e747261636044820152601d60fa1b6064820152608490fd5b60405162461bcd60e51b815260206004820152601f60248201527f4368756e6b466163746f727946616365743a205a65726f2061646472657373006044820152606490fd5b5f80fd5b634e487b7160e01b5f52604160045260245ffdfe6080806040526004361015610012575f80fd5b5f905f3560e01c90816301ffc9a7146116ca575080630bfde0da1461162a57806310a93528146115a7578063110f88741461153f5780631d513465146113a057806324063c82146112de57806338a699a41461126b5780633f4ba83a1461120357806340fca00814611185578063476343ee1461111d5780634c36f10d1461107e5780635ea31b9814610ff95780636290caec14610f795780636322149014610f0857806379189d6114610e835780637ed1cd4714610e1b5780637f4aedfe14610dc85780638061c71514610d435780638456cb5914610cdb5780638da5cb5b14610c695780638e7163c214610b85578063939e255c14610aee578063966dae0e1461079b578063a04725c614610a50578063a087a87e1461090f578063a64139fa1461085e578063a901dd92146107e0578063a9c2e36c1461079b578063b697ff8a14610745578063bc2e51df146106a5578063c2c8e21a1461055e578063c97237be146104ea578063e74b981b14610445578063ee05163a1461035e578063ee9d1ef5146102a25763fa8c96ef146101aa575f80fd5b602036600319011261029f576004356001600160401b03811161029d579060406101db6101fd93369060040161179f565b825163fa8c96ef60e01b81526020600482015294859283926024840191611891565b0381347f00000000000000000000000000000000000000000000000000000000000000006001600160a01b03165af191821561029057819261025e575b50604080516001600160a01b039092168252602082019290925290819081015b0390f35b9050610282915060403d604011610289575b61027a81836117cc565b81019061199a565b905f61023a565b503d610270565b50604051903d90823e3d90fd5b505b80fd5b503461029f578060031936011261029f576040516339f907dd60e01b8152906020826004817f00000000000000000000000000000000000000000000000000000000000000006001600160a01b03165afa908115610352578091610315575b6040516001600160a01b0383168152602090f35b90506020823d60201161034a575b81610330602093836117cc565b8101031261029f5750610344602091611801565b5f610301565b3d9150610323565b604051903d90823e3d90fd5b50606036600319011261029f576024356001600160401b03811161029d5761038a90369060040161179f565b6044356001600160401b03811161044157916020916103f16103b46103df9695369060040161179f565b6040516377028b1d60e11b815260048035908201526060602482015297889586956064870191611891565b84810360031901604486015291611891565b0381347f00000000000000000000000000000000000000000000000000000000000000006001600160a01b03165af1908115610352578091610315576040516001600160a01b0383168152602090f35b8380fd5b503461029f57602036600319011261029f5780610460611789565b7f00000000000000000000000000000000000000000000000000000000000000006001600160a01b031690813b156104e65760405163e74b981b60e01b81526001600160a01b0390911660048201529082908290602490829084905af180156104db576104ca5750f35b816104d4916117cc565b61029f5780f35b6040513d84823e3d90fd5b5050fd5b503461029f57602036600319011261029f57807f00000000000000000000000000000000000000000000000000000000000000006001600160a01b0316803b1561055b578180916024604051809481936364b91bdf60e11b835260043560048401525af180156104db576104ca5750f35b50fd5b50606036600319011261029f57806004356001600160401b03811161055b5761058b90369060040161171d565b91906024356001600160401b0381116106a1576105ac90369060040161171d565b604494919435906001600160401b03821161069d576105ff956106116105d961062394369060040161171d565b929093604051998a988998636164710d60e11b8a52606060048b015260648a0191611976565b878103600319016024890152916118b1565b848103600319016044860152916118b1565b0381347f00000000000000000000000000000000000000000000000000000000000000006001600160a01b03165af19081156104db578261025a939261067a575b505060405191829160208352602083019061174d565b61069692503d8091833e61068e81836117cc565b81019061194e565b5f80610664565b8480fd5b8280fd5b503461029f578060031936011261029f57604051634311dc7560e01b8152906020826004817f00000000000000000000000000000000000000000000000000000000000000006001600160a01b03165afa908115610352579061070e575b602090604051908152f35b506020813d60201161073d575b81610728602093836117cc565b810103126107395760209051610703565b5f80fd5b3d915061071b565b503461029f57602036600319011261029f57600435906001600160401b03821161029f576020610778366004850161179f565b80151591508161078e575b506040519015158152f35b61c0009150111582610783565b503461029f578060031936011261029f576040517f00000000000000000000000000000000000000000000000000000000000000006001600160a01b03168152602090f35b503461029f57602036600319011261029f578060043580151580910361055b577f00000000000000000000000000000000000000000000000000000000000000006001600160a01b031690813b156104e6578291602483926040519485938492635480eec960e11b845260048401525af180156104db576104ca5750f35b503461029f57602036600319011261029f576004356001600160401b03811161029d579060406108956108b793369060040161179f565b82516353209cfd60e11b81526020600482015294859283926024840191611891565b03817f00000000000000000000000000000000000000000000000000000000000000006001600160a01b03165afa91821561029057819261025e5750604080516001600160a01b039290921682526020820192909252f35b503461029f57602036600319011261029f57610929611789565b604051635043d43f60e11b81526001600160a01b039182166004820152908290829060249082907f0000000000000000000000000000000000000000000000000000000000000000165afa80156104db5782906109b2575b604091506020825193849282845280519283918282870152018585015e828201840152601f01601f19168101030190f35b503d8083833e6109c281836117cc565b8101906020818303126106a1578051906001600160401b03821161044157019080601f830112156106a1578151916001600160401b038311610a3c57839060405192610a186020601f19601f88011601856117cc565b8484526020858301011161029d578360409460208093018386015e83010152610981565b634e487b7160e01b84526041600452602484fd5b503461029f57604036600319011261029f5780610a6b611789565b6024359060ff82168092036104e6577f00000000000000000000000000000000000000000000000000000000000000006001600160a01b031691823b15610ae95760405163502392e360e11b81526001600160a01b03909216600483015260248201529082908290604490829084905af180156104db576104ca5750f35b505050fd5b503461029f578060031936011261029f576040516324e7895760e21b81526020816004817f00000000000000000000000000000000000000000000000000000000000000006001600160a01b03165afa9081156104db5760209291610b5857506040519015158152f35b610b789150823d8411610b7e575b610b7081836117cc565b810190611936565b5f610783565b503d610b66565b503461029f57604036600319011261029f57806004356001600160401b03811161055b57610bb790369060040161171d565b9190602435926001600160401b0384116106a157610c14610bdf610c0295369060040161171d565b6040519687958695634738b1e160e11b8752604060048801526044870191611976565b84810360031901602486015291611976565b03817f00000000000000000000000000000000000000000000000000000000000000006001600160a01b03165afa9081156104db578261025a939261067a57505060405191829160208352602083019061174d565b503461029f578060031936011261029f57604051638da5cb5b60e01b8152906020826004817f00000000000000000000000000000000000000000000000000000000000000006001600160a01b03165afa908115610352578091610315576040516001600160a01b0383168152602090f35b503461029f578060031936011261029f57807f00000000000000000000000000000000000000000000000000000000000000006001600160a01b0316803b1561055b57818091600460405180948193638456cb5960e01b83525af180156104db576104ca5750f35b503461029f57602036600319011261029f5780610d5e611789565b7f00000000000000000000000000000000000000000000000000000000000000006001600160a01b031690813b156104e657604051638061c71560e01b81526001600160a01b0390911660048201529082908290602490829084905af180156104db576104ca5750f35b50602036600319011261029f57600435816001600160401b03821161029f57610df861062392369060040161171d565b604051633fa576ff60e11b815260206004820152938492839260248401916118b1565b503461029f578060031936011261029f57604051632bb2372160e21b8152906020826004817f00000000000000000000000000000000000000000000000000000000000000006001600160a01b03165afa908115610352579061070e57602090604051908152f35b503461029f57602036600319011261029f5780610e9e611789565b7f00000000000000000000000000000000000000000000000000000000000000006001600160a01b031690813b156104e6576040516379189d6160e01b81526001600160a01b0390911660048201529082908290602490829084905af180156104db576104ca5750f35b503461029f57602036600319011261029f57807f00000000000000000000000000000000000000000000000000000000000000006001600160a01b0316803b1561055b57818091602460405180948193630632214960e41b835260043560048401525af180156104db576104ca5750f35b503461029f57602036600319011261029f57610f93611789565b6040516318a432bb60e21b81526001600160a01b03918216600482015290602090829060249082907f0000000000000000000000000000000000000000000000000000000000000000165afa9081156104db5760209291610b5857506040519015158152f35b503461029f57602036600319011261029f5780611014611789565b7f00000000000000000000000000000000000000000000000000000000000000006001600160a01b031690813b156104e657604051630bd4637360e31b81526001600160a01b0390911660048201529082908290602490829084905af180156104db576104ca5750f35b503461029f578060031936011261029f57604051634c36f10d60e01b81526020816004817f00000000000000000000000000000000000000000000000000000000000000006001600160a01b03165afa9081156104db5782916110e7575b602082604051908152f35b90506020813d602011611115575b81611102602093836117cc565b8101031261029d5760209150515f6110dc565b3d91506110f5565b503461029f578060031936011261029f57807f00000000000000000000000000000000000000000000000000000000000000006001600160a01b0316803b1561055b578180916004604051809481936323b1a1f760e11b83525af180156104db576104ca5750f35b503461029f57602036600319011261029f578060043580151580910361055b577f00000000000000000000000000000000000000000000000000000000000000006001600160a01b031690813b156104e657829160248392604051948593849263081f940160e31b845260048401525af180156104db576104ca5750f35b503461029f578060031936011261029f57807f00000000000000000000000000000000000000000000000000000000000000006001600160a01b0316803b1561055b57818091600460405180948193631fa5d41d60e11b83525af180156104db576104ca5750f35b503461029f57602036600319011261029f57604051630e29a66960e21b815260048035908201526020816024817f00000000000000000000000000000000000000000000000000000000000000006001600160a01b03165afa9081156104db5760209291610b5857506040519015158152f35b503461029f57602036600319011261029f576112f8611789565b6040516312031e4160e11b81526001600160a01b03918216600482015290602090829060249082907f0000000000000000000000000000000000000000000000000000000000000000165afa9081156104db578291611360575b60208260ff60405191168152f35b90506020813d602011611398575b8161137b602093836117cc565b8101031261029d575160ff8116810361029d57602091505f611352565b3d915061136e565b50602036600319011261029f576004356001600160401b03811161029d5790806113d16113f493369060040161171d565b604051631d51346560e01b815260206004820152948592839260248401916118b1565b0381347f00000000000000000000000000000000000000000000000000000000000000006001600160a01b03165af1908115610352578092819261148b575b509061144e929160405193849360408552604085019061174d565b8381036020850152602080845192838152019301915b818110611472575050500390f35b8251845285945060209384019390920191600101611464565b925090503d8082843e61149e81846117cc565b82019160408184031261029d5780516001600160401b0381116106a157836114c791830161182c565b906020810151906001600160401b03821161044157019280601f850112156106a15783516114f481611815565b9461150260405196876117cc565b81865260208087019260051b82010192831161069d57602001905b82821061152f5750505091905f611433565b815181526020918201910161151d565b503461029f578060031936011261029f57807f00000000000000000000000000000000000000000000000000000000000000006001600160a01b0316803b1561055b57818091600460405180948193630443e21d60e21b83525af180156104db576104ca5750f35b503461029f57604036600319011261029f5760405163021526a560e31b815260048035908201526024803590820152906020826044817f00000000000000000000000000000000000000000000000000000000000000006001600160a01b03165afa908115610352578091610315576040516001600160a01b0383168152602090f35b50346107395760403660031901126107395760043560ff8116809103610739577f00000000000000000000000000000000000000000000000000000000000000006001600160a01b031690813b15610739575f916044839260405194859384926305fef06d60e11b8452600484015260243560248401525af180156116bf576116b1575080f35b6116bd91505f906117cc565b005b6040513d5f823e3d90fd5b34610739576020366003190112610739576004359063ffffffff60e01b82168092036107395760209163798c8ceb60e11b811490811561170c575b5015158152f35b6301ffc9a760e01b14905083611705565b9181601f84011215610739578235916001600160401b038311610739576020808501948460051b01011161073957565b90602080835192838152019201905f5b81811061176a5750505090565b82516001600160a01b031684526020938401939092019160010161175d565b600435906001600160a01b038216820361073957565b9181601f84011215610739578235916001600160401b038311610739576020838186019501011161073957565b90601f801991011681019081106001600160401b038211176117ed57604052565b634e487b7160e01b5f52604160045260245ffd5b51906001600160a01b038216820361073957565b6001600160401b0381116117ed5760051b60200190565b9080601f8301121561073957815161184381611815565b9261185160405194856117cc565b81845260208085019260051b82010192831161073957602001905b8282106118795750505090565b6020809161188684611801565b81520191019061186c565b908060209392818452848401375f828201840152601f01601f1916010190565b90602083828152019060208160051b85010193835f915b8383106118d85750505050505090565b909192939495601f198282030186528635601e198436030181121561073957830190602082359201916001600160401b038111610739578036038313610739576119286020928392600195611891565b9801960194930191906118c8565b90816020910312610739575180151581036107395790565b906020828203126107395781516001600160401b03811161073957611973920161182c565b90565b81835290916001600160fb1b0383116107395760209260051b809284830137010190565b91908260409103126107395760206119b183611801565b9201519056fea264697066735822122045dcb8ba17547efdbfb9500b75db8427684dba8f721e52d28979af2927a7927864736f6c634300081e0033",
  "linkReferences": {},
  "deployedLinkReferences": {}
}