{
  "_format": "hh-sol-artifact-1",
  "contractName": "PayRoxProxyRouter",
  "sourceName": "contracts/Proxy/PayRoxProxyRouter.sol",
  "abi": [
    {
      "inputs": [],
      "name": "AlreadyInitialized",
      "type": "error"
    },
    {
      "inputs": [],
      "name": "BatchReentrancy",
      "type": "error"
    },
    {
      "inputs": [
        {
          "internalType": "uint256",
          "name": "size",
          "type": "uint256"
        },
        {
          "internalType": "uint256",
          "name": "maxSize",
          "type": "uint256"
        }
      ],
      "name": "BatchTooLarge",
      "type": "error"
    },
    {
      "inputs": [
        {
          "internalType": "bytes32",
          "name": "expected",
          "type": "bytes32"
        },
        {
          "internalType": "bytes32",
          "name": "actual",
          "type": "bytes32"
        }
      ],
      "name": "DispatcherCodehashMismatch",
      "type": "error"
    },
    {
      "inputs": [],
      "name": "DispatcherZero",
      "type": "error"
    },
    {
      "inputs": [],
      "name": "EmptyBatch",
      "type": "error"
    },
    {
      "inputs": [
        {
          "internalType": "bytes4",
          "name": "selector",
          "type": "bytes4"
        }
      ],
      "name": "ForbiddenSelector",
      "type": "error"
    },
    {
      "inputs": [],
      "name": "FrozenRouter",
      "type": "error"
    },
    {
      "inputs": [
        {
          "internalType": "address",
          "name": "dispatcher",
          "type": "address"
        }
      ],
      "name": "IncompatibleDispatcher",
      "type": "error"
    },
    {
      "inputs": [],
      "name": "InvalidNewOwner",
      "type": "error"
    },
    {
      "inputs": [],
      "name": "NotOwner",
      "type": "error"
    },
    {
      "inputs": [],
      "name": "NotPendingOwner",
      "type": "error"
    },
    {
      "inputs": [],
      "name": "Paused",
      "type": "error"
    },
    {
      "inputs": [],
      "name": "Reentrancy",
      "type": "error"
    },
    {
      "anonymous": false,
      "inputs": [
        {
          "indexed": false,
          "internalType": "uint256",
          "name": "callCount",
          "type": "uint256"
        },
        {
          "indexed": false,
          "internalType": "uint256",
          "name": "gasUsed",
          "type": "uint256"
        },
        {
          "indexed": false,
          "internalType": "uint256",
          "name": "timestamp",
          "type": "uint256"
        }
      ],
      "name": "BatchExecuted",
      "type": "event"
    },
    {
      "anonymous": false,
      "inputs": [
        {
          "indexed": false,
          "internalType": "bytes32",
          "name": "oldCodehash",
          "type": "bytes32"
        },
        {
          "indexed": false,
          "internalType": "bytes32",
          "name": "newCodehash",
          "type": "bytes32"
        }
      ],
      "name": "DispatcherCodehashSet",
      "type": "event"
    },
    {
      "anonymous": false,
      "inputs": [
        {
          "indexed": true,
          "internalType": "address",
          "name": "oldDispatcher",
          "type": "address"
        },
        {
          "indexed": true,
          "internalType": "address",
          "name": "newDispatcher",
          "type": "address"
        },
        {
          "indexed": false,
          "internalType": "bytes32",
          "name": "codehash",
          "type": "bytes32"
        }
      ],
      "name": "DispatcherUpdated",
      "type": "event"
    },
    {
      "anonymous": false,
      "inputs": [],
      "name": "Frozen",
      "type": "event"
    },
    {
      "anonymous": false,
      "inputs": [
        {
          "indexed": false,
          "internalType": "address",
          "name": "l2Messenger",
          "type": "address"
        },
        {
          "indexed": false,
          "internalType": "address",
          "name": "l1Governor",
          "type": "address"
        }
      ],
      "name": "L2GovernorConfigured",
      "type": "event"
    },
    {
      "anonymous": false,
      "inputs": [
        {
          "indexed": true,
          "internalType": "address",
          "name": "previousOwner",
          "type": "address"
        },
        {
          "indexed": true,
          "internalType": "address",
          "name": "newOwner",
          "type": "address"
        }
      ],
      "name": "OwnershipTransferStarted",
      "type": "event"
    },
    {
      "anonymous": false,
      "inputs": [
        {
          "indexed": true,
          "internalType": "address",
          "name": "previousOwner",
          "type": "address"
        },
        {
          "indexed": true,
          "internalType": "address",
          "name": "newOwner",
          "type": "address"
        }
      ],
      "name": "OwnershipTransferred",
      "type": "event"
    },
    {
      "anonymous": false,
      "inputs": [
        {
          "indexed": false,
          "internalType": "bool",
          "name": "paused",
          "type": "bool"
        }
      ],
      "name": "PausedSet",
      "type": "event"
    },
    {
      "anonymous": false,
      "inputs": [
        {
          "indexed": false,
          "internalType": "address",
          "name": "owner",
          "type": "address"
        },
        {
          "indexed": false,
          "internalType": "address",
          "name": "dispatcher",
          "type": "address"
        },
        {
          "indexed": false,
          "internalType": "bytes32",
          "name": "dispatcherCodehash",
          "type": "bytes32"
        },
        {
          "indexed": false,
          "internalType": "bool",
          "name": "strictCodehash",
          "type": "bool"
        }
      ],
      "name": "PayRoxProxyRouterInitialized",
      "type": "event"
    },
    {
      "anonymous": false,
      "inputs": [
        {
          "indexed": false,
          "internalType": "bytes4[]",
          "name": "selectors",
          "type": "bytes4[]"
        },
        {
          "indexed": false,
          "internalType": "bool",
          "name": "forbidden",
          "type": "bool"
        }
      ],
      "name": "SelectorsForbidden",
      "type": "event"
    },
    {
      "anonymous": false,
      "inputs": [
        {
          "indexed": false,
          "internalType": "bool",
          "name": "enabled",
          "type": "bool"
        }
      ],
      "name": "StrictCodehashSet",
      "type": "event"
    },
    {
      "stateMutability": "payable",
      "type": "fallback"
    },
    {
      "inputs": [],
      "name": "MAX_BATCH_SIZE",
      "outputs": [
        {
          "internalType": "uint256",
          "name": "",
          "type": "uint256"
        }
      ],
      "stateMutability": "view",
      "type": "function"
    },
    {
      "inputs": [],
      "name": "acceptOwnership",
      "outputs": [],
      "stateMutability": "nonpayable",
      "type": "function"
    },
    {
      "inputs": [
        {
          "internalType": "bytes4",
          "name": "selector",
          "type": "bytes4"
        },
        {
          "internalType": "bytes[]",
          "name": "datas",
          "type": "bytes[]"
        }
      ],
      "name": "batchCallSameFunction",
      "outputs": [
        {
          "internalType": "bytes[]",
          "name": "results",
          "type": "bytes[]"
        }
      ],
      "stateMutability": "nonpayable",
      "type": "function"
    },
    {
      "inputs": [
        {
          "components": [
            {
              "internalType": "bytes4",
              "name": "selector",
              "type": "bytes4"
            },
            {
              "internalType": "bytes",
              "name": "data",
              "type": "bytes"
            }
          ],
          "internalType": "struct BatchCall[]",
          "name": "calls",
          "type": "tuple[]"
        }
      ],
      "name": "batchExecute",
      "outputs": [
        {
          "internalType": "bytes[]",
          "name": "results",
          "type": "bytes[]"
        }
      ],
      "stateMutability": "nonpayable",
      "type": "function"
    },
    {
      "inputs": [],
      "name": "dispatcher",
      "outputs": [
        {
          "internalType": "address",
          "name": "",
          "type": "address"
        }
      ],
      "stateMutability": "view",
      "type": "function"
    },
    {
      "inputs": [],
      "name": "dispatcherCodehash",
      "outputs": [
        {
          "internalType": "bytes32",
          "name": "",
          "type": "bytes32"
        }
      ],
      "stateMutability": "view",
      "type": "function"
    },
    {
      "inputs": [],
      "name": "freeze",
      "outputs": [],
      "stateMutability": "nonpayable",
      "type": "function"
    },
    {
      "inputs": [],
      "name": "frozen",
      "outputs": [
        {
          "internalType": "bool",
          "name": "",
          "type": "bool"
        }
      ],
      "stateMutability": "view",
      "type": "function"
    },
    {
      "inputs": [],
      "name": "getActiveManifestRoot",
      "outputs": [
        {
          "internalType": "bytes32",
          "name": "",
          "type": "bytes32"
        }
      ],
      "stateMutability": "view",
      "type": "function"
    },
    {
      "inputs": [
        {
          "internalType": "bytes4",
          "name": "selector",
          "type": "bytes4"
        }
      ],
      "name": "getRoute",
      "outputs": [
        {
          "internalType": "address",
          "name": "facet",
          "type": "address"
        },
        {
          "internalType": "bytes32",
          "name": "codehash",
          "type": "bytes32"
        }
      ],
      "stateMutability": "view",
      "type": "function"
    },
    {
      "inputs": [
        {
          "internalType": "address",
          "name": "owner_",
          "type": "address"
        },
        {
          "internalType": "address",
          "name": "dispatcher_",
          "type": "address"
        },
        {
          "internalType": "bytes32",
          "name": "expectedCodehash",
          "type": "bytes32"
        },
        {
          "internalType": "bool",
          "name": "strictCodehash_",
          "type": "bool"
        }
      ],
      "name": "initializeProxyRouter",
      "outputs": [],
      "stateMutability": "nonpayable",
      "type": "function"
    },
    {
      "inputs": [],
      "name": "isDispatcherFrozen",
      "outputs": [
        {
          "internalType": "bool",
          "name": "",
          "type": "bool"
        }
      ],
      "stateMutability": "view",
      "type": "function"
    },
    {
      "inputs": [
        {
          "internalType": "bytes4",
          "name": "selector",
          "type": "bytes4"
        }
      ],
      "name": "isForbidden",
      "outputs": [
        {
          "internalType": "bool",
          "name": "",
          "type": "bool"
        }
      ],
      "stateMutability": "view",
      "type": "function"
    },
    {
      "inputs": [],
      "name": "l1Governor",
      "outputs": [
        {
          "internalType": "address",
          "name": "",
          "type": "address"
        }
      ],
      "stateMutability": "view",
      "type": "function"
    },
    {
      "inputs": [],
      "name": "l2Messenger",
      "outputs": [
        {
          "internalType": "address",
          "name": "",
          "type": "address"
        }
      ],
      "stateMutability": "view",
      "type": "function"
    },
    {
      "inputs": [],
      "name": "owner",
      "outputs": [
        {
          "internalType": "address",
          "name": "",
          "type": "address"
        }
      ],
      "stateMutability": "view",
      "type": "function"
    },
    {
      "inputs": [],
      "name": "paused",
      "outputs": [
        {
          "internalType": "bool",
          "name": "",
          "type": "bool"
        }
      ],
      "stateMutability": "view",
      "type": "function"
    },
    {
      "inputs": [],
      "name": "pendingOwner",
      "outputs": [
        {
          "internalType": "address",
          "name": "",
          "type": "address"
        }
      ],
      "stateMutability": "view",
      "type": "function"
    },
    {
      "inputs": [],
      "name": "renounceOwnership",
      "outputs": [],
      "stateMutability": "nonpayable",
      "type": "function"
    },
    {
      "inputs": [
        {
          "internalType": "address",
          "name": "dispatcher_",
          "type": "address"
        },
        {
          "internalType": "bytes32",
          "name": "expectedCodehash",
          "type": "bytes32"
        }
      ],
      "name": "setDispatcher",
      "outputs": [],
      "stateMutability": "nonpayable",
      "type": "function"
    },
    {
      "inputs": [
        {
          "internalType": "bytes32",
          "name": "expected",
          "type": "bytes32"
        }
      ],
      "name": "setDispatcherCodehash",
      "outputs": [],
      "stateMutability": "nonpayable",
      "type": "function"
    },
    {
      "inputs": [
        {
          "internalType": "bytes4[]",
          "name": "selectors",
          "type": "bytes4[]"
        },
        {
          "internalType": "bool",
          "name": "forbidden",
          "type": "bool"
        }
      ],
      "name": "setForbiddenSelectors",
      "outputs": [],
      "stateMutability": "nonpayable",
      "type": "function"
    },
    {
      "inputs": [
        {
          "internalType": "address",
          "name": "l2Messenger_",
          "type": "address"
        },
        {
          "internalType": "address",
          "name": "l1Governor_",
          "type": "address"
        }
      ],
      "name": "setL2Governor",
      "outputs": [],
      "stateMutability": "nonpayable",
      "type": "function"
    },
    {
      "inputs": [
        {
          "internalType": "bool",
          "name": "paused_",
          "type": "bool"
        }
      ],
      "name": "setPaused",
      "outputs": [],
      "stateMutability": "nonpayable",
      "type": "function"
    },
    {
      "inputs": [
        {
          "internalType": "bool",
          "name": "enabled",
          "type": "bool"
        }
      ],
      "name": "setStrictCodehash",
      "outputs": [],
      "stateMutability": "nonpayable",
      "type": "function"
    },
    {
      "inputs": [],
      "name": "strictCodehash",
      "outputs": [
        {
          "internalType": "bool",
          "name": "",
          "type": "bool"
        }
      ],
      "stateMutability": "view",
      "type": "function"
    },
    {
      "inputs": [
        {
          "internalType": "address",
          "name": "newOwner",
          "type": "address"
        }
      ],
      "name": "transferOwnership",
      "outputs": [],
      "stateMutability": "nonpayable",
      "type": "function"
    },
    {
      "stateMutability": "payable",
      "type": "receive"
    }
  ],
  "bytecode": "0x60808060405234601557611a58908161001a8239f35b5f80fdfe6080604052600436101561001d575b366116e95761001b6116ce565b005b5f3560e01c806304a49dde146101cc578063054f7d9c146101c75780630729d1ce146101c25780630d13cfb6146101bd578063123d0464146101b857806316c38b3c146101b35780631870221e146101ae5780631a6e649e146101a95780631c62af52146101a457806334ef0d8e1461019f5780635c975abb1461019a57806362a5af3b14610195578063715018a61461019057806379ba50971461018b5780638da5cb5b1461018657806399e2a2ff14610181578063ad61b5411461017c578063b925013514610177578063c1cda55e14610172578063cb7e90571461016d578063cfdbf25414610168578063d6e5db0f14610163578063e30c39781461015e578063ea62ee1214610159578063f2fde38b14610154578063f5730a721461014f5763ff1fd66e0361000e57611280565b611239565b611194565b61116b565b611137565b611076565b61105b565b611027565b610f9e565b610f13565b610ee5565b610e4c565b610e18565b610d70565b610cfb565b610c8e565b610c5d565b610c16565b610a4b565b61098e565b6107ab565b610713565b6106e3565b610468565b6102cc565b610260565b3461025c575f36600319011261025c575f5160206119e35f395f51905f525460405163abb2efdf60e01b815290602090829060049082906001600160a01b03165afa908115610257575f91610228575b50604051908152602090f35b61024a915060203d602011610250575b61024281836113a6565b8101906113cd565b5f61021c565b503d610238565b6113dc565b5f80fd5b3461025c575f36600319011261025c57602060ff5f5160206119835f395f51905f525460101c166040519015158152f35b9181601f8401121561025c5782359167ffffffffffffffff831161025c576020808501948460051b01011161025c57565b8015150361025c57565b3461025c57604036600319011261025c5760043567ffffffffffffffff811161025c576102fd903690600401610291565b602435610309816102c2565b610312336117c5565b156103d0575f5b8281101561035757600190610351836103408360051b88013561033b816103df565b611408565b9060ff801983541691151516179055565b01610319565b5060405191806040840160408552526060830193905f5b8181106103a55783151560208601527faf8985cdfaa296b885fdd0a2d9f56c5ad7eff0d4b1df1a4e4a46c602f07d613b85870386a1005b90919460208060019288356103b9816103df565b6001600160e01b031916815201960192910161036e565b6330cd747160e01b5f5260045ffd5b6001600160e01b031981160361025c57565b602081016020825282518091526040820191602060408360051b8301019401925f915b83831061042357505050505090565b909192939460208080600193603f19868203018752818a518051918291828552018484015e5f828201840152601f01601f191601019701959491909101920190610414565b3461025c57604036600319011261025c57600435610485816103df565b60243567ffffffffffffffff811161025c576104a5903690600401610291565b90915f5160206119835f395f51905f52546104c48160ff9060081c1690565b6106d457601881901c60ff1680156106c6575b6106b75782156106a8576032831161068f576104fc6104f583611408565b5460ff1690565b6106725760ff1661061b575b61051182611480565b925a9161051c6114c9565b61052461151d565b5f5b84811061058c57610588867f2403003b183ff811dedab647749b7525f94e39ff05e4a7b4f02743c21b6c1622878761055c6114f6565b61056461154c565b5a60408051938452910360208301524290820152606090a1604051918291826103f1565b0390f35b6105dd6105c061059d8388876115a7565b91906105b260405193849288602085016115c7565b03601f1981018352826113a6565b5f5160206119e35f395f51905f52546001600160a01b03166118f0565b901561060357906001916105f182896115e7565b526105fc81886115e7565b5001610526565b61060b6114f6565b61061361154c565b602081519101fd5b5f5160206119c35f395f51905f525480610636575b50610508565b5f5160206119e35f395f51905f52546001600160a01b03163f9080820361065d5750610630565b633b1ba18960e21b5f5260045260245260445ffd5b6327fe336560e21b5f526001600160e01b0319821660045260245ffd5b63bb1cb70b60e01b5f526004839052603260245260445ffd5b63c2e5347d60e01b5f5260045ffd5b63558a1e0360e11b5f5260045ffd5b50602081901c60ff166104d7565b6313d0ff5960e31b5f5260045ffd5b3461025c57602036600319011261025c57602060ff61070760043561033b816103df565b54166040519015158152f35b3461025c57602036600319011261025c57600435610730816102c2565b610739336117c5565b156103d05760207f40db37ff5c0bdc2c427fbb2078c8f24afea940abac0e3c23bb4ea3bf2da2b2129115155f5160206119835f395f51905f525461ff008260081b169061ff001916175f5160206119835f395f51905f5255604051908152a1005b6001600160a01b0381160361025c57565b3461025c57608036600319011261025c576004356107c88161079a565b6024356107d48161079a565b606435906044356107e4836102c2565b5f5160206119a35f395f51905f52546001600160a01b0316610980576001600160a01b038216156109715761084082610856956108236108519561191e565b6001600160a01b038116610968575061083b336115fb565b611635565b5f5160206119c35f395f51905f5255565b61143e565b61087e61ff00195f5160206119835f395f51905f5254165f5160206119835f395f51905f5255565b6108a762ff0000195f5160206119835f395f51905f5254165f5160206119835f395f51905f5255565b6108af6114f6565b6108b761154c565b5f5160206119a35f395f51905f52547f5532c4c11a5414a133c3fbd4b41f4234de11dd433a8db193ad6854378cbf00f2906001600160a01b03165f5160206119e35f395f51905f52546001600160a01b0316906109635f5160206119c35f395f51905f52546109345f5160206119835f395f51905f525460ff1690565b604080516001600160a01b03958616815295909416602086015292840152901515606083015281906080820190565b0390a1005b61083b906115fb565b63433f963360e11b5f5260045ffd5b62dc149f60e41b5f5260045ffd5b3461025c57602036600319011261025c576004356109ab816103df565b5f5160206119e35f395f51905f5254604080516351c7094f60e01b81526001600160e01b0319909316600484015290829060249082906001600160a01b03165afa908115610257575f905f92610a19575b50604080516001600160a01b039290921682526020820192909252f35b9050610a3d915060403d604011610a44575b610a3581836113a6565b81019061168d565b905f6109fc565b503d610a2b565b3461025c57602036600319011261025c5760043567ffffffffffffffff811161025c57610a7c903690600401610291565b5f5160206119835f395f51905f5254600881901c60ff166106d457601881901c60ff168015610c08575b6106b75781156106a85760328211610bef5760ff16610bad575b610ac981611480565b915a90610ad46114c9565b610adc61151d565b5f5b838110610b1457610588857f2403003b183ff811dedab647749b7525f94e39ff05e4a7b4f02743c21b6c1622868661055c6114f6565b610b27610b228286856116ac565b6113fb565b610b336104f582611408565b610b91576105b26105c0610b6b92610b59610b4f868a896116ac565b6020810190611574565b604094919451948593602085016115c7565b90156106035790600191610b7f82886115e7565b52610b8a81876115e7565b5001610ade565b6327fe336560e21b5f526001600160e01b03191660045260245ffd5b5f5160206119c35f395f51905f525480610bc8575b50610ac0565b5f5160206119e35f395f51905f52546001600160a01b03163f9080820361065d5750610bc2565b63bb1cb70b60e01b5f526004829052603260245260445ffd5b50602081901c60ff16610aa6565b3461025c575f36600319011261025c577f33ae63e241c61ef0943c007e4f9cfac6915b02021dcc9b3cab93785eef505a71546040516001600160a01b039091168152602090f35b3461025c575f36600319011261025c57602060ff5f5160206119835f395f51905f525460081c166040519015158152f35b3461025c575f36600319011261025c57610ca7336117c5565b156103d0576201000062ff0000195f5160206119835f395f51905f525416175f5160206119835f395f51905f52557fa8cab3d1893ed53071b052fafa843143492f25d1d6b0170d460789f7ab1954be5f80a1005b3461025c575f36600319011261025c57610d14336117c5565b156103d0575f5160206119a35f395f51905f5280546001600160a01b031981169091555f906001600160a01b0316610d4a61166f565b7f8be0079c531659141344cd1fd0a4f28419497f9722a3daafe3b4186f6b6457e08280a3005b3461025c575f36600319011261025c575f516020611a035f395f51905f52546001600160a01b031633819003610e09575f5160206119a35f395f51905f52546001600160a01b031690610dc2906115fb565b610dca61166f565b5f5160206119a35f395f51905f52546001600160a01b0316907f8be0079c531659141344cd1fd0a4f28419497f9722a3daafe3b4186f6b6457e05f80a3005b630614e5c760e21b5f5260045ffd5b3461025c575f36600319011261025c575f5160206119a35f395f51905f52546040516001600160a01b039091168152602090f35b3461025c575f36600319011261025c575f5160206119e35f395f51905f5254604051630153df6760e21b815290602090829060049082906001600160a01b03165afa8015610257575f90610ea8575b6040519015158152602090f35b506020813d602011610edd575b81610ec2602093836113a6565b8101031261025c576105889051610ed8816102c2565b610e9b565b3d9150610eb5565b3461025c575f36600319011261025c57602060ff5f5160206119835f395f51905f5254166040519015158152f35b3461025c57602036600319011261025c57600435610f30816102c2565b610f39336117c5565b156103d05760ff5f5160206119835f395f51905f525460101c16610f8f57602081610f847fc92775c4b27f81e1bbd67f1d8dac03260d4d9aa33dbd88252ac151d04abca95c9361143e565b6040519015158152a1005b63277a2aa960e21b5f5260045ffd5b3461025c57602036600319011261025c57600435610fbb336117c5565b156103d05760ff5f5160206119835f395f51905f525460101c16610f8f575f5160206119c35f395f51905f528054908290556040805191825260208201929092527f256cf243b8b676b7c275e8535144b46b3182a083ad5bdae24c7a9d56d09cdc849181908101610963565b3461025c575f36600319011261025c575f5160206119e35f395f51905f52546040516001600160a01b039091168152602090f35b3461025c575f36600319011261025c57602060405160328152f35b3461025c57604036600319011261025c576004356110938161079a565b602435906110a0336117c5565b156103d05760ff5f5160206119835f395f51905f525460101c16610f8f576001600160a01b0381169182156109715760207f6de3bad16508c7f8935b97ae9494d3ee63a1b0968a031c4e087b107a67c0fb23916110fc8461191e565b5f5160206119e35f395f51905f52546001600160a01b03169361111e90611635565b805f5160206119c35f395f51905f5255604051908152a3005b3461025c575f36600319011261025c575f516020611a035f395f51905f52546040516001600160a01b039091168152602090f35b3461025c575f36600319011261025c5760205f5160206119c35f395f51905f5254604051908152f35b3461025c57602036600319011261025c576004356111b18161079a565b6111ba336117c5565b156103d0576001600160a01b0316801561122a575f516020611a035f395f51905f5280546001600160a01b031916821790555f5160206119a35f395f51905f52546001600160a01b03167f38d16b8cac22d99fc7c124b9cd0de2d3fa1faef420bfe791d8c362d765e227005f80a3005b632a52b3c360e11b5f5260045ffd5b3461025c575f36600319011261025c577f33ae63e241c61ef0943c007e4f9cfac6915b02021dcc9b3cab93785eef505a70546040516001600160a01b039091168152602090f35b3461025c57604036600319011261025c5760043561129d8161079a565b6024356112a98161079a565b5f5160206119a35f395f51905f52546001600160a01b031633036103d05760ff5f5160206119835f395f51905f525460101c16610f8f577f33ae63e241c61ef0943c007e4f9cfac6915b02021dcc9b3cab93785eef505a7080546001600160a01b0319166001600160a01b0384161790557fdfcbc37e8d048094c7dd4ed49fff26f7805ba0adc498858866f1de9ee82f4562916040917f33ae63e241c61ef0943c007e4f9cfac6915b02021dcc9b3cab93785eef505a7180546001600160a01b0319166001600160a01b03831617905582516001600160a01b03928316815291166020820152a1005b634e487b7160e01b5f52604160045260245ffd5b90601f8019910116810190811067ffffffffffffffff8211176113c857604052565b611392565b9081602091031261025c575190565b6040513d5f823e3d90fd5b634e487b7160e01b5f52603260045260245ffd5b35611405816103df565b90565b63ffffffff60e01b165f527f33ae63e241c61ef0943c007e4f9cfac6915b02021dcc9b3cab93785eef505a6f60205260405f2090565b60ff80195f5160206119835f395f51905f52541691151516175f5160206119835f395f51905f5255565b67ffffffffffffffff81116113c85760051b60200190565b9061148a82611468565b61149760405191826113a6565b82815280926114a8601f1991611468565b01905f5b8281106114b857505050565b8060606020809385010152016114ac565b630100000063ff000000195f5160206119835f395f51905f525416175f5160206119835f395f51905f5255565b63ff000000195f5160206119835f395f51905f5254165f5160206119835f395f51905f5255565b64010000000064ff00000000195f5160206119835f395f51905f525416175f5160206119835f395f51905f5255565b64ff00000000195f5160206119835f395f51905f5254165f5160206119835f395f51905f5255565b903590601e198136030182121561025c570180359067ffffffffffffffff821161025c5760200191813603831361025c57565b908210156115c2576115be9160051b810190611574565b9091565b6113e7565b6001600160e01b031990911681526004929182908483013701015f815290565b80518210156115c25760209160051b010190565b60018060a01b03166bffffffffffffffffffffffff60a01b5f5160206119a35f395f51905f525416175f5160206119a35f395f51905f5255565b60018060a01b03166bffffffffffffffffffffffff60a01b5f5160206119e35f395f51905f525416175f5160206119e35f395f51905f5255565b5f516020611a035f395f51905f5280546001600160a01b0319169055565b919082604091031261025c57602082516116a68161079a565b92015190565b91908110156115c25760051b81013590603e198136030182121561025c570190565b60ff5f5160206119835f395f51905f525460081c166106d457565b5f5160206119835f395f51905f525460ff8160201c166106b75764ff000000001916640100000000175f5160206119835f395f51905f52819055600881901c60ff166106d4575f3560e01c6117406104f582611408565b610b9157505f5160206119e35f395f51905f52546001600160a01b03169060ff16611785575b5f8060405192368285378336915af4903d91825f833e1561178357f35bfd5b5f5160206119c35f395f51905f5254806117a0575b50611766565b813f9080820361065d575061179a565b9081602091031261025c57516114058161079a565b5f5160206119a35f395f51905f52546001600160a01b03918216911681146118ea577f33ae63e241c61ef0943c007e4f9cfac6915b02021dcc9b3cab93785eef505a70546001600160a01b031690811481816118d7575b5061182657505f90565b6004906020906001600160a01b0316604051636e296e4560e01b815292839182905afa5f91816118a6575b5061185b57505f90565b7f33ae63e241c61ef0943c007e4f9cfac6915b02021dcc9b3cab93785eef505a71546001600160a01b03908116911681149081611896575090565b6001600160a01b03161515919050565b6118c991925060203d6020116118d0575b6118c181836113a6565b8101906117b0565b905f611851565b503d6118b7565b6001600160a01b0316151590505f61181c565b50600190565b5f809183519060206040519501905af49160203d928093808252805f8484013e601f01601f19160101604052565b60405163abb2efdf60e01b81526001600160a01b03919091169190602081600481865afa9081611965575b5061196157506379bd133960e01b5f5260045260245ffd5b9050565b61197d9060203d6020116102505761024281836113a6565b61194956fe33ae63e241c61ef0943c007e4f9cfac6915b02021dcc9b3cab93785eef505a6e33ae63e241c61ef0943c007e4f9cfac6915b02021dcc9b3cab93785eef505a6a33ae63e241c61ef0943c007e4f9cfac6915b02021dcc9b3cab93785eef505a6d33ae63e241c61ef0943c007e4f9cfac6915b02021dcc9b3cab93785eef505a6c33ae63e241c61ef0943c007e4f9cfac6915b02021dcc9b3cab93785eef505a6ba2646970667358221220b4865bfe4d9b9faae1aa0a3d5d30889d05d57d72f26e81d0d645b658b55ef6ef64736f6c634300081e0033",
  "linkReferences": {},
  "deployedLinkReferences": {}
}