{
  "_format": "hh-sol-artifact-1",
  "contractName": "ExampleFacetB",
  "sourceName": "contracts/facets/ExampleFacetB.sol",
  "abi": [
    {
      "inputs": [],
      "name": "AlreadyInitialized",
      "type": "error"
    },
    {
      "inputs": [],
      "name": "DataTooLarge",
      "type": "error"
    },
    {
      "inputs": [],
      "name": "EmptyBatch",
      "type": "error"
    },
    {
      "inputs": [],
      "name": "EmptyData",
      "type": "error"
    },
    {
      "inputs": [],
      "name": "ExpiredSignature",
      "type": "error"
    },
    {
      "inputs": [],
      "name": "InvalidInitSignature",
      "type": "error"
    },
    {
      "inputs": [],
      "name": "InvalidOperationType",
      "type": "error"
    },
    {
      "inputs": [],
      "name": "LengthMismatch",
      "type": "error"
    },
    {
      "inputs": [],
      "name": "NotInitialized",
      "type": "error"
    },
    {
      "inputs": [],
      "name": "NotOperator",
      "type": "error"
    },
    {
      "inputs": [],
      "name": "Paused",
      "type": "error"
    },
    {
      "inputs": [],
      "name": "TooManyOperations",
      "type": "error"
    },
    {
      "inputs": [],
      "name": "ZeroAddress",
      "type": "error"
    },
    {
      "anonymous": false,
      "inputs": [
        {
          "indexed": false,
          "internalType": "uint256",
          "name": "operationCount",
          "type": "uint256"
        },
        {
          "indexed": false,
          "internalType": "uint256",
          "name": "successCount",
          "type": "uint256"
        },
        {
          "indexed": true,
          "internalType": "address",
          "name": "executor",
          "type": "address"
        }
      ],
      "name": "BatchOperationCompleted",
      "type": "event"
    },
    {
      "anonymous": false,
      "inputs": [
        {
          "indexed": true,
          "internalType": "address",
          "name": "caller",
          "type": "address"
        },
        {
          "indexed": true,
          "internalType": "uint256",
          "name": "operationType",
          "type": "uint256"
        },
        {
          "indexed": true,
          "internalType": "bytes32",
          "name": "dataHash",
          "type": "bytes32"
        }
      ],
      "name": "FacetBExecuted",
      "type": "event"
    },
    {
      "anonymous": false,
      "inputs": [
        {
          "indexed": true,
          "internalType": "address",
          "name": "oldGovernance",
          "type": "address"
        },
        {
          "indexed": true,
          "internalType": "address",
          "name": "newGovernance",
          "type": "address"
        }
      ],
      "name": "GovernanceRotated",
      "type": "event"
    },
    {
      "anonymous": false,
      "inputs": [
        {
          "indexed": false,
          "internalType": "address",
          "name": "operator",
          "type": "address"
        }
      ],
      "name": "Initialized",
      "type": "event"
    },
    {
      "anonymous": false,
      "inputs": [
        {
          "indexed": true,
          "internalType": "address",
          "name": "oldOperator",
          "type": "address"
        },
        {
          "indexed": true,
          "internalType": "address",
          "name": "newOperator",
          "type": "address"
        }
      ],
      "name": "OperatorRotated",
      "type": "event"
    },
    {
      "anonymous": false,
      "inputs": [
        {
          "indexed": false,
          "internalType": "bool",
          "name": "paused",
          "type": "bool"
        },
        {
          "indexed": true,
          "internalType": "address",
          "name": "by",
          "type": "address"
        }
      ],
      "name": "PausedSet",
      "type": "event"
    },
    {
      "anonymous": false,
      "inputs": [
        {
          "indexed": false,
          "internalType": "uint256",
          "name": "version",
          "type": "uint256"
        },
        {
          "indexed": false,
          "internalType": "bytes32",
          "name": "codeHash",
          "type": "bytes32"
        }
      ],
      "name": "RefactorSafetyInitialized",
      "type": "event"
    },
    {
      "anonymous": false,
      "inputs": [
        {
          "indexed": true,
          "internalType": "bytes32",
          "name": "checkId",
          "type": "bytes32"
        },
        {
          "indexed": false,
          "internalType": "string",
          "name": "checkType",
          "type": "string"
        }
      ],
      "name": "RefactorValidationPassed",
      "type": "event"
    },
    {
      "anonymous": false,
      "inputs": [
        {
          "indexed": false,
          "internalType": "uint256",
          "name": "oldValue",
          "type": "uint256"
        },
        {
          "indexed": false,
          "internalType": "uint256",
          "name": "newValue",
          "type": "uint256"
        },
        {
          "indexed": true,
          "internalType": "address",
          "name": "changer",
          "type": "address"
        }
      ],
      "name": "StateChanged",
      "type": "event"
    },
    {
      "inputs": [
        {
          "internalType": "uint256[]",
          "name": "operations",
          "type": "uint256[]"
        },
        {
          "internalType": "bytes[]",
          "name": "dataArray",
          "type": "bytes[]"
        }
      ],
      "name": "batchExecuteB",
      "outputs": [
        {
          "internalType": "bytes32[]",
          "name": "results",
          "type": "bytes32[]"
        }
      ],
      "stateMutability": "nonpayable",
      "type": "function"
    },
    {
      "inputs": [
        {
          "internalType": "uint256[]",
          "name": "inputs",
          "type": "uint256[]"
        }
      ],
      "name": "complexCalculation",
      "outputs": [
        {
          "internalType": "uint256",
          "name": "result",
          "type": "uint256"
        }
      ],
      "stateMutability": "pure",
      "type": "function"
    },
    {
      "inputs": [
        {
          "internalType": "uint256",
          "name": "operationType",
          "type": "uint256"
        },
        {
          "internalType": "bytes",
          "name": "data",
          "type": "bytes"
        }
      ],
      "name": "executeB",
      "outputs": [
        {
          "internalType": "bytes32",
          "name": "operationId",
          "type": "bytes32"
        }
      ],
      "stateMutability": "nonpayable",
      "type": "function"
    },
    {
      "inputs": [],
      "name": "getAdvancedAnalytics",
      "outputs": [
        {
          "internalType": "uint256",
          "name": "value",
          "type": "uint256"
        },
        {
          "internalType": "uint256",
          "name": "totalOps",
          "type": "uint256"
        },
        {
          "internalType": "address",
          "name": "lastExecutor",
          "type": "address"
        },
        {
          "internalType": "bool",
          "name": "isPaused",
          "type": "bool"
        },
        {
          "internalType": "bool",
          "name": "isInitialized",
          "type": "bool"
        },
        {
          "internalType": "address",
          "name": "operatorAddr",
          "type": "address"
        },
        {
          "internalType": "address",
          "name": "governanceAddr",
          "type": "address"
        }
      ],
      "stateMutability": "view",
      "type": "function"
    },
    {
      "inputs": [],
      "name": "getFacetInfoB",
      "outputs": [
        {
          "internalType": "string",
          "name": "name",
          "type": "string"
        },
        {
          "internalType": "string",
          "name": "version",
          "type": "string"
        },
        {
          "internalType": "bytes4[]",
          "name": "selectors",
          "type": "bytes4[]"
        }
      ],
      "stateMutability": "pure",
      "type": "function"
    },
    {
      "inputs": [],
      "name": "getGovernance",
      "outputs": [
        {
          "internalType": "address",
          "name": "governance",
          "type": "address"
        }
      ],
      "stateMutability": "view",
      "type": "function"
    },
    {
      "inputs": [],
      "name": "getInitNonce",
      "outputs": [
        {
          "internalType": "uint256",
          "name": "nonce",
          "type": "uint256"
        }
      ],
      "stateMutability": "view",
      "type": "function"
    },
    {
      "inputs": [
        {
          "internalType": "bytes32",
          "name": "operationId",
          "type": "bytes32"
        }
      ],
      "name": "getOperation",
      "outputs": [
        {
          "components": [
            {
              "internalType": "uint32",
              "name": "operationType",
              "type": "uint32"
            },
            {
              "internalType": "uint64",
              "name": "timestamp",
              "type": "uint64"
            },
            {
              "internalType": "address",
              "name": "executor",
              "type": "address"
            },
            {
              "internalType": "bool",
              "name": "executed",
              "type": "bool"
            },
            {
              "internalType": "bytes",
              "name": "data",
              "type": "bytes"
            }
          ],
          "internalType": "struct ExampleFacetB.OperationData",
          "name": "operation",
          "type": "tuple"
        }
      ],
      "stateMutability": "view",
      "type": "function"
    },
    {
      "inputs": [],
      "name": "getStateSummary",
      "outputs": [
        {
          "internalType": "uint256",
          "name": "value",
          "type": "uint256"
        },
        {
          "internalType": "uint256",
          "name": "operations",
          "type": "uint256"
        },
        {
          "internalType": "address",
          "name": "executor",
          "type": "address"
        },
        {
          "internalType": "bool",
          "name": "paused",
          "type": "bool"
        }
      ],
      "stateMutability": "view",
      "type": "function"
    },
    {
      "inputs": [
        {
          "internalType": "address",
          "name": "user",
          "type": "address"
        }
      ],
      "name": "getUserOperations",
      "outputs": [
        {
          "internalType": "uint256[]",
          "name": "operationTypes",
          "type": "uint256[]"
        }
      ],
      "stateMutability": "view",
      "type": "function"
    },
    {
      "inputs": [
        {
          "internalType": "address",
          "name": "user",
          "type": "address"
        }
      ],
      "name": "getUserStatistics",
      "outputs": [
        {
          "internalType": "uint256",
          "name": "totalUserOps",
          "type": "uint256"
        },
        {
          "internalType": "uint256",
          "name": "mostRecentOp",
          "type": "uint256"
        },
        {
          "internalType": "uint256",
          "name": "uniqueOpTypes",
          "type": "uint256"
        }
      ],
      "stateMutability": "view",
      "type": "function"
    },
    {
      "inputs": [
        {
          "internalType": "address",
          "name": "operator_",
          "type": "address"
        },
        {
          "internalType": "address",
          "name": "governance_",
          "type": "address"
        },
        {
          "internalType": "uint256",
          "name": "deadline",
          "type": "uint256"
        },
        {
          "internalType": "bytes",
          "name": "signature",
          "type": "bytes"
        }
      ],
      "name": "initializeFacetB",
      "outputs": [],
      "stateMutability": "nonpayable",
      "type": "function"
    },
    {
      "inputs": [
        {
          "internalType": "address",
          "name": "newGovernance",
          "type": "address"
        },
        {
          "internalType": "uint256",
          "name": "deadline",
          "type": "uint256"
        },
        {
          "internalType": "bytes",
          "name": "signature",
          "type": "bytes"
        }
      ],
      "name": "rotateGovernance",
      "outputs": [],
      "stateMutability": "nonpayable",
      "type": "function"
    },
    {
      "inputs": [
        {
          "internalType": "address",
          "name": "newOperator",
          "type": "address"
        },
        {
          "internalType": "uint256",
          "name": "deadline",
          "type": "uint256"
        },
        {
          "internalType": "bytes",
          "name": "signature",
          "type": "bytes"
        }
      ],
      "name": "rotateOperator",
      "outputs": [],
      "stateMutability": "nonpayable",
      "type": "function"
    },
    {
      "inputs": [
        {
          "internalType": "bool",
          "name": "paused_",
          "type": "bool"
        }
      ],
      "name": "setPaused",
      "outputs": [],
      "stateMutability": "nonpayable",
      "type": "function"
    },
    {
      "inputs": [
        {
          "internalType": "uint256",
          "name": "operationType",
          "type": "uint256"
        },
        {
          "internalType": "bytes",
          "name": "data",
          "type": "bytes"
        }
      ],
      "name": "simulateOperation",
      "outputs": [
        {
          "internalType": "uint256",
          "name": "newValue",
          "type": "uint256"
        },
        {
          "internalType": "uint256",
          "name": "gasEstimate",
          "type": "uint256"
        }
      ],
      "stateMutability": "view",
      "type": "function"
    },
    {
      "inputs": [
        {
          "internalType": "uint256",
          "name": "operationType",
          "type": "uint256"
        },
        {
          "internalType": "bytes",
          "name": "data",
          "type": "bytes"
        }
      ],
      "name": "validateOperation",
      "outputs": [
        {
          "internalType": "bool",
          "name": "isValid",
          "type": "bool"
        },
        {
          "internalType": "uint256",
          "name": "reason",
          "type": "uint256"
        }
      ],
      "stateMutability": "pure",
      "type": "function"
    }
  ],
  "bytecode": "0x60808060405234601557612139908161001a8239f35b5f80fdfe60806040526004361015610011575f80fd5b5f3560e01c80630af73309146118c55780630e7d1d931461177c57806316c38b3c146116d9578063279412c514611521578063289b3c0d146114ed57806331e8c1951461145157806337184e95146110e35780633c7264b214610e715780635aa723df146107435780637c300fd1146106d0578063a83583e914610593578063a8ced948146104e9578063c15a59e214610399578063c66b4f2314610370578063e2ab79b11461030b578063e9e831d7146100ff5763ea83977f146100d4575f80fd5b346100fb5760406100ed6100e7366119fa565b91611e41565b825191151582526020820152f35b5f80fd5b346100fb5760803660031901126100fb57610118611a2d565b6024356001600160a01b0381168082036100fb576044356064356001600160401b0381116100fb5761014e9036906004016119cd565b6001600160a01b03861693909184156102fc5781156102fc578342116102ed5760ff5f5160206120e45f395f51905f525460a81c166102df57610259936101ac6102476102529460405160208101906101ba816101ac304686611b21565b03601f198101835282611bc9565b519020935f5160206120c45f395f51905f52546040519160208301937ff7517e1dbb7a2bcbdd3b044779543ab804885b4fb56b565c74a42624613d36c885528c60408501526060840152608083015260a082015260a0815261021d60c082611bc9565b519020604051928391602083019586909160429261190160f01b8352600283015260228201520190565b519020923691611c05565b9084611e88565b156102d05761029360209261028e7f908408e307fc569b417f6cbec5d5a06f44a0a505ac0479b47d421a4b2fd6a1e695611c3b565b611d3f565b5f5160206120e45f395f51905f52805460ff60a81b1916600160a81b1790555f5160206120c45f395f51905f5280546001019055604051908152a1005b6305a562b960e21b5f5260045ffd5b62dc149f60e41b5f5260045ffd5b63df4cc36d60e01b5f5260045ffd5b63d92e233d60e01b5f5260045ffd5b346100fb5760203660031901126100fb5761032c610327611a2d565b611d74565b6040518091602082016020835281518091526020604084019201905f5b818110610357575050500390f35b8251845285945060209384019390920191600101610349565b346100fb575f3660031901126100fb5760205f5160206120c45f395f51905f5254604051908152f35b346100fb576103a736611a43565b9160ff5f5160206120e45f395f51905f529492945460a81c16156104da576001600160a01b0382169384156102fc578142116102ed57610252610485926101ac61045f6040516020810190610401816101ac304686611b21565b519020925f5160206120c45f395f51905f52546040519060208201927f6a1c46775ec9faacdfae08d2e6b8cf1770e1393a85917d22d19ed8008dbdbdd884528c6040840152606083015260808201526080815261021d60a082611bc9565b5190205f5160206120a45f395f51905f52546001600160a01b0316959092369190611c05565b156102d05761049390611d3f565b60015f5160206120c45f395f51905f5254015f5160206120c45f395f51905f52557fa6dc18c8c5e355b30a0aef492f0482fc32e6f696187f1698952daf89d9e6004c5f80a3005b6321c4e35760e21b5f5260045ffd5b346100fb575f3660031901126100fb575f5160206120845f395f51905f52545f5160206120445f395f51905f52545f5160206120645f395f51905f52545f5160206120e45f395f51905f52545f5160206120a45f395f51905f52546040805195865260208601949094526001600160a01b039283169385019390935260ff8082161515606086015260a882901c161515608085015260081c811660a08401521660c082015260e090f35b346100fb5760203660031901126100fb576105ac611a2d565b5f6105b75f92611cb6565b9182549163ffffffff8360201c1692836105e3575b506060935060405192835260208301526040820152f35b63ffffffff91501692836101000193846101001191826106bc578560ff8301116106bc57600101919061010060ff82085f528260205260405f2054925f915f906101ff6102008201809a119101988911915b8881106106465750505050506105cc565b856106bc57816106bc57826106bc5760ff610661828c611b14565b165f528360205260405f20546001811015806106b1575b610686575b50600101610635565b60ff600191161b60ff8187161661067d57600191989560ff6106aa92161795611d31565b979061067d565b506005811115610678565b634e487b7160e01b5f52601160045260245ffd5b346100fb575f3660031901126100fb5760805f5160206120845f395f51905f52545f5160206120445f395f51905f525460018060a01b035f5160206120645f395f51905f52541660ff5f5160206120e45f395f51905f525416916040519384526020840152604083015215156060820152f35b346100fb5760403660031901126100fb576004356001600160401b0381116100fb57610773903690600401611aa9565b6024356001600160401b0381116100fb57610792903690600401611aa9565b925f5160206120e45f395f51905f525460ff8160a81c16156104da5760ff16610e62578215610e5357838303610e445760148311610e35576107d383611d06565b936107e16040519586611bc9565b8385526107ed84611d06565b601f19013660208701375f925f5b8581106108a75750505050336001600160601b0360a01b5f5160206120645f395f51905f525416175f5160206120645f395f51905f525560405191825260208201527faf1a15763e6233a44eeef011dd57d5e002aa7c4edcf7294c496060628c9af2b260403392a26040518091602082016020835281518091526020604084019201905f5b81811061088e575050500390f35b8251845285945060209384019390920191600101610880565b6108b2818786611ca6565b3583821015610e21578160051b830135601e19843603018112156100fb576001600160401b0381850135116100fb57808401353603602082860101136100fb5781151580610e16575b80610e0a575b80610dfb575b610916575b50506001016107fb565b60015f5160206120445f395f51905f5297939297540190815f5160206120445f395f51905f52556109503682870135602084890101611c05565b80516020918201206040513360601b6bffffffffffffffffffffffff1916928101928352603481018b90526054810182905246607482015260948101949094529261099e8160b481016101ac565b519020936040516109ae81611bae565b63ffffffff8a168152602081016001600160401b0342168152610a80604083013381526060840190600182526109ee368c60208a80830135920101611c05565b93608086019485528a5f527f5313a8921c51e28339007b8dd64d01c81939df477fa8a3440b1db2c6d658b29d60205263ffffffff8060405f209751161663ffffffff19875416178655519063ffffffff6bffffffffffffffff000000008754926001600160601b0319905160601b169360201b16911617178455511515600184019060ff801983541691151516179055565b518051906001600160401b038211610de757610a9f6002840154611c6e565b601f8111610da3575b50602090601f8311600114610d3857600292915f9183610d2d575b50508160011b915f199060031b1c1916179101555b610ae133611cb6565b63ffffffff60ff600182845416805f528185016020528d60405f205501161663ffffffff1982541617815563ffffffff815460201c16906101008210610cf9575b50505f5160206120845f395f51905f52549460018a03610bee5760208784018035810103126100fb57600195610b616020610bc1958a01013582611af4565b5f5160206120845f395f51905f52555b5f5160206120845f395f51905f525460405191825260208201527fbc7917920280b3fd9dbc7e92398cf96d915bfd40fff01b96f51556fbc16e3d5460403392a2610bbb858d611d1d565b52611d31565b96337fbb1320003ed97c6e516381bd6eb18b8188b46f0420eabc00161c5dcdfde804265f80a4908861090c565b60028a03610c405760208784018035810103126100fb57600195610bc19388016020013581811115610c3157505f5b5f5160206120845f395f51905f5255610b71565b610c3b9082611b14565b610c1d565b60038a03610c845760208784018035810103126100fb576001956064610c6f6020610bc1968b01013583611b01565b045f5160206120845f395f51905f5255610b71565b600195610bc19360048c03610ca957505f5f5160206120845f395f51905f5255610b71565b60058c14610cb8575b50610b71565b610ce290610cdd90610cd6908b018035810160209081019101611ad9565b9291611af4565b611b01565b871c5f5160206120845f395f51905f52558d610cb2565b610d05610d2692611cee565b67ffffffff0000000082549160201b169067ffffffff000000001916179055565b8b80610b22565b015190508f80610ac3565b90600284015f52805f20915f5b601f1985168110610d8b5750918391600193600295601f19811610610d73575b505050811b01910155610ad8565b01515f1960f88460031b161c191690558f8080610d65565b91926020600181928685015181550194019201610d45565b600284015f5260205f20601f840160051c810160208510610de0575b601f830160051c82018110610dd5575050610aa8565b5f8155600101610dbf565b5080610dbf565b634e487b7160e01b5f52604160045260245ffd5b50610400818501351115610907565b50808401351515610901565b5060058211156108fb565b634e487b7160e01b5f52603260045260245ffd5b63222d757960e01b5f5260045ffd5b631fec674760e31b5f5260045ffd5b63c2e5347d60e01b5f5260045ffd5b6313d0ff5960e31b5f5260045ffd5b346100fb575f3660031901126100fb576040805190610e908183611bc9565b600d82526c22bc30b6b83632a330b1b2ba2160991b6020830152805190610eb78183611bc9565b60058252640312e322e360dc1b6020830152610220918151610ed98482611bc9565b601081526020810193601f198101368637815115610e215763e9e831d760e01b8552815160011015610e21576305b0e2cf60e21b82850152815160021015610e21576360ad2cf160e11b6060830152815160031015610e2157630e7d1d9360e01b6080830152815160041015610e21576337184e9560e01b60a0830152815160051015610e2157635aa723df60e01b60c0830152815160061015610e215763279412c560e01b60e0830152815160071015610e215763e2ab79b160e01b610100830152815160081015610e21576331e8c19560e01b610120830152815160091015610e2157637c300fd160e01b6101408301528151600a1015610e2157631e39325960e11b6101608301528151600b1015610e2157631519db2960e31b6101808301528151600c1015610e215763a83583e960e01b6101a08301528151600d1015610e215763ea83977f60e01b6101c08301528151600e1015610e2157630af7330960e01b6101e08301528151600f1015610e215763c66b4f2360e01b610200830152815160101015610e215763289b3c0d60e01b9082015282516060808252909586959493602093926110a09261109391890190611a85565b9087820385890152611a85565b928584039086015251918281520191905f5b8181106110c0575050500390f35b82516001600160e01b0319168452859450602093840193909201916001016110b2565b346100fb576110f1366119fa565b5f5160206120e45f395f51905f529291925460ff8160a81c16156104da5760ff16610e625781158015611447575b61143857801561142957610400811161141a5760015f5160206120445f395f51905f525401805f5160206120445f395f51905f52556002611161368487611c05565b80516020918201206040513360601b6bffffffffffffffffffffffff191692810192835260348101879052605481018290524660748201526094810194909452926111af8160b481016101ac565b5190209261128a604051916111c383611bae565b63ffffffff8716835260208301976001600160401b03421689526111f860408501913383526060860193600185523691611c05565b9860808501998a52875f527f5313a8921c51e28339007b8dd64d01c81939df477fa8a3440b1db2c6d658b29d60205263ffffffff8060405f209651161663ffffffff19865416178555519063ffffffff6bffffffffffffffff000000008654926001600160601b0319905160601b169360201b16911617178355511515600183019060ff801983541691151516179055565b0193519384516001600160401b038111610de7576112a88254611c6e565b601f81116113d5575b50806020968790601f8311600114611373575f92611368575b50508160011b915f199060031b1c19161790555b6112e733611cb6565b63ffffffff60ff600182845416805f5281850189528760405f205501161663ffffffff1982541617815563ffffffff8154861c16906101008210611355575b505060405192337fbb1320003ed97c6e516381bd6eb18b8188b46f0420eabc00161c5dcdfde804265f80a48152f35b610d0561136192611cee565b8480611326565b0151905087806112ca565b5f8581528281209350601f198516905b8181106113be57509084600195949392106113a6575b505050811b0190556112de565b01515f1960f88460031b161c19169055878080611399565b92938a600181928786015181550195019301611383565b825f5260205f20601f830160051c81019160208410611410575b601f0160051c01905b81811061140557506112b1565b5f81556001016113f8565b90915081906113ef565b632a77a3f760e11b5f5260045ffd5b6399d8fec960e01b5f5260045ffd5b630ead561960e11b5f5260045ffd5b506005821161111f565b346100fb5760203660031901126100fb576004356001600160401b0381116100fb57611481903690600401611aa9565b908115611429578035906001925b8084106114a157602083604051908152f35b90916001908482166114ce576114c3906114bc868587611ca6565b3590611af4565b935b0192919061148f565b6114e66064916114df878688611ca6565b3590611b01565b04936114c5565b346100fb575f3660031901126100fb575f5160206120a45f395f51905f52546040516001600160a01b039091168152602090f35b346100fb5760203660031901126100fb576060608060405161154281611bae565b5f81525f60208201525f60408201525f8382015201526004355f527f5313a8921c51e28339007b8dd64d01c81939df477fa8a3440b1db2c6d658b29d60205260405f2060405161159181611bae565b81549163ffffffff8316825260208201926001600160401b038160201c168452604083019060601c8152600260ff600184015416926060850193151584520193604051945f908054906115e382611c6e565b80895291600181169081156116ab5750600114611667575b63ffffffff876116638a89896001600160401b038a61161c858c0386611bc9565b6080870194855260405197889760208952511660208801525116604086015260018060a01b03905116606085015251151560808401525160a08084015260c0830190611a85565b0390f35b5f908152602081209092505b81831061169157505085016020016001600160401b036116636115fb565b6001816020929493945483858c0101520191019190611673565b60ff19166020808b019190915292151560051b890190920192506001600160401b03915061166390506115fb565b346100fb5760203660031901126100fb576004358015158091036100fb575f5160206120e45f395f51905f525460081c6001600160a01b0316330361176d5760ff195f5160206120e45f395f51905f52541660ff8216175f5160206120e45f395f51905f52556040519081527f01b5788941dc32ea9ba649d8e603d186638523a57d48cf2b80b63f13a61e669460203392a2005b631f0853c160e21b5f5260045ffd5b346100fb5761178a36611a43565b915f5160206120e45f395f51905f52939193549260ff8460a81c16156104da576001600160a01b0383169485156102fc578242116102ed5761186a611870936101ac61184460405160208101906117e6816101ac304686611b21565b519020925f5160206120c45f395f51905f52546040519060208201927ff44a30e7d5745e7042f0e56be7b38c4760f55b29b0f5229d372262f95157237784528d6040840152606083015260808201526080815261021d60a082611bc9565b5190205f5160206120a45f395f51905f52546001600160a01b0316939092369190611c05565b91611e88565b156102d05761187e90611c3b565b5f5160206120c45f395f51905f528054600101905560081c6001600160a01b03167f0cb95562c0c1c9ac9c0095cb0f9064ba3b004ddf6642f85044d2c2ce062eef4e5f80a3005b346100fb576118d3366119fa565b815f5160206120845f395f51905f525493600181145f146119185750602091810103126100fb57604091611908913590611af4565b6161a85b82519182526020820152f35b905060028103611958575081602091810103126100fb5735908082111561194757505060405f5b61659061190c565b60409161195391611b14565b61193f565b9182600382959394145f1461198d575060209192810103126100fb576119846064916040933590611b01565b04616d6061190c565b915050600481036119a65750505060405f6159d861190c565b60050361143857610cdd610cd6836119c2936040950190611ad9565b60011c617d0061190c565b9181601f840112156100fb578235916001600160401b0383116100fb57602083818601950101116100fb57565b9060406003198301126100fb5760043591602435906001600160401b0382116100fb57611a29916004016119cd565b9091565b600435906001600160a01b03821682036100fb57565b60606003198201126100fb576004356001600160a01b03811681036100fb579160243591604435906001600160401b0382116100fb57611a29916004016119cd565b805180835260209291819084018484015e5f828201840152601f01601f1916010190565b9181601f840112156100fb578235916001600160401b0383116100fb576020808501948460051b0101116100fb57565b908160609103126100fb578035916040602083013592013590565b919082018092116106bc57565b818102929181159184041417156106bc57565b919082039182116106bc57565b7f8b73c3c69bb8fe3d512ecc4cf759cc79239f7b179b0ffacaa9a75d522b39400f81527f993d0ba592d4b01f590b9c8e5420547d5c0d90739d08703b0fb949ff7c1a246d60208201527fe374587661e69268352d25204d81b23ce801573f4b09f3545e69536dc085a37a604082015260608101919091526001600160a01b03909116608082015260a00190565b60a081019081106001600160401b03821117610de757604052565b90601f801991011681019081106001600160401b03821117610de757604052565b6001600160401b038111610de757601f01601f191660200190565b929192611c1182611bea565b91611c1f6040519384611bc9565b8294818452818301116100fb578281602093845f960137010152565b5f5160206120e45f395f51905f528054610100600160a81b03191660089290921b610100600160a81b0316919091179055565b90600182811c92168015611c9c575b6020831014611c8857565b634e487b7160e01b5f52602260045260245ffd5b91607f1691611c7d565b9190811015610e215760051b0190565b6001600160a01b03165f9081527f5313a8921c51e28339007b8dd64d01c81939df477fa8a3440b1db2c6d658b29e6020526040902090565b63ffffffff60019116019063ffffffff82116106bc57565b6001600160401b038111610de75760051b60200190565b8051821015610e215760209160051b010190565b5f1981146106bc5760010190565b60018060a01b03166001600160601b0360a01b5f5160206120a45f395f51905f525416175f5160206120a45f395f51905f5255565b611d7d90611cb6565b9081549163ffffffff8360201c1690611d9582611d06565b93611da36040519586611bc9565b828552601f19611db284611d06565b01366020870137848315611e3a575063ffffffff90929192169160015f91019083610100019384610100116101ff61020083018097119201958611925b858110611dff5750505050505050565b816106bc57826106bc57836106bc578060ff611e1d6001938a611b14565b165f528560205260405f2054611e33828c611d1d565b5201611def565b9450505050565b801591508115611e7d575b50611e75578015611e6d5761040010611e66576001905f90565b5f90600390565b505f90600290565b505f90600190565b60059150115f611e4c565b9190823b611ed75790611e9a91611f7c565b506004811015611ec357159182611eb057505090565b6001600160a01b03918216911614919050565b634e487b7160e01b5f52602160045260245ffd5b915f926101ac611f0d85946040519283916020830195630b135d3f60e11b87526024840152604060448401526064830190611a85565b51915afa3d15611f75573d611f2181611bea565b90611f2f6040519283611bc9565b81523d5f602083013e5b81611f67575b81611f48575090565b90506020818051810103126100fb5760200151630b135d3f60e11b1490565b905060208151101590611f3f565b6060611f39565b8151919060418303611fac57611fa59250602082015190606060408401519301515f1a90611fb6565b9192909190565b50505f9160029190565b91907f7fffffffffffffffffffffffffffffff5d576e7357a4501ddfe92f46681b20a08411612038579160209360809260ff5f9560405194855216868401526040830152606082015282805260015afa1561202d575f516001600160a01b0381161561202357905f905f90565b505f906001905f90565b6040513d5f823e3d90fd5b5050505f916003919056fe5313a8921c51e28339007b8dd64d01c81939df477fa8a3440b1db2c6d658b29b5313a8921c51e28339007b8dd64d01c81939df477fa8a3440b1db2c6d658b29c5313a8921c51e28339007b8dd64d01c81939df477fa8a3440b1db2c6d658b29a5313a8921c51e28339007b8dd64d01c81939df477fa8a3440b1db2c6d658b2a15313a8921c51e28339007b8dd64d01c81939df477fa8a3440b1db2c6d658b2a05313a8921c51e28339007b8dd64d01c81939df477fa8a3440b1db2c6d658b29fa26469706673582212209c858e0351bf536da9a05d64c1ece020eed2c328bd9d53c87082c1f0bb33d22164736f6c634300081e0033",
  "linkReferences": {},
  "deployedLinkReferences": {}
}