{
  "_format": "hh-sol-artifact-1",
  "contractName": "ExampleFacetB",
  "sourceName": "contracts/facets/ExampleFacetB.sol",
  "abi": [
    {
      "inputs": [],
      "name": "AlreadyInitialized",
      "type": "error"
    },
    {
      "inputs": [],
      "name": "DataTooLarge",
      "type": "error"
    },
    {
      "inputs": [],
      "name": "EmptyBatch",
      "type": "error"
    },
    {
      "inputs": [],
      "name": "EmptyData",
      "type": "error"
    },
    {
      "inputs": [],
      "name": "ExpiredSignature",
      "type": "error"
    },
    {
      "inputs": [],
      "name": "InvalidInitSignature",
      "type": "error"
    },
    {
      "inputs": [],
      "name": "InvalidOperationType",
      "type": "error"
    },
    {
      "inputs": [],
      "name": "LengthMismatch",
      "type": "error"
    },
    {
      "inputs": [],
      "name": "NotInitialized",
      "type": "error"
    },
    {
      "inputs": [],
      "name": "NotOperator",
      "type": "error"
    },
    {
      "inputs": [],
      "name": "Paused",
      "type": "error"
    },
    {
      "inputs": [],
      "name": "TooManyOperations",
      "type": "error"
    },
    {
      "inputs": [],
      "name": "ZeroAddress",
      "type": "error"
    },
    {
      "anonymous": false,
      "inputs": [
        {
          "indexed": false,
          "internalType": "uint256",
          "name": "operationCount",
          "type": "uint256"
        },
        {
          "indexed": false,
          "internalType": "uint256",
          "name": "successCount",
          "type": "uint256"
        },
        {
          "indexed": true,
          "internalType": "address",
          "name": "executor",
          "type": "address"
        }
      ],
      "name": "BatchOperationCompleted",
      "type": "event"
    },
    {
      "anonymous": false,
      "inputs": [
        {
          "indexed": true,
          "internalType": "address",
          "name": "caller",
          "type": "address"
        },
        {
          "indexed": true,
          "internalType": "uint256",
          "name": "operationType",
          "type": "uint256"
        },
        {
          "indexed": true,
          "internalType": "bytes32",
          "name": "dataHash",
          "type": "bytes32"
        }
      ],
      "name": "FacetBExecuted",
      "type": "event"
    },
    {
      "anonymous": false,
      "inputs": [
        {
          "indexed": true,
          "internalType": "address",
          "name": "oldGovernance",
          "type": "address"
        },
        {
          "indexed": true,
          "internalType": "address",
          "name": "newGovernance",
          "type": "address"
        }
      ],
      "name": "GovernanceRotated",
      "type": "event"
    },
    {
      "anonymous": false,
      "inputs": [
        {
          "indexed": false,
          "internalType": "address",
          "name": "operator",
          "type": "address"
        }
      ],
      "name": "Initialized",
      "type": "event"
    },
    {
      "anonymous": false,
      "inputs": [
        {
          "indexed": true,
          "internalType": "address",
          "name": "oldOperator",
          "type": "address"
        },
        {
          "indexed": true,
          "internalType": "address",
          "name": "newOperator",
          "type": "address"
        }
      ],
      "name": "OperatorRotated",
      "type": "event"
    },
    {
      "anonymous": false,
      "inputs": [
        {
          "indexed": false,
          "internalType": "bool",
          "name": "paused",
          "type": "bool"
        },
        {
          "indexed": true,
          "internalType": "address",
          "name": "by",
          "type": "address"
        }
      ],
      "name": "PausedSet",
      "type": "event"
    },
    {
      "anonymous": false,
      "inputs": [
        {
          "indexed": false,
          "internalType": "uint256",
          "name": "version",
          "type": "uint256"
        },
        {
          "indexed": false,
          "internalType": "bytes32",
          "name": "codeHash",
          "type": "bytes32"
        }
      ],
      "name": "RefactorSafetyInitialized",
      "type": "event"
    },
    {
      "anonymous": false,
      "inputs": [
        {
          "indexed": true,
          "internalType": "bytes32",
          "name": "checkId",
          "type": "bytes32"
        },
        {
          "indexed": false,
          "internalType": "string",
          "name": "checkType",
          "type": "string"
        }
      ],
      "name": "RefactorValidationPassed",
      "type": "event"
    },
    {
      "anonymous": false,
      "inputs": [
        {
          "indexed": false,
          "internalType": "uint256",
          "name": "oldValue",
          "type": "uint256"
        },
        {
          "indexed": false,
          "internalType": "uint256",
          "name": "newValue",
          "type": "uint256"
        },
        {
          "indexed": true,
          "internalType": "address",
          "name": "changer",
          "type": "address"
        }
      ],
      "name": "StateChanged",
      "type": "event"
    },
    {
      "inputs": [
        {
          "internalType": "uint256[]",
          "name": "operations",
          "type": "uint256[]"
        },
        {
          "internalType": "bytes[]",
          "name": "dataArray",
          "type": "bytes[]"
        }
      ],
      "name": "batchExecuteB",
      "outputs": [
        {
          "internalType": "bytes32[]",
          "name": "results",
          "type": "bytes32[]"
        }
      ],
      "stateMutability": "nonpayable",
      "type": "function"
    },
    {
      "inputs": [
        {
          "internalType": "uint256[]",
          "name": "inputs",
          "type": "uint256[]"
        }
      ],
      "name": "complexCalculation",
      "outputs": [
        {
          "internalType": "uint256",
          "name": "result",
          "type": "uint256"
        }
      ],
      "stateMutability": "pure",
      "type": "function"
    },
    {
      "inputs": [],
      "name": "emergencyRefactorValidation",
      "outputs": [
        {
          "internalType": "bool",
          "name": "",
          "type": "bool"
        }
      ],
      "stateMutability": "view",
      "type": "function"
    },
    {
      "inputs": [
        {
          "internalType": "uint256",
          "name": "operationType",
          "type": "uint256"
        },
        {
          "internalType": "bytes",
          "name": "data",
          "type": "bytes"
        }
      ],
      "name": "executeB",
      "outputs": [
        {
          "internalType": "bytes32",
          "name": "operationId",
          "type": "bytes32"
        }
      ],
      "stateMutability": "nonpayable",
      "type": "function"
    },
    {
      "inputs": [],
      "name": "getAdvancedAnalytics",
      "outputs": [
        {
          "internalType": "uint256",
          "name": "value",
          "type": "uint256"
        },
        {
          "internalType": "uint256",
          "name": "totalOps",
          "type": "uint256"
        },
        {
          "internalType": "address",
          "name": "lastExecutor",
          "type": "address"
        },
        {
          "internalType": "bool",
          "name": "isPaused",
          "type": "bool"
        },
        {
          "internalType": "bool",
          "name": "isInitialized",
          "type": "bool"
        },
        {
          "internalType": "address",
          "name": "operatorAddr",
          "type": "address"
        },
        {
          "internalType": "address",
          "name": "governanceAddr",
          "type": "address"
        }
      ],
      "stateMutability": "view",
      "type": "function"
    },
    {
      "inputs": [],
      "name": "getFacetInfoB",
      "outputs": [
        {
          "internalType": "string",
          "name": "name",
          "type": "string"
        },
        {
          "internalType": "string",
          "name": "version",
          "type": "string"
        },
        {
          "internalType": "bytes4[]",
          "name": "selectors",
          "type": "bytes4[]"
        }
      ],
      "stateMutability": "pure",
      "type": "function"
    },
    {
      "inputs": [],
      "name": "getGovernance",
      "outputs": [
        {
          "internalType": "address",
          "name": "governance",
          "type": "address"
        }
      ],
      "stateMutability": "view",
      "type": "function"
    },
    {
      "inputs": [],
      "name": "getInitNonce",
      "outputs": [
        {
          "internalType": "uint256",
          "name": "nonce",
          "type": "uint256"
        }
      ],
      "stateMutability": "view",
      "type": "function"
    },
    {
      "inputs": [
        {
          "internalType": "bytes32",
          "name": "operationId",
          "type": "bytes32"
        }
      ],
      "name": "getOperation",
      "outputs": [
        {
          "components": [
            {
              "internalType": "uint32",
              "name": "operationType",
              "type": "uint32"
            },
            {
              "internalType": "uint64",
              "name": "timestamp",
              "type": "uint64"
            },
            {
              "internalType": "address",
              "name": "executor",
              "type": "address"
            },
            {
              "internalType": "bool",
              "name": "executed",
              "type": "bool"
            },
            {
              "internalType": "bytes",
              "name": "data",
              "type": "bytes"
            }
          ],
          "internalType": "struct ExampleFacetB.OperationData",
          "name": "operation",
          "type": "tuple"
        }
      ],
      "stateMutability": "view",
      "type": "function"
    },
    {
      "inputs": [],
      "name": "getStateSummary",
      "outputs": [
        {
          "internalType": "uint256",
          "name": "value",
          "type": "uint256"
        },
        {
          "internalType": "uint256",
          "name": "operations",
          "type": "uint256"
        },
        {
          "internalType": "address",
          "name": "executor",
          "type": "address"
        },
        {
          "internalType": "bool",
          "name": "paused",
          "type": "bool"
        }
      ],
      "stateMutability": "view",
      "type": "function"
    },
    {
      "inputs": [
        {
          "internalType": "address",
          "name": "user",
          "type": "address"
        }
      ],
      "name": "getUserOperations",
      "outputs": [
        {
          "internalType": "uint256[]",
          "name": "operationTypes",
          "type": "uint256[]"
        }
      ],
      "stateMutability": "view",
      "type": "function"
    },
    {
      "inputs": [
        {
          "internalType": "address",
          "name": "user",
          "type": "address"
        }
      ],
      "name": "getUserStatistics",
      "outputs": [
        {
          "internalType": "uint256",
          "name": "totalUserOps",
          "type": "uint256"
        },
        {
          "internalType": "uint256",
          "name": "mostRecentOp",
          "type": "uint256"
        },
        {
          "internalType": "uint256",
          "name": "uniqueOpTypes",
          "type": "uint256"
        }
      ],
      "stateMutability": "view",
      "type": "function"
    },
    {
      "inputs": [
        {
          "internalType": "address",
          "name": "operator_",
          "type": "address"
        },
        {
          "internalType": "address",
          "name": "governance_",
          "type": "address"
        },
        {
          "internalType": "uint256",
          "name": "deadline",
          "type": "uint256"
        },
        {
          "internalType": "bytes",
          "name": "signature",
          "type": "bytes"
        }
      ],
      "name": "initializeFacetB",
      "outputs": [],
      "stateMutability": "nonpayable",
      "type": "function"
    },
    {
      "inputs": [
        {
          "internalType": "address",
          "name": "newGovernance",
          "type": "address"
        },
        {
          "internalType": "uint256",
          "name": "deadline",
          "type": "uint256"
        },
        {
          "internalType": "bytes",
          "name": "signature",
          "type": "bytes"
        }
      ],
      "name": "rotateGovernance",
      "outputs": [],
      "stateMutability": "nonpayable",
      "type": "function"
    },
    {
      "inputs": [
        {
          "internalType": "address",
          "name": "newOperator",
          "type": "address"
        },
        {
          "internalType": "uint256",
          "name": "deadline",
          "type": "uint256"
        },
        {
          "internalType": "bytes",
          "name": "signature",
          "type": "bytes"
        }
      ],
      "name": "rotateOperator",
      "outputs": [],
      "stateMutability": "nonpayable",
      "type": "function"
    },
    {
      "inputs": [
        {
          "internalType": "bool",
          "name": "paused_",
          "type": "bool"
        }
      ],
      "name": "setPaused",
      "outputs": [],
      "stateMutability": "nonpayable",
      "type": "function"
    },
    {
      "inputs": [
        {
          "internalType": "uint256",
          "name": "operationType",
          "type": "uint256"
        },
        {
          "internalType": "bytes",
          "name": "data",
          "type": "bytes"
        }
      ],
      "name": "simulateOperation",
      "outputs": [
        {
          "internalType": "uint256",
          "name": "newValue",
          "type": "uint256"
        },
        {
          "internalType": "uint256",
          "name": "gasEstimate",
          "type": "uint256"
        }
      ],
      "stateMutability": "view",
      "type": "function"
    },
    {
      "inputs": [
        {
          "internalType": "uint256",
          "name": "operationType",
          "type": "uint256"
        },
        {
          "internalType": "bytes",
          "name": "data",
          "type": "bytes"
        }
      ],
      "name": "validateOperation",
      "outputs": [
        {
          "internalType": "bool",
          "name": "isValid",
          "type": "bool"
        },
        {
          "internalType": "uint256",
          "name": "reason",
          "type": "uint256"
        }
      ],
      "stateMutability": "pure",
      "type": "function"
    }
  ],
  "bytecode": "0x6080806040523460155761217a908161001a8239f35b5f80fdfe60806040526004361015610011575f80fd5b5f3560e01c80630af73309146119065780630e7d1d93146117bd57806316c38b3c1461171a578063279412c514611562578063289b3c0d1461152e57806331e8c1951461149257806337184e95146111245780633c7264b214610eb15780635aa723df146107835780637c300fd114610710578063a83583e9146105d3578063a8ced94814610529578063c15a59e2146103d9578063c66b4f23146103b0578063e2ab79b11461034b578063e623a87c14610316578063e9e831d71461010a5763ea83977f146100df575f80fd5b346101065760406100f86100f236611a3b565b91611e82565b825191151582526020820152f35b5f80fd5b3461010657608036600319011261010657610123611a6e565b6024356001600160a01b038116808203610106576044356064356001600160401b03811161010657610159903690600401611a0e565b6001600160a01b0386169390918415610307578115610307578342116102f85760ff5f5160206121255f395f51905f525460a81c166102ea57610264936101b761025261025d9460405160208101906101c5816101b7304686611b62565b03601f198101835282611c0a565b519020935f5160206121055f395f51905f52546040519160208301937ff7517e1dbb7a2bcbdd3b044779543ab804885b4fb56b565c74a42624613d36c885528c60408501526060840152608083015260a082015260a0815261022860c082611c0a565b519020604051928391602083019586909160429261190160f01b8352600283015260228201520190565b519020923691611c46565b9084611ec9565b156102db5761029e6020926102997f908408e307fc569b417f6cbec5d5a06f44a0a505ac0479b47d421a4b2fd6a1e695611c7c565b611d80565b5f5160206121255f395f51905f52805460ff60a81b1916600160a81b1790555f5160206121055f395f51905f5280546001019055604051908152a1005b6305a562b960e21b5f5260045ffd5b62dc149f60e41b5f5260045ffd5b63df4cc36d60e01b5f5260045ffd5b63d92e233d60e01b5f5260045ffd5b34610106575f3660031901126101065761034060346040513060601b602082015260148152611c0a565b602060405160018152f35b346101065760203660031901126101065761036c610367611a6e565b611db5565b6040518091602082016020835281518091526020604084019201905f5b818110610397575050500390f35b8251845285945060209384019390920191600101610389565b34610106575f3660031901126101065760205f5160206121055f395f51905f5254604051908152f35b34610106576103e736611a84565b9160ff5f5160206121255f395f51905f529492945460a81c161561051a576001600160a01b038216938415610307578142116102f85761025d6104c5926101b761049f6040516020810190610441816101b7304686611b62565b519020925f5160206121055f395f51905f52546040519060208201927f6a1c46775ec9faacdfae08d2e6b8cf1770e1393a85917d22d19ed8008dbdbdd884528c6040840152606083015260808201526080815261022860a082611c0a565b5190205f5160206120e55f395f51905f52546001600160a01b0316959092369190611c46565b156102db576104d390611d80565b60015f5160206121055f395f51905f5254015f5160206121055f395f51905f52557fa6dc18c8c5e355b30a0aef492f0482fc32e6f696187f1698952daf89d9e6004c5f80a3005b6321c4e35760e21b5f5260045ffd5b34610106575f366003190112610106575f5160206120c55f395f51905f52545f5160206120855f395f51905f52545f5160206120a55f395f51905f52545f5160206121255f395f51905f52545f5160206120e55f395f51905f52546040805195865260208601949094526001600160a01b039283169385019390935260ff8082161515606086015260a882901c161515608085015260081c811660a08401521660c082015260e090f35b34610106576020366003190112610106576105ec611a6e565b5f6105f75f92611cf7565b9182549163ffffffff8360201c169283610623575b506060935060405192835260208301526040820152f35b63ffffffff91501692836101000193846101001191826106fc578560ff8301116106fc57600101919061010060ff82085f528260205260405f2054925f915f906101ff6102008201809a119101988911915b88811061068657505050505061060c565b856106fc57816106fc57826106fc5760ff6106a1828c611b55565b165f528360205260405f20546001811015806106f1575b6106c6575b50600101610675565b60ff600191161b60ff818716166106bd57600191989560ff6106ea92161795611d72565b97906106bd565b5060058111156106b8565b634e487b7160e01b5f52601160045260245ffd5b34610106575f3660031901126101065760805f5160206120c55f395f51905f52545f5160206120855f395f51905f525460018060a01b035f5160206120a55f395f51905f52541660ff5f5160206121255f395f51905f525416916040519384526020840152604083015215156060820152f35b34610106576040366003190112610106576004356001600160401b038111610106576107b3903690600401611aea565b6024356001600160401b038111610106576107d2903690600401611aea565b925f5160206121255f395f51905f525460ff8160a81c161561051a5760ff16610ea2578215610e9357838303610e845760148311610e755761081383611d47565b936108216040519586611c0a565b83855261082d84611d47565b601f19013660208701375f925f5b8581106108e75750505050336001600160601b0360a01b5f5160206120a55f395f51905f525416175f5160206120a55f395f51905f525560405191825260208201527faf1a15763e6233a44eeef011dd57d5e002aa7c4edcf7294c496060628c9af2b260403392a26040518091602082016020835281518091526020604084019201905f5b8181106108ce575050500390f35b82518452859450602093840193909201916001016108c0565b6108f2818786611ce7565b3583821015610e61578160051b830135601e1984360301811215610106576001600160401b03818501351161010657808401353603602082860101136101065781151580610e56575b80610e4a575b80610e3b575b610956575b505060010161083b565b60015f5160206120855f395f51905f5297939297540190815f5160206120855f395f51905f52556109903682870135602084890101611c46565b80516020918201206040513360601b6bffffffffffffffffffffffff1916928101928352603481018b9052605481018290524660748201526094810194909452926109de8160b481016101b7565b519020936040516109ee81611bef565b63ffffffff8a168152602081016001600160401b0342168152610ac060408301338152606084019060018252610a2e368c60208a80830135920101611c46565b93608086019485528a5f527f5313a8921c51e28339007b8dd64d01c81939df477fa8a3440b1db2c6d658b29d60205263ffffffff8060405f209751161663ffffffff19875416178655519063ffffffff6bffffffffffffffff000000008754926001600160601b0319905160601b169360201b16911617178455511515600184019060ff801983541691151516179055565b518051906001600160401b038211610e2757610adf6002840154611caf565b601f8111610de3575b50602090601f8311600114610d7857600292915f9183610d6d575b50508160011b915f199060031b1c1916179101555b610b2133611cf7565b63ffffffff60ff600182845416805f528185016020528d60405f205501161663ffffffff1982541617815563ffffffff815460201c16906101008210610d39575b50505f5160206120c55f395f51905f52549460018a03610c2e57602087840180358101031261010657600195610ba16020610c01958a01013582611b35565b5f5160206120c55f395f51905f52555b5f5160206120c55f395f51905f525460405191825260208201527fbc7917920280b3fd9dbc7e92398cf96d915bfd40fff01b96f51556fbc16e3d5460403392a2610bfb858d611d5e565b52611d72565b96337fbb1320003ed97c6e516381bd6eb18b8188b46f0420eabc00161c5dcdfde804265f80a4908861094c565b60028a03610c8057602087840180358101031261010657600195610c019388016020013581811115610c7157505f5b5f5160206120c55f395f51905f5255610bb1565b610c7b9082611b55565b610c5d565b60038a03610cc4576020878401803581010312610106576001956064610caf6020610c01968b01013583611b42565b045f5160206120c55f395f51905f5255610bb1565b600195610c019360048c03610ce957505f5f5160206120c55f395f51905f5255610bb1565b60058c14610cf8575b50610bb1565b610d2290610d1d90610d16908b018035810160209081019101611b1a565b9291611b35565b611b42565b871c5f5160206120c55f395f51905f52558d610cf2565b610d45610d6692611d2f565b67ffffffff0000000082549160201b169067ffffffff000000001916179055565b8b80610b62565b015190508f80610b03565b90600284015f52805f20915f5b601f1985168110610dcb5750918391600193600295601f19811610610db3575b505050811b01910155610b18565b01515f1960f88460031b161c191690558f8080610da5565b91926020600181928685015181550194019201610d85565b600284015f5260205f20601f840160051c810160208510610e20575b601f830160051c82018110610e15575050610ae8565b5f8155600101610dff565b5080610dff565b634e487b7160e01b5f52604160045260245ffd5b50610400818501351115610947565b50808401351515610941565b50600582111561093b565b634e487b7160e01b5f52603260045260245ffd5b63222d757960e01b5f5260045ffd5b631fec674760e31b5f5260045ffd5b63c2e5347d60e01b5f5260045ffd5b6313d0ff5960e31b5f5260045ffd5b34610106575f366003190112610106576040805190610ed08183611c0a565b600d82526c22bc30b6b83632a330b1b2ba2160991b6020830152805190610ef78183611c0a565b60058252640312e322e360dc1b6020830152610240918151610f198482611c0a565b601181526020810193601f1901368537805115610e615763e9e831d760e01b8452805160011015610e61576305b0e2cf60e21b81840152805160021015610e61576360ad2cf160e11b6060820152805160031015610e6157630e7d1d9360e01b6080820152805160041015610e61576337184e9560e01b60a0820152805160051015610e6157635aa723df60e01b60c0820152805160061015610e615763279412c560e01b60e0820152805160071015610e615763e2ab79b160e01b610100820152805160081015610e61576331e8c19560e01b610120820152805160091015610e6157637c300fd160e01b6101408201528051600a1015610e6157631e39325960e11b6101608201528051600b1015610e6157631519db2960e31b6101808201528051600c1015610e615763a83583e960e01b6101a08201528051600d1015610e615763ea83977f60e01b6101c08201528051600e1015610e6157630af7330960e01b6101e08201528051600f1015610e615763c66b4f2360e01b610200820152805160101015610e615763289b3c0d60e01b61022082015282516060808252909586959493602093926110e1926110d491890190611ac6565b9087820385890152611ac6565b928584039086015251918281520191905f5b818110611101575050500390f35b82516001600160e01b0319168452859450602093840193909201916001016110f3565b346101065761113236611a3b565b5f5160206121255f395f51905f529291925460ff8160a81c161561051a5760ff16610ea25781158015611488575b61147957801561146a57610400811161145b5760015f5160206120855f395f51905f525401805f5160206120855f395f51905f525560026111a2368487611c46565b80516020918201206040513360601b6bffffffffffffffffffffffff191692810192835260348101879052605481018290524660748201526094810194909452926111f08160b481016101b7565b519020926112cb6040519161120483611bef565b63ffffffff8716835260208301976001600160401b034216895261123960408501913383526060860193600185523691611c46565b9860808501998a52875f527f5313a8921c51e28339007b8dd64d01c81939df477fa8a3440b1db2c6d658b29d60205263ffffffff8060405f209651161663ffffffff19865416178555519063ffffffff6bffffffffffffffff000000008654926001600160601b0319905160601b169360201b16911617178355511515600183019060ff801983541691151516179055565b0193519384516001600160401b038111610e27576112e98254611caf565b601f8111611416575b50806020968790601f83116001146113b4575f926113a9575b50508160011b915f199060031b1c19161790555b61132833611cf7565b63ffffffff60ff600182845416805f5281850189528760405f205501161663ffffffff1982541617815563ffffffff8154861c16906101008210611396575b505060405192337fbb1320003ed97c6e516381bd6eb18b8188b46f0420eabc00161c5dcdfde804265f80a48152f35b610d456113a292611d2f565b8480611367565b01519050878061130b565b5f8581528281209350601f198516905b8181106113ff57509084600195949392106113e7575b505050811b01905561131f565b01515f1960f88460031b161c191690558780806113da565b92938a6001819287860151815501950193016113c4565b825f5260205f20601f830160051c81019160208410611451575b601f0160051c01905b81811061144657506112f2565b5f8155600101611439565b9091508190611430565b632a77a3f760e11b5f5260045ffd5b6399d8fec960e01b5f5260045ffd5b630ead561960e11b5f5260045ffd5b5060058211611160565b34610106576020366003190112610106576004356001600160401b038111610106576114c2903690600401611aea565b90811561146a578035906001925b8084106114e257602083604051908152f35b909160019084821661150f57611504906114fd868587611ce7565b3590611b35565b935b019291906114d0565b611527606491611520878688611ce7565b3590611b42565b0493611506565b34610106575f366003190112610106575f5160206120e55f395f51905f52546040516001600160a01b039091168152602090f35b34610106576020366003190112610106576060608060405161158381611bef565b5f81525f60208201525f60408201525f8382015201526004355f527f5313a8921c51e28339007b8dd64d01c81939df477fa8a3440b1db2c6d658b29d60205260405f206040516115d281611bef565b81549163ffffffff8316825260208201926001600160401b038160201c168452604083019060601c8152600260ff600184015416926060850193151584520193604051945f9080549061162482611caf565b80895291600181169081156116ec57506001146116a8575b63ffffffff876116a48a89896001600160401b038a61165d858c0386611c0a565b6080870194855260405197889760208952511660208801525116604086015260018060a01b03905116606085015251151560808401525160a08084015260c0830190611ac6565b0390f35b5f908152602081209092505b8183106116d257505085016020016001600160401b036116a461163c565b6001816020929493945483858c01015201910191906116b4565b60ff19166020808b019190915292151560051b890190920192506001600160401b0391506116a4905061163c565b3461010657602036600319011261010657600435801515809103610106575f5160206121255f395f51905f525460081c6001600160a01b031633036117ae5760ff195f5160206121255f395f51905f52541660ff8216175f5160206121255f395f51905f52556040519081527f01b5788941dc32ea9ba649d8e603d186638523a57d48cf2b80b63f13a61e669460203392a2005b631f0853c160e21b5f5260045ffd5b34610106576117cb36611a84565b915f5160206121255f395f51905f52939193549260ff8460a81c161561051a576001600160a01b038316948515610307578242116102f8576118ab6118b1936101b76118856040516020810190611827816101b7304686611b62565b519020925f5160206121055f395f51905f52546040519060208201927ff44a30e7d5745e7042f0e56be7b38c4760f55b29b0f5229d372262f95157237784528d6040840152606083015260808201526080815261022860a082611c0a565b5190205f5160206120e55f395f51905f52546001600160a01b0316939092369190611c46565b91611ec9565b156102db576118bf90611c7c565b5f5160206121055f395f51905f528054600101905560081c6001600160a01b03167f0cb95562c0c1c9ac9c0095cb0f9064ba3b004ddf6642f85044d2c2ce062eef4e5f80a3005b346101065761191436611a3b565b815f5160206120c55f395f51905f525493600181145f1461195957506020918101031261010657604091611949913590611b35565b6161a85b82519182526020820152f35b905060028103611999575081602091810103126101065735908082111561198857505060405f5b61659061194d565b60409161199491611b55565b611980565b9182600382959394145f146119ce57506020919281010312610106576119c56064916040933590611b42565b04616d6061194d565b915050600481036119e75750505060405f6159d861194d565b60050361147957610d1d610d1683611a03936040950190611b1a565b60011c617d0061194d565b9181601f84011215610106578235916001600160401b038311610106576020838186019501011161010657565b9060406003198301126101065760043591602435906001600160401b03821161010657611a6a91600401611a0e565b9091565b600435906001600160a01b038216820361010657565b6060600319820112610106576004356001600160a01b0381168103610106579160243591604435906001600160401b03821161010657611a6a91600401611a0e565b805180835260209291819084018484015e5f828201840152601f01601f1916010190565b9181601f84011215610106578235916001600160401b038311610106576020808501948460051b01011161010657565b90816060910312610106578035916040602083013592013590565b919082018092116106fc57565b818102929181159184041417156106fc57565b919082039182116106fc57565b7f8b73c3c69bb8fe3d512ecc4cf759cc79239f7b179b0ffacaa9a75d522b39400f81527f993d0ba592d4b01f590b9c8e5420547d5c0d90739d08703b0fb949ff7c1a246d60208201527fe374587661e69268352d25204d81b23ce801573f4b09f3545e69536dc085a37a604082015260608101919091526001600160a01b03909116608082015260a00190565b60a081019081106001600160401b03821117610e2757604052565b90601f801991011681019081106001600160401b03821117610e2757604052565b6001600160401b038111610e2757601f01601f191660200190565b929192611c5282611c2b565b91611c606040519384611c0a565b829481845281830111610106578281602093845f960137010152565b5f5160206121255f395f51905f528054610100600160a81b03191660089290921b610100600160a81b0316919091179055565b90600182811c92168015611cdd575b6020831014611cc957565b634e487b7160e01b5f52602260045260245ffd5b91607f1691611cbe565b9190811015610e615760051b0190565b6001600160a01b03165f9081527f5313a8921c51e28339007b8dd64d01c81939df477fa8a3440b1db2c6d658b29e6020526040902090565b63ffffffff60019116019063ffffffff82116106fc57565b6001600160401b038111610e275760051b60200190565b8051821015610e615760209160051b010190565b5f1981146106fc5760010190565b60018060a01b03166001600160601b0360a01b5f5160206120e55f395f51905f525416175f5160206120e55f395f51905f5255565b611dbe90611cf7565b9081549163ffffffff8360201c1690611dd682611d47565b93611de46040519586611c0a565b828552601f19611df384611d47565b01366020870137848315611e7b575063ffffffff90929192169160015f91019083610100019384610100116101ff61020083018097119201958611925b858110611e405750505050505050565b816106fc57826106fc57836106fc578060ff611e5e6001938a611b55565b165f528560205260405f2054611e74828c611d5e565b5201611e30565b9450505050565b801591508115611ebe575b50611eb6578015611eae5761040010611ea7576001905f90565b5f90600390565b505f90600290565b505f90600190565b60059150115f611e8d565b9190823b611f185790611edb91611fbd565b506004811015611f0457159182611ef157505090565b6001600160a01b03918216911614919050565b634e487b7160e01b5f52602160045260245ffd5b915f926101b7611f4e85946040519283916020830195630b135d3f60e11b87526024840152604060448401526064830190611ac6565b51915afa3d15611fb6573d611f6281611c2b565b90611f706040519283611c0a565b81523d5f602083013e5b81611fa8575b81611f89575090565b90506020818051810103126101065760200151630b135d3f60e11b1490565b905060208151101590611f80565b6060611f7a565b8151919060418303611fed57611fe69250602082015190606060408401519301515f1a90611ff7565b9192909190565b50505f9160029190565b91907f7fffffffffffffffffffffffffffffff5d576e7357a4501ddfe92f46681b20a08411612079579160209360809260ff5f9560405194855216868401526040830152606082015282805260015afa1561206e575f516001600160a01b0381161561206457905f905f90565b505f906001905f90565b6040513d5f823e3d90fd5b5050505f916003919056fe5313a8921c51e28339007b8dd64d01c81939df477fa8a3440b1db2c6d658b29b5313a8921c51e28339007b8dd64d01c81939df477fa8a3440b1db2c6d658b29c5313a8921c51e28339007b8dd64d01c81939df477fa8a3440b1db2c6d658b29a5313a8921c51e28339007b8dd64d01c81939df477fa8a3440b1db2c6d658b2a15313a8921c51e28339007b8dd64d01c81939df477fa8a3440b1db2c6d658b2a05313a8921c51e28339007b8dd64d01c81939df477fa8a3440b1db2c6d658b29fa2646970667358221220a1a064a2fecaf9454db4152e89fbaf7e6edf17266fdcdd2f06e46d26f9b6aca364736f6c634300081e0033",
  "linkReferences": {},
  "deployedLinkReferences": {}
}