{
  "_format": "hh-sol-artifact-1",
  "contractName": "GovernanceOrchestrator",
  "sourceName": "contracts/governance/GovernanceOrchestrator.sol",
  "abi": [
    {
      "inputs": [
        {
          "internalType": "address",
          "name": "admin",
          "type": "address"
        }
      ],
      "stateMutability": "nonpayable",
      "type": "constructor"
    },
    {
      "inputs": [],
      "name": "AccessControlBadConfirmation",
      "type": "error"
    },
    {
      "inputs": [
        {
          "internalType": "address",
          "name": "account",
          "type": "address"
        },
        {
          "internalType": "bytes32",
          "name": "neededRole",
          "type": "bytes32"
        }
      ],
      "name": "AccessControlUnauthorizedAccount",
      "type": "error"
    },
    {
      "inputs": [],
      "name": "EnforcedPause",
      "type": "error"
    },
    {
      "inputs": [],
      "name": "ExpectedPause",
      "type": "error"
    },
    {
      "inputs": [
        {
          "internalType": "address",
          "name": "voter",
          "type": "address"
        },
        {
          "internalType": "uint256",
          "name": "required",
          "type": "uint256"
        }
      ],
      "name": "InsufficientVotingPower",
      "type": "error"
    },
    {
      "inputs": [
        {
          "internalType": "uint256",
          "name": "threshold",
          "type": "uint256"
        }
      ],
      "name": "InvalidQuorumThreshold",
      "type": "error"
    },
    {
      "inputs": [
        {
          "internalType": "bytes32",
          "name": "proposalId",
          "type": "bytes32"
        }
      ],
      "name": "ProposalAlreadyExecuted",
      "type": "error"
    },
    {
      "inputs": [
        {
          "internalType": "bytes32",
          "name": "proposalId",
          "type": "bytes32"
        }
      ],
      "name": "ProposalAlreadyExists",
      "type": "error"
    },
    {
      "inputs": [
        {
          "internalType": "bytes32",
          "name": "proposalId",
          "type": "bytes32"
        }
      ],
      "name": "ProposalNotFound",
      "type": "error"
    },
    {
      "inputs": [
        {
          "internalType": "bytes32",
          "name": "proposalId",
          "type": "bytes32"
        }
      ],
      "name": "QuorumNotMet",
      "type": "error"
    },
    {
      "inputs": [],
      "name": "ReentrancyGuardReentrantCall",
      "type": "error"
    },
    {
      "inputs": [],
      "name": "UnauthorizedDeployer",
      "type": "error"
    },
    {
      "inputs": [
        {
          "internalType": "bytes32",
          "name": "proposalId",
          "type": "bytes32"
        }
      ],
      "name": "VotingActive",
      "type": "error"
    },
    {
      "inputs": [
        {
          "internalType": "bytes32",
          "name": "proposalId",
          "type": "bytes32"
        }
      ],
      "name": "VotingEnded",
      "type": "error"
    },
    {
      "inputs": [
        {
          "internalType": "uint256",
          "name": "period",
          "type": "uint256"
        }
      ],
      "name": "VotingPeriodInvalid",
      "type": "error"
    },
    {
      "anonymous": false,
      "inputs": [
        {
          "indexed": true,
          "internalType": "bytes32",
          "name": "proposalId",
          "type": "bytes32"
        },
        {
          "indexed": true,
          "internalType": "address",
          "name": "voter",
          "type": "address"
        },
        {
          "indexed": false,
          "internalType": "bool",
          "name": "support",
          "type": "bool"
        },
        {
          "indexed": false,
          "internalType": "uint256",
          "name": "weight",
          "type": "uint256"
        }
      ],
      "name": "GovernanceVoteCast",
      "type": "event"
    },
    {
      "anonymous": false,
      "inputs": [
        {
          "indexed": false,
          "internalType": "address",
          "name": "account",
          "type": "address"
        }
      ],
      "name": "Paused",
      "type": "event"
    },
    {
      "anonymous": false,
      "inputs": [
        {
          "indexed": true,
          "internalType": "bytes32",
          "name": "proposalId",
          "type": "bytes32"
        },
        {
          "indexed": true,
          "internalType": "address",
          "name": "proposer",
          "type": "address"
        },
        {
          "indexed": false,
          "internalType": "string",
          "name": "description",
          "type": "string"
        },
        {
          "indexed": false,
          "internalType": "uint256",
          "name": "votingDeadline",
          "type": "uint256"
        }
      ],
      "name": "ProposalCreated",
      "type": "event"
    },
    {
      "anonymous": false,
      "inputs": [
        {
          "indexed": true,
          "internalType": "bytes32",
          "name": "proposalId",
          "type": "bytes32"
        },
        {
          "indexed": false,
          "internalType": "bool",
          "name": "success",
          "type": "bool"
        }
      ],
      "name": "ProposalExecuted",
      "type": "event"
    },
    {
      "anonymous": false,
      "inputs": [
        {
          "indexed": false,
          "internalType": "uint256",
          "name": "oldThreshold",
          "type": "uint256"
        },
        {
          "indexed": false,
          "internalType": "uint256",
          "name": "newThreshold",
          "type": "uint256"
        }
      ],
      "name": "QuorumThresholdUpdated",
      "type": "event"
    },
    {
      "anonymous": false,
      "inputs": [
        {
          "indexed": true,
          "internalType": "bytes32",
          "name": "role",
          "type": "bytes32"
        },
        {
          "indexed": true,
          "internalType": "bytes32",
          "name": "previousAdminRole",
          "type": "bytes32"
        },
        {
          "indexed": true,
          "internalType": "bytes32",
          "name": "newAdminRole",
          "type": "bytes32"
        }
      ],
      "name": "RoleAdminChanged",
      "type": "event"
    },
    {
      "anonymous": false,
      "inputs": [
        {
          "indexed": true,
          "internalType": "bytes32",
          "name": "role",
          "type": "bytes32"
        },
        {
          "indexed": true,
          "internalType": "address",
          "name": "account",
          "type": "address"
        },
        {
          "indexed": true,
          "internalType": "address",
          "name": "sender",
          "type": "address"
        }
      ],
      "name": "RoleGranted",
      "type": "event"
    },
    {
      "anonymous": false,
      "inputs": [
        {
          "indexed": true,
          "internalType": "bytes32",
          "name": "role",
          "type": "bytes32"
        },
        {
          "indexed": true,
          "internalType": "address",
          "name": "account",
          "type": "address"
        },
        {
          "indexed": true,
          "internalType": "address",
          "name": "sender",
          "type": "address"
        }
      ],
      "name": "RoleRevoked",
      "type": "event"
    },
    {
      "anonymous": false,
      "inputs": [
        {
          "indexed": false,
          "internalType": "address",
          "name": "account",
          "type": "address"
        }
      ],
      "name": "Unpaused",
      "type": "event"
    },
    {
      "anonymous": false,
      "inputs": [
        {
          "indexed": true,
          "internalType": "bytes32",
          "name": "proposalId",
          "type": "bytes32"
        },
        {
          "indexed": true,
          "internalType": "address",
          "name": "voter",
          "type": "address"
        },
        {
          "indexed": false,
          "internalType": "bool",
          "name": "support",
          "type": "bool"
        },
        {
          "indexed": false,
          "internalType": "uint256",
          "name": "weight",
          "type": "uint256"
        }
      ],
      "name": "VoteCast",
      "type": "event"
    },
    {
      "anonymous": false,
      "inputs": [
        {
          "indexed": true,
          "internalType": "address",
          "name": "account",
          "type": "address"
        },
        {
          "indexed": false,
          "internalType": "uint256",
          "name": "oldPower",
          "type": "uint256"
        },
        {
          "indexed": false,
          "internalType": "uint256",
          "name": "newPower",
          "type": "uint256"
        }
      ],
      "name": "VotingPowerUpdated",
      "type": "event"
    },
    {
      "inputs": [],
      "name": "DEFAULT_ADMIN_ROLE",
      "outputs": [
        {
          "internalType": "bytes32",
          "name": "",
          "type": "bytes32"
        }
      ],
      "stateMutability": "view",
      "type": "function"
    },
    {
      "inputs": [],
      "name": "EMERGENCY_ROLE",
      "outputs": [
        {
          "internalType": "bytes32",
          "name": "",
          "type": "bytes32"
        }
      ],
      "stateMutability": "view",
      "type": "function"
    },
    {
      "inputs": [],
      "name": "MAX_VOTING_PERIOD",
      "outputs": [
        {
          "internalType": "uint256",
          "name": "",
          "type": "uint256"
        }
      ],
      "stateMutability": "view",
      "type": "function"
    },
    {
      "inputs": [],
      "name": "MIN_VOTING_PERIOD",
      "outputs": [
        {
          "internalType": "uint256",
          "name": "",
          "type": "uint256"
        }
      ],
      "stateMutability": "view",
      "type": "function"
    },
    {
      "inputs": [],
      "name": "PROPOSER_ROLE",
      "outputs": [
        {
          "internalType": "bytes32",
          "name": "",
          "type": "bytes32"
        }
      ],
      "stateMutability": "view",
      "type": "function"
    },
    {
      "inputs": [
        {
          "internalType": "uint256",
          "name": "",
          "type": "uint256"
        }
      ],
      "name": "allProposals",
      "outputs": [
        {
          "internalType": "bytes32",
          "name": "",
          "type": "bytes32"
        }
      ],
      "stateMutability": "view",
      "type": "function"
    },
    {
      "inputs": [
        {
          "internalType": "bytes32",
          "name": "proposalId",
          "type": "bytes32"
        },
        {
          "internalType": "bool",
          "name": "support",
          "type": "bool"
        }
      ],
      "name": "castVote",
      "outputs": [],
      "stateMutability": "nonpayable",
      "type": "function"
    },
    {
      "inputs": [
        {
          "internalType": "bytes32",
          "name": "proposalId",
          "type": "bytes32"
        }
      ],
      "name": "checkProposalStatus",
      "outputs": [
        {
          "internalType": "bool",
          "name": "hasPassed",
          "type": "bool"
        }
      ],
      "stateMutability": "view",
      "type": "function"
    },
    {
      "inputs": [
        {
          "internalType": "bytes32",
          "name": "proposalId",
          "type": "bytes32"
        },
        {
          "internalType": "string",
          "name": "description",
          "type": "string"
        },
        {
          "internalType": "bytes32[]",
          "name": "targetHashes",
          "type": "bytes32[]"
        },
        {
          "internalType": "uint256",
          "name": "votingPeriod",
          "type": "uint256"
        }
      ],
      "name": "createProposal",
      "outputs": [],
      "stateMutability": "nonpayable",
      "type": "function"
    },
    {
      "inputs": [],
      "name": "emergencyPause",
      "outputs": [],
      "stateMutability": "nonpayable",
      "type": "function"
    },
    {
      "inputs": [],
      "name": "emergencyUnpause",
      "outputs": [],
      "stateMutability": "nonpayable",
      "type": "function"
    },
    {
      "inputs": [
        {
          "internalType": "bytes32",
          "name": "proposalId",
          "type": "bytes32"
        }
      ],
      "name": "executeProposal",
      "outputs": [],
      "stateMutability": "nonpayable",
      "type": "function"
    },
    {
      "inputs": [
        {
          "internalType": "bytes32",
          "name": "",
          "type": "bytes32"
        }
      ],
      "name": "executedProposals",
      "outputs": [
        {
          "internalType": "bool",
          "name": "",
          "type": "bool"
        }
      ],
      "stateMutability": "view",
      "type": "function"
    },
    {
      "inputs": [
        {
          "internalType": "bytes32",
          "name": "proposalId",
          "type": "bytes32"
        }
      ],
      "name": "getProposal",
      "outputs": [
        {
          "components": [
            {
              "internalType": "bytes32",
              "name": "proposalId",
              "type": "bytes32"
            },
            {
              "internalType": "address",
              "name": "proposer",
              "type": "address"
            },
            {
              "internalType": "string",
              "name": "description",
              "type": "string"
            },
            {
              "internalType": "bytes32[]",
              "name": "targetHashes",
              "type": "bytes32[]"
            },
            {
              "internalType": "uint256",
              "name": "votingDeadline",
              "type": "uint256"
            },
            {
              "internalType": "uint256",
              "name": "forVotes",
              "type": "uint256"
            },
            {
              "internalType": "uint256",
              "name": "againstVotes",
              "type": "uint256"
            },
            {
              "internalType": "uint256",
              "name": "abstainVotes",
              "type": "uint256"
            },
            {
              "internalType": "bool",
              "name": "executed",
              "type": "bool"
            }
          ],
          "internalType": "struct ManifestTypes.GovernanceProposal",
          "name": "proposal",
          "type": "tuple"
        }
      ],
      "stateMutability": "view",
      "type": "function"
    },
    {
      "inputs": [],
      "name": "getProposalCount",
      "outputs": [
        {
          "internalType": "uint256",
          "name": "count",
          "type": "uint256"
        }
      ],
      "stateMutability": "view",
      "type": "function"
    },
    {
      "inputs": [
        {
          "internalType": "bytes32",
          "name": "role",
          "type": "bytes32"
        }
      ],
      "name": "getRoleAdmin",
      "outputs": [
        {
          "internalType": "bytes32",
          "name": "",
          "type": "bytes32"
        }
      ],
      "stateMutability": "view",
      "type": "function"
    },
    {
      "inputs": [
        {
          "internalType": "bytes32",
          "name": "role",
          "type": "bytes32"
        },
        {
          "internalType": "address",
          "name": "account",
          "type": "address"
        }
      ],
      "name": "grantRole",
      "outputs": [],
      "stateMutability": "nonpayable",
      "type": "function"
    },
    {
      "inputs": [
        {
          "internalType": "bytes32",
          "name": "role",
          "type": "bytes32"
        },
        {
          "internalType": "address",
          "name": "account",
          "type": "address"
        }
      ],
      "name": "hasRole",
      "outputs": [
        {
          "internalType": "bool",
          "name": "",
          "type": "bool"
        }
      ],
      "stateMutability": "view",
      "type": "function"
    },
    {
      "inputs": [],
      "name": "paused",
      "outputs": [
        {
          "internalType": "bool",
          "name": "",
          "type": "bool"
        }
      ],
      "stateMutability": "view",
      "type": "function"
    },
    {
      "inputs": [
        {
          "internalType": "bytes32",
          "name": "",
          "type": "bytes32"
        }
      ],
      "name": "proposals",
      "outputs": [
        {
          "internalType": "bytes32",
          "name": "proposalId",
          "type": "bytes32"
        },
        {
          "internalType": "address",
          "name": "proposer",
          "type": "address"
        },
        {
          "internalType": "string",
          "name": "description",
          "type": "string"
        },
        {
          "internalType": "uint256",
          "name": "votingDeadline",
          "type": "uint256"
        },
        {
          "internalType": "uint256",
          "name": "forVotes",
          "type": "uint256"
        },
        {
          "internalType": "uint256",
          "name": "againstVotes",
          "type": "uint256"
        },
        {
          "internalType": "uint256",
          "name": "abstainVotes",
          "type": "uint256"
        },
        {
          "internalType": "bool",
          "name": "executed",
          "type": "bool"
        }
      ],
      "stateMutability": "view",
      "type": "function"
    },
    {
      "inputs": [],
      "name": "quorumThreshold",
      "outputs": [
        {
          "internalType": "uint256",
          "name": "",
          "type": "uint256"
        }
      ],
      "stateMutability": "view",
      "type": "function"
    },
    {
      "inputs": [
        {
          "internalType": "bytes32",
          "name": "role",
          "type": "bytes32"
        },
        {
          "internalType": "address",
          "name": "callerConfirmation",
          "type": "address"
        }
      ],
      "name": "renounceRole",
      "outputs": [],
      "stateMutability": "nonpayable",
      "type": "function"
    },
    {
      "inputs": [
        {
          "internalType": "bytes32",
          "name": "role",
          "type": "bytes32"
        },
        {
          "internalType": "address",
          "name": "account",
          "type": "address"
        }
      ],
      "name": "revokeRole",
      "outputs": [],
      "stateMutability": "nonpayable",
      "type": "function"
    },
    {
      "inputs": [
        {
          "internalType": "bytes4",
          "name": "interfaceId",
          "type": "bytes4"
        }
      ],
      "name": "supportsInterface",
      "outputs": [
        {
          "internalType": "bool",
          "name": "",
          "type": "bool"
        }
      ],
      "stateMutability": "view",
      "type": "function"
    },
    {
      "inputs": [],
      "name": "totalVotingSupply",
      "outputs": [
        {
          "internalType": "uint256",
          "name": "",
          "type": "uint256"
        }
      ],
      "stateMutability": "view",
      "type": "function"
    },
    {
      "inputs": [
        {
          "internalType": "uint256",
          "name": "newThreshold",
          "type": "uint256"
        }
      ],
      "name": "updateQuorumThreshold",
      "outputs": [],
      "stateMutability": "nonpayable",
      "type": "function"
    },
    {
      "inputs": [
        {
          "internalType": "address",
          "name": "account",
          "type": "address"
        },
        {
          "internalType": "uint256",
          "name": "newPower",
          "type": "uint256"
        }
      ],
      "name": "updateVotingPower",
      "outputs": [],
      "stateMutability": "nonpayable",
      "type": "function"
    },
    {
      "inputs": [
        {
          "internalType": "bytes32",
          "name": "",
          "type": "bytes32"
        },
        {
          "internalType": "address",
          "name": "",
          "type": "address"
        }
      ],
      "name": "voteSupport",
      "outputs": [
        {
          "internalType": "bool",
          "name": "",
          "type": "bool"
        }
      ],
      "stateMutability": "view",
      "type": "function"
    },
    {
      "inputs": [
        {
          "internalType": "bytes32",
          "name": "",
          "type": "bytes32"
        },
        {
          "internalType": "address",
          "name": "",
          "type": "address"
        }
      ],
      "name": "votes",
      "outputs": [
        {
          "internalType": "uint256",
          "name": "",
          "type": "uint256"
        }
      ],
      "stateMutability": "view",
      "type": "function"
    },
    {
      "inputs": [
        {
          "internalType": "address",
          "name": "",
          "type": "address"
        }
      ],
      "name": "votingPower",
      "outputs": [
        {
          "internalType": "uint256",
          "name": "",
          "type": "uint256"
        }
      ],
      "stateMutability": "view",
      "type": "function"
    }
  ],
  "bytecode": "0x60803461009b57601f61195138819003918201601f19168301916001600160401b0383118484101761009f5780849260209460405283398101031261009b57516001600160a01b03811680820361009b576001600255600a6003551561008c578061006c61007c926100b3565b5061007681610129565b506101bc565b5060405161168190816102508239f35b630b46905560e21b5f5260045ffd5b5f80fd5b634e487b7160e01b5f52604160045260245ffd5b6001600160a01b0381165f9081525f5160206119315f395f51905f52602052604090205460ff16610124576001600160a01b03165f8181525f5160206119315f395f51905f5260205260408120805460ff191660011790553391905f5160206118d15f395f51905f528180a4600190565b505f90565b6001600160a01b0381165f9081525f5160206118f15f395f51905f52602052604090205460ff16610124576001600160a01b03165f8181525f5160206118f15f395f51905f5260205260408120805460ff191660011790553391907fb09aa5aeb3702cfd50b6b62bc4532604938f21248a27a1d5ca736082b6819cc1905f5160206118d15f395f51905f529080a4600190565b6001600160a01b0381165f9081525f5160206119115f395f51905f52602052604090205460ff16610124576001600160a01b03165f8181525f5160206119115f395f51905f5260205260408120805460ff191660011790553391907fbf233dd2aafeb4d50879c4aa5c81e96d92f6e6945c906a58f9f2d1c1631b4b26905f5160206118d15f395f51905f529080a460019056fe6080806040526004361015610012575f80fd5b5f3560e01c90816301ffc9a7146110d05750806311a3d4e314610be157806320df435914610ba7578063210a5e8714610b29578063215809ca14610b0c578063248a9ca314610ada5780632f2ff15d14610a9d57806332ed5b12146109fd5780633566414c146109ce57806336568abe1461098a578063430694cf1461086e5780634a4e3bd51461080857806351858e27146107b05780635c975abb1461078e5780636c1b2b3b146107455780637b7a91dd146107285780638f61f4f5146106ee57806391d14854146106a6578063938351b81461066e5780639386775a1461062a578063980ff6c614610511578063a217fddf146104f7578063a64e024a146104da578063c07473f6146104a2578063c08cc02d14610485578063c66da9971461045d578063cea346da14610440578063d547741f146103fc578063eadc29c71461036c5763f4ae112314610166575f80fd5b346103685760403660031901126103685760243560043581151582036103685761018e6114cc565b6101966115ef565b805f52600560205260405f20805415610355576004810154421161034257335f52600860205260405f205490811561032a577f454cc83674ed9155d8a09a5eb6ba7931a2003cc671a027ba43dc61331b5f8fd0916102bc91845f52600660205260405f2060018060a01b0333165f5260205260405f2054806102db575b505f85815260066020908152604080832033808552908352818420869055888452600783528184209084529091529020805460ff191660ff8815151617905585156102c6576005016102668282546112b6565b90555b60408051861515815260208101839052339186917f9bc1d007e9f894b0900fab4b7e20029267e704c85851e5470c30a1e1b239e0909190a360408051951515865260208601919091523394918291820190565b0390a36001600255005b6006016102d48282546112b6565b9055610269565b5f86815260076020908152604080832033845290915290205460ff16156103145761030b600583019182546113c9565b90555b5f610213565b610323600683019182546113c9565b905561030e565b635bb6618d60e11b5f5233600452600160245260445ffd5b5063f1c40f0d60e01b5f5260045260245ffd5b5063e2acee5b60e01b5f5260045260245ffd5b5f80fd5b3461036857604036600319011261036857610385611139565b7f2a1b0acb0a6fe010db932fc889bec652a0daadc5cafa0d648ada6b79e48937d26040602435926103b46113d6565b6001600160a01b03165f8181526008602052829020805490859055600454919490916103ec9082906103e79085906113c9565b6112b6565b60045582519182526020820152a2005b346103685760403660031901126103685761043e60043561041b611123565b90610439610434825f525f602052600160405f20015490565b611494565b61156f565b005b34610368575f366003190112610368576020600454604051908152f35b3461036857602036600319011261036857602061047b600435611397565b6040519015158152f35b34610368575f366003190112610368576020600954604051908152f35b34610368576020366003190112610368576001600160a01b036104c3611139565b165f526008602052602060405f2054604051908152f35b34610368575f36600319011261036857602060405162278d008152f35b34610368575f3660031901126103685760206040515f8152f35b346103685760203660031901126103685760043561052d6114cc565b6105356115ef565b805f52600560205260405f2080541561035557600881019081549060ff82168015610614575b6106015760048101544211156105ee576105839060045461057e600354926112d7565b61160d565b156105db5760019060ff1916179055805f52600a60205260405f20600160ff198254161790557fe511fe6d5db0bd906cf5790330cb96bfc7d86b06b565baaa537ce7a2659abbcb602060405160018152a26001600255005b826323f694e360e01b5f5260045260245ffd5b836323a56da360e11b5f5260045260245ffd5b8363134c704360e11b5f5260045260245ffd5b50835f52600a60205260ff60405f20541661055b565b3461036857604036600319011261036857610643611123565b6004355f52600660205260405f209060018060a01b03165f52602052602060405f2054604051908152f35b34610368576020366003190112610368576004356009548110156103685761069760209161128a565b90549060031b1c604051908152f35b34610368576040366003190112610368576106bf611123565b6004355f525f60205260405f209060018060a01b03165f52602052602060ff60405f2054166040519015158152f35b34610368575f3660031901126103685760206040517fb09aa5aeb3702cfd50b6b62bc4532604938f21248a27a1d5ca736082b6819cc18152f35b34610368575f366003190112610368576020600354604051908152f35b346103685760403660031901126103685761075e611123565b6004355f52600760205260405f209060018060a01b03165f52602052602060ff60405f2054166040519015158152f35b34610368575f36600319011261036857602060ff600154166040519015158152f35b34610368575f366003190112610368576107c8611425565b6107d06114cc565b600160ff19815416176001557f62e78cea01bee320cd4e420270b5ea74000d11b0c9f74754ebdbfc544b05a2586020604051338152a1005b34610368575f36600319011261036857610820611425565b60015460ff81161561085f5760ff19166001557f5db9ee0a495bf2e6ff9c91a7834c1ba4fdd244a5e8aa4e537bd38aeae4b073aa6020604051338152a1005b638dfc202b60e01b5f5260045ffd5b34610368576020366003190112610368575f61010060405161088f81611187565b828152826020820152606060408201526060808201528260808201528260a08201528260c08201528260e082015201526004355f5260056020526108d560405f206112d7565b6040805160208082528351818301528301516001600160a01b03168183015290820151610120606083015261090f90610140830190611266565b606083015190601f19838203016080840152602080835192838152019201905f5b818110610974575050506101008360808495015160a085015260a081015160c085015260c081015160e085015260e081015182850152015115156101208301520390f35b8251845260209384019390920191600101610930565b34610368576040366003190112610368576109a3611123565b336001600160a01b038216036109bf5761043e9060043561156f565b63334bd91960e11b5f5260045ffd5b34610368576020366003190112610368576004355f52600a602052602060ff60405f2054166040519015158152f35b34610368576020366003190112610368576004355f908152600560205260409020805460018201546001600160a01b031691610a3b600282016111c6565b6004820154916005810154600682015490610a7d60ff600860078601549501541694604051988998895260208901526101006040890152610100880190611266565b946060870152608086015260a085015260c0840152151560e08301520390f35b346103685760403660031901126103685761043e600435610abc611123565b90610ad5610434825f525f602052600160405f20015490565b6114e7565b34610368576020366003190112610368576020610b046004355f525f602052600160405f20015490565b604051908152f35b34610368575f3660031901126103685760206040516203f4808152f35b3461036857602036600319011261036857600435610b456113d6565b80158015610b9d575b610b8b5760407fc33728fb6bc64ec1c5596c946e1406ccdfb7369404098c1d6a5f4a7a29c97b6391600354908060035582519182526020820152a1005b63373bb34360e21b5f5260045260245ffd5b5060648111610b4e565b34610368575f3660031901126103685760206040517fbf233dd2aafeb4d50879c4aa5c81e96d92f6e6945c906a58f9f2d1c1631b4b268152f35b346103685760803660031901126103685760043560243567ffffffffffffffff8111610368573660238201121561036857806004013567ffffffffffffffff81116103685760248201916024823692010111610368576044359167ffffffffffffffff831161036857366023840112156103685782600401359067ffffffffffffffff8211610368578160051b60248186010136811161036857335f9081527f3412d5605ac6cd444957cedb533e5dacad6378b4bc819ebe3652188a665066d560205260409020546064359060ff161561109957610cbd6114cc565b875f52600560205260405f2054611086576203f4808110801561107a575b61106857610ce990426112b6565b9360405192610cf784611187565b8884526020840192338452601f19601f8901169860405193610d1c60208c01866111a4565b898552898860208701375f60208b8701015260408701948552610d4560206040519501856111a4565b8352602401602083015b82821061105857505050606084019081526080840186815260a08501905f825260c08601925f845260e08701945f86526101008801965f88528d5f52600560205260405f2098518955600189019060018060a01b039051166bffffffffffffffffffffffff60a01b82541617905560028801905180519067ffffffffffffffff8211610f4c578190610de1845461114f565b601f8111611008575b50602090601f8311600114610fa5575f92610f9a575b50508160011b915f199060031b1c19161790555b51805190600388019067ffffffffffffffff8311610f4c57600160401b8311610f4c578154838355808410610f74575b50602001905f5260205f205f5b838110610f6057505050509160089391610e9596959351600487015551600586015551600685015551600784015551151591019060ff801983541691151516179055565b60095491600160401b831015610f4c575f60608795610edb8660017f1a16e2cf01286eef185439886aefd065b2d40834ba878dedda5a0498c6fa10da980160095561128a565b81549060031b9089821b918619901b19161790558060405195604087528160408801528387013784010152602082015260608133958101030190a360405190600182525f60208301527f454cc83674ed9155d8a09a5eb6ba7931a2003cc671a027ba43dc61331b5f8fd060403393a3005b634e487b7160e01b5f52604160045260245ffd5b600190602084519401938184015501610e51565b825f528360205f2091820191015b818110610f8f5750610e44565b5f8155600101610f82565b015190508f80610e00565b5f8581528281209350601f198516905b818110610ff05750908460019594939210610fd8575b505050811b019055610e14565b01515f1960f88460031b161c191690558f8080610fcb565b92936020600181928786015181550195019301610fb5565b909150835f5260205f20601f840160051c8101916020851061104e575b90601f859493920160051c01905b8181106110405750610dea565b5f8155849350600101611033565b9091508190611025565b8135815260209182019101610d4f565b6361e539df60e01b5f5260045260245ffd5b5062278d008111610cdb565b876335ab40d360e21b5f5260045260245ffd5b63e2517d3f60e01b5f52336004527fb09aa5aeb3702cfd50b6b62bc4532604938f21248a27a1d5ca736082b6819cc160245260445ffd5b34610368576020366003190112610368576004359063ffffffff60e01b821680920361036857602091637965db0b60e01b8114908115611112575b5015158152f35b6301ffc9a760e01b1490508361110b565b602435906001600160a01b038216820361036857565b600435906001600160a01b038216820361036857565b90600182811c9216801561117d575b602083101461116957565b634e487b7160e01b5f52602260045260245ffd5b91607f169161115e565b610120810190811067ffffffffffffffff821117610f4c57604052565b90601f8019910116810190811067ffffffffffffffff821117610f4c57604052565b9060405191825f8254926111d98461114f565b80845293600181169081156112445750600114611200575b506111fe925003836111a4565b565b90505f9291925260205f20905f915b8183106112285750509060206111fe928201015f6111f1565b602091935080600191548385890101520191019091849261120f565b9050602092506111fe94915060ff191682840152151560051b8201015f6111f1565b805180835260209291819084018484015e5f828201840152601f01601f1916010190565b6009548110156112a25760095f5260205f2001905f90565b634e487b7160e01b5f52603260045260245ffd5b919082018092116112c357565b634e487b7160e01b5f52601160045260245ffd5b906040516112e481611187565b8254815260018301546001600160a01b0316602082015291829061130a600282016111c6565b6040830152600381016040519081602082549182815201915f5260205f20905f5b81811061138157505050610100928261134a60ff9460089403826111a4565b606086015260048101546080860152600581015460a0860152600681015460c0860152600781015460e08601520154161515910152565b825484526020909301926001928301920161132b565b5f5260056020526113aa60405f206112d7565b8051156113c4576113c1906004546003549161160d565b90565b505f90565b919082039182116112c357565b335f9081527fad3228b676f7d3cd4284a5443f17f1962b36e491b30a40b2405849e597ba5fb5602052604090205460ff161561140e57565b63e2517d3f60e01b5f52336004525f60245260445ffd5b335f9081527f3c1b1854ab1360abbb06c8d4c6b2672d4b8cedc5eff522ab19e51d5cb8fdbd46602052604090205460ff161561145d57565b63e2517d3f60e01b5f52336004527fbf233dd2aafeb4d50879c4aa5c81e96d92f6e6945c906a58f9f2d1c1631b4b2660245260445ffd5b5f8181526020818152604080832033845290915290205460ff16156114b65750565b63e2517d3f60e01b5f523360045260245260445ffd5b60ff600154166114d857565b63d93c066560e01b5f5260045ffd5b5f818152602081815260408083206001600160a01b038616845290915290205460ff16611569575f818152602081815260408083206001600160a01b0395909516808452949091528120805460ff19166001179055339291907f2f8788117e7eff1d82e926ec794901d17c78024a50270940304540a733656f0d9080a4600190565b50505f90565b5f818152602081815260408083206001600160a01b038616845290915290205460ff1615611569575f818152602081815260408083206001600160a01b0395909516808452949091528120805460ff19169055339291907ff6391f5c32d9c69d2a47ea670b442974b53935d1edc7fd64eb21e047a839171b9080a4600190565b60028054146115fe5760028055565b633ee5aeb560e01b5f5260045ffd5b919081158015611641575b61163a578181029181830414901517156112c357606460a09104910151101590565b5050505f90565b506064821161161856fea26469706673582212206daa55b0dc3f679bd1d4de76a1400f4547db5a450dab4d300b70a397695e823164736f6c634300081e00332f8788117e7eff1d82e926ec794901d17c78024a50270940304540a733656f0d3412d5605ac6cd444957cedb533e5dacad6378b4bc819ebe3652188a665066d53c1b1854ab1360abbb06c8d4c6b2672d4b8cedc5eff522ab19e51d5cb8fdbd46ad3228b676f7d3cd4284a5443f17f1962b36e491b30a40b2405849e597ba5fb5",
  "linkReferences": {},
  "deployedLinkReferences": {}
}